:020000040800F2
:1000000000000520511B00086D1A00086F1A000837
:10001000711A0008731A0008751A00080000000021
:10002000000000000000000000000000C18900087E
:10003000771A000800000000618A0008C58A0008DD
:10004000A11B0008A11B0008A11B0008A11B0008A0
:10005000A11B0008A11B0008A11B0008A11B000890
:10006000A11B0008A11B0008A11B0008A11B000880
:10007000A11B0008A11B0008A11B0008A11B000870
:10008000A11B0008A11B0008A11B0008A11B000860
:10009000A11B0008A11B0008A11B0008A11B000850
:1000A000A11B0008A11B0008A11B0008A11B000840
:1000B000A11B0008A11B0008A11B0008A11B000830
:1000C000A11B0008A11B0008A11B0008A11B000820
:1000D000A11B0008A11B0008A11B0008A11B000810
:1000E000A11B0008A11B0008A11B0008A11B000800
:1000F000A11B0008A11B0008A11B0008A11B0008F0
:10010000A11B0008A11B0008A11B0008A11B0008DF
:10011000A11B0008A11B0008791A0008A11B0008F8
:10012000A11B0008A11B0008A11B0008A11B0008BF
:10013000A11B0008A11B0008A11B0008A11B0008AF
:10014000A11B0008A11B0008A11B0008A11B00089F
:10015000A11B0008A11B0008A11B0008A11B00088F
:10016000A11B0008A11B0008A11B0008A11B00087F
:10017000A11B0008A11B0008A11B00080000000033
:10018000A11B0008A11B0008A11B0008A11B00085F
:10019000A11B0008A11B0008A11B0008A11B00084F
:1001A000851A0008A11B0008911A0008A11B00086D
:1001B000A11B0008A11B0008A11B0008A11B00082F
:0801C000A11B0008A11B0008AF
:1001D00010B5054C237833B9044B13B10448AFF381
:1001E00000800123237010BD4003002000000000A8
:1001F0004827030808B5034B1BB103490348AFF375
:10020000008008BD000000004403002048270308C8
:1002100001F0FF01102A2BDB10F0070F08D010F8B7
:10022000013B013A8B422DD010F0070F42B3F6D1BB
:10023000F0B441EA012141EA014122F007047FF0D4
:1002400000070023F0E80256083C85EA010586EA2B
:10025000010685FA47F5A3FA87F586FA47F6A5FA67
:1002600087F68EB9EED1F0BC01F0FF0102F0070273
:1002700032B110F8013B013A83EA010313B1F8D11E
:100280000020704701387047002D06BF35460338FF
:10029000073815F0010F07D1013015F4807F02BF38
:1002A000013015F4C03F0130F0BC0138704700BF89
:1002B00081F0004102E000BF83F0004330B54FEA17
:1002C00041044FEA430594EA050F08BF90EA020F84
:1002D0001FBF54EA000C55EA020C7FEA645C7FEA17
:1002E000655C00F0E2804FEA5454D4EB5555B8BF3A
:1002F0006D420CDD2C4480EA020281EA030382EAAB
:10030000000083EA010180EA020281EA0303362D3C
:1003100088BF30BD11F0004F4FEA01314FF4801C0F
:100320004CEA113102D0404261EB410113F0004F21
:100330004FEA03334CEA133302D0524263EB4303D8
:1003400094EA050F00F0A780A4F10104D5F1200E76
:100350000DDB02FA0EFC22FA05F2801841F10001D1
:1003600003FA0EF2801843FA05F359410EE0A5F1A5
:1003700020050EF1200E012A03FA0EFC28BF4CF0D6
:10038000020C43FA05F3C01851EBE37101F000458C
:1003900007D54FF0000EDCF1000C7EEB00006EEB99
:1003A0000101B1F5801F1BD3B1F5001F0CD3490823
:1003B0005FEA30004FEA3C0C04F101044FEA44527A
:1003C00012F5800F80F09A80BCF1004F08BF5FEA01
:1003D000500C50F1000041EB045141EA050130BDE1
:1003E0005FEA4C0C404141EB0101013C28BFB1F5F3
:1003F000801FE9D291F0000F04BF01460020B1FA3E
:1004000081F308BF2033A3F10B03B3F120020CDA10
:100410000C3208DD02F1140CC2F10C0201FA0CF0EE
:1004200021FA02F10CE002F11402D8BFC2F1200C53
:1004300001FA02F120FA0CFCDCBF41EA0C01904009
:10044000E41AA2BF01EB0451294330BD6FEA040452
:100450001F3C1CDA0C340EDC04F11404C4F120023D
:1004600020FA04F001FA02F340EA030021FA04F34F
:1004700045EA030130BDC4F10C04C4F1200220FAA6
:1004800002F001FA04F340EA0300294630BD21FAE4
:1004900004F0294630BD94F0000F83F4801306BFAA
:1004A00081F480110134013D4EE77FEA645C18BF9E
:1004B0007FEA655C29D094EA050F08BF90EA020F35
:1004C00005D054EA000C04BF1946104630BD91EA2D
:1004D000030F1EBF0021002030BD5FEA545C05D130
:1004E0004000494128BF41F0004130BD14F580046F
:1004F0003CBF01F5801130BD01F0004545F0FE41E3
:1005000041F470014FF0000030BD7FEA645C1ABF17
:10051000194610467FEA655C1CBF0B46024650EA4E
:10052000013406BF52EA033591EA030F41F400217A
:1005300030BD00BF90F0000F04BF0021704730B500
:100540004FF4806404F132044FF000054FF00001D5
:1005500050E700BF90F0000F04BF0021704730B596
:100560004FF4806404F1320410F0004548BF40426B
:100570004FF000013EE700BF42004FEAE2014FEAC0
:1005800031014FEA02701FBF12F07F4393F07F4F9B
:1005900081F06051704732F07F4208BF704793F09E
:1005A0007F4F04BF41F40021704730B54FF46074B1
:1005B00001F0004521F000411CE700BF50EA0102B4
:1005C00008BF704730B54FF000050AE050EA01025D
:1005D00008BF704730B511F0004502D5404261EBCD
:1005E00041014FF4806404F132045FEA915C3FF40E
:1005F000D8AE4FF003025FEADC0C18BF03325FEAAB
:10060000DC0C18BF033202EBDC02C2F1200300FA5B
:1006100003FC20FA02F001FA03FE40EA0E0021FA80
:1006200002F11444BDE600BF70B54FF0FF0C4CF46E
:10063000E06C1CEA11541DBF1CEA135594EA0C0F20
:1006400095EA0C0F00F0DEF82C4481EA030621EA5B
:100650004C5123EA4C5350EA013518BF52EA033596
:1006600041F4801143F4801338D0A0FB02CE4FF048
:100670000005E1FB02E506F00042E0FB03E54FF078
:100680000006E1FB03569CF0000F18BF4EF0010E70
:10069000A4F1FF04B6F5007F64F5407404D25FEA6C
:1006A0004E0E6D4146EB060642EAC62141EA55511F
:1006B0004FEAC52040EA5E504FEACE2EB4F1FD0C61
:1006C00088BFBCF5E06F1ED8BEF1004F08BF5FEADF
:1006D000500E50F1000041EB045170BD06F0004691
:1006E00046EA010140EA020081EA0301B4EB5C043E
:1006F000C2BFD4EB0C0541EA045170BD41F4801136
:100700004FF0000E013C00F3AB8014F1360FDEBF5A
:10071000002001F0004170BDC4F10004203C35DA36
:100720000C341BDC04F11404C4F1200500FA05F3B9
:1007300020FA04F001FA05F240EA020001F000425A
:1007400021F0004110EBD37021FA04F642EB0601D0
:100750005EEA430E08BF20EAD37070BDC4F10C04FA
:10076000C4F1200500FA04F320FA05F001FA04F2BE
:1007700040EA020001F0004110EBD37041F10001AA
:100780005EEA430E08BF20EAD37070BDC4F12005B5
:1007900000FA05F24EEA020E20FA04F301FA05F21D
:1007A00043EA020321FA04F001F0004121FA04F2C5
:1007B00020EA020000EBD3705EEA430E08BF20EA95
:1007C000D37070BD94F0000F0FD101F000464000CF
:1007D00041EB010111F4801F08BF013CF7D041EA51
:1007E000060195F0000F18BF704703F00046520055
:1007F00043EB030313F4801F08BF013DF7D043EA26
:100800000603704794EA0C0F0CEA135518BF95EADB
:100810000C0F0CD050EA410618BF52EA4306D1D162
:1008200081EA030101F000414FF0000070BD50EA81
:10083000410606BF1046194652EA430619D094EA0B
:100840000C0F02D150EA013613D195EA0C0F05D1F5
:1008500052EA03361CBF104619460AD181EA030149
:1008600001F0004141F0FE4141F470014FF0000001
:1008700070BD41F0FE4141F4780170BD70B54FF09C
:10088000FF0C4CF4E06C1CEA11541DBF1CEA13551C
:1008900094EA0C0F95EA0C0F00F0A7F8A4EB0504FE
:1008A00081EA030E52EA03354FEA013100F08880F5
:1008B0004FEA03334FF0805545EA131343EA1263BE
:1008C0004FEA022245EA111545EA10654FEA002673
:1008D0000EF000419D4208BF964244F1FD0404F52C
:1008E000407402D25B084FEA3202B61A65EB030588
:1008F0005B084FEA32024FF480104FF4002CB6EB45
:10090000020E75EB030E22BFB61A754640EA0C00C4
:100910005B084FEA3202B6EB020E75EB030E22BF04
:10092000B61A754640EA5C005B084FEA3202B6EB45
:10093000020E75EB030E22BFB61A754640EA9C0004
:100940005B084FEA3202B6EB020E75EB030E22BFD4
:10095000B61A754640EADC0055EA060E18D04FEA92
:10096000051545EA16754FEA06164FEAC30343EA32
:1009700052734FEAC2025FEA1C1CC0D111F4801FFF
:100980000BD141EA00014FF000004FF0004CB6E7F8
:1009900011F4801F04BF01430020B4F1FD0C88BF97
:1009A000BCF5E06F3FF6AFAEB5EB030C04BFB6EBA2
:1009B000020C5FEA500C50F1000041EB045170BD95
:1009C0000EF0004E4EEA113114EB5C04C2BFD4EBC2
:1009D0000C0541EA045170BD41F480114FF0000E46
:1009E000013C90E645EA060E8DE60CEA135594EAC2
:1009F0000C0F08BF95EA0C0F3FF43BAF94EA0C0FC5
:100A00000AD150EA01347FF434AF95EA0C0F7FF439
:100A100025AF104619462CE795EA0C0F06D152EA8D
:100A200003353FF4FDAE1046194622E750EA410671
:100A300018BF52EA43067FF4C5AE50EA41047FF482
:100A40000DAF52EA43057FF4EBAE12E74FEA4102E5
:100A5000B2F1E04324BFB3F5001CDCF1FE5C0DD91C
:100A600001F0004C4FEAC0024CEA5070B2F1004F66
:100A700040EB830008BF20F00100704711F0804F69
:100A800021D113F13872BCBF01F00040704741F42E
:100A900080114FEA5252C2F11802C2F1200C10FA32
:100AA0000CF320FA02F018BF40F001004FEAC12316
:100AB0004FEAD32303FA0CFC40EA0C0023FA02F3BA
:100AC0004FEA4303CCE77FEA625307D150EA013390
:100AD0001EBF4FF0FE4040F44000704701F0004060
:100AE00040F0FE4040F40000704700BF7BB972B98F
:100AF0000029BEBF00204FF0004106E008BF0028DB
:100B00001CBF6FF000414FF0FF3000F0B5B9ADF100
:100B1000080C6DE904CE002909DB002B1ADB00F07C
:100B20004DF8DDF804E0DDE9022304B070474042EF
:100B300061EB4101002B1BDB00F040F8DDF804E025
:100B4000DDE9022304B0404261EB4101524263EB14
:100B500043037047524263EB430300F02FF8DDF884
:100B600004E0DDE9022304B0404261EB410170473B
:100B7000524263EB430300F021F8DDF804E0DDE9C5
:100B8000022304B0524263EB4303704753B94AB99E
:100B9000002908BF00281CBF4FF0FF314FF0FF3085
:100BA00000F06AB9ADF1080C6DE904CE00F006F86A
:100BB000DDF804E0DDE9022304B070472DE9F047D9
:100BC000089D0C46002B4ED194468C458646B2FAC1
:100BD00082F262D94AB1C2F12003914020FA03F3B4
:100BE0000CFA02FC194300FA02FE4FEA1C471FFAF6
:100BF0008CF6B1FBF7F44FEA1E4307FB141143EAEE
:100C0000014304FB06F199420AD91CEB030304F1EA
:100C1000FF3080F01281994240F20F81023C634420
:100C2000591A1FFA8EF3B1FBF7F007FB101143EAD4
:100C3000014300FB06F69E420AD91CEB030300F1B8
:100C4000FF3180F0FC809E4240F2F980634402381C
:100C50009B1B40EA044000211DB1D3400022C5E99E
:100C60000032BDE8F0878B4205D90DB1C5E900011E
:100C700000210846F5E7B3FA83F1002946D1A342E3
:100C800002D39042C0F0F080861A64EB0303012087
:100C9000002DE6D0C5E90063E3E7002A40F090802C
:100CA000A1EB0C044FEA1C481FFA8CF70121B4FB9E
:100CB000F8F64FEA1E4308FB164443EA044307FBD9
:100CC00006F0984208D91CEB030306F1FF3402D268
:100CD000984200F2CD8026461C1A1FFA8EF3B4FB10
:100CE000F8F008FB104443EA044300FB07F79F4277
:100CF00008D91CEB030300F1FF3402D29F4200F23B
:100D0000B0802046DB1B40EA0640A5E7C1F1200683
:100D10008B4022FA06F71F4320FA06FC04FA01F37F
:100D200043EA0C03F44000FA01F8380C4FEA134987
:100D3000B4FBF0FE1FFA87FC00FB1E4449EA0444A2
:100D40000EFB0CF9A14502FA01F20AD93C190EF189
:100D5000FF3A80F08480A14540F28180AEF1020E1E
:100D60003C44A4EB09041FFA83F9B4FBF0F300FB45
:100D7000134449EA044403FB0CFCA44507D93C197D
:100D800003F1FF3067D2A44565D9023B3C4443EAF6
:100D90000E40A0FB0293A4EB0C049C42CE469C4662
:100DA00051D34ED055B1B8EB0E0364EB0C0404FAEA
:100DB00006F6CB401E43CC40C5E90064002150E755
:100DC000C2F1200320FA03F10CFA02FC24FA03F327
:100DD00094400C434FEA1C4800FA02FE1FFA8CF7BD
:100DE000B3FBF8F008FB1031230C43EA014300FB8E
:100DF00007F1994208D91CEB030300F1FF362CD20E
:100E000099422AD9023863445B1AA4B2B3FBF8F1C1
:100E100008FB113344EA034401FB07F3A34208D95A
:100E20001CEB040401F1FF3613D2A34211D902399D
:100E30006444E41A41EA004139E70446F0E6084612
:100E400006E7C845AED2B9EB020E63EB070C0138DA
:100E5000A8E73146EDE7034699E73046D4E7D646A2
:100E60007FE7634402384DE70646234608460FE70E
:100E7000023E634430E700BF704700BF00220221FA
:100E8000014805F093B900BF0020024008B50221D7
:100E90000D4805F090F90D4A13780133DBB2092BA8
:100EA000137010D90A4BB7EE007AD3ED007A77EEC3
:100EB000877AC3ED007A00231370064B1868BDE8EB
:100EC000084007F0DBBA08BD002002405C030020A8
:100ED00004000020700300200149002008F06EBFCC
:100EE0000D20000808B5642007F07EF9FBE708B57F
:100EF000FFF7C4FFFFF7CAFF642007F075F9F9E7B1
:100F000010B594B01022002102240AA830F0DEFCB3
:100F10001422002103A830F0D9FC1D4B192108A888
:100F20001A6C42F080521A641B6C03F080530193D8
:100F3000019B184B1A6842F440421A6001221B6858
:100F400003F440430293029B4FF48033CDE908231E
:100F50004FF48003CDE90E434FF4D873CDE912442A
:100F6000CDE9101306F010F905F06EFE0F230020F6
:100F70000721CDE903344FF4A053CDE905034FF425
:100F8000805303A8079306F0E7FA14B010BD00BF22
:100F9000003802400070004030B54FF480738FB0CD
:100FA0004FF080720E4D06939F2309920122009309
:100FB00000230446694628460593CDE90A2341F2F9
:100FC0008832CDE90733CDE90C3305F0A9FF41F2B2
:100FD00088322146284606F073F80FB030BD00BFB6
:100FE000B803002000B54FF4807391B04FF0407209
:100FF000EF2808934FF0EB0302A90D4802934FF43A
:10100000406309934FF4005305934FF00003CDE97B
:101010000A3214BF0A2206220F9307926A46CDE9CC
:101020000D33CDE9003305F0C0FF11B05DF804FBCE
:10103000B80300202DE980489BB010220021012533
:101040000DA84FF0104930F041FC002404F042FD9F
:10105000C74B0DA8ADF834501094CDE90E9304F0B1
:1010600057FD17230DA88DF835508DF83C308DF8BD
:10107000425004F04DFD042004F03AFDBFF34F8FC1
:10108000BFF36F8FBB4AC2F85042BFF34F8FBFF31D
:101090006F8F536943F400335361BFF34F8FBFF336
:1010A0006F8FC2F88440BFF34F8FD2F8803043F681
:1010B000E074C3F3C900C3F34E335B0103EA0406D3
:1010C000014646EA81750139C2F86052F9D2203BE7
:1010D00013F1200FF2D1BFF34F8F536943F48033E4
:1010E0005361BFF34F8FBFF36F8F04F059FC00249F
:1010F000FFF706FF142200210DA830F0E7FB9E4BFE
:1011000010219E481A6B01274FF010084FF0030B77
:1011100042F010024FF0400A994D4FF004091A6353
:101120001A6B984E02F010020292029A1A6B42F069
:1011300002021A631A6B02F002020392039A1A6BFC
:1011400042F001021A631A6B02F001020492049A3F
:101150001A6B42F040021A631A6B02F040020592C9
:10116000059A1A6B42F400721A631A6B02F4007249
:101170000692069A1A6B42F008021A631A6B02F082
:1011800008020792079A1A6B42F480621A631A6B7C
:1011900002F480620892089A1A6B42F020021A63E5
:1011A0001A6B02F020020992099A1A6B42F48072BB
:1011B0001A631A6B02F480720A920A9A1A6B42F04E
:1011C00080021A631A6B02F080020B920B9A1A6B60
:1011D00042F004021A6300221B6B03F004030C9319
:1011E0000C9B04F0E3FF01220821674804F0DEFFB6
:1011F00000220221654804F0D9FF01224FF48051FA
:10120000624804F0D3FF0022C021614804F0CEFF01
:10121000002240215F4804F0C9FF0DA95748CDE9DD
:101220000D87CDE90F4B04F03DFE08230DA956486C
:10123000CDE90D37CDE90F4404F034FE41F202024E
:101240000DA95248CDE90D27CDE90F4404F02AFE3F
:10125000C0220DA94E48CDE90D27CDE90F4B04F072
:1012600021FE0DA94B48CDE90DA7CDE90F4B04F0A8
:1012700019FE4948494A848002600762C0E9054472
:1012800004F072FC464A2846C5E90024C5E9024438
:10129000C5E90A44C5E90C4404F005FD3946284671
:1012A000404D04F0B9FD404A4FF40063C6F814A065
:1012B0004FF0020A0DA93046B460B462CDF84CA0DC
:1012C000C6E900244FF4C072C6E906244FF48052E8
:1012D000C6E908320722C6E90398CDE90DA2CDE997
:1012E0000F92CDE911BA06F08DFC29464FF6FF7238
:1012F00030460194C5E90078C5E9027406F0A2FC05
:10130000384604F071FB29464FF6FF723046C5E9B6
:1013100000A8C5E9027406F095FC082329464FF69B
:10132000FF723046C5E900B8C5E9023406F08AFC10
:101330004FF40C734FF6FF72294601933046019B20
:10134000AF60EB60C5E9009806F07CFC40F22B71C1
:101350003046164D06F095FC4FF0204343F2D20282
:10136000642040F215261A6004F03EFB20E000BF26
:101370001B00000300ED00E00038024000040240C2
:1013800000050020840300200028024000200240C5
:1013900000080240001802404005002000300240D2
:1013A00000B0024060030020400100A0AC04002017
:1013B000514B524A28462C62C5E90023C5E9024731
:1013C000C5E90444C5E9064405F031F8214628463C
:1013D00005F054FA21462846494D05F075FA3422A5
:1013E00021460DEB020030F071FA464B28213520E2
:1013F00040F2352C2C61AC8685F83640C5E90034C6
:101400000923C5E905130B23C5E9070340F21B13A4
:101410002846C5E9096340F21D13C5E90244C5E940
:101420000BC305F0FDFAFF214FF4806E4FF4F0720C
:101430004FF4887328460D941893ADF864408DF8E6
:101440006640CDE912140521CDE914E14FF0404189
:10145000CDE90E24CDE9161222460DA9CDE9103AA8
:1014600005F0A9FB2848294B0462C0E90037C0E910
:1014700002984FF4A0634FF01808C0E90644C0E991
:10148000048305F0FBFC0DA8FFF786FD9DF83400F2
:10149000FFF7A8FD5C2004F00BFB00F057FB00F009
:1014A00081FB00F07EFB06F011FE194A39463846F2
:1014B00006F050FF174B184A21461860174806F0EF
:1014C0003FFE174B174A21461860174806F038FEB2
:1014D000164B174A21461860164806F031FE164B87
:1014E000164A21461860164806F02AFE154B186069
:1014F00006F006FEFEE700BF68474020005C0040A3
:101500000404002000680140B8030020001000A07F
:10151000A42803087003002020290308E50E000812
:1015200080030020FC280308B31B00087C03002074
:10153000D8280308CD36000878030020B428030813
:10154000EF0E0008740300200268034B9A4201D199
:1015500004F038BA704700BF001000407047000028
:101560000D4B82B00F216FF001001A6C42F08052D7
:101570001A641A6C02F080520092009A5A6C42F47B
:1015800080425A6400225B6C03F480430193019B08
:1015900002B004F04DBA00BF00380240026882B0C9
:1015A000084B9A420BD1D3F8302803F5006342F47C
:1015B00080521A631B6B03F480530193019B02B0AA
:1015C000704700BF003002400E4B07B502689A42D8
:1015D00015D1A3F5F04305215A201A6B42F40002FD
:1015E0001A6300221B6B03F400030193019B04F0B8
:1015F0001FFA5A2003B05DF804EB04F04BBA03B0B5
:101600005DF804FB00B0024010B5A8B004461422F7
:10161000002102A830F05AF98422002107A830F0F6
:1016200055F92268174B9A422AD14FF4803307A804
:10163000079306F05DF808B1FFF790FF124C4FF4E6
:10164000C07201211148236B43F080032363236B95
:1016500003F080030093009B1223CDE902230323B0
:10166000CDE90413042302A9069304F01BFC236CA8
:1016700043F400032364236C03F400030193019BF0
:1016800028B010BD005C004000380240001C024041
:10169000026808B5094B9A420FD1094A80210948CE
:1016A000136C23F40003136404F0E0FC4FF4807126
:1016B0000448BDE8084004F0D9BC08BD005C004007
:1016C00000380240001C024070B5ACB00446142241
:1016D000002106A830F0FAF8842200210BA830F08F
:1016E000F5F82268484B9A4240F08C800823052088
:1016F00001240B934FF4C07310930223CDE91130F2
:101700004FF400330BA8CDE9154305F0F1FF08B104
:10171000FFF724FF3D4B002402250E265A6C06A934
:101720003B4842F080625A645A6C02F08062009238
:10173000009A1A6B42F010021A631A6B02F0100240
:101740000192019A1A6B42F400721A631A6B02F446
:1017500000720292029A1A6B42F480621A631A6B48
:1017600002F480620392039A1A6B42F040021A63F9
:101770001A6B02F040020492049A1A6B42F48072CF
:101780001A631B6B03F480730593059B1023CDE94B
:101790000635CDE908440A9604F084FB4EF6FF7343
:1017A00006A91C480A96CDE90635CDE9084404F09F
:1017B00079FBF72306A918480A96CDE90635CDE945
:1017C000084404F06FFB4FF4805306A91348CDE999
:1017D00006350923CDE908440A9304F063FB4FF46E
:1017E000464306A90E480A96CDE90635CDE90844D8
:1017F00004F058FB58202246052104F019F958201E
:1018000004F048F92CB070BD006801400038024077
:10181000001002400024024000280240001802404C
:1018200000200240142200212DE9F0418AB0044634
:101830000DEB020030F04AF822682C4B9A4251D14D
:101840002B4B0225032409269A6B4FF0040805A9A7
:10185000284842F0020200279A639A6B02F00202C3
:101860000192019A1A6B42F010021A631A6B02F08D
:1018700010020292029A1A6B42F002021A631A6B69
:1018800002F002020392039A1A6B42F008021A63F2
:101890001B6B03F008030493049BCDE90585CDE998
:1018A000084604F0FFFA402305A91348CDE90535A1
:1018B0000A23CDE90774099304F0F4FA05A90E4848
:1018C0000996CDE90585CDE9077404F0EBFA4FF4EC
:1018D000605305A909480996CDE90535CDE9077496
:1018E00004F0E0FA0AB0BDE8F08100BF001000A0EB
:1018F000003802400010024000040240000C024088
:10190000F0B5002387B00393294B1E68002E4DD1FC
:101910000122022703250C241A6001A9254B264821
:101920009A6B42F001029A639B6B03F001030093F0
:10193000009B4FF68373CDE90454CDE9013704F0E1
:10194000B1FA48F2331301A91C480594CDE90137D7
:10195000CDE9036504F0A6FA4CF2037301A9184817
:101960000594CDE90137CDE9036504F09BFA4FF604
:101970003F0301A913480594CDE90137CDE903657B
:1019800004F090FA282301A90F480594CDE9013706
:10199000CDE9036504F086FA082301A90B480594F4
:1019A000CDE90137CDE9036504F07CFA07B0F0BD5D
:1019B0006405002000380240001002400018024078
:1019C000000C024000140240001C024000080240CB
:1019D000214B1A6C42F0100270B51A6488B01B6C6F
:1019E000054601A903A803F010030293029B05F02A
:1019F00061FE069B4BBB05F04DFE184E184B336045
:101A000040F2E733F360174BB0FBF3F3013B304692
:101A1000736000233361B360B36106F099FA044642
:101A200080B9304606F046F9044658B9362004F02D
:101A300031F80F2D0DD822462946362003F0F8FF45
:101A4000094B1D60204608B070BD05F023FE400024
:101A5000D3E70124F6E700BF003802406805002004
:101A60000010004040420F00440000207047FEE795
:101A7000FEE7FEE7FEE77047014806F05DB900BFEC
:101A800068050020014805F039B800BF04040020B3
:101A9000014804F036B900BF00050020012070475E
:101AA00008B52FF0C7FF162303604FF0FF3008BDC5
:101AB00008B52FF0BFFF16230360FEE770B50D4693
:101AC00014460E46731B9C4201DC204670BDAFF3EA
:101AD000008006F8010BF5E770B50D4614460E467A
:101AE000731B9C4201DC204670BD16F8010BAFF35E
:101AF0000080F5E74FF0FF3070474FF400530020AF
:101B00004B60704701207047002070470B4A034626
:101B1000116810B509B90A491160106809490A4CE1
:101B20000344091B8B4206D92FF084FF0C2303606A
:101B30004FF0FF3010BD1360FCE700BFB40500207C
:101B40001065012000000520000A00007047000019
:101B5000DFF834D0002103E00C4B5B5843500431D4
:101B60000B480C4B42189A42F6D30B4A02E0002372
:101B700042F8043B094B9A42F9D303F029FE2FF0B7
:101B80005FFFFFF757FA704700000520D880030871
:101B9000000000202C0100204003002010650120DF
:101BA000FEE7704708B501F06BF9BDE8084001F0A9
:101BB000EFB801F067B940687047416070470000B6
:101BC0004FF0E022D2F8FC3D43F08073C2F8FC3DB8
:101BD000054B064AD3F8B01F0A43C3F8B02F1A6862
:101BE00042F001021A607047001000E055CEACC50B
:101BF000521A02EB5302B2FBF3F07047014B5868E4
:101C0000704700BF001000E0704710B504460C217B
:101C10002EF05AFC204610BD036810B51B6904461F
:101C200031B19847A26863689B1A0344636010BD92
:101C30009847A060FBE70000024B7020024A136047
:101C4000DB68184718000020B8050020704710B561
:101C5000044604212EF038FC204610BD73B50E4E0C
:101C60000D461446336813B9002002B070BD1B69DD
:101C7000702098470028F7D03368702001AA0DF132
:101C800006015B699847BDF8043001202B60BDF860
:101C900006302360E9E700BFB80500207FB50123C7
:101CA0008DF817204FF47A72CDE901320DF1170249
:101CB00000920A460146054804F028FC10B103488A
:101CC00004F00AFC07B05DF804FB00BFAC04002080
:101CD0007FB500230A464FF47A718DF8173001233F
:101CE000CDE901310DF1170100910146054804F0DD
:101CF000E7FC10B1034804F0EFFB9DF8170007B0B4
:101D00005DF804FBAC04002001280ED0022814D09A
:101D1000D0B90E4B00F1804010211A6800F5013057
:101D2000B2FA82F2520904F041BA084B40215A68D3
:101D3000B2FA82F252090648F5E7044B80219A680C
:101D4000B2FA82F25209F6E7704700BFBC050020E4
:101D50000008024001280ED0022814D0D0B90E4B42
:101D600000F1804010211A6800F50130003A18BFD8
:101D7000012204F01BBA084B40215A68003A18BFF0
:101D800001220648F5E7044B80219A68003A18BF03
:101D90000122F6E7704700BFBC05002000080240A2
:101DA000012809D002280AD058B900F1804010213A
:101DB00000F5013004F0FFB940210248FAE7802124
:101DC000FBE7704700080240012808B50DD0022843
:101DD0000ED078B900F18040102100F5013004F0F8
:101DE000DFF9431E5842584108BD40210248F6E73A
:101DF0008021FBE70020F4E70008024070B5084DA1
:101E000000240126E0B2FFF7DFFF18B12B68012B99
:101E100018BF2E6001340435052CF3D170BD00BF0E
:101E2000BC050020012380F8781080F879307047D5
:101E30000020704741640039024B18BF012119701E
:101E4000704700BFCF57012000207047836B0BB154
:101E50000846184770474FF6FF70704740680368A0
:101E60009B6918477047000038B5044601F058F9DF
:101E7000084923682046084DD3F88C309847002342
:101E8000284684F84A30FFF79BFE0123256184F839
:101E9000703038BD000000C0CC05002001F0E2B871
:101EA00001F0E6B870B501F065F910490023C1F8FA
:101EB0008430BFF34F8FD1F8803043F6E074C3F322
:101EC000C900C3F34E335B0103EA0406024646EA47
:101ED0008275013AC1F87452F9D2203B13F1200FF8
:101EE000F2D1BFF34F8FBFF36F8F70BD00ED00E0F5
:101EF00001F042B901F092B801F064BA01F06CBA95
:101F000001F096B810B5044616F098FC23682046F8
:101F1000D3F8AC30BDE81040184715F0EDBE10B551
:101F200004467C212EF0D0FA204610BD90F83410E3
:101F30000D4B10B590F878401A788C4209D03AB918
:101F40000A490B4A08881488108001220C801A70F4
:101F500010BD002AFCD0064A0449148808880C8069
:101F600010800022F3E700BFC8570120C6570120A8
:101F7000C457012070B50D46194635B9094B40F2DA
:101F8000D221094A09482FF0E5F9C0E90F52003A79
:101F9000074B18BF01221A700368BDE87040D3F8E0
:101FA0008C30184784290308BC2903080A2A03082F
:101FB000CE57012008B5094B1B888B4203D8084B2C
:101FC0001B88934205D9074B9E21074A07482FF0EB
:101FD000C1F9074B1980074B1A8008BDC45701206F
:101FE000C65701204F2A0308B22A03080A2A030809
:101FF000CA570120CC570120034690F87A0018B147
:10200000586803681B68184770470000014608B508
:10201000034B186801B1012116F02AFC012008BD0C
:10202000D0570120034B00225A609A60024A1A607E
:10203000704700BFCC0500204C2903080121002275
:1020400008B5084606F086F90A4B186028B90A4B0D
:1020500028210A4A0A482FF07DF900220421012094
:1020600006F042FA074B186018B9074B2C21034AB7
:10207000F0E708BDDC050020D02B0308192C03086D
:10208000482C0308D80500208F2C0308024B4FF082
:10209000FF31186806F0B6B9DC050020014B18685E
:1020A00006F0ECB9DC050020024B0021186806F0B0
:1020B000A9B900BFDC050020FFF7F0BF00230348EB
:1020C00003491A46006806F055BA00BFD80500203B
:1020D0000800002013B50023074C01A91A46206808
:1020E00006F08AFA4FF0FF33002201A9206806F0BB
:1020F00083FA02B010BD00BFD805002003685B6CF6
:1021000018470120704703689B6A1847FEE70000E4
:102110000E4B82B01A6B42F400021A631A6B02F47F
:1021200000020192019A1A6942F400021A611A69C6
:1021300022F400021A61064B064A1A61064A5A61E5
:102140004FF08062054B9A6002B070470038024041
:1021500000050020E92300080D21000800E100E04F
:1021600040F2EF3070470000054B4FF08062036093
:10217000044BC3F88820BFF34F8FBFF36F8F7047B6
:10218000282E030800E100E010B504464FF45A6120
:10219000FFF7EAFF20462EF097F9204610BD000019
:1021A00008B50A2809D8DFE800F006100E0808086C
:1021B000081010101000022008BD054B9021054AA0
:1021C00005482FF0C7F80020F6E70120F4E700BF2C
:1021D000D12C0308EC2C0308372D030838B50C4626
:1021E000887FFFF7DDFF174BA58AE28A586342EA32
:1021F000054221695A64628BD963521B1A642568AF
:10220000082D0ED19A611A6158620F4A207F42EA66
:102210000062DA61E2681A620C4A5961D9601A6098
:1022200038BD0022D8611A61E1680A0A4809C1F381
:10223000C40102F4784200F4FC6002430A439A634A
:10224000034AECE700B0024009000100012302004C
:102250000123030008B50B280BD8DFE800F00612B5
:10226000100A0A0A0A0808080808022008BD052002
:10227000FCE7054B6F21054A05482FF06BF800205D
:10228000F4E70120F2E700BFD12C03087C2D0308FE
:10229000372D03082DE9F04191F81D800C4640468A
:1022A000FFF7D8FFA77F05463846FFF7D3FF06465E
:1022B0003846FFF775FFA18A628B434B521A1A64A6
:1022C0009A61228B521A1A61E28A586342EA0142E9
:1022D00021695A646268D963DA602068802828D04E
:1022E000227F0FD8202866D0402864D004281AD036
:1022F00045EA0265344BB84545F40035DD6160D0F0
:10230000324A44E0B0F5807F04D0B0F5007FEFD1D1
:102310002F4800E02F4840EA0262DA61E2681A6260
:102320005E62596132E045EA026242F40032DA61EB
:10233000F6E7A068021DDA62227F45EA026545F4ED
:102340000035DD615E625961017841B1012921D01A
:10235000214B4FF48D71214A21482EF0FBFFDA69A1
:10236000418822F47F42013922F0100242EA012220
:102370000121DA61144BDA6942F02002DA61DA698C
:102380009206FCD410229A600029B9D0154A1A602E
:10239000BDE8F081B2F1FF01DA69408822F47F42A2
:1023A00018BF0121013822F0100242EA002242F057
:1023B0001002DA61DEE745EA0262034B42F40032C2
:1023C000B5E742F20132E2E700B00240012301002A
:1023D000090002000A000200C62D0308E02D0308D0
:1023E000372D030801230200024B1B68586803685D
:1023F0005B691847D057012070B504460A4B0C3072
:1024000000262546602260602672667245F8203BF1
:10241000294616F083FB04F55A63EE6024359D428D
:10242000FBD1204670BD00BF282E0308034B1A685D
:10243000D207FCD423229A60704700BF00B002404C
:10244000094B5A69D2030AD5BFF34F8F08440029BC
:10245000A0EB010204DCBFF34F8FBFF36F8F704717
:102460002039C3F86822F2E700ED00E030B5104CE7
:102470002568ED07FCD423250904FF2BA56041F056
:1024800001014FF0020565636164E0630AD0094908
:10249000656241EA0363E361074B22626061E060C9
:1024A000236030BDE561039BA363044BF8E700BFE5
:1024B00000B0024009000100010002000100030019
:1024C00030B50F4C2568ED07FCD423251204FF2BF3
:1024D000A56042F001024FF0020565636264E063AB
:1024E000E16008D01B0643F00213E361054B65620F
:1024F0006061236030BD044BE3610123F9E700BF55
:1025000000B0024001000200020002FF30B50B4C97
:102510002568ED07FCD4232512041B06A56042F0B4
:102520000102022543F4003365636264E063E16005
:10253000E361034B65626061236030BD00B002401F
:10254000010002004069704790F844007047036B37
:1025500023B9C06A003818BF0120704701207047B6
:1025600080687047043010B50C460FC884E80F002F
:1025700010BD704708B5034A40F21221024B0348D0
:102580002EF0E8FE702E03088F4E0308CB2E0308B2
:1025900010B5044648212DF097FF204610BD0000DD
:1025A0002DE9F0431C46436BADF51F7D05460E46F5
:1025B0001746002B37D0002203A8DFF8A890CDE9FA
:1025C00001320EF0E7F84FF4F4725021249024A861
:1025D00008F095F83A46314624A808F0E9FF0121B1
:1025E00024A808F087F9022324A88DF8D83008F031
:1025F00022FABDF898322B9ABDF89C629342A89FAC
:1026000028BF1346419A964203EB4308A7EB4307C2
:1026100028BF1646479B9E4209D824A808F08CF98B
:1026200024A808F0B9F80DF51F7DBDE8F08301225C
:1026300001A924A808F048FA6B6B03EB0800984244
:1026400001D83C44E6E759789A78C90009EA0222A1
:1026500001F4FC610A4313F8031B42EAD10224F897
:10266000022BECE700F8FFFF0A4A02600022C0E9F3
:102670000522C0E90722C0E90922C0E90B22C0E90E
:102680000D12C0E90F2280F84420C0E90322C0E9FE
:1026900001227047A431030810B40C4611461A46B3
:1026A000036B3BB1036C806BE41A20445DF8044B70
:1026B0002FF014B9C06AF8E7036B10B573B1036C5F
:1026C000826BC91A5318525C98785C780004DB78E6
:1026D00040EA0420104340EA036010BDC36A585822
:1026E000FBE7036B43B1036CC91A836B5A18585C40
:1026F000527840EA02207047C36A585A7047000077
:1027000070B50446006B0D461646D8B1E36B934294
:1027100008D209230D4A65210D4884F844300D4B39
:102720002EF018FE0368DB689847206B3246A16BD9
:1027300003681B69984710B90D2384F84430A06BD7
:10274000256470BDE06A0844FBE700BF2F2F030833
:10275000CB2E03081C2F03082DE9F84343690446D8
:102760002BB9234BAA21234A23482EF0F3FD08223C
:102770008169FFF7C5FFA16943F2300646F264376D
:1027800004312046FFF798FFA3691844A36A00F1BB
:1027900008029A4206D3012300206361236AA361E1
:1027A000BDE8F883636909300822013320F0010194
:1027B00020466361A161FFF7A3FFD4F8189020467B
:1027C0004946FFF78EFF09F1020180462046FFF7D8
:1027D00088FF09F1040105462046FFF76DFFB0456B
:1027E000D2D1BD42D0D10028CED00120D8E700BF41
:1027F000712F0308BA2F0308CB2E03082DE9F04FE1
:102800000446ADF51F7D8A46164681690822984622
:10281000FFF776FFA7692046391DFFF74DFF07F147
:102820000801024605462046FFF76AFF636B07462C
:1028300033B93C4B40F2AB113B4A3C482EF08AFD89
:10284000002203A8CDE901320DF0A4FF4FF4F47289
:102850005021249024A807F052FF2A46394624A884
:1028600008F0A6FE012124A808F044F8022324A8B9
:102870008DF8D83008F0DFF8BAF90250479BAB4228
:1028800029D3BAF900904FEA4808BAF804702B9B94
:1028900008FB05664F44BAF80250DFF894B03FB227
:1028A0009F4228BF1F46BAF8063009EB490A1D446B
:1028B000419B2DB29D4228BF1D46479BAB4210D382
:1028C00024A808F039F824A807F066FF01200DF5C8
:1028D0001F7DBDE8F08F012201A924A808F0F4F8BB
:1028E000CCE7012201A924A808F0EEF8626B494662
:1028F0005244B94202F1030201D34644DDE712F823
:10290000020C12F8013CC0000BEA032300F4FC6047
:10291000034312F8030C43EAD00326F811300131C7
:10292000E7E700BFED2F030843300308CB2E030871
:1029300000F8FFFF0129036838BF0121DB6A70B589
:102940000D4604469847A84204D223682046DB6A15
:10295000984705466B1EE6691022204606EB0316D3
:1029600006F10801FFF7CCFE06F110012046FFF743
:10297000A3FE236A043B0344C4E9055370BD000071
:10298000002148222DE9F0410446816180F844107D
:10299000FFF7B6FEA6690423624A31462046FFF7D8
:1029A0007BFE40B10323604AF22184F844305F4B40
:1029B0005F482EF0CFFC06F1080104235D4A204653
:1029C000A161FFF769FE30B10423574AFA2184F868
:1029D0004430594BECE706F10C010423574A2046DA
:1029E000A161FFF759FE074638B105234E4A40F270
:1029F000011184F84430524BDAE706F11001204609
:102A0000FFF75AFE054620B94E4B40F20711464AE1
:102A1000CEE706F1140804234B4A20464146FFF74F
:102A20003BFE002849D0062384F844300423474A5B
:102A300006F118012046FFF72FFE00283FD007239C
:102A400084F844304544424F0C2220462946FFF783
:102A500057FE05F1080604233A4620463146FFF7A3
:102A60001BFE94F84430002848D0002B48D1A36ABC
:102A7000AB4249D805F10C0304352046A361294631
:102A8000FFF71AFE3044294660622046FFF714FE25
:102A90000644042220463146FFF732FE04232D4A25
:102AA00031462046FFF7F8FD002838D10123E661C2
:102AB0006361A3692362BDE8F0810127B6E7002FB7
:102AC000C0D006F120012046FFF7F6FD4FF47A73DF
:102AD00006F13001B0FBF3F060602046FFF7ECFD3B
:102AE00006F14001A0602046FFF7E6FD06F1440133
:102AF000E0602046FFF7E0FD2061A3E7002BB9D09E
:102B00000A2384F84430D6E7291D2046FFF7D4FD78
:102B100085190C2220462946FFF7F2FD99E70B2381
:102B2000EFE700BF9D300308BB300308A230030865
:102B3000CB2E0308E8300308ED3003080531030805
:102B40000A310308203103082C310308313103080E
:102B5000363103083B310308C0E90A210022026331
:102B6000FFF70EBF10B5002304460846E3620B686A
:102B700021639B689847A0622046BDE81040FFF79C
:102B8000FFBEF0B4069FBDF81050BDF8146032B11E
:102B90002BB10495CDE90567F0BCFFF701BDF0BC92
:102BA000704700002DE9F04F9946436985B004460F
:102BB0000F4690462BB9294B7721294A29482EF0F8
:102BC000C9FB08228169FFF79BFDA66920463146B3
:102BD000FFF787FDB11C83462046FFF782FD311DBC
:102BE00082462046FFF768FD06F10801A36A054604
:102BF00042189A4226D243F230039B4517D146F23F
:102C000064339A4513D190B10246A1612046FFF783
:102C100077FD0E9B01462A462046CDF80080CDE97F
:102C200001933B46FFF7ADFF636901336361A3691D
:102C30002B4405B908330133626A23F00103934240
:102C4000A36109D1012301206361236AA36180F09C
:102C5000010005B0BDE8F08F0020F8E7712F0308F0
:102C600040310308CB2E0308012070471420704721
:102C7000142303FB010008307047142303FB0100F9
:102C8000083070470120704740F21C50704740F2F6
:102C90001C5303FB01000830704740F21C5303FB38
:102CA000010008307047012070471020704700EB8A
:102CB00001100830704700EB0110083070470846DB
:102CC00001F0E6B8034B10B50446036014F06CFD48
:102CD000204610BD4C32030810B50446FFF7F2FF42
:102CE0001C2120462DF0F0FB204610BD034B10B5F3
:102CF0000446036014F058FD204610BD1832030846
:102D000010B50446FFF7F2FF40F2245120462DF0A3
:102D1000DBFB204610BD0000034B10B504460360EA
:102D200014F042FD204610BDE431030810B50446FE
:102D3000FFF7F2FF182120462DF0C6FB204610BDFC
:102D4000084B10B50446036000F5AA60FFF7BAFF10
:102D500004F12C00FFF7CAFF04F11400FFF7DCFFB9
:102D6000204610BD8032030808B50248FFF7E8FF8F
:102D700008BD00BFB014002010B50446FFF7E0FF07
:102D800040F2CC6120462DF09FFB204610BD000094
:102D90002DE9F34100F03CFD0024054600F03CFD28
:102DA000234601462246284600941EF021FB274B6D
:102DB000274A2046274D1A6002F0B2FA264B274ACE
:102DC00027489A601EF07CFA2B68BFF35B8FDB0705
:102DD00035D428462DF07AFB88B3224C224B04F5DB
:102DE000AE6604F1140004F12C0804F5AA67236010
:102DF0006060C4F80880E760266114F0D7FC1B4BC4
:102E00004046636114F0D2FC194B3846E36214F07B
:102E1000CDFC184B04F26C50C4F8503502F00AFB9C
:102E2000224604F26C51304602F0FAFA304601F0C4
:102E30002FF811482EF0ACFA28462DF053FB0F481E
:102E400002B0BDE8F041FFF70FB800BF34580120D1
:102E50005C060020AC1400207C06002060060020E8
:102E60000C000020B014002080320308E431030875
:102E7000183203084C320308692D0008E0050020D1
:102E800070470000014814F0A0BF00BFE00500201B
:102E900070B5244E244B254C3046254D2360FFF75A
:102EA000ABFA284623F0B6FB22481BF02DFE224B3E
:102EB00000224FF4807121481A8683F858205A6600
:102EC00083F870205A67DC60C3E912121C49C3E919
:102ED0001A121C4999671C490B604FF4F07101806C
:102EE0001A4801804FF488711948C3E90422C3E9E4
:102EF0000622C3E90822C3E90A22C3E90E22C3E974
:102F00001022C3E91422C3E91722C3E90165018035
:102F1000104883F8342001800F490A700F4A1A6064
:102F200070BD00BF0807002074290308A814002002
:102F30007C06002060060020E0050020C457012028
:102F40000100000100000101D0570120CA570120F3
:102F5000C6570120CC570120C8570120002B030879
:102F60000148FFF701B900BF0807002000207047A3
:102F700081807047C18070470181704741817047EF
:102F80007047704770477047704710B4C488036833
:102F9000121B84885B6D091B12B25DF8044B09B2E9
:102FA00018474FF6FF7383814FF0FF3303621368B6
:102FB000C36110607047002070478B8883800120B8
:102FC0007047704780F82610704790F826007047C9
:102FD000002210B5B1F90840B1F90A100280428010
:102FE0008480C18010BD0022028042808280C28025
:102FF00070470177704780ED080A704780F8241009
:10300000704780F82510704701207047983070474E
:103010008C3070478430704770470000034B90221B
:1030200083F85A2383F85823704700BF00E100E07B
:10303000094A0A49D3680A48C3F30A03013B9BB211
:103040000B801169C1F30A01013901801364536BCC
:1030500043F0010353637047006801407E1B00206A
:103060007C1B0020014BD3F8AC0070470068014086
:10307000024B0122C3F8AC105A627047006801404D
:10308000124A5369DB0370B51ED50023C2F88430A1
:10309000BFF34F8FD2F8803043F6E074C3F3C9001A
:1030A000C3F34E335B0103EA0406014646EA817529
:1030B0000139C2F87452F9D2203B13F1200FF2D13A
:1030C000BFF34F8FBFF36F8F70BD00BF00ED00E007
:1030D0007047704770473823002201FB0333C25406
:1030E00090F838300BB9036C83647047704780F8F0
:1030F0004C10704710B5044658212DF0E5F92046D4
:1031000010BD10B504462C212DF0DEF9204610BD6F
:1031100010B50446BC212DF0D7F9204610BD0000A3
:1031200038B5044614F03DFE23685D6E1AF096FB38
:1031300001462046A8472368084A2046D3F888500D
:103140000023A2F57F31A847054B064A5A60064A7C
:103150001A649A644FF4FF225A6438BD00F807C01D
:10316000401C0020981C002000F40BC014F000BE8E
:1031700014F00ABE14F0C6BD14F035BF90F8252037
:1031800012B103685B6918477047000008B531B198
:10319000044B40F29711044A04482EF0DBF890F8F3
:1031A000390008BD8C320308A03203082D3403080F
:1031B00010B531B1064B40F29111064A06482EF087
:1031C000C9F8406811460368BDE810401B6B1847FA
:1031D0008C3203086F3403082D34030808B529B175
:1031E000034B7A21034A04482EF0B4F8006908BD65
:1031F0008C320308203603082D34030808B529B1A2
:10320000054B8321054A06482EF0A4F841618160F0
:10321000C0E9063208BD00BF8C320308D837030866
:103220002D34030810B5044629B1274BA421274AA1
:1032300027482EF08FF8052A34D8DFE802F003295A
:103240002F34393E406803681B69984750B34FF0EC
:10325000FF31606D05F022F80023012294F83E1042
:1032600084F83B3084F83920A360636101B12262A5
:1032700084F83E306362E36A2BB90123206D84F841
:103280003A3005F0FBF8606DBDE8104005F036B847
:10329000002380F8393084F83E3003E003620023D5
:1032A0008360436110BD0362002383604361F2E7E2
:1032B000002380F839300123EDE7003B18BF0123DC
:1032C00080F83D30EEE700BF8C32030897390308E1
:1032D0002D34030890F825201AB190F8242002B16B
:1032E0001860704770B50446164629B1314BE72186
:1032F000314A32482EF02EF890F8393033B1304B45
:103300001B6893F86B20436913444361E36A002B05
:103310004DD0E169D4E905325343A2684A43934250
:1033200020D2236A002B42D04FF0FF31606D04F0B1
:10333000B5FF236A0BB10023E362E36AFBB9012501
:10334000606D04F0DBFF94F839300BB9236A3BB1B0
:10335000E36A2BB90123206D84F83A3005F08EF82A
:10336000284670BD94F84C000028DDD09B1AB3FBB2
:10337000F1F2994298BF02F1FF326262D4E7002273
:1033800094F83C50A3623046E262E2682261A2688F
:103390000132A260336333685B699847002DCED158
:1033A00094F83D30002BCBD184F83950C8E7012583
:1033B000C9E700BF8C3203086E3B03082D340308B5
:1033C000D0570120034B4FF080629A604FF080721B
:1033D0009A60704700E100E0084B4FF08062C3F84C
:1033E0008820BFF34F8FBFF36F8F4FF08072C3F809
:1033F0008820BFF34F8FBFF36F8F704700E100E06D
:1034000038B5034690F8380038BB01229860D86080
:103410009A634FF4807258619A874FF4F072986102
:10342000D861186258629862D8621863586383F84A
:103430003E00CA864FF4887281F834000A87086318
:103440009A6C186102F5FF24D3E9101529448C42C7
:103450000AD9084B5821084A03E0084B40F2F511FD
:10346000074A08482DF076FF1A6302F57F329C6404
:103470005A6338BDCC3E03080C3F0308123D0308D5
:10348000423D03082D340308002370B5124E054653
:103490008380124B0360336893F858200AB1D86CCC
:1034A00000B998680368DB6A98473368B0FA80F41B
:1034B000D86C640930B10368DB6A9847002808BFFC
:1034C00044F001042CB9064B2C21064A06482DF085
:1034D00041FF284670BD00BFD0570120B44103080A
:1034E000B2400308104103084941030870B5244E57
:1034F0003568BFF35B8F15F001053FD130462CF0E6
:10350000E5FF00283AD01F4C1F4B04F13400256121
:10351000E584A562A585C4E90035C4E902551BF020
:1035200052FD04F1580016F0F9FE184B2046A36531
:10353000174B40F8843BFFF7A7FF164B1648C4F81B
:1035400084302433C4F89050C4F88C306423C4F819
:103550009C50C4F8A850C4E928350023C4F8AC3006
:10356000C4F8B030C4F8B430C4F8B8300B4BC4F869
:1035700098302DF00DFF30462CF0B4FF014870BD9F
:10358000801B0020841B0020F4730308D44103082F
:103590004C420308A8730308193000088873030815
:1035A00010B5144C236823B3134B144A1B6C1188B9
:1035B0008B4213D1124B198803F02AFB226892F830
:1035C0006A30013382F86A30FEF778FD206815F022
:1035D00035F90020BDE81040FEF796BB03F018FB5C
:1035E000206803681B6A98470020BDE81040FEF77A
:1035F000B1BB10BDD0570120006801407E1B0020E8
:103600007C1B00202DE9F74304464FF4707894F8B2
:103610003A304FF0FF31002B31D0606D04F03EFEA8
:10362000276BA36ABB4200D1676B266A656856B3F5
:103630002B68314628465B6A98470023236284F84A
:103640003B30606D04F05AFE2B684FF4F07239463F
:10365000CDF8008028465E694FF48873B0474FF07C
:10366000FF310646606D04F019FE94F83B30E3B17B
:10367000002384F83B30606D04F040FEC7E7206D06
:1036800004F0C0FEC3E7636A002BDAD02B6828463B
:10369000D3E909939847616A01442846C847A3685B
:1036A000626A66621344A360CBE7E7625EB12B688F
:1036B00028469B6A984701380023E06084F83C6004
:1036C00084F83A30D7E70120F6E70000014808B552
:1036D000FFF798FF401C00200368042270B50446E1
:1036E0005E6A00230D46B0474FF0FF31606D04F075
:1036F000D5FD382303FB0542D16A09B10021D1620F
:1037000003FB0545012385F83B30002385F839305C
:10371000606DBDE8704004F0F1BD38B500EB810389
:1037200004460D46114658680368DB6898472946E9
:103730002046FFF7D1FF38BD70B50D46114604464F
:1037400000EB85025068026896681A46B047294621
:103750002046FFF7C1FF70BD38B516490025164851
:10376000FEF782FF154C164B01202A46294623609E
:103770004FF48073A564A38784F84C0084F83E500E
:10378000C4E91055C4E91455C4E90155C4E9035509
:10379000C4E90555C4E90755C4E90955C4E90B5501
:1037A000C4E90D5504F0D6FD2065284604F034FD2B
:1037B000606538BDE01C0020981C0020401C0020E3
:1037C00098420308704708B5042918D8DFE801F0CB
:1037D00003070B0F130001F0EFFD006808BD01F0B7
:1037E000EBFD4068FAE701F0E7FD8068F6E701F0DD
:1037F000E3FDC068F2E701F0DFFD0069EEE70020BD
:10380000ECE710B5044604212CF05EFE204610BD06
:1038100000487047E44203080A20704713B50024AB
:1038200051B1036801AA01948DF803409C680DF121
:103830000303A04702B010BD0846FBE7C0897047EC
:10384000008A7047C088704780887047807A00F08F
:103850007F007047807AC0097047002070470000E1
:103860009FED010A704700BF00000000704710B5CF
:10387000044608212CF028FE204610BD70477047F2
:1038800000F598730868496803C37047704770472C
:103890004160704770470000064BC0F84801C0F80F
:1038A0004C310023C0F8503100F5A273C0F840310C
:1038B000704700BFC53C0008012303727047704782
:1038C0007047704770477047704710B441680346AF
:1038D000C2689B68541001EB6200D20748BF0A59C6
:1038E0005DF8044B48BFD35818470346406830B1D1
:1038F0009A681AB9D86800F0010070470120704733
:1039000010B5044614212CF0DFFD204610BD10B583
:1039100004460C212CF0D8FD204610BD10B50446FD
:1039200010212CF0D1FD204610BD10B504464FF4F7
:10393000AE712CF0C9FD204610BD10B519F08EFFF8
:103940000368BDE81040DB6B1847000070B5B2B0EB
:103950000446C0221D4902A82EF099F8237C2F2B83
:1039600003D90123237232B070BD33B9184B1B78D1
:103970001BB119F073FF19F077FF0225237C302B60
:10398000F1D832AAE689608902EB8303A189ADF8F8
:10399000040053F8C03CADF8061093FBF6F206FBAA
:1039A000123312FB01F2694613FB00F36068ADF8B5
:1039B0000220ADF8003003681B699847237C012D75
:1039C00003F101032374CED00125D7E76027030854
:1039D000CE57012010B50446D0F8400158B1036815
:1039E000DB68984738B1D4F8400103689B68984772
:1039F0000023C4F8403110BD2DE9F047D0E95569E6
:103A00000546B06803681B6A984740F21B5398420A
:103A100005D84F4BA3214F4A4F482DF09BFC7068AF
:103A200003681B6A98470F2803D84C4BA421494AC6
:103A3000F2E7F06803681B6A9847132803D8484BDD
:103A4000A521444AE8E7DFF82C8119F007FF04308C
:103A500019F051FFD8F8000010B10368DB689847EF
:103A6000D8F8000010B103681B6898473D4F3868CC
:103A700010B103685B699847D5F83C0110B1036841
:103A80005B689847386810B103681B689847D5F899
:103A90003C0110B103689B689847F06800210368F7
:103AA0005B6A98470023304A0446436003720374FC
:103AB0002E4B02601A882E4B1B889A423FD9062152
:103AC00005330732B3FBF1F3D20808219BB2B0688B
:103AD000A381036862815B6AE18100219847824685
:103AE00001F0BCFD7068002103685B6A98470646D8
:103AF000514601F091FD331DC5F83C615046C8F8B0
:103B00000040C7F800A0C9F80030DAF80030C6F865
:103B10000890DB68CAF83C609847336830461B68F9
:103B20009847214650461BF0B1FE236820461B698A
:103B30009847236820465B69BDE8F047184705327F
:103B400006210733B2FBF1F2DB0892B2BFE700BFF8
:103B5000BC4303084A4403081F450308664503089D
:103B60000946030814580120E8480308C4570120F7
:103B7000C6570120185801202DE9F14FD0E9556AA8
:103B80000746B06803681B6A9847B0F5867F05D280
:103B9000444BA321444A45482DF0DCFB7068036880
:103BA0001B6A98470F2803D8414BA4213E4AF2E7ED
:103BB000F06803681B6A98470B2803D83D4BA52182
:103BC000394AE8E7DFF8F49019F048FE043019F0BC
:103BD00092FED9F8000010B10368DB689847D9F865
:103BE000000010B103681B689847DFF8D480D8F84C
:103BF000000010B103685B699847D7F83C0110B129
:103C000003685B689847D8F8000010B103681B6828
:103C10009847D7F83C0110B103689B689847F06853
:103C200000214FF0000B03685B6A9847224B044663
:103C3000C0F804B080F808B059460360B068036863
:103C40005B6A9847054601F0CDFC706859460368E9
:103C50005B6A98470646294601F09AFC331DC7F86F
:103C60003C612846C9F80040C8F80050CAF8003046
:103C70002B68C6F808A0DB68EE63984733683046C7
:103C80001B689847214628461BF000FE2368204603
:103C90001B699847236820465B6901B0BDE8F04F77
:103CA000184700BFBC430308AC4603081F45030880
:103CB0006645030809460308C4480308185801204C
:103CC000145801202DE9F14FD0E9556A0746B06834
:103CD00003681B6A9847B0F5F07F05D2444BA321D7
:103CE000444A45482DF036FB706803681B6A9847C4
:103CF0000F2803D8414BA4213E4AF2E7F06803683D
:103D00001B6A98470B2803D83D4BA521394AE8E7A1
:103D1000DFF8F49019F0A2FD043019F0ECFDD9F8A9
:103D2000000010B10368DB689847D9F8000010B1B3
:103D300003681B689847DFF8D480D8F8000010B1FA
:103D400003685B699847D7F83C0110B103685B686A
:103D50009847D8F8000010B103681B689847D7F857
:103D60003C0110B103689B689847F06800214FF050
:103D7000000B03685B6A9847224B0446C0F804B006
:103D800080F808B059460360B06803685B6A9847DA
:103D9000054601F0B5FB7068594603685B6A9847B1
:103DA0000646294601F082FB331DC7F83C612846D0
:103DB000C9F80040C8F80050CAF800302B68C6F8AF
:103DC00008A0DB68EE639847336830461B68984765
:103DD000214628461BF05AFD236820461B69984758
:103DE000236820465B6901B0BDE8F04F184700BF6B
:103DF000BC4303087E4703081F45030866450308C4
:103E000009460308C4480308185801201458012023
:103E1000044B1B6893F858200AB1D86C00B9986815
:103E2000704700BFD0570120F8B5174604460E462C
:103E300019F002FE124B00251C602946114B23602D
:103E4000114BC4E95135114B1868C4E95355036847
:103E5000C4E94F559B68C4E955769847284601F058
:103E60005FFAFFF7D5FF24F028FAFFF7D1FF24F01F
:103E70009FFAFFF7CDFF24F0A7FA2046F8BD00BF58
:103E8000245801207048030858480308D0570120DF
:103E9000064BC0F84801C0F84C310023C0F850313F
:103EA00000F5A273C0F84031704700BFC53C000860
:103EB000064BC0F84801C0F84C310023C0F850311F
:103EC00000F5A273C0F84031704700BF793B00088D
:103ED000064BC0F84801C0F84C310023C0F85031FF
:103EE00000F5A273C0F84031704700BFF9390008EF
:103EF000406A7047806A704770478B88C069DB0AE8
:103F00000A6850F823001044704710B50446BAB14F
:103F1000107B68B1537BD27A1B0203F4E0631A432F
:103F2000236A03EB82031A888A4202D193F90200C2
:103F300010BD05D80138043380B20028F3D1F7E76B
:103F40000020F5E710B504462C212CF0BDFA2046E0
:103F500010BD000030B58BB00446BDF86050089528
:103F6000BDF85C5007959DF8505006959DF84C5053
:103F700005959DF8485004959DF8445003959DF88B
:103F8000405002959DF83C500195BDF83850009581
:103F90001BF0D6F8064B20462360159BE361169B69
:103FA0002362199B63621A9BA3620BB030BD00BFF2
:103FB0000C4903087047704770477047704730B529
:103FC00085B00368044601816D460146D3F884300C
:103FD0003C342846984795E8070084E8070005B078
:103FE00030BD30B585B00368044641816D46014659
:103FF000D3F884303C342846984795E8070084E895
:10400000070005B030BD0022028042808280C2805D
:10401000704780F836107047036870B504461B6B14
:10402000154698472368204629465B6EBDE87040D8
:10403000184700207047806C704770477047704782
:1040400070477047704730B444680346C2689B6845
:10405000551004EB6200D20748BF625930BC48BF1C
:10406000D35818470346406830B19A681AB9D868DF
:1040700000F0010070470120704710B504464C2144
:104080002CF022FA204610BD10B5044610212CF069
:104090001BFA204610BD10B504464FF4F0712CF009
:1040A00013FA204610BD08B5FFF768F808BD0000F8
:1040B000036870B55E6B0446114B8DB21B682BB95B
:1040C000104B6C21104A11482DF044F91049828D93
:1040D0000988914203D80F4B6D210B4AF3E713F87F
:1040E00012200D4B1B6853F8220003681B6B984786
:1040F000291A3346204609B2BDE87040184700BF70
:10410000285801206C490308AE490308E94903080F
:104110002C580120304A03083058012000F1980340
:10412000994270B504460D4603D119F097FBFFF78D
:10413000BFFE04F1E0039D4203D123682046DB6A01
:10414000984704F5BA739D4205D1236820461B6B3E
:10415000BDE87040184770BD00224FF0FF3182600B
:10416000C0E900217047036870B504461B6B154613
:1041700098472368204629465B6BBDE87040184786
:104180000022C0E90122C0E90322C0E90522C0E9FA
:1041900007224FF480728284014A0260704700BF98
:1041A000C44A0308F8B5194B0646018F1B888B4299
:1041B0002AD9174B1B682BB9164B6C21164A174886
:1041C0002DF0C8F813F81120154B1B6853F8225036
:1041D000144B186801F0E0F82B68074628469B6BE3
:1041E00098472B68044639469B6C2846984714FB31
:1041F00000F42B683946A4B228465B6A9847231816
:104200001BB2A6F84630F8BD0023FAE72C5801206F
:10421000285801206C490308AE490308E9490308FE
:1042200030580120345801202DE9F04F04468BB05E
:1042300000271BF07FF9A2469B4A3946E7634AF8FC
:10424000402B2622504604F16C0B2DF03FFB5046CC
:10425000FFF796FFFF26954A4FF6FF7539465846F9
:104260002264262284F8666004F19809A76604F1A6
:10427000E008ADF820502DF029FB5846FFF780FFED
:104280008B4A08A95846E266BDF8202084F894605D
:1042900004F59476A4F8922016F004FE484616F031
:1042A00043FF404616F040FF3946262230462DF0A7
:1042B0000DFB3046FFF764FF7E4B4FF47F02A4F8FE
:1042C0005451C4F850314FF0FF3504F5BA73C4F8B7
:1042D0005C21794A1846C4F85871C4F82821A4F81A
:1042E0006071C4F86471C4F870710093C4E95A57DE
:1042F00016F01AFF714A50463946C4E97424704AD0
:10430000C4E976273A46FFF72EFF50464FF4F07186
:10431000FEF732FE50464FF48871FEF72FFE4FF045
:104320007F4351464FF0040AA366231D18460193AC
:1043300013F04EFA3A4658463946FFF714FF5846EE
:1043400008A9ADF8207016F0ADFD5946201D4FF0BC
:10435000030B13F03DFA3E22DC214846FFF703FF32
:1043600007A908AA4846ADF81CB0ADF820A016F081
:10437000CBFB10224846A4F8D020FFF713FF04F52A
:10438000E873494604EB0A00C4F8C0300193C4E95D
:10439000355513F01DFA40467A22DC21FFF7E3FE83
:1043A00007A9404608AAADF81CB0ADF820A016F049
:1043B000ABFB0F224046A4F81821FFF7F3FE019B48
:1043C000414604EB0A00C4F808310DF10808C4E9BD
:1043D000475513F0FDF934221A213046FFF7C3FE8A
:1043E0004FF07F4340463146C4F85831D4F8283165
:1043F000A4F85C71D3F88430984704F5B27398E858
:10440000070083E807002F4B04F5DE781B682BB903
:104410002D4B60212D4A2E482CF09CFF2D4B1B88E4
:10442000072B03D82C4B6121284AF4E72B4B07219B
:10443000186800F0B1FF2A4A03460A2140461CF0E2
:1044400037FD3046C4F8708116F0E0FA194B08A920
:10445000304608930923ADF8243016F0F7FA3146B8
:10446000201D13F0B5F90098C122DC21FFF77BFE77
:1044700008AA07A90098ADF81CB0ADF820A016F066
:1044800043FB08230098A4F8AC31FFF78BFE019B97
:10449000201D0099C4F89C31C4E96C5513F098F9BB
:1044A00020460BB0BDE8F08FD44B030848750308D5
:1044B0008C760308B44303082C4B0308BC4B030859
:1044C0001D410008285801206C4903086E4A030862
:1044D000E94903082C580120304A030834580120C8
:1044E00078670308704770477047704730B4446876
:1044F0000346C2689B68551004EB6200D20748BFB0
:10450000625930BC48BFD35818470346406830B1A1
:104510009A681AB9D86800F0010070470120704706
:1045200010B5044610212BF0CFFF204610BD10B56A
:1045300004464FF486712BF0C7FF204610BD00F1F2
:104540006C03994270B504460D4603D119F086F903
:10455000FFF7BEFC04F1B4039D4205D12368204659
:10456000DB6ABDE87040184770BD00002DE9F74FC9
:10457000044600251AF0DEFF424B2646E56304F1AF
:104580006C0804F1B40746F8403B04F104093E4BC3
:10459000404625664FF0040AA5664FF0030BC4E9B8
:1045A00010354FF48073A4F86430FF23C4E912552A
:1045B00084F86630C4E91455C4E9165516F0B4FD04
:1045C000384616F0B1FD314B2A4629463046C4E93B
:1045D0003F342F4BC4E94135FFF7C5FD30464FF45A
:1045E000F0714FF0FF35FEF7C7FC30464FF488718D
:1045F000FEF7C4FC4FF07F4331464846A36604F102
:10460000FC0613F0E5F840466F227821FFF7ABFD7A
:104610000DEB0A0269464046ADF800B0ADF804A0C3
:1046200016F072FA0E234046A4F8A430FFF7BAFD44
:1046300041464846C4F89460C4E92A5513F0C8F8C6
:104640003846C5227821FFF78EFD0DEB0A02694638
:104650003846ADF800B0ADF804A016F055FA0D23B9
:104660003846A4F8EC30FFF79DFD48463946C4F8BB
:10467000DC60C4E93C5513F0ABF8204603B0BDE85C
:10468000F08F00BF284C030848750308104C03083E
:104690003F450008806A7047704770477047704711
:1046A0007047704790F82C304BB100F16C021268E3
:1046B000C2653BB100F174031B680366704700F1EB
:1046C0006802F4E700F17003F6E708B590F82C30C3
:1046D0003BB100F1C4031B68C0F8A830FFF7E2FF4C
:1046E00008BD00F1C003F6E770477047704730B46B
:1046F00044680346C2689B68551004EB6200D20709
:1047000048BF625930BC48BFD35818470346406879
:1047100030B19A681AB9D86800F0010070470120DA
:10472000704790F82D3080F8A43080F85A307047E8
:1047300090F82D3080F8AE3080F85A30704790F8FD
:104740002D3080F85A30704710B5044678212BF090
:10475000BBFE204610BD10B50446C8212BF0B4FEA8
:10476000204610BD10B50446A8212BF0ADFE204612
:1047700010BD10B5044610212BF0A6FE204610BD3A
:1047800010B5044640F21C512BF09EFE204610BD91
:1047900010B504467C3094F82C303BB104F17A011A
:1047A00016F080FB2046FFF77DFF10BD04F1780175
:1047B000F6E710B50446006B50B10368DB68984714
:1047C00030B1206B21460368BDE810409B68184754
:1047D00010BD00F59473994270B504460D4602D1A0
:1047E0000368DB6A984704F567739D4203D1236829
:1047F00020461B6B984704F264439D4205D1236811
:1048000020465B6BBDE87040184770BD0B7970B5F2
:1048100004460D4690F82C600BB916B170BD002E01
:10482000FCD0B3FA83F320465B0984F82C3023686C
:10483000D3F88C309847236820465B699847002E50
:10484000ECD02B79012BE9D123682046D3F88830AE
:10485000BDE8704018470B882DE9F041A0F878308A
:10486000044613889046B0F90850A0F87A301046F4
:104870001CF0D2FDB4F90A30074605EBD57503EB01
:10488000D3734046C5F34F0507EBD777C3F34F0605
:104890001CF0F6FD00EBD070A5EB6701A6EB600203
:1048A00004F17C0009B212B2FFF75DFC23682046D8
:1048B000D3F88C30BDE8F0411847036870B5044662
:1048C0009B6B15469847236820462946DB6BBDE85D
:1048D0007040184738B504461D46FFF744FCBDF943
:1048E000102029462046FFF7E8FF38BD4FF48071BD
:1048F00000228184054982620160C0E90122C0E989
:104900000322C0E90522C0E907227047C8720308E4
:1049100010B50446262200212CF0D8FF2046FFF7D0
:104920002FFC044B20462360FF2384F8263000230D
:10493000A36210BD4875030810B504462622002165
:104940002CF0C4FF2046FFF71BFC0A4B4FF47F02FC
:1049500020462360084BA3624FF6FF73A385002314
:10496000C4E90C324FF0FF322387E363C4E910231C
:1049700010BD00BFB8740308B443030838B500F194
:1049800078050446284616F061F8B4F90A20B4F90F
:1049900008102846FFF791FF38BD000070B50446A7
:1049A000FFF7A4FF4FF47F4300252646A38501238C
:1049B000256384F824300D4B46F8343B3046FFF72E
:1049C000A7FF0B4B2A462946304663632566A4F8A9
:1049D0006450C4E91A55C4E91C55FFF7C4FB2046CE
:1049E000314612F0F5FE204670BD00BF604C030852
:1049F0002476030838B50446FFF7D0FF074B254659
:104A000045F8783B2846FFF797FF002320462946C4
:104A1000C4E9303312F0DCFE204638BDFC4C0308FC
:104A20002DE9F04F044695B000251AF083FD264687
:104A3000E24B04F16C0B04F1B40AE56304F59479DC
:104A400046F8403B3046FFF763FF5846FFF774FFD8
:104A5000504616F069FB04F1FC034FF6FF7804F5AD
:104A60009C6718460993FFF753FF4846FFF7C2FFBC
:104A700004F5F87318460A93FFF738FF04F5077337
:104A800018460B93FFF732FF04F5127329462622CE
:104A9000184604932CF01AFF0498FFF771FB4FF0AF
:104AA0000103A4F8768284F86C32C54BA4F87882AE
:104AB000C4F8483204F51F7384F87A821846C4F8A3
:104AC000705284F874520593FFF736FF04F5317382
:104AD00018460693FFF730FF04F543731846079313
:104AE000FFF72AFF04F5557318460893FFF724FFD4
:104AF00004F5677318460393FFF77CFF04F26443E1
:104B000018460293FFF74AFFAE4B26222946C4F807
:104B100064344FF0FF333846ADF84880C4F8DC34D5
:104B20002CF0D4FE3846FFF72BFBA74B12A93846D2
:104B3000C4F8E034BDF84830DFF8BC82A4F806358C
:104B40004FF0FF3384F8083516F0ACF93946029877
:104B5000271D12F03DFE9D4B2A462946C4F80C3510
:104B600030469B4BC4F81045C4F814354FF4887395
:104B7000C4F8185500934FF4F073FFF7ABFE4FF0F5
:104B80007F4331463846A3660CAE12F021FE7422F4
:104B900058463021FFF7E7FA4FF0FF3359463046C9
:104BA000C4F89C30A4F8A05015F0B6FC04F1A8039A
:104BB00096E8070083E80700042312A95846CDF8B9
:104BC0004880ADF84C3015F041FF5946384612F098
:104BD000FFFD5046DA2240F24F11FFF7C4FA4FF0C2
:104BE000060B072312AA11A95046ADF844B0ADF840
:104BF000483015F089FF0C235046A4F8EC30FFF73D
:104C0000D1FA4FF0FF3351464FF0410A3846C4E91C
:104C10003C3312F0DDFD5346BD220998CDF800A0CB
:104C20001E21FFF757FE6B4B09993846C4F8243113
:104C300012F0CEFD53462A46294604F5AE70CDF853
:104C400000A0FFF747FE6448644B654A6549A4F835
:104C50008C51C4E96603D4F828314846C4E964217C
:104C6000D3F88C3098470DF1480C0B234846614629
:104C7000CDF84880ADF84C30FFF780FE294653460A
:104C800004F5D070CDF800A01222FFF723FE564A9B
:104C9000564B4846C4E97A32D4F828310993FFF7D5
:104CA00014FD6C22099B484684F85521D3F89030B6
:104CB000984704F20C5C5346BD22C4F858C14846DC
:104CC000CDF800A01E21CDF824C0FFF703FE494611
:104CD000384612F07DFD4FF4887CF0236FF0D1024E
:104CE000CDF800C06FF06B010A984FF00209FFF792
:104CF000F1FD0A993846DFF804A112F069FD4FF47E
:104D0000887CF0236FF06902CDF800C04FF4CA71BF
:104D10000B98FFF7DFFD0B99384612F059FD049808
:104D2000DA22EB21FFF71FFA4FF0010C0498ADF8DF
:104D300044C00DF1480CADF8489062460DF1440CAA
:104D4000614615F0E1FE0499384612F041FDD32288
:104D500005982F21FFF707FA254B05993046C4F82F
:104D6000AC32A4F8B05215F0D7FB04F52E730DF158
:104D7000480C96E8070083E807000A236146059877
:104D8000ADF84C30CDF8488015F060FE05993846F6
:104D900012F01EFD4522069840F24511FFF7E3F997
:104DA000144B06993046C4F8F432A4F8F85215F0C2
:104DB000B3FB04F540730DF1480C21E0504E03089D
:104DC000B0750308984D03088C760308384E030825
:104DD000D347000813EB5EFF663300FF996633FF8D
:104DE000996600FFCC9900FF0A0A0AFFF5F5F5FF66
:104DF000C8E0C5FFC29417FFB443030819C7D4FF26
:104E000096E8070083E8070061460698ADF84CB0C5
:104E10004FF0050BCDF8488015F018FE069938467E
:104E200012F0D6FC952207987821FFF79CF9079994
:104E30003046C4F83CA3A4F8405315F06DFB0DF1C7
:104E4000480C04F5527396E8070083E807006146B2
:104E50000798CDF84880ADF84CB015F0F7FD0799EC
:104E6000384612F0B5FC6FF01B0229460898FFF790
:104E70007AF9514B08993046C4F88433A4F8885322
:104E800015F04AFB04F5647396E8070012AECDF8FE
:104E9000488083E807000323314608984026ADF890
:104EA0004C3015F0D3FD0899384612F091FC2A4693
:104EB000294604F5747000964623FFF70BFD3F4B1F
:104EC0000398C4F804343E4BA4F80094C4F80834A2
:104ED000D4F89C33C4F80CA4D3F88C30C4F810A4D4
:104EE00098470DF1480C03986146CDF84880ADF81D
:104EF0004C90FFF743FD2946462304F214400096E8
:104F00001322FFF7E7FC4FF0FF3C2E4AC4F85CC4C5
:104F10000398C4F86024FFF7D8FB099B422203984A
:104F2000C4F8CC33D721462300965026FFF7D2FC95
:104F30000399384612F04CFC2A46294604F5936042
:104F400054230096FFF7C6FC1F4A2049204B2148F6
:104F5000C4F8CC24C4F8D014C4F8D404C4F8D834A9
:104F60000298A4F8C8B4FFF713FC092312AA11A9E8
:104F7000ADF8443008230298ADF84830FFF76BFCD9
:104F8000154B0298C4F8E4344B2384F89134FFF7AE
:104F9000C8FB099B81220298C4F8943440F24F1157
:104FA00054230096FFF796FC3846029912F010FC45
:104FB000204615B0BDE8F08F22CDD6FF13EB5EFF83
:104FC0000B7D33FF0A0A0AFF996600FFCC9900FFA8
:104FD000996633FF663300FF080006007047000043
:104FE00030B5164D8FB02C68BFF35B8F14F0010401
:104FF00021D128462BF06AFAE8B13F23012210495B
:105000000993104B10480893104B0A940594CDE96E
:1050100006430423CDE9033228230A220093CDE975
:105020000B44CDE90144FEF795FF09482CF0B0F997
:1050300028462BF057FA04480FB030BD60240020FA
:1050400018BB079038800308642400209880030868
:10505000DD4F00087047000030B5164D8FB02C684A
:10506000BFF35B8F14F0010420D128462BF02EFAF9
:10507000E0B13F23042210490993104B10480893D4
:10508000104B0A940594CDE906430123CDE903238F
:105090005023CDE90B440093CDE90144FEF75AFFBC
:1050A00009482CF075F928462BF01CFA04480FB07B
:1050B00030BD00BF90240020A4BB07903C800308B3
:1050C000942400209C80030855500008704700007D
:1050D00030B5164D8FB02C68BFF35B8F14F0010410
:1050E00020D128462BF0F2F9E0B13F2301221049EC
:1050F0000993104B10480893104B0A940594CDE97E
:1051000006430423CDE903320A23CDE90B4400937F
:10511000CDE90144FEF71EFF09482CF039F9284675
:105120002BF0E0F904480FB030BD00BFC0240020D0
:10513000DCBB079040800308C4240020A080030843
:10514000CD5000087047000030B5164D8FB02C6868
:10515000BFF35B8F14F0010421D128462BF0B6F980
:10516000E8B13F23232210490993104B10480893BC
:10517000104B0A940793012301940493CDE905434E
:105180000423CDE902431423CDE90B440093FEF739
:10519000E1FE09482CF0FCF828462BF0A3F904485E
:1051A0000FB030BDF0240020ECBB07904480030812
:1051B000F4240020A4800308455100087047000033
:1051C00030B5164D8FB02C68BFF35B8F14F001041F
:1051D00020D128462BF07AF9E0B13F230122104973
:1051E0000993104B10480893104B0A940594CDE98D
:1051F00006430423CDE903322823CDE90B44009371
:10520000CDE90144FEF7A6FE09482CF0C1F8284676
:105210002BF068F904480FB030BD00BF20250020F6
:10522000D8BD07909480030824250020A880030897
:10523000BD51000800207047002070470EB403B530
:1052400003AB002153F8042B019319F07DFA02B04F
:105250005DF804EB03B070470CB407B504AB53F82A
:10526000042B019319F070FA03B05DF804EB02B05F
:1052700070470000436C10B5044673B3038F2BB91D
:10528000184BC521184A19482CF064F8C38E00EB5E
:1052900043035B8C0BB31BF057F8238F012B03D810
:1052A000134BCB21134AEEE7E28E40F63F10531C1E
:1052B0009BB2092B194688BFA3F10A0104EB4101F7
:1052C000498C814209D10A2B04EB420228BF0023FA
:1052D000508C04EB4303588451842046BDE81040B1
:1052E0001AF034BF884E0308914E03083C4F030860
:1052F000864F0308944F03081AF0F1BE10B586B02C
:1053000002AC84E806001A460AAB214605930193D5
:10531000099B0093089B17F03FFE06B010BD0000EC
:1053200038B518BB124B13481C681349B4B1226836
:1053300022440260626822440A60A26814440F4B4F
:1053400000221A8000F038F8054600F033F80C4BC4
:105350001C600C4B1D600C4B188007E00B4B03606E
:105360000B4B0B600B4B1C68002CE8D138BD00BF09
:105370005C250020542500205025002058250020C1
:1053800028580120305801202C5801202CBE0790AD
:10539000E8BD0790ECBE0790044B1B6853F8210052
:1053A000034B1B6803EB4000704700BF50250020F3
:1053B00054250020112070470048704760250020C8
:1053C00010B5084CFFF7C0FE2060FFF7F9FE6060E3
:1053D000FFF77EFEA060FFF703FEE060FFF73CFEF4
:1053E000206110BD6025002010B5002404600C6011
:1053F00014601C6010BD704710B504464FF4AE71C8
:105400002BF062F8204610BD10B50446D0F85801C4
:1054100000F024F82046BDE8104018F0C9BA00009A
:1054200010B50446FEF700FD014B2046236010BD79
:10543000705003080022026070470000054B1B7883
:1054400033B10068044A036892ED000A9B6818476C
:10545000704700BF1000002004000020074B10B56B
:105460000446186840B10A2102F0CCFF20B920465A
:10547000BDE81040FFF7E2BF10BD00BF7003002081
:105480007047043870477047C06803685B6B184703
:10549000A0F10400FFF7F8BF10B5044610212BF06F
:1054A00013F8204610BDA0F10400F5E70022C1600A
:1054B0008260024A02601C3242607047C450030896
:1054C0007047000001224021014800F06FBE00BF7C
:1054D00000180240034B10B504460360FEF7AFFD11
:1054E000204610BDFC50030810B50446FFF7F2FF3C
:1054F0004FF4F07120462AF0E7FF204610BD00006F
:1055000010B50446FEF790FE014B2046236010BD07
:10551000FC500308FEF794BD13B5044601AB074ADF
:105520000A2100F5DE708DED010A1BF0BFFE04F5C7
:10553000947002B0BDE8104019F031BAEC50030885
:1055400010B504460A216423074A00F5DE701BF0FB
:10555000AFFC04F5947019F022FA40210348BDE82D
:10556000104000F028BE00BFD664030800180240B7
:105570007047704704387047704710B504461021D3
:105580002AF0A2FF204610BDA0F10400F5E70000BC
:105590000022C1608260024A026018324260704795
:1055A0003C5103087047000000224021014800F0F0
:1055B000FDBD00BF00180240034B10B50446036058
:1055C000FEF791FF204610BD6851030810B5044650
:1055D000FFF7F2FF4FF4867120462AF075FF204650
:1055E00010BD000010B50446FEF7C0FF014B204679
:1055F000236010BD68510308FEF776BF704704387A
:105600007047704710B5044610212AF05DFF204610
:1056100010BDA0F10400F5E70022C1608260024ADB
:105620000260183242607047A051030870470000C2
:10563000034B10B504460360FFF731F8204610BD58
:10564000CC51030810B50446FFF7F2FF40F21C519D
:1056500020462AF039FF204610BD000010B5044650
:10566000FFF7DEF9014B2046236010BDCC51030843
:10567000FFF716B838B540210446174800F09BFDE7
:105680004021154800F08CFD012805461AD102463C
:105690004021114800F08AFD104AFF2304F1FC006C
:1056A000C4F8242184F8E63084F8405219F077F9E0
:1056B00004F1B40019F073F904F50770BDE838403F
:1056C00019F06DB9002240210348002500F06EFD5D
:1056D000034A4B23E2E700BF0018024013EB5EFFD2
:1056E000B2C4A7FF37B5114D00F264442B788BB1DB
:1056F000082301AA69462046ADF80030ADF8043011
:10570000FFF7A9F8002320462B7003B0BDE8304016
:1057100019F045B9092301AA69462046ADF80030C1
:10572000ADF80430FFF797F80123ECE711000020F3
:1057300073B5D0F89C3300F56774204DD3F88C20F6
:105740002B781F4EFBB11F4BC0F80434C0F808344F
:10575000C0F80C34C0F81034204690470123694645
:105760002046ADF804300096FFF708F900224021EA
:10577000154800F01BFD002320462B7002B0BDE849
:10578000704019F00CB9114BC0F80434C0F808345B
:10579000C0F80C34C0F81034204690470223694604
:1057A0002046ADF804300096FFF7E8F801224021CA
:1057B000054800F0FBFC0123DEE700BF12000020DB
:1057C000B4430308B2C4A7FF0018024013EB5EFF06
:1057D0000F490020D1F8883043F47003C1F88830B5
:1057E0000C4B1A6842F001021A6098601A6822F0A5
:1057F000847222F480321A60074A5A601A6822F4CE
:1058000080221A60D8604FF000638B60704700BF41
:1058100000ED00E000380240103000247047002006
:1058200070470000002337B58DF807300C4B1A780D
:105830000AB901221A700324C5B2013CA8212846E6
:10584000FCF746FA14F0FF048DF807009DF80730C6
:10585000DBB201D0512BF0D19DF8070003B030BD71
:105860007625002013B500240221C0B28DF8074030
:10587000FCF72EFA8DF807009DF8073003F00F03B0
:105880008DF807309DF80730052B01D98DF80740BA
:105890009DF80720034B9DF807005A7000229A706C
:1058A00002B010BD762500202DE9F74F2F4C15468C
:1058B0004FF000080F46A37862788DF807809A426F
:1058C0004DD9092B4ED803EB43035B00DBB2191D06
:1058D00003F1030B03F1060A0533C9B25FFA8BFB30
:1058E0005FFA8AFA5FFA83F8C6B2DFF8849030462E
:1058F000FCF7EEF98DF807009DF807305946304661
:10590000A9F80030FCF7E4F98DF8070051469DF83E
:1059100007303046B9F800201B0203F470631343CC
:105920003B80A9F80030FCF7D3F98DF80700414619
:105930009DF807303046A9F80030FCF7C9F98DF81A
:1059400007009DF80730B9F800201B0203F47063CC
:105950001343A9F800302B80A3780133A37003B060
:10596000BDE8F08FC246C3464146BDE7762500201C
:10597000742500200122A421C0B2FCF78FB90022B7
:10598000A421C0B2FCF78AB9FFF7F9BF7047000045
:10599000024B1A780AB901221A7070477625002046
:1059A000074A032008B5136843F48073136000F0BE
:1059B0002DF80020FCF70CF8FBF7D2FD002008BD05
:1059C000003C0240034A044B11681B780B441360EF
:1059D000704700BF7C25002040000020014B186864
:1059E000704700BF7C25002038B50446FFF7F6FF5E
:1059F0000546631C1EBF044B1B78E418FFF7EEFF3F
:105A0000431BA342FAD338BD4000002007490302DC
:105A1000CA6803F4E06322F4E0621204120C134338
:105A200043F0BF6343F40033CB60704700ED00E008
:105A3000164B30B5DC68C4F30224C4F10703251DFE
:105A4000042B28BF0423062D4FF0FF358CBF033CE9
:105A5000002405FA03F3002805FA04F521EA0303FC
:105A600022EA050203FA04F343EA02034FEA0313AE
:105A7000DBB206DB00F1604000F5614080F80033E6
:105A800030BD00F00F00024A1354F9E700ED00E0CA
:105A900014ED00E0002807DB4109012300F01F009E
:105AA000024A834042F82130704700BF00E100E025
:105AB00000280CDB4309012200F01F0004492033B9
:105AC000824041F82320BFF34F8FBFF36F8F7047A1
:105AD00000E100E0BFF35F8F044B5A6A22F480328A
