:020000040800F2
:1000000000000520351E0008391D00083B1D0008B2
:100010003D1D00083F1D0008411D000800000000B4
:1000200000000000000000000000000081B2000895
:10003000431D00080000000021B3000885B300083C
:10004000851E0008851E0008851E0008851E000804
:10005000851E0008851E0008851E0008851E0008F4
:10006000851E0008851E0008851E0008851E0008E4
:10007000851E0008851E0008851E0008851E0008D4
:10008000851E0008851E0008851E0008851E0008C4
:10009000851E0008851E0008851E0008851E0008B4
:1000A000851E0008851E0008851E0008851E0008A4
:1000B000851E0008851E0008851E0008851E000894
:1000C000851E0008851E0008851E0008851E000884
:1000D000851E0008851E0008851E0008851E000874
:1000E000851E0008851E0008851E0008851E000864
:1000F000851E0008851E0008851E0008851E000854
:10010000851E0008851E0008851E0008851E000843
:10011000851E0008851E0008451D0008851E000874
:10012000851E0008851E0008851E0008851E000823
:10013000851E0008851E0008851E0008851E000813
:10014000851E0008851E0008851E0008851E000803
:10015000851E0008851E0008851E0008851E0008F3
:10016000851E0008851E0008851E0008851E0008E3
:10017000851E0008851E0008851E0008000000007E
:10018000851E0008851E0008851E0008851E0008C3
:10019000851E0008851E0008851E0008851E0008B3
:1001A000551D0008851E0008651D0008851E0008F5
:1001B000851E0008851E0008851E0008851E000893
:0801C000851E0008851E0008E1
:1001D00010B5054C237833B9044B13B10448AFF381
:1001E00000800123237010BDA00400200000000047
:1001F0008481030808B5034B1BB103490348AFF3DF
:10020000008008BD00000000A404002084810308D1
:1002100001F0FF01102A2BDB10F0070F08D010F8B7
:10022000013B013A8B422DD010F0070F42B3F6D1BB
:10023000F0B441EA012141EA014122F007047FF0D4
:1002400000070023F0E80256083C85EA010586EA2B
:10025000010685FA47F5A3FA87F586FA47F6A5FA67
:1002600087F68EB9EED1F0BC01F0FF0102F0070273
:1002700032B110F8013B013A83EA010313B1F8D11E
:100280000020704701387047002D06BF35460338FF
:10029000073815F0010F07D1013015F4807F02BF38
:1002A000013015F4C03F0130F0BC0138704700BF89
:1002B000034613F8012B002AFBD1181A01387047A6
:1002C00081F0004102E000BF83F0004330B54FEA07
:1002D00041044FEA430594EA050F08BF90EA020F74
:1002E0001FBF54EA000C55EA020C7FEA645C7FEA07
:1002F000655C00F0E2804FEA5454D4EB5555B8BF2A
:100300006D420CDD2C4480EA020281EA030382EA9A
:10031000000083EA010180EA020281EA0303362D2C
:1003200088BF30BD11F0004F4FEA01314FF4801CFF
:100330004CEA113102D0404261EB410113F0004F11
:100340004FEA03334CEA133302D0524263EB4303C8
:1003500094EA050F00F0A780A4F10104D5F1200E66
:100360000DDB02FA0EFC22FA05F2801841F10001C1
:1003700003FA0EF2801843FA05F359410EE0A5F195
:1003800020050EF1200E012A03FA0EFC28BF4CF0C6
:10039000020C43FA05F3C01851EBE37101F000457C
:1003A00007D54FF0000EDCF1000C7EEB00006EEB89
:1003B0000101B1F5801F1BD3B1F5001F0CD3490813
:1003C0005FEA30004FEA3C0C04F101044FEA44526A
:1003D00012F5800F80F09A80BCF1004F08BF5FEAF1
:1003E000500C50F1000041EB045141EA050130BDD1
:1003F0005FEA4C0C404141EB0101013C28BFB1F5E3
:10040000801FE9D291F0000F04BF01460020B1FA2D
:1004100081F308BF2033A3F10B03B3F120020CDA00
:100420000C3208DD02F1140CC2F10C0201FA0CF0DE
:1004300021FA02F10CE002F11402D8BFC2F1200C43
:1004400001FA02F120FA0CFCDCBF41EA0C019040F9
:10045000E41AA2BF01EB0451294330BD6FEA040442
:100460001F3C1CDA0C340EDC04F11404C4F120022D
:1004700020FA04F001FA02F340EA030021FA04F33F
:1004800045EA030130BDC4F10C04C4F1200220FA96
:1004900002F001FA04F340EA0300294630BD21FAD4
:1004A00004F0294630BD94F0000F83F4801306BF9A
:1004B00081F480110134013D4EE77FEA645C18BF8E
:1004C0007FEA655C29D094EA050F08BF90EA020F25
:1004D00005D054EA000C04BF1946104630BD91EA1D
:1004E000030F1EBF0021002030BD5FEA545C05D120
:1004F0004000494128BF41F0004130BD14F580045F
:100500003CBF01F5801130BD01F0004545F0FE41D2
:1005100041F470014FF0000030BD7FEA645C1ABF07
:10052000194610467FEA655C1CBF0B46024650EA3E
:10053000013406BF52EA033591EA030F41F400216A
:1005400030BD00BF90F0000F04BF0021704730B5F0
:100550004FF4806404F132044FF000054FF00001C5
:1005600050E700BF90F0000F04BF0021704730B586
:100570004FF4806404F1320410F0004548BF40425B
:100580004FF000013EE700BF42004FEAE2014FEAB0
:1005900031014FEA02701FBF12F07F4393F07F4F8B
:1005A00081F06051704732F07F4208BF704793F08E
:1005B0007F4F04BF41F40021704730B54FF46074A1
:1005C00001F0004521F000411CE700BF50EA0102A4
:1005D00008BF704730B54FF000050AE050EA01024D
:1005E00008BF704730B511F0004502D5404261EBBD
:1005F00041014FF4806404F132045FEA915C3FF4FE
:10060000D8AE4FF003025FEADC0C18BF03325FEA9A
:10061000DC0C18BF033202EBDC02C2F1200300FA4B
:1006200003FC20FA02F001FA03FE40EA0E0021FA70
:1006300002F11444BDE600BF70B54FF0FF0C4CF45E
:10064000E06C1CEA11541DBF1CEA135594EA0C0F10
:1006500095EA0C0F00F0DEF82C4481EA030621EA4B
:100660004C5123EA4C5350EA013518BF52EA033586
:1006700041F4801143F4801338D0A0FB02CE4FF038
:100680000005E1FB02E506F00042E0FB03E54FF068
:100690000006E1FB03569CF0000F18BF4EF0010E60
:1006A000A4F1FF04B6F5007F64F5407404D25FEA5C
:1006B0004E0E6D4146EB060642EAC62141EA55510F
:1006C0004FEAC52040EA5E504FEACE2EB4F1FD0C51
:1006D00088BFBCF5E06F1ED8BEF1004F08BF5FEACF
:1006E000500E50F1000041EB045170BD06F0004681
:1006F00046EA010140EA020081EA0301B4EB5C042E
:10070000C2BFD4EB0C0541EA045170BD41F4801125
:100710004FF0000E013C00F3AB8014F1360FDEBF4A
:10072000002001F0004170BDC4F10004203C35DA26
:100730000C341BDC04F11404C4F1200500FA05F3A9
:1007400020FA04F001FA05F240EA020001F000424A
:1007500021F0004110EBD37021FA04F642EB0601C0
:100760005EEA430E08BF20EAD37070BDC4F10C04EA
:10077000C4F1200500FA04F320FA05F001FA04F2AE
:1007800040EA020001F0004110EBD37041F100019A
:100790005EEA430E08BF20EAD37070BDC4F12005A5
:1007A00000FA05F24EEA020E20FA04F301FA05F20D
:1007B00043EA020321FA04F001F0004121FA04F2B5
:1007C00020EA020000EBD3705EEA430E08BF20EA85
:1007D000D37070BD94F0000F0FD101F000464000BF
:1007E00041EB010111F4801F08BF013CF7D041EA41
:1007F000060195F0000F18BF704703F00046520045
:1008000043EB030313F4801F08BF013DF7D043EA15
:100810000603704794EA0C0F0CEA135518BF95EACB
:100820000C0F0CD050EA410618BF52EA4306D1D152
:1008300081EA030101F000414FF0000070BD50EA71
:10084000410606BF1046194652EA430619D094EAFB
:100850000C0F02D150EA013613D195EA0C0F05D1E5
:1008600052EA03361CBF104619460AD181EA030139
:1008700001F0004141F0FE4141F470014FF00000F1
:1008800070BD41F0FE4141F4780170BD70B54FF08C
:10089000FF0C4CF4E06C1CEA11541DBF1CEA13550C
:1008A00094EA0C0F95EA0C0F00F0A7F8A4EB0504EE
:1008B00081EA030E52EA03354FEA013100F08880E5
:1008C0004FEA03334FF0805545EA131343EA1263AE
:1008D0004FEA022245EA111545EA10654FEA002663
:1008E0000EF000419D4208BF964244F1FD0404F51C
:1008F000407402D25B084FEA3202B61A65EB030578
:100900005B084FEA32024FF480104FF4002CB6EB34
:10091000020E75EB030E22BFB61A754640EA0C00B4
:100920005B084FEA3202B6EB020E75EB030E22BFF4
:10093000B61A754640EA5C005B084FEA3202B6EB35
:10094000020E75EB030E22BFB61A754640EA9C00F4
:100950005B084FEA3202B6EB020E75EB030E22BFC4
:10096000B61A754640EADC0055EA060E18D04FEA82
:10097000051545EA16754FEA06164FEAC30343EA22
:1009800052734FEAC2025FEA1C1CC0D111F4801FEF
:100990000BD141EA00014FF000004FF0004CB6E7E8
:1009A00011F4801F04BF01430020B4F1FD0C88BF87
:1009B000BCF5E06F3FF6AFAEB5EB030C04BFB6EB92
:1009C000020C5FEA500C50F1000041EB045170BD85
:1009D0000EF0004E4EEA113114EB5C04C2BFD4EBB2
:1009E0000C0541EA045170BD41F480114FF0000E36
:1009F000013C90E645EA060E8DE60CEA135594EAB2
:100A00000C0F08BF95EA0C0F3FF43BAF94EA0C0FB4
:100A10000AD150EA01347FF434AF95EA0C0F7FF429
:100A200025AF104619462CE795EA0C0F06D152EA7D
:100A300003353FF4FDAE1046194622E750EA410661
:100A400018BF52EA43067FF4C5AE50EA41047FF472
:100A50000DAF52EA43057FF4EBAE12E74FF0FF3CD7
:100A600006E000BF4FF0010C02E000BF4FF0010CA8
:100A70004DF804CD4FEA410C7FEA6C5C4FEA430C21
:100A800018BF7FEA6C5C1BD001B050EA410C0CBF70
:100A900052EA430C91EA030F02BF90EA020F0020D2
:100AA000704710F1000F91EA030F58BF994208BF39
:100AB00090422CBFD8176FEAE37040F001007047F6
:100AC0004FEA410C7FEA6C5C02D150EA013C07D14D
:100AD0004FEA430C7FEA6C5CD6D152EA033CD3D098
:100AE0005DF8040B704700BF8446104662468C4692
:100AF0001946634600E000BF01B5FFF7B7FF0028C5
:100B000048BF10F1000F01BD4DF808EDFFF7F4FFED
:100B10000CBF012000205DF808FB00BF4DF808ED78
:100B2000FFF7EAFF34BF012000205DF808FB00BF9B
:100B30004DF808EDFFF7E0FF94BF012000205DF8BD
:100B400008FB00BF4DF808EDFFF7CEFF94BF012072
:100B500000205DF808FB00BF4DF808EDFFF7C4FF6B
:100B600034BF012000205DF808FB00BF4FEA410CB4
:100B70007FEA6C5C02D150EA013C0AD14FEA430C97
:100B80007FEA6C5C02D152EA033C02D14FF00000D4
:100B900070474FF0010070474FEA410212F5001212
:100BA00015D211D56FF47873B3EB625212D94FEAB4
:100BB000C12343F0004343EA505311F0004F23FA9E
:100BC00002F018BF404270474FF00000704750EAF3
:100BD000013005D111F0004008BF6FF000407047B0
:100BE0004FF00000704700BF4FEA4102B2F1E0430E
:100BF00024BFB3F5001CDCF1FE5C0DD901F0004C04
:100C00004FEAC0024CEA5070B2F1004F40EB830053
:100C100008BF20F00100704711F0804F21D113F17F
:100C20003872BCBF01F00040704741F480114FEAB8
:100C30005252C2F11802C2F1200C10FA0CF320FA41
:100C400002F018BF40F001004FEAC1234FEAD3235E
:100C500003FA0CFC40EA0C0023FA02F34FEA4303C8
:100C6000CCE77FEA625307D150EA01331EBF4FF051
:100C7000FE4040F44000704701F0004040F0FE406C
:100C800040F40000704700BF7BB972B90029BEBFB5
:100C900000204FF0004106E008BF00281CBF6FF0A5
:100CA00000414FF0FF3000F0B5B9ADF1080C6DE92F
:100CB00004CE002909DB002B1ADB00F04DF8DDF82B
:100CC00004E0DDE9022304B07047404261EB4101DA
:100CD000002B1BDB00F040F8DDF804E0DDE9022327
:100CE00004B0404261EB4101524263EB4303704761
:100CF000524263EB430300F02FF8DDF804E0DDE936
:100D0000022304B0404261EB41017047524263EB61
:100D1000430300F021F8DDF804E0DDE9022304B02C
:100D2000524263EB4303704753B94AB9002908BFE5
:100D300000281CBF4FF0FF314FF0FF3000F06AB9C0
:100D4000ADF1080C6DE904CE00F006F8DDF804E022
:100D5000DDE9022304B070472DE9F047089D0C46F9
:100D6000002B4ED194468C458646B2FA82F262D967
:100D70004AB1C2F12003914020FA03F30CFA02FCBD
:100D8000194300FA02FE4FEA1C471FFA8CF6B1FB2A
:100D9000F7F44FEA1E4307FB141143EA014304FB37
:100DA00006F199420AD91CEB030304F1FF3080F0ED
:100DB0001281994240F20F81023C6344591A1FFA92
:100DC0008EF3B1FBF7F007FB101143EA014300FB80
:100DD00006F69E420AD91CEB030300F1FF3180F0B6
:100DE000FC809E4240F2F980634402389B1B40EA3B
:100DF000044000211DB1D3400022C5E90032BDE806
:100E0000F0878B4205D90DB1C5E9000100210846E4
:100E1000F5E7B3FA83F1002946D1A34202D3904209
:100E2000C0F0F080861A64EB03030120002DE6D0A9
:100E3000C5E90063E3E7002A40F09080A1EB0C04D1
:100E40004FEA1C481FFA8CF70121B4FBF8F64FEA71
:100E50001E4308FB164443EA044307FB06F098428E
:100E600008D91CEB030306F1FF3402D2984200F2CA
:100E7000CD8026461C1A1FFA8EF3B4FBF8F008FB4F
:100E8000104443EA044300FB07F79F4208D91CEBD8
:100E9000030300F1FF3402D29F4200F2B0802046EB
:100EA000DB1B40EA0640A5E7C1F120068B4022FA91
:100EB00006F71F4320FA06FC04FA01F343EA0C0389
:100EC000F44000FA01F8380C4FEA1349B4FBF0FE85
:100ED0001FFA87FC00FB1E4449EA04440EFB0CF990
:100EE000A14502FA01F20AD93C190EF1FF3A80F04D
:100EF0008480A14540F28180AEF1020E3C44A4EB17
:100F000009041FFA83F9B4FBF0F300FB134449EA28
:100F1000044403FB0CFCA44507D93C1903F1FF3042
:100F200067D2A44565D9023B3C4443EA0E40A0FB8E
:100F30000293A4EB0C049C42CE469C4651D34ED067
:100F400055B1B8EB0E0364EB0C0404FA06F6CB4083
:100F50001E43CC40C5E90064002150E7C2F12003E4
:100F600020FA03F10CFA02FC24FA03F394400C4338
:100F70004FEA1C4800FA02FE1FFA8CF7B3FBF8F0A8
:100F800008FB1031230C43EA014300FB07F19942AF
:100F900008D91CEB030300F1FF362CD299422AD961
:100FA000023863445B1AA4B2B3FBF8F108FB1133B7
:100FB00044EA034401FB07F3A34208D91CEB0404F1
:100FC00001F1FF3613D2A34211D902396444E41A65
:100FD00041EA004139E70446F0E6084606E7C8451D
:100FE000AED2B9EB020E63EB070C0138A8E731462D
:100FF000EDE7034699E73046D4E7D6467FE76344FA
:1010000002384DE70646234608460FE7023E634492
:1010100030E700BF704700BF08B500220221024838
:1010200007F041F908BD00BF0020024008B50221C9
:101030000D4807F03EF90D4A13780133DBB2137007
:10104000092B00D808BD0A4BD3ED007AB7EE007A21
:1010500077EE877AC3ED007A134600221A70054BAB
:10106000186809F0FDFDEDE700200240BC040020F7
:1010700004000020D004002008B5024900200BF035
:10108000B9FB08BDB1240008BFF34F8FBFF36F8FCA
:10109000084B0022C3F85022BFF34F8FBFF36F8F6E
:1010A0005A6942F400325A61BFF34F8FBFF36F8F1A
:1010B000704700BF00ED00E010B4154B0022C3F8EC
:1010C0008420BFF34F8FD3F88040C4F34E3000E04C
:1010D0001846C4F3C90243F6E07303EA401343EA37
:1010E00082730B49C1F860321346013A002BF2D1EA
:1010F000431E0028ECD1BFF34F8F4B6943F480337C
:101100004B61BFF34F8FBFF36F8F5DF8044B704798
:1011100000ED00E030B585B0002400940194029405
:10112000039406F0D1FC01258DF800508DF80140A4
:101130004FF0104301931B238DF808308DF80940C0
:101140008DF80A4003238DF80B308DF80C408DF894
:101150000D408DF80E408DF80F40684606F0D2FC29
:101160008DF8015017238DF808308DF80E50684621
:1011700006F0C8FC042006F0B5FC05B030BD000048
:101180002DE9F04F91B000240B940C940D940E9423
:101190000F945F4B1A6B42F010021A631A6B02F045
:1011A00010020092009A1A6B42F002021A631A6B44
:1011B00002F002020192019A1A6B42F001021A63D4
:1011C0001A6B02F001020292029A1A6B42F040027C
:1011D0001A631A6B02F040020392039A1A6B42F4EC
:1011E00000721A631A6B02F400720492049A1A6B6A
:1011F00042F008021A631A6B02F008020592059A7F
:101200001A6B42F480621A631A6B02F480620692CF
:10121000069A1A6B42F020021A631A6B02F020023F
:101220000792079A1A6B42F480721A631A6B02F4DF
:1012300080720892089A1A6B42F080021A631A6B45
:1012400002F080020992099A1A6B42F004021A63B2
:101250001B6B03F004030A930A9BDFF8BCB0224621
:101260001021584607F01FF8DFF8B0A0012208212E
:10127000504607F018F8274F22460221384607F05B
:1012800012F801224FF48051384607F00CF8DFF8CD
:1012900090902246C021484607F005F8DFF8848088
:1012A00022464021404606F0FEFF10230B93012505
:1012B0000C950D9403260E960BA9584606F044FE95
:1012C00008230B930C950D940E940BA9504606F031
:1012D0003BFE41F202030B930C950D940E940BA967
:1012E000384606F031FEC0230B930C950D940E96F4
:1012F0000BA9484606F028FE40230B930C950D944D
:101300000E960BA9404606F01FFE11B0BDE8F08F07
:101310000038024000200240000402400028024041
:10132000000802400018024008B50648064B03605A
:10133000002303714371436183610123036206F05B
:101340000DFC08BDA00600200030024010B5094C7D
:10135000094B236000236360A360E360A362E36240
:1013600023636363204606F0BFFC0121204606F09C
:1013700089FD10BD6006002000B002402DE9F04F4D
:1013800089B0002601960296039604960596069665
:1013900007963B4D3B4B2B606E60AE604FF0040AEE
:1013A000C5F80CA04FF01008C5F8108040236B6101
:1013B0004FF4C073AB61EE614FF400632B624FF4E6
:1013C00080536B62AE624FF00209CDF804900723A0
:1013D0000293CDF80CA004934FF0030BCDF814B09A
:1013E000CDF81890CDF81C900DEB0A01284608F0B6
:1013F00013FF0096244C01272760C4F80480A760DF
:10140000E6604FF6FF722146284608F025FF384671
:1014100006F0CEFAC4F80090C4F80480A760E66035
:101420004FF6FF722146284608F016FFC4F800B0B8
:10143000C4F804800823A360E6604FF6FF722146DB
:10144000284608F009FF4FF40C730093C4F800A07D
:10145000C4F80480A760009BE3604FF6FF7221464A
:10146000284608F0F9FE40F22B71284608F015FFD7
:101470004FF0204343F2D2021A6009B0BDE8F08F6A
:10148000E4040020400100A0C004002038B564201E
:1014900006F08EFA0C4C0D4B23600D4B636000255B
:1014A000A5600123E36025616561A561E5612562B1
:1014B000204607F0DBF82946204607F001FB2946C5
:1014C000204607F02BFB38BD0C060020005C0040D6
:1014D0006847402030B58FB03422002101A834F095
:1014E0009BFE244C244B236000256560A560E560CD
:1014F0002561282363610923A3613523E3610B235D
:10150000236240F21523636240F21B13A36240F290
:101510003523E36240F21D13236384F8345084F8CA
:10152000355084F83650204607F0FCFB01954FF407
:10153000F072029203954FF488730493022105918F
:10154000FF21069107954FF48061089105210991CB
:101550004FF040410A910B920C938DF834508DF866
:1015600035508DF836502A4601A9204607F0C3FCB5
:101570000FB030BD640500200068014008B564204C
:1015800009F0D2F9FBE708B5FFF746FDFFF74EFD7E
:10159000642009F0C9F9F9E730B595B0302200218F
:1015A00008A834F039FE00240394049405940694AA
:1015B00007941D4B1A6C42F080521A641B6C03F0A6
:1015C00080530193019B194B1A6842F440421A6000
:1015D0001B6803F440430293029B012308934FF4DA
:1015E0008033099302250E954FF480030F9319233E
:1015F00010934FF4D87311931295139508A807F020
:10160000DDFF07F0D1FC0F230393049505944FF4FD
:10161000A05306934FF480530793072103A808F0C3
:101620003BFA15B030BD00BF0038024000700040EA
:1016300030B58FB004464FF4807306939F23009318
:101640000023079308934FF08072099205930122BB
:101650000A920B930C930D93074D41F28832694621
:10166000284607F0F3FD41F288322146284607F06C
:10167000D8FE0FB030BD00BF1805002000B591B0F6
:101680004FF480730893EB2302934FF44063099364
:101690004FF40053059300230A934FF040730B93CC
:1016A000EF280FD00A23079300230D930E930F9377
:1016B000019300936A4602A9034807F016FE11B091
:1016C0005DF804FB0623EEE71805002000B583B0A3
:1016D0001048114B036001234360042383601023EF
:1016E000C360182303614FF4A06343610023836147
:1016F000C361036207F00AFF0DF10700FFF798FFCF
:101700009DF80700FFF7BAFF5C2006F0D9F903B097
:101710005DF804FB18050020001000A008B5FFF7D5
:10172000F9FCFFF7B1FCFFF7C7FC06F01DF9FFF766
:1017300033FFFFF725FDFFF7F7FDFFF707FEFFF784
:101740001DFEFFF7A3FEFFF7C5FEFFF7BFFF00F08A
:101750006FFB00F099FB00F096FB09F037F8134A95
:101760000121084609F0CEF9114B1860114A0021F9
:10177000114809F06DF8114B1860114A0021114809
:1017800009F066F8104B1860104A0021104809F063
:101790005FF8104B1860104A0021104809F058F803
:1017A0000F4B186009F030F8FEE700BFEC82030829
:1017B000D0040020688303087D150008E0040020A1
:1017C00044830308951E0008DC04002020830308DE
:1017D00051440008D8040020FC8203088715000843
:1017E000D404002008B50268034B9A4200D008BD1B
:1017F00006F0CCF8FBE700BF001000407047000087
:10180000F0B587B0002301930293039304930593EB
:101810002A4B1B680BB107B0F0BD284B01221A60A0
:10182000274B9A6B42F001029A639B6B03F0010312
:101830000093009B4FF683730193022602960325C3
:1018400004950C24059401A91E4806F07DFB48F27E
:10185000331301930296002703970495059401A979
:10186000194806F071FB4CF203730193029603973B
:101870000495059401A9154806F066FB4FF63F0351
:101880000193029603970495059401A9104806F068
:101890005BFB28230193029603970495059401A905
:1018A0000C4806F051FB0823019302960397049518
:1018B000059401A9084806F047FBACE7C4060020E0
:1018C000003802400010024000180240000C0240A4
:1018D00000140240001C02400008024000B583B022
:1018E0000D4B1A6C42F080521A641A6C02F080524E
:1018F0000092009A5A6C42F480425A645B6C03F482
:1019000080430193019B00220F216FF0010006F03C
:10191000B9F803B05DF804FB003802400268094BD7
:101920009A4200D0704782B003F500631A6B42F40C
:1019300080521A631B6B03F480530193019B02B026
:10194000704700BF0030024002680E4B9A4200D040
:10195000704700B583B0A3F5F0431A6B42F4000260
:101960001A631B6B03F400030193019B0022052102
:101970005A2006F087F85A2006F094F803B05DF874
:1019800004FB00BF00B0024010B5A8B0044600211F
:1019900023912491259126912791842202A834F045
:1019A0003BFC2268184B9A4201D028B010BD4FF47E
:1019B0008033029302A808F059F910BB134C236B33
:1019C00043F080032363236B03F080030093009BA9
:1019D0004FF4C073239312232493012325930323ED
:1019E00026930423279323A9094806F0ADFA236C14
:1019F00043F400032364236C03F400030193019B6D
:101A0000D3E7FFF7FBFED9E7005C00400038024057
:101A1000001C024002680A4B9A4200D0704710B581
:101A2000084A136C23F400031364074C80212046FA
:101A300006F08CFB4FF48071204606F087FB10BD4A
:101A4000005C004000380240001C024070B5ACB0A1
:101A5000044600212791289129912A912B918422D3
:101A600006A834F0D9FB2268494B9A4201D02CB029
:101A700070BD082306934FF4C0730B9305230D9399
:101A800002230C93012310934FF40033119306A803
:101A900008F0ECF8002878D13E4B5A6C42F0806296
:101AA0005A645A6C02F080620092009A1A6B42F0FB
:101AB00010021A631A6B02F010020192019A1A6B5B
:101AC00042F400721A631A6B02F400720292029AD4
:101AD0001A6B42F480621A631A6B02F480620392FA
:101AE000039A1A6B42F040021A631A6B02F040022A
:101AF0000492049A1A6B42F480721A631B6B03F40B
:101B000080730593059B10232793022528950024B5
:101B100029942A940E262B9627A91F4806F014FA1A
:101B20004EF6FF732793289529942A942B9627A97C
:101B30001A4806F009FAF7232793289529942A943E
:101B40002B9627A9164806F0FFF94FF480532793E8
:101B5000289529942A9409232B9327A9114806F044
:101B6000F3F94FF446432793289529942A942B960A
:101B700027A90D4806F0E8F922460521582005F06E
:101B800081FF582005F08EFF71E7FFF737FE83E7EE
:101B9000006801400038024000100240002402406A
:101BA0000028024000180240002002402DE9F043C6
:101BB0008BB000230593069307930893099302685B
:101BC0002E4B9A4202D00BB0BDE8F0832C4B9A6B9F
:101BD00042F002029A639A6B02F002020192019AA9
:101BE0001A6B42F010021A631A6B02F01002029292
:101BF000029A1A6B42F002021A631A6B02F0020296
:101C00000392039A1A6B42F008021A631B6B03F0EB
:101C100008030493049B4FF00409CDF814900225A7
:101C20000695032408940926099605A9154806F087
:101C30008BF94023059306950027079708940A23FC
:101C40000993DFF8488005A9404606F07DF9CDF8F4
:101C50001490069507970894099605A9404606F042
:101C600073F94FF460530593069507970894099606
:101C700005A9054806F068F9A5E700BF001000A017
:101C80000038024000100240000C024000040240F4
:101C900008B5FFF7B5FD08BD30B589B00446214B46
:101CA0001A6C42F010021A641B6C03F010030193CB
:101CB000019B02A903A807F0BBFF069BCBB907F065
:101CC000A7FF0346184AA2FB03239B0C013B1748BE
:101CD000174A026040F2E732C260436000230361AA
:101CE0008360836108F08EFC054630B1284609B058
:101CF00030BD07F08DFF4300E4E70C4808F0E8FA38
:101D000005460028F2D1362005F0CCFE0F2C01D973
:101D10000125EBE700222146362005F0B3FE054BF6
:101D20001C60E3E70038024083DE1B43C806002046
:101D300000100040440000207047FEE7FEE7FEE789
:101D4000FEE7704708B5024808F00EFB08BD00BF6B
:101D5000C806002008B5024807F060F808BD00BFBB
:101D60006405002008B5024805F0EEFF08BD00BF7D
:101D7000600600200120704708B534F005FB1623EB
:101D800003604FF0FF3008BD08B54FF0FF31FFF79B
:101D9000F3FFFEE770B50C461646002506E0AFF3EC
:101DA0000080214601F8010B01350C46B542F6DBF7
:101DB000304670BD70B50C461646002504E014F898
:101DC000010BAFF300800135B542F8DB304670BD42
:101DD0004FF0FF3070474FF400534B6000207047C6
:101DE000012070470020704710B503460C4A0D498A
:101DF0000D48006840B10C4800680344521A9342F1
:101E000006D8094A136010BD0748084C0460F2E781
:101E100034F0BAFA0C2303604FF0FF30F3E700BF51
:101E200000000520000A000014070020A066012021
:101E300070470000DFF834D0002103E00C4B5B5802
:101E4000435004310B480C4B42189A42F6D30B4ACC
:101E500002E0002342F8043B094B9A42F9D305F013
:101E60003FFC34F097FAFFF759FC7047000005205B
:101E700048E803080000002098020020A004002089
:101E8000A0660120FEE7704708B501F02FFD01F0C4
:101E9000FFFC08BD08B501F02BFD08BD10B50446D8
:101EA00041B103681B699847A368C01A636803447B
:101EB000636010BD03681B699847A060F9E740683C
:101EC00070474160704700004FF0E022D2F8FC3DBF
:101ED00043F08073C2F8FC3D054BD3F8B01F054AB0
:101EE0000A43C3F8B02F1A6842F001021A60704723
:101EF000001000E055CEACC5521A02EB5302B2FB03
:101F0000F3F07047014B5868704700BF001000E0C5
:101F100010B5044641B103681B699847A368C01A0D
:101F200063680344636010BD03681B699847A06041
:101F3000F9E70000024A0260024A0260704700BFEF
:101F4000BC8303089483030810B50446044B036064
:101F5000044B03600C2132F004FB204610BD00BF8F
:101F6000BC8303089483030808B5034B034A13603A
:101F7000DB687020984708BD180000201807002073
:101F80000F4B1B68D3B130B583B00D4614461B69A7
:101F90007020984710B9002003B030BD084B1B6873
:101FA0005B6901AA0DF1060170209847BDF8043065
:101FB0002B60BDF8063023600120EDE7002070475C
:101FC00018070020024A0260024A0260704700BF00
:101FD000FC830308E483030808B506F0ABFB08BDE7
:101FE00070B584B004460D464FF47A760296BDF87B
:101FF00024600196089E009606F0B5FB064610B9CF
:10200000304604B070BD29462046FFF7E5FFF7E7EC
:1020100070B584B004460D464FF47A760296BDF84A
:1020200024600196089E009606F072FC064610B9E0
:10203000304604B070BD29462046FFF7CDFFF7E7D4
:1020400010B50446044B0360044B0360042132F0D6
:1020500088FA204610BD00BFFC830308E483030810
:1020600000B585B08DF80F20012301930DF10F020B
:1020700000920A4601460348FFF7B2FF05B05DF83B
:1020800004FB00BF0C06002000B585B00A46002303
:102090008DF80F30012301930DF10F0100910146DE
:1020A0000348FFF7B5FF9DF80F0005B05DF804FB8E
:1020B0000C06002008B5012811D002281AD000B162
:1020C00008BD124B53F82020B2FA82F252091021B7
:1020D00000F1804000F5013006F0E5F8F0E70B4B29
:1020E00053F82020B2FA82F252094021084806F043
:1020F000DAF8E5E7054B53F82020B2FA82F25209EC
:102100008021034806F0CFF8DAE700BF1C07002063
:102110000008024008B5024601280DD0022815D05B
:1021200000B108BD0F4951F8203003B10122102140
:102130000D4806F0B8F8F4E70A4B53F8203003B91D
:1021400000224021094806F0AEF8EAE7054A52F8B5
:1021500020302BB101228021044806F0A4F8E0E7EA
:102160000022F8E71C07002000040240000802409B
:1021700008B501280BD002280ED000B108BD1021EF
:1021800000F1804000F5013006F093F8F6E74021B9
:10219000044806F08EF8F1E78021024806F089F83D
:1021A000ECE700BF0008024008B5012810D0022863
:1021B00013D028B10020012814BF0020012008BD41
:1021C000102100F1804000F5013006F065F8F2E7DB
:1021D0004021044806F060F8EDE78021014806F050
:1021E0005BF8E8E70008024010B5002400E0013485
:1021F000042C0EDCE0B2FFF7D7FF0028F7D0054B28
:1022000053F82430012BF2D0024B012243F8242052
:10221000EDE710BD1C07002080F87810012380F83E
:102220007930704708B590F87A3023B14068036878
:102230001B68984708BD0020FCE70020704700009D
:102240004164003918BF0121014B1970704700BF6C
:102250005F5901200020704708B5836B0BB1084619
:10226000984708BD4FF6FF70704708B5406803688F
:102270009B69984708BD000090F8782090F83430AA
:102280009A420CD00C4B1B78ABB90C4A11880C4B02
:10229000188810801980084B01221A707047064B6D
:1022A0001B7843B1054A1188054B188810801980A6
:1022B000014B00221A7070475859012056590120CD
:1022C0005459012010B4124B0022C3F88420BFF3EC
:1022D0004F8FD3F88040C4F34E3000E01846C4F36B
:1022E000C90243F6E07303EA401343EA82730849E4
:1022F000C1F874321346013A002BF2D1431E002874
:10230000ECD1BFF34F8FBFF36F8F5DF8044B704775
:1023100000ED00E0034A0260034A0260034A0260E3
:10232000704700BF8C850308409F0308E4D403086E
:10233000012805D018B94FF6FF7399420DD07047A8
:102340004FF6FF739942F5D1074B084A1A600022F5
:102350005A609A60064A1A60ECE7034B044A1A6016
:10236000024A1A60EBE700BF2C07002094830308A1
:10237000BC83030838B5044601F0F2FD2368D3F8A6
:102380008C30074920469847002384F84A30054D91
:102390002846FFF799FD2561012384F8703038BD88
:1023A000000000C02C07002008B501F04FFC08BD5C
:1023B00008B501F051FC08BD08B501F0FFFDFFF7BD
:1023C00081FF08BD08B501F0FDFD08BD08B501F0AD
:1023D000FBFB08BD08B501F001FC08BD08B501F024
:1023E00007FC08BD08B501F017FC08BD10B561B1C8
:1023F000C1630264003A18BF012207490A700268EB
:10240000D2F88C201946904710BD044B044A40F284
:10241000D221044832F0ECFF5E5901200C840308FD
:10242000448403089484030808B5094B1B888B4235
:1024300008D8084B1B88934204D8074B1980074BD8
:102440001A8008BD064B074A9E21074832F0D0FF8C
:1024500054590120565901205A5901205C59012034
:10246000DC840308408503089484030810B50446FF
:102470001AF024FA2368D3F8AC302046984710BDF0
:1024800008B519F06DFC08BD10B50446054B036096
:10249000054B0360054B03607C2132F062F8204657
:1024A00010BD00BF8C850308409F0308E4D40308D7
:1024B00008B530B10121064B18681AF019FA01204D
:1024C00008BD0021024B18681AF012FAF7E700BFA6
:1024D0006059012008B54FF6FF710120FFF728FF72
:1024E00008BD08B54FF6FF710020FFF721FF08BDBA
:1024F00008B500220121084608F004FB0B4B1860C8
:1025000040B100220421012008F0EAFB084B1860CA
:1025100030B108BD074B084A2821084832F068FF4F
:10252000074B054A2C21054832F062FF3C0700208A
:10253000380700205C860308A8860308D8860308AD
:102540002087030808B54FF0FF31024B186808F0E8
:1025500043FB08BD3C07002008B5024B186808F093
:102560007FFB08BD3C07002008B50021024B18681E
:1025700008F032FB08BD00BF3C07002008B5024B45
:10258000186808F06DFB08BD3C07002008B5002363
:102590001A4603490348006808F0FCFB08BD00BF69
:1025A000080000203807002010B582B0074C002337
:1025B0001A4601A9206808F039FC4FF0FF330022C9
:1025C00001A9206808F032FC02B010BD38070020D5
:1025D00008B503685B6C984708BD0120704708B5D3
:1025E00003689B6A984708BD08B5034B1B68586889
:1025F00003685B69984708BD60590120FEE7000049
:10260000084A0260084A4FF08061C2F88810BFF3A0
:102610004F8FBFF36F8F054AC260054AC260054AFB
:1026200002607047E888030800E100E00CD6030868
:10263000C4880308BCD5030882B00E4B1A6B42F461
:1026400000021A631A6B02F400020192019A1A69DD
:1026500042F400021A611A6922F400021A61064B60
:10266000064A1A61064A5A61064B4FF080629A6028
:1026700002B070470038024060060020E9250008DB
:10268000FD25000800E100E040F2EF30704710B592
:102690000446FFF7B5FF4FF45A61204631F061FF61
:1026A000204610BD38B505460C4B40F80C3B686021
:1026B00000232B726B722C46094B44F8203B60229E
:1026C00021461AF06FFA5F2303E00022E260013B2B
:1026D0002434002BF9DA284638BD00BFBCD50308E6
:1026E000E888030808B50B290BD8DFE801F00612CB
:1026F000100A0A0A0A0808080808022008BD05206E
:10270000FCE7054B054A6F21054832F071FE0020B9
:10271000F4E70120F2E700BF64870308808703081D
:10272000CC87030808B50A2909D8DFE801F00610AC
:102730000E080808081010101000022008E0054BD1
:10274000054A9021054832F053FE002000E00120A8
:1027500008BD00BF6487030814880308CC870308FA
:102760002DE9F04105460C46497FFFF7BBFF0646C1
:1027700094F81E8041462846FFF7B4FF07464146BD
:102780002846FFF7CFFF628BA38AD21A5C4B1A64EC
:10279000628BA18A521A9A61228BA18A521A1A61FB
:1027A0005863E28AA18A42EA01425A642269DA63E2
:1027B0006268DA602368802B37D013D8202B7DD055
:1027C000402B7BD0042B40F08680237F46EA0363B6
:1027D00043F400334A4AD361576223695361494B3A
:1027E000136020E0B3F5807F10D0B3F5007F72D185
:1027F000237F454A42EA0362414BDA61E2681A628A
:102800005F6222695A613F4A1A600CE0237F3F4AA7
:1028100042EA03623A4BDA61E2681A625F62226955
:102820005A61384A1A60BDE8F081A1680B1D344A2C
:10283000D362237F46EA036343F40033D3615762D4
:10284000236953610B788BB1012B2CD1237FFF2B94
:1028500027D001202A4CE2692D4B13404A88013AC7
:1028600043EA022343F01003E36109E02448C2690C
:10287000274B13404A88013A43EA0223C3610120EF
:102880001F4AD36943F02003D3611D4BDB6913F06A
:10289000200FFAD11A4B10229A6058B1194A1A60C7
:1028A000C1E70020D6E71B4B1B4A4FF48D711B4834
:1028B00032F09EFD124B1A4A1A60B4E7237F46EAB3
:1028C000036343F400330E4AD361576223695361B3
:1028D0000C4B1360A7E7237F46EA036646F40036F5
:1028E000074BDE61627FA37F9A4203D0044B0C4A00
:1028F0001A6098E7024B42F201321A6093E700BF78
:1029000000B0024001230200090002000A00020098
:10291000EF00FFFF608803087C880308CC8703086A
:102920000123010010B50C46897FFFF7FBFE1D4B0C
:102930005863E28AA18A42EA01425A642269DA6350
:10294000628BA18A521A1A642368082B12D0154987
:10295000C86100230B61E268130A03F4784350094D
:1029600000F4FC600343C2F3C40213438B630E4BB9
:102970000B6010BD628BA38AD21A0A4B9A61628BDC
:10298000A18A521A1A615862217F084A42EA0162FA
:10299000DA61E2681A6222695A612269DA60044ADD
:1029A0001A60E6E700B002400123030009000100BD
:1029B00001230200044B1B6813F0010FFAD1024BF4
:1029C00023229A60704700BF00B00240094B5B6948
:1029D00013F4803F0DD0BFF34F8F04E0054BC3F8D5
:1029E0006802203020390029F8DCBFF34F8FBFF395
:1029F0006F8F704700ED00E030B4134C246814F082
:102A0000010FFAD1104C2325A56002256563090446
:102A100041F001016164E063FF2B0CD02146656247
:102A20000A4C44EA0363CB610A624861C860084B00
:102A30000B6030BC7047044B0222DA61029A9A6341
:102A4000044A1A60F5E700BF00B002400900010027
:102A5000010002000100030030B4124C246814F09D
:102A6000010FFAD10F4C2325A560022565631204DE
:102A700042F001026264E063E160FF2B09D01B06B3
:102A800043F00213E36165626061074B236030BC71
:102A900070471B0643F00213024AD36101231360FF
:102AA000F5E700BF00B002400100020030B40D4C59
:102AB000246814F0010FFAD10A4C2325A5600225E1
:102AC0006563120442F001026264E063E1601B0688
:102AD00043F40033E36165626061034B236030BC03
:102AE000704700BF00B0024001000200406970471B
:102AF00090F844007047036B0BB101207047C36A24
:102B00000BB10120704700207047806870478C46E9
:102B100004300FC88CE80F0070470000024A0260C2
:102B2000024A0260704700BFD48C0308948C0308EB
:102B300008B5034B034A40F21221034832F058FC17
:102B400030890308348903089089030810B50446C6
:102B5000044B0360044B0360482131F002FD204622
:102B600010BD00BFD48C0308948C03080B4A02608C
:102B70000B4A0260002242618261C26102624262CB
:102B80008262C262026341638263C263026480F84C
:102B900044200261C260426082607047948C0308E6
:102BA000D48C030810B58C4611461A46036B43B10A
:102BB000846B036CACEB030C04EB0C0033F034FBC4
:102BC00010BDC06A6044F9E7036B73B1036CC91AA6
:102BD000836B585C0B445A7840EA02209A7840EAAA
:102BE0000240DB7840EA03607047C26A5318505CC9
:102BF0005A7840EA02209A7840EA0240DB7840EABC
:102C000003607047036B43B1036CC91A836B585C54
:102C10000B445B7840EA03207047C36A5A18585C3B
:102C2000537840EA0320704770B504460D46006BA8
:102C3000E0B11646E36B93420FD30368DB68984715
:102C4000206B03681B693246A16B984710B90D23AE
:102C500084F844302564A06B70BD092384F84430A7
:102C6000044B054A6521054832F0C2FBE06A08447E
:102C7000F2E700BFE4890308F88903089089030894
:102C8000F8B54369002B3AD0044608228169FFF762
:102C9000CBFFA16904312046FFF796FFA1690844E4
:102CA00000F10803A26A93422FD2A36100F1090147
:102CB00021F00101A16163690133636108222046AB
:102CC000FFF7B2FFA76939462046FFF79BFF05468D
:102CD000B91C2046FFF796FF0646391D2046FFF730
:102CE00073FF43F2300246F26433954208BF9E42BE
:102CF0000CBF01250025D1D10028CFD00AE0064B1A
:102D0000064AAA21064832F073FB01236361236A55
:102D1000A36100252846F8BD3C8A0308888A030879
:102D2000908903082DE9F047ADF51E7D06468A46D9
:102D300014461F4608228169FFF776FFD6F81880EF
:102D400008F104013046FFF73FFF0546024608F14F
:102D500008013046FFF768FF736B03B3804600221B
:102D600001920292019303A811F04CFA24904FF4BF
:102D7000F472502124A80AF015FB2A46414624A8E3
:102D80000BF012FB012124A80AF0A5FB02238DF809
:102D9000D83024A80AF052FCBAF902800BE02D4B7F
:102DA0002D4A40F2AB112D4832F022FB012201A93D
:102DB00024A80AF093FC479B4345F7D3BAF9009047
:102DC000BAF8043013FA89F31BB22B9DAB4200D240
:102DD0001D4607FB08F804EB4804BAF80230BAF8BD
:102DE000062013441BB2DDF8048143451BD29846EC
:102DF00019E003EB430C00EB0C0292F802E01849D7
:102E000001EA0E2109B25278D20002F4FC621143A9
:102E100010F80C2041EAD20124F813100133AB4220
:102E2000E7D304EB4704479B434507D2012201A99E
:102E300024A80AF053FC706B4B46F0E724A80AF074
:102E40006FFB24A80AF008FB01200DF51E7DBDE8EC
:102E5000F08700BFBC8A0308148B0308908903081D
:102E600000F8FFFF70B504460D4601B9012523683F
:102E7000DB6A20469847A84204D22368DB6A2046D2
:102E800098470546E6696B1E06EB0316102206F10D
:102E900008012046FFF7C8FE06F110012046FFF7A3
:102EA00093FE236A18440438A061656170BD000078
:102EB0002DE9F04104460021816180F84410482248
:102EC000FFF7B2FEA56904236A4A29462046FFF7A8
:102ED00069FE002859D105F10801A1610423664A61
:102EE0002046FFF75FFE002858D105F10C06A661C9
:102EF0000423624A31462046FFF754FE002856D18B
:102F000005F110012046FFF75FFE0746002858D064
:102F100004235B4A05F114012046FFF743FE002815
:102F200056D0062384F844304FF000080423554A55
:102F300005F118012046FFF735FE00284BD0072386
:102F400084F84430F51908350C2229462046FFF74D
:102F50006BFE04234C4A05F108012046FFF722FED0
:102F6000002858D094F84430002B54D1A36AAB42C7
:102F700051D9291D2046FFF727FE083005440C22B1
:102F800029462046FFF750FEE3E7032384F8443048
:102F90003E4B3F4AF2213F4832F02AFA042384F89C
:102FA00044303D4B3A4AFA213A4832F021FA05239F
:102FB00084F84430394B364A40F20111354832F03A
:102FC00017FA374B324A40F20711324832F010FA02
:102FD0004FF00108AAE7B8F1000FB3D005F12001C6
:102FE0002046FFF7F1FD2F4BA3FB00239B096360F5
:102FF00005F130012046FFF7E7FDA06005F1400133
:103000002046FFF7E1FDE06005F144012046FFF7AF
:10301000DBFD206196E794F8443023B10A2384F85D
:103020004430BDE8F08105F10C03A3612E1D31464B
:103030002046FFF7C9FD4319083363623146204635
:10304000FFF7C2FD08300544042229462046FFF759
:10305000EBFD0423144A29462046FFF7A3FD28B9B7
:10306000E56101236361A3692362DAE70B2384F836
:103070004430D6E7708B0308C48B0308E48B030845
:10308000108C0308188C0308208C0308788B030825
:10309000948B030890890308CC8B0308EC8B0308FE
:1030A000048C0308D34D6210288C030808B5C16254
:1030B000826200220263FFF7FBFE08BD10B50446E2
:1030C000084621630023E3620B689B689847A0626F
:1030D0002046FFF7EDFE10BD2DE9F041ADF51E7D58
:1030E000A69F002A5AD006460D461C469046002B45
:1030F00054D0436B002B51D00022019202920193D5
:1031000003A811F07FF824904FF4F472502124A802
:103110000AF048F94246294624A80BF045F9012156
:1031200024A80AF0D8F902238DF8D83024A80AF090
:1031300085FA2B9BBDF890529D4228BF1D46419BAE
:10314000BDF89482984528BF984614E08B78154ABC
:1031500002EA032212B24B78DB0003F4FC631A4349
:1031600011F8033B42EAD30224F8022B8142EDD34B
:10317000A7EB45031C44479B434509D2012201A903
:1031800024A80AF0ABFA716B05EB45000844EDE7A3
:1031900024A80AF0C5F924A80AF05EF90DF51E7DF1
:1031A000BDE8F08100F8FFFF2DE9F04F85B09A46A9
:1031B0004369A3B304468846914608228169FFF714
:1031C00033FDA66931462046FFF71CFD8346B11C3E
:1031D0002046FFF717FD0746311D2046FFF7F4FC98
:1031E000054633180833A26A93423AD243F23002BA
:1031F00046F26433934508BF9F4200D1A8B9A36942
:103200002B44A3610DB90833A361A369013323F0F3
:103210000103A361626A93421ED0002025E0154B92
:10322000154A7721154832F0E3F806F10801A1614B
:1032300002462046FFF7F8FC01460E9B0293CDF8AC
:1032400004A0CDF8009043462A462046FFF744FFED
:10325000636901336361D2E701206061236AA3617E
:1032600003E001206061236AA36180F0010005B0E2
:10327000BDE8F08F3C8A0308308C0308908903086E
:10328000014B0360704700BF288D030870477047EB
:103290007047704770477047014B0360704700BF2D
:1032A000388D03087047704700F5987308684968BF
:1032B00003C37047034A0260034A0260034A026084
:1032C000704700BF8C8D03087CDB0308388D030832
:1032D000074A0260074AC0F84421074AC0F844215F
:1032E000064A0260064A0260064A0260704700BF52
:1032F000F88D0308E08D0308748D03088C8D030896
:103300007CDB0308388D0308084A0260084A026023
:10331000084AC0F84421084AC0F84421074A02601C
:10332000074A0260074A0260704700BF4C8E0308DC
:10333000F88D0308E08D0308748D03088C8D030855
:103340007CDB0308388D0308024A0260024A0260EF
:10335000704700BFA08E0308288D0308024A026050
:10336000024A0260704700BFE08D0308748D0308B5
:10337000012070471420704701EB8101890008315A
:103380000844704701EB8101890008310844704707
:10339000012070474FF4A96070474FF4A96303FB05
:1033A00001F10831084470474FF4A96303FB01F1B0
:1033B0000831084470470120704710207047090108
:1033C000083108447047090108310844704708B5BE
:1033D00003464168C26801EB620012F0010F02D19E
:1033E0009B68984708BD4FEA620C51F80C209B6817
:1033F000D358F6E743684BB183680BB1012070479F
:10340000C36813F0010F03D00120704700207047FC
:103410000020704710B50446034B0360042131F0CF
:10342000A0F8204610BD00BF388D030810B5044633
:10343000044B0360044B0360142131F092F82046E2
:1034400010BD00BFA08E0308288D030810B50446E8
:10345000034B0360142131F084F8204610BD00BFF7
:10346000288D030810B50446044B0360044B036029
:10347000102131F076F8204610BD00BFE08D030822
:10348000748D030810B50446054B0360054B0360BB
:10349000054B03604FF4A27131F063F8204610BD74
:1034A0008C8D03087CDB0308388D030810B50446B7
:1034B000094B0360094BC0F84431094BC0F8443153
:1034C000084B0360084B0360084B03604FF4AE7178
:1034D00031F047F8204610BDF88D0308E08D030851
:1034E000748D03088C8D03087CDB0308388D03087A
:1034F00010B504460A4B03600A4B03600A4BC0F840
:1035000044310A4BC0F84431094B0360094B036056
:10351000094B03604FF4AE7131F023F8204610BD23
:103520004C8E0308F88D0308E08D0308748D0308A2
:103530008C8D03087CDB0308388D030808B508462A
:1035400001F02AFB08BD08B501F026FB08BD10B547
:103550000446D0F8580103F037FE20461EF094FAD6
:1035600010BD000010B50446024B036018F04FF97F
:10357000204610BD1C8F030810B50446044B0360A1
:1035800018F045F91C21204630F0EBFF204610BD15
:103590001C8F030810B50446024B036018F037F97E
:1035A000204610BDE88E030810B50446054B0360A5
:1035B00018F02DF94FF4AA61204630F0D2FF2046D2
:1035C00010BD00BFE88E030810B50446024B03602F
:1035D00018F01DF9204610BDB48E030810B504463E
:1035E000044B036018F013F91821204630F0B9FF9E
:1035F000204610BDB48E030810B50446174B036077
:10360000174BC0F89C35174BC0F89C35164BC0F8CB
:10361000E036164BC0F8E036154BC0F89C35154B1C
:10362000C0F89C35144BC0F89C35144BC0F87C3561
:1036300000F27C5018F0EBF82046114B40F82C3F7C
:1036400018F0E5F820460F4B40F8143F18F0DFF86B
:103650000D4B23600D4B2360204610BD508F030897
:103660004C8E0308F88D0308E08D0308748D030861
:103670008C8D03087CDB0308388D03081C8F03083E
:10368000E88E0308B48E0308A08E0308288D030873
:1036900008B50248FFF7B0FF08BD00BF10160020B4
:1036A00010B50446FFF7A8FF4FF4DF61204630F065
:1036B00058FF204610BD000030B5BDF80CC0BDF865
:1036C00010E0324D056041608260C36000230361F9
:1036D000436183618383C383038443848384C3847A
:1036E000038580F82A30C362038680F83430836310
:1036F000C3630364436480F84830012280F84920A2
:1037000080F84A3080F84B30C364A0F85030A0F8FD
:103710005230A0F85430A0F8563080F85830C365C5
:103720000366436680F8682080F8693080F86A3064
:1037300080F86B2080F86C3080F86D3080F86E3047
:1037400080F86F3080F87030436780F8783080F808
:10375000793080F87A2080F87B200D4A10600D4A7D
:10376000A2F800C00C4AA2F800C00C4AA2F800E07F
:103770000B4AA2F800E00B4A1370F4452CBF4FF03F
:10378000000C4FF0010C80F834C030BDE4D40308C5
:1037900060590120545901205A59012056590120DD
:1037A0005C5901205859012010B50446D0F8400159
:1037B00058B10368DB68984738B1D4F84001036812
:1037C0009B6898470023C4F8403110BD08B5FFF747
:1037D000EBFF08BDF8B50446143004F12C0704F2E1
:1037E0007C5604F29C55144B23606060A760E66031
:1037F0002561124B2360124B236018F009F8114B1E
:103800006361384618F004F80F4BE362304617F056
:10381000FFFF0E4BC4F87C3504F5B366304603F069
:10382000BFFC22463146284603F0B0FC284601F092
:10383000B3F92046F8BD00BF288D0308A08E030809
:10384000508F0308B48E0308E88E03081C8F03080A
:1038500008B50C4B1B68BFF35B8F13F0010F01D051
:10386000094808BD074830F07EFE0028F8D0064819
:10387000FFF7B0FF054831F0D9FD024830F07FFE78
:10388000EEE700BF0C16002010160020913600084D
:1038900030B583B001F01CF8054601F01DF8014673
:1038A0000024009423462246284621F00DFE094BB1
:1038B000094A1A60204603F0E7FB084B084A9A6061
:1038C000084821F069FDFFF7C3FF0748FEF752FDE6
:1038D00003B030BDC4590120BC070020DC07002024
:1038E000C00700200C0000204007002070470000A7
:1038F00008B5024818F09DFA08BD00BF4007002037
:103900002DE9F04383B004460D46012807D01CB9C9
:103910004FF6FF739D422AD003B0BDE8F0834FF607
:10392000FF739942F3D1214F214B3B60214B3B6008
:10393000DFF8B8804046FEF7B5FEDFF8A4904846B1
:1039400026F0D4FE1C481FF04BF91C4E4FF4887330
:1039500001934FF4F07300933B464A46414630468C
:10396000FFF7AAFE164B3360164B3360CFE7134BBD
:10397000144A1A60124A1A60134A1A60134B144A06
:103980001A60144A1A600C4B134A1A60134A1A60E0
:10399000134B144A1A60144A1A601448FEF730FE9A
:1039A000024B044A1A60024A1A60B5E70816002062
:1039B000E4830308FC830308C007002040070020BD
:1039C000409F03088C850308E4D403080C00002002
:1039D000D0A10308148D030838DC0308608D0308A8
:1039E000DC070020C0DF030824DB03086808002090
:1039F00008B54FF6FF710120FFF782FF08BD08B53B
:103A00004FF6FF710020FFF77BFF08BD08B590F867
:103A1000253013B103685B69984708BD00207047E3
:103A200081807047C1807047018170474181704734
:103A30007047704770477047704708B5B0F804C0CA
:103A4000A1EB0C01B0F806C0A2EB0C0203685B6DA1
:103A500012B209B2984708BD4FF6FF738381038401
:103A600043841368C3611060704790F825201AB131
:103A700090F8242002B1186070470000014B0360E9
:103A8000704700BF18A003084160704700207047CE
:103A9000B1F90430838001207047704780F8261008
:103AA000704790F826007047B1F908C0B1F90A10C4
:103AB000002202804280A0F804C0C180704700222A
:103AC000028042808280C28070470177704780ED1B
:103AD000080A704780F82410704780F82510704756
:103AE00001207047983070478C30704784307047A1
:103AF000134B144A1A60144AC3F89820134AC3F8A7
:103B000098201349C3F89810124AC3F8842024322D
:103B1000C3F88C20104AC3F88C20104AC3F88420C4
:103B2000C3F884100E4A1A600E4A9A650E4A9A65C6
:103B30000E4A9A650E4A9A650E4A1A60704700BF8F
:103B4000101D002004A1030830D603084CA0030870
:103B50002CA0030850D6030818A003086CA0030883
:103B60009CD603088CA00308E8D60308989E030897
:103B7000D0DB0308009F030810B4124B0022C3F8E7
:103B80008420BFF34F8FD3F88040C4F34E3000E061
:103B90001846C4F3C90243F6E07303EA401343EA4C
:103BA00082730849C1F874321346013A002BF2D1EE
:103BB000431E0028ECD1BFF34F8FBFF36F8F5DF82A
:103BC000044B704700ED00E0034B902283F85A232A
:103BD00083F85823704700BF00E100E0034B4FF02B
:103BE00080629A604FF080729A60704700E100E056
:103BF000084B4FF08062C3F88820BFF34F8FBFF3AC
:103C00006F8F4FF08072C3F88820BFF34F8FBFF3E0
:103C10006F8F704700E100E0094AD368C3F30A03DD
:103C2000013B9BB207490B801169C1F30A010139BD
:103C3000054801801364536B43F0010353637047DD
:103C4000006801400A1D0020081D0020014BD3F828
:103C5000AC00704700680140024BC3F8AC10012271
:103C60005A6270470068014008B5044B5B6913F461
:103C7000803F00D108BDFFF77FFFFBE700ED00E0CC
:103C800008B5044B5B6913F4803F00D108BDFFF712
:103C900073FFFBE700ED00E0024A0260024A0260A7
:103CA000704700BF90A1030850A10308124A0260A8
:103CB000124AC0F89820124AC0F898201149C0F85A
:103CC0009810114AC0F884202432C0F88C200F4A82
:103CD000C0F88C200E4AC0F88420C0F884100D4A29
:103CE00002600D4A82650D4A82650D4A82650D4A61
:103CF00082650D4A0260704704A1030830D60308AC
:103D00004CA003082CA0030850D6030818A00308F1
:103D10006CA003089CD603088CA00308E8D603080F
:103D2000989E0308D0DB0308009F0308044A026042
:103D3000044A0260044A0260044A0260704700BFFD
:103D40008CA00308E8D60308989E0308D0DB03087C
:103D5000024A0260024A0260704700BF409F0308A7
:103D6000E4D403080131C1EBC101C900002242546F
:103D700013461BB10AB9036C836470470133C3EB6C
:103D8000C30110F831100A43F3E7704780F84C1074
:103D90007047000010B50446034B0360082130F063
:103DA000E0FB204610BD00BF18A0030810B5044674
:103DB000044B0360044B03607C2130F0D2FB2046AF
:103DC00010BD00BF409F0308E4D4030810B50446AB
:103DD000044B0360044B0360582130F0C2FB2046C3
:103DE00010BD00BF90A1030850A1030810B5044600
:103DF000064B0360064B0360064B0360064B0360F3
:103E00002C2130F0AEFB204610BD00BF8CA0030873
:103E1000E8D60308989E0308D0DB030810B50446D3
:103E2000144B0360144BC0F89830144BC0F8983012
:103E3000134AC0F89820134BC0F884302433C0F8DC
:103E40008C30114BC0F88C30104BC0F88430C0F867
:103E500084200F4B03600F4B83650F4B83650F4B23
:103E600083650F4B83650F4B0360BC2130F079FBFA
:103E7000204610BD04A1030830D603084CA0030857
:103E80002CA0030850D6030818A003086CA0030850
:103E90009CD603088CA00308E8D60308989E030864
:103EA000D0DB0308009F030808B539B90B4601337E
:103EB000C3EBC30300EBC300407808BD034B044AC7
:103EC00040F29711034831F093FA00BF5C8F03086A
:103ED000708F03080091030808B539B900EB810021
:103EE000406803681B6B1146984708BD034B044AA2
:103EF00040F29111034831F07BFA00BF5C8F030858
:103F0000449103080091030808B529B9C1EBC10326
:103F100000EBC300006908BD024B034A7A21034845
:103F200031F066FA5C8F0308F892030800910308E9
:103F300010B549B9C1EBC10100EBC10100244C61CE
:103F40008C60CA618B6110BD024B034A8321034818
:103F500031F04EFA5C8F0308B09403080091030817
:103F600038B5044617F051FF23685D6E1DF0E2FC82
:103F700001462046A847094A2368D3F88850002301
:103F8000A2F57F312046A847054B064A5A60064AEB
:103F90001A649A644FF4FF225A6438BD00F807C0CF
:103FA000CC1D0020241E002000F40BC008B517F023
:103FB00013FF08BD08B517F01BFF08BD08B517F0C3
:103FC000D5FE08BD08B518F042F808BD08B517F0D1
:103FD000C7FE08BD38B541B905460C46052A58D874
:103FE000DFE802F0094F5861707B414B414AA42140
:103FF000414831F0FDF900EB8403586803681B6900
:104000009847002845D04FF0FF31686D06F006FD57
:10401000631CC3EBC30205EBC20201215170C3EB69
:10402000C30205EBC2020021D170C4EBC40205EB50
:10403000C20291605161C3EBC30305EBC3039B79DB
:1040400013B1134601221A62631CC3EBC30305EBD1
:10405000C30300229A71C4EBC40305EBC3035A6285
:10406000DB6A1BB1686D06F017FD12E00134C4EB8A
:10407000C40405EBC40301229A70286D06F0F0FD1C
:10408000F0E70134C4EBC40300EBC30300225A7011
:104090009A7138BDC4EBC40200EBC2021362002364
:1040A00093605361F5E7C4EBC40200EBC2021362F4
:1040B0000023936053610134C4EBC40400EBC404D7
:1040C000A371E6E70134C4EBC40300EBC303002291
:1040D0005A701C460123A371DBE7003B18BF012384
:1040E0000134C4EBC40400EBC4056B71D1E700BF1D
:1040F0005C8F0308709603080091030838B50546E5
:10410000134B036000238380124B0360124B1B6828
:1041100093F858200AB1D86C00B998680368DB6A34
:104120009847B0FA80F464090B4B1B68D86C30B127
:104130000368DB6A9847002808BF44F001040CB10B
:10414000284638BD054B064A2C21064831F050F967
:104150002CA003086CA003086059012048980308AC
:10416000A8980308E498030838B504460D46FFF7FD
:10417000C5FF054BA3600023E360E560034B2360AC
:104180002433A360204638BD18A0030850D6030886
:1041900010B504460D4B03600D4B03600023838074
:1041A000C380038143818381C38103824382C384AB
:1041B00003854385838534301EF071FF04F1580078
:1041C0001AF0F0F8034BA365204610BD009F0308CA
:1041D0009CD603088CA0030838B50446FFF7D8FF27
:1041E0002046154B40F8843B00252946FFF7BCFFCD
:1041F000124BC4F89830A4F89C50114BC4F8983076
:10420000A4F89E506423A4F8A030C4F8A45084F805
:10421000A85084F8A95084F8AA500023C4F8AC3000
:10422000C4F8B030C4F8B430C4F8B830054BC4F8A2
:104230009830204638BD00BF04A103082CA0030815
:104240004CA0030830D6030808B50C4B1B68BFF31D
:104250005B8F13F0010F01D0094808BD074830F00B
:1042600082F90028F8D00648FFF7B6FF054831F07C
:10427000DDF8024830F083F9EEE700BF0C1D0020A6
:10428000101D0020F13A0008144B1B682BB310B529
:10429000134B1B6C134A11888B420AD004F060FE4A
:1042A0000E4B186803681B6A98470020FDF732FF21
:1042B00010BD0D4B198804F053FE084C226892F88B
:1042C0006A30013382F86A30FEF760F9206818F02E
:1042D000F5FA0020FDF7EEFEEAE77047605901208D
:1042E000006801400A1D0020081D00202DE9F04350
:1042F00083B0054658E0631CC3EBC30305EBC3035F
:104300009B78002B55D101344FE04FF0FF31686DA1
:1043100006F084FBC4EBC40305EBC3039A6AD3F82D
:10432000308042454FD005EB84035E68C4EBC40384
:1043300005EBC303196A00294CD033685B6A304629
:104340009847C4EBC40305EBC30300221A62631C45
:10435000C3EBC30305EBC303DA70686D06F09CFB87
:1043600033684FF4707200925F694FF488734FF4B2
:10437000F07241463046B84707464FF0FF31686D4E
:1043800006F04CFB631CC3EBC30305EBC303DB78F4
:10439000002B3BD00134C4EBC40405EBC404002360
:1043A000E370686D06F078FB0024002CA3D04FF674
:1043B000FF744FF6FF739C42A7D14FF0FF31286D79
:1043C00006F00AFCF0E7C4EBC40305EBC303D3F823
:1043D0003480A8E7C4EBC40305EBC3035B6A002B7E
:1043E000BBD03368D3F824909B6A30469847C4EB1F
:1043F000C40705EBC707796A01443046C847BB6864
:104400007A6A1344BB6000237B62A6E7C4EBC40353
:1044100005EBC303C3F82C809FB133689B6A304619
:1044200098470138C4EBC40305EBC303D8600134DB
:10443000C4EBC40305EBC3031F711C460023A37028
:10444000AFE7C4EBC40305EBC3030122DA60EEE778
:1044500008B50148FFF74AFFCC1D0020002202608A
:1044600042608260C260026142618261C261026236
:1044700042628262C26280F8302080F8312080F887
:10448000322080F8332080F83420012180F8351064
:1044900080F836207047000070B50446114B036069
:1044A0000546114B45F8083B0026002E14DA00257E
:1044B00025646564A564012084F84C002565656564
:1044C00065602A46294606F01DFB2065284606F051
:1044D00049FA6065204670BD2846FFF7BFFF013EE0
:1044E0003835E2E750A1030890A1030838B5044627
:1044F0000D46012805D01CB94FF6FF739D420CD024
:1045000038BD4FF6FF739942F5D109490948FEF7C6
:104510002DFB0948FFF7C0FFEDE7074B074A1A607C
:10452000074A1A60034B074A1A60074A1A60E7E70E
:104530006C1E0020241E0020CC1D002090A103082A
:1045400050A10308D48C0308948C030870B58EB076
:104550000546002434B1184B184A40F2F5111848AA
:1045600030F046FF631CC3EBC30315F833300BB1C7
:104570000134EFE76846FFF771FFC4EBC403DB00CB
:104580000833EE461D440CAEF446BCE80F0028602C
:104590006960AA60EB60E6461035B445F4D1DCF8FA
:1045A00000002860BCF804209CF80630AA80AB719B
:1045B00020460EB070BD00BF4899030878990308E3
:1045C0000091030838B504460D46FFF7BFFF431CB2
:1045D000C3EBC303012204F83320002285F8342002
:1045E0004FF4F073EB864FF488732B872A63C0EB8C
:1045F000C00304EBC3031A61A36C03F5FF21226C13
:10460000656C2A4491420AD8C0EBC00204EBC20296
:10461000136303F57F33A3645363A16438BD034B75
:10462000034A5821034830F0E3FE00BF049B03080F
:10463000449B03080091030810B4CB680A6902FB8D
:1046400003F34C690A6804FB02F2934203D2002090
:104650005DF8044B704790F84C0038B19B1AB3FBDF
:10466000F4F2CA619C4201D8013ACA610120EFE725
:10467000F8B5002969D1054617460C46C1EBC101C2
:10468000C90008310144631CC3EBC30300EBC3033F
:104690005B7853B1444B1B6893F86B00C4EBC403C5
:1046A00005EBC3035A6902445A61C4EBC40305EB2A
:1046B000C303DB6A002B53D02846FFF7BDFF30B998
:1046C000C4EBC40305EBC3031B6A002B5ED04FF0A1
:1046D000FF31686D06F0A2F9C4EBC40305EBC30318
:1046E0001B6A2BB1C4EBC40305EBC3030022DA62DF
:1046F000C4EBC40305EBC303DA6A62B3C4EBC403BF
:1047000005EBC3039A620021D962D96819619968DF
:1047100001319960631CC3EBC30305EBC3031E792E
:104720003A633B685B6938469847AEB9631CC3EB94
:10473000C30305EBC3035B7973B9631CC3EBC3030A
:1047400005EBC30300225A7006E0184B184AE72114
:10475000184830F04DFE0126686D06F09DF900E026
:104760000126631CC3EBC30305EBC3035B782BB9C2
:10477000C4EBC40305EBC3031B6A2BB1C4EBC40336
:1047800005EBC303DB6A1BB13046F8BD0126E8E741
:104790000134C4EBC40405EBC4040123A370286DE9
:1047A00006F05EFAF0E700BF605901205C8F030855
:1047B000EC9C03080091030870B505460C4603689D
:1047C0005E6A00230422B0474FF0FF31686D06F0A7
:1047D00025F9C4EBC40305EBC303DB6A2BB1C4EBBF
:1047E000C40305EBC3030022DA620134C4EBC40343
:1047F00005EBC3030122DA701C4600236370686D69
:1048000006F04AF970BD38B504460D4600EB810349
:1048100058680368DB681146984729462046FFF729
:10482000CBFF38BD70B504460D46114600EB85023E
:104830005068026896681A46B04729462046FFF736
:10484000BBFF70BD08B54FF6FF710120FFF74EFEAC
:1048500008BD08B54FF6FF710020FFF747FE08BD01
:10486000024A0260024A0260704700BFD0A10308FA
:10487000148D030808B5042918D8DFE801F00307F0
:104880000B0F130002F06EFC006808BD02F06AFC1A
:104890004068FAE702F066FC8068F6E702F062FC26
:1048A000C068F2E702F05EFC0069EEE70020ECE78A
:1048B00010B50446044B0360044B036004212FF041
:1048C00050FE204610BD00BFD0A10308148D030880
:1048D00000487047DCA103080C20704769B110B58F
:1048E00082B0002301938DF8033003689C680DF1BA
:1048F000030301AAA04702B010BD00207047C08981
:104900007047008A7047C088704780887047807AF7
:1049100000F07F007047807AC00970470020704720
:104920009FED010A704700BF00000000014B0360CB
:10493000704700BFD4A2030810B50446034B0360C0
:1049400008212FF00EFE204610BD00BFD4A20308A0
:10495000014B0360704700BF84A70308704770478E
:10496000704741607047012303727047704770477A
:1049700070470000024A0260024A0260704700BFAE
:10498000CCA7030884A70308024A0260024A026017
:10499000704700BFA8A7030884A7030810B5044602
:1049A000044B0360044B03600C212FF0DAFD20461A
:1049B00010BD00BFA8A7030884A7030810B50446CC
:1049C000034B03600C212FF0CCFD204610BD00BF2F
:1049D00084A7030810B50446044B0360044B03602E
:1049E00014212FF0BEFD204610BD00BFCCA7030848
:1049F00084A7030808B51CF09DFF0368DB6B98478C
:104A000008BD000030B5B3B00446C0221E4902A85C
:104A100031F0E7FC237C2F2B2CD813B91B4B1B78D0
:104A200063BB02235D1E002B26DD237C302B23D8A5
:104A300032AA02EB830353F8C03CE18993FBF1F205
:104A400001FB1233608913FB00F3A18912FB01F211
:104A5000ADF80030ADF80220ADF80400ADF8061056
:104A6000606803681B6969469847237C0133237497
:104A70002B46D7E70123237233B030BD1CF05AFF19
:104A80001CF05EFFCDE700BFA08103085E59012046
:104A9000114B0360002343600372104A02600374E9
:104AA0000F4B1A880F4B1B889A420AD90732D21033
:104AB000428105330C4A82FB032383810823C3818F
:104AC00070470532084981FB021242810733DB102F
:104AD00083810623C381704784A70308CCA70308FA
:104AE0005459012056590120ABAAAA2AF8B5044608
:104AF0000E4617461DF00CF8214B23600025C4F824
:104B00003C51C4F840511F4B1C601F4B23601F4B8E
:104B1000C4F844311E4BC4F84431C4F84851C4F8B9
:104B20004C51C4F85051C4F85471C4F85861194E2E
:104B3000306803689B6829469847284602F0A4FA23
:104B4000336893F858200AB1D86C00B9986827F0F8
:104B500020FC104B1B6893F858200AB1D86C00B9A0
:104B6000986827F091FC0B4B1B6893F858200AB10A
:104B7000D86C00B9986827F093FC2046F8BD00BFB8
:104B80008C8D0308B4590120F88D0308748D030837
:104B9000E08D03086059012010B489B00346104A23
:104BA000069200220792EC4608AA12E903008CE85C
:104BB00003000C4C02940C4A0292039304AA82E86C
:104BC0000300C3F8483103F5A67C8CE80300029487
:104BD00003F5A272C3F8402109B05DF8044B704799
:104BE000E94D0008748D0308E08D030810B489B006
:104BF0000346104A069200220792EC4608AA12E9E0
:104C000003008CE803000C4C02940C4A02920393BC
:104C100004AA82E80300C3F8483103F5A67C8CE8B7
:104C20000300029403F5A272C3F8402109B05DF8B5
:104C3000044B7047654F0008748D0308E08D03082E
:104C400010B489B00346104A069200220792EC463F
:104C500008AA12E903008CE803000C4C02940C4AE9
:104C60000292039304AA82E80300C3F8483103F5D3
:104C7000A67C8CE80300029403F5A272C3F84021DD
:104C800009B05DF8044B7047C9500008748D0308E3
:104C9000E08D03082DE9F84F0746884615469946EA
:104CA000DDF828A0906803681B6A9847B0F5F07F8C
:104CB00077D3686803681B6A98470F2877D9E86834
:104CC00003681B6A98470B2877D91CF033FE043021
:104CD0001CF07DFED9F8000010B10368DB6898472E
:104CE000D9F8000010B103681B689847386810B104
:104CF00003685B699847D8F8000010B103685B68E7
:104D00009847386810B103681B689847D8F80000C6
:104D100010B103689B689847E86803685B6A0021E4
:104D200098470446294B03604FF0000BC0F804B0CD
:104D300080F808B0264B0360A86803685B6A594690
:104D40009847064602F0EAFA686803685B6A5946C3
:104D500098470546314602F0A9FAC9F80040C8F85C
:104D600000503E60002D2ED02B1DCAF80030C5F833
:104D700008A0F5633368DB68304698472B681B68EA
:104D800028469847214630461EF0ECFD23681B69F3
:104D90002046984723685B69204698472846BDE827
:104DA000F88F0C4B0C4AA3210C4830F021FB0C4B24
:104DB000094AA421094830F01BFB0A4B064AA521E9
:104DC000064830F015FB2B46CFE700BF84A7030849
:104DD000A8A70308DCA203086CA3030840A40308E7
:104DE00088A403082CA5030800B583B0D0F8583177
:104DF0000093054BD0F8542100F59E710348FFF74E
:104E000049FF03B05DF804FBA8590120A459012013
:104E10002DE9F84F0746884615469946DDF828A043
:104E2000906803681B6A9847B0F59C7F77D36868E1
:104E300003681B6A98470F2877D9E86803681B6ADC
:104E400098470B2877D91CF075FD04301CF0BFFD86
:104E5000D9F8000010B10368DB689847D9F8000062
:104E600010B103681B689847386810B103685B6924
:104E70009847D8F8000010B103685B689847386815
:104E800010B103681B689847D8F8000010B1036898
:104E90009B689847E86803685B6A00219847044666
:104EA000294B03604FF0000BC0F804B080F808B045
:104EB000264B0360A86803685B6A59469847064614
:104EC00002F0CCFA686803685B6A59469847054661
:104ED000314602F08BFAC9F80040C8F800503E6035
:104EE000002D2ED02B1DCAF80030C5F808A0F563A0
:104EF0003368DB68304698472B681B68284698471C
:104F0000214630461EF02EFD23681B692046984737
:104F100023685B69204698472846BDE8F88F0C4B0C
:104F20000C4AA3210C4830F063FA0C4B094AA42127
:104F3000094830F05DFA0A4B064AA521064830F0D0
:104F400057FA2B46CFE700BF84A70308A8A703089A
:104F5000DCA20308D0A5030840A4030888A4030822
:104F60002CA5030800B583B0D0F858310093054B49
:104F7000D0F8542100F59E710348FFF749FF03B0B4
:104F80005DF804FBA8590120A45901202DE9F04740
:104F90000746884614469946DDF820A090680368C5
:104FA0001B6A9847B0F5A96F6FD3606803681B6AE6
:104FB00098470F286FD9E06803681B6A9847132841
:104FC0006FD91CF0B7FC04301CF001FDD9F80000CB
:104FD00010B10368DB689847D9F8000010B1036886
:104FE0001B689847386810B103685B699847D8F820
:104FF000000010B103685B689847386810B1036817
:105000001B689847D8F8000010B103689B68984760
:10501000E06803685B6A002198470546FFF738FDA2
:10502000A06803685B6A00219847064602F082FA8E
:10503000606803685B6A002198470446314602F0C5
:105040004BFAC9F80050C8F800403E60002C2ED042
:10505000231DCAF80030C4F808A0F4633368DB6885
:105060003046984723681B682046984729463046B3
:105070001EF078FC2B681B69284698472B685B69F3
:10508000284698472046BDE8F0870A4B0A4AA321E4
:105090000A4830F0ADF90A4B074AA421074830F01E
:1050A000A7F9084B044AA521044830F0A1F923468A
:1050B000CFE700BFDCA20308A4A6030840A40308AE
:1050C00088A403082CA5030800B583B0D0F8583194
:1050D0000093054BD0F8542100F59E710348FFF76B
:1050E00055FF03B05DF804FBA8590120A459012025
:1050F000406A7047806A7047034A0260034A026050
:10510000034A0260704700BFF0A703084CDC0308A5
:10511000FCB00308C2698B88DB0A52F823000B68D5
:10512000184470479446E2B1137BE3B1026A9CF8DD
:105130000D00000200F4E0609CF80BC040EA0C0097
:1051400002EB80025BB11088884205D088420CD8FF
:10515000013B9BB20432F5E792F902007047002050
:105160007047002070470020704700207047000003
:1051700010B50446054B0360054B0360054B036007
:105180002C212FF0EEF9204610BD00BFF0A7030838
:105190004CDC0308FCB0030830B58BB00446BDF806
:1051A00060500895BDF85C5007959DF850500695E5
:1051B0009DF84C5005959DF8485004959DF8445035
:1051C00003959DF8405002959DF83C500195BDF81F
:1051D000385000951EF020F8064B2360159BE361C4
:1051E000169B2362199B63621A9BA36220460BB035
:1051F00030BD00BFF0A70308704770477047704785
:10520000704730B585B0044601816D460368D3F818
:1052100084300146284698473C3495E8070084E8E6
:10522000070005B030BD30B585B0044641816D46FC
:105230000368D3F884300146284698473C3495E803
:10524000070084E8070005B030BD002202804280DC
:105250008280C280704780F83610704738B50446A7
:10526000154603681B6B984723685B6E29462046EA
:10527000984738BD0020704708B590F8253013B125
:1052800003685B69984708BD0022028042804FF6A0
:10529000FF718180C18082607047806C7047704769
:1052A00070470000044A0260044A0260044A4260F7
:1052B000044A4260704700BF54AA0308F0DC0308A8
:1052C00048D40308D0DB0308F0B42A4A02602A4A13
:1052D000C0F8D021294AC0F8D021294FC0F87471F4
:1052E000284CC0F8A841284EC0F87461274DC0F87A
:1052F00074512749C0F87411264AC0F87421DFF8A8
:10530000ACC0C0F828C1DFF8A8C0C0F828C1DFF8D9
:10531000A4C0C0F828C1C0F85041C0F82811C0F896
:105320002821C0F8E070C0F81441C0F8E060C0F86F
:10533000E050C0F8E010C0F8E020C0F89870C0F865
:10534000CC40C0F89860C0F89850C0F89810C0F8E9
:105350009820114CC466C166C266104C0464016496
:1053600002640F4901600F4901600F4941604260CA
:10537000F0BC7047A0AA030888AA0308ACA90308D8
:10538000A0DA0308D4A20308C8D8030860D703082A
:10539000989E0308D0DB030834DA030860D80308BA
:1053A00054AA0308F0DC030848D40308C4A903087E
:1053B0003CD90308D0D7030870470000024A0260B6
:1053C000024A0260704700BF88AA0308ACA903081C
:1053D000064A0260064A0260064A0260064A826283
:1053E000064A0260064A0260704700BFC4A903086B
:1053F0003CD90308D0D70308D4A20308989E030819
:10540000D0DB030810B503464468C26804EB6200B1
:1054100012F0010F02D19B68984710BD4FEA620C51
:1054200054F80C209B68D358F6E743684BB1836867
:105430000BB101207047C36813F0010F03D00120A6
:1054400070470020704700207047000010B50446E8
:10545000084B0360084B0360084B0360084B8362F2
:10546000084B0360084B03604C212FF07AF820466C
:1054700010BD00BFC4A903083CD90308D0D7030856
:10548000D4A20308989E0308D0DB030810B5044695
:10549000044B0360044B036010212FF062F8204698
:1054A00010BD00BF88AA0308ACA9030810B50446C4
:1054B000064B0360064B0360064B4360064B43609C
:1054C00040212FF04EF8204610BD00BF54AA03081B
:1054D000F0DC030848D40308D0DB030810B5044609
:1054E000FFF7F2FE4FF4F07120462FF03AF8204615
:1054F00010BD000070B503685D6B124B1B68A3B153
:1055000004468EB2828D104909888A4213D213F85C
:1055100012200E4B1B6853F8220003681B6B984740
:10552000311A09B22046A84770BD094B094A6C21BF
:1055300009482FF05DFF094B064A6D2106482FF000
:1055400057FF00BFB8590120BC590120C0590120A4
:1055500050A8030894A80308D0A8030818A90308B2
:1055600038B504460D4600F198038B4208D004F18B
:10557000E003AB4209D004F5BA73AB420AD038BDA0
:105580001CF0D8F9FFF732FBF1E72368DB6A20460D
:105590009847F0E723681B6B20469847EFE738B53C
:1055A0000446154603681B6B984723685B6B2946C6
:1055B0002046984738BD38B50446154603689B6BAE
:1055C00098472368DB6B29462046984738BD000082
:1055D0000B4A026000228280C28002814281828165
:1055E000C2810282428242618261C261028442843B
:1055F00080F82420012280F82520024A02607047AA
:10560000D0DB0308989E030810B50446262200212B
:1056100030F002FE2046FFF7DBFF044B2360FF2340
:1056200084F826300023A362204610BD60D803080A
:1056300038B504460D462622002130F0EDFD204607
:10564000FFF7C6FF064B23602B88E384FF2384F813
:1056500028302946204619F090FC204638BD00BF6E
:1056600034DA0308F8B50446018F194B1B888B42C6
:105670002AD9184B1B680BB313F81120164B1B6863
:1056800053F82260154B186801F040FD0746336857
:105690009B6B30469847054633689B6C39463046CD
:1056A000984715FB00F5ADB233685B6A3946304662
:1056B000984715FA80F0A4F8460008E0084B094A1C
:1056C0006C2109482FF094FE0023A0F84630F8BD65
:1056D000BC590120B8590120C0590120C4590120EA
:1056E00050A8030894A80308D0A8030810B50446DE
:1056F0002622002130F090FD2046FFF769FF0D4B78
:1057000023600D4BA3624FF6FF72A2850023236333
:10571000A38684F8362084F8373084F8383084F84B
:105720003930A387E387A4F84020A4F842206364BB
:10573000204610BDD0D70308D4A203082DE9F04FAE
:105740009DB004461DF062FF9C4B23600025E5637D
:10575000A2469B4B4AF8403B5046FFF755FF04F1E9
:105760006C0B4FF6FF73ADF8203008A95846FFF7D1
:105770005FFF04F19809484619F040FD04F1E00884
:10578000404619F03BFD04F594773846FFF7AEFF2D
:105790008C4BC4F828318C4BC4F82831C4F87051B4
:1057A00004F5BA730193184619F028FD874B099345
:1057B0000A9506AB09AA92E8030083E80300844A2D
:1057C000C4F8D021834AC4F8D021C4F8D44104F5E8
:1057D000EC7282E803002A465046FFF7E0FE4FF4E1
:1057E00088724FF4F0715046FFF7E5FE4FF07F43AB
:1057F000A366261D5146304616F01CF82A46294657
:105800005846FFF7CCFEADF82C500BA9584619F0BE
:10581000B4FB5946304616F00DF83E22DC214846CE
:10582000FFF7BDFE4FF00303ADF830304FF0040139
:10583000ADF834100DAA0CA9484619F0D8F9664BFA
:105840000E931023ADF83C30A4F8D0304846FFF753
:1058500009FF4FF0FF3AC4F8D4A0C4F8D8A004F56B
:10586000E87BC4F8C0B04946304615F0E3FF7A2221
:10587000DC214046FFF793FE4FF00302ADF84020D5
:105880004FF00401ADF8441011AA10A9404619F0D8
:10589000AEF9514B12930F23ADF84C30A4F81831E8
:1058A0004046FFF7DFFEC4F81CA1C4F820A1C4F8ED
:1058B00008B14146304615F0BDFF34221A21384662
:1058C000FFF76DFE4FF07F42C4F85821A4F85C51F9
:1058D00002ADD4F82831D3F88430394628469847A9
:1058E00004F5B27395E8070083E807003A4B149378
:1058F0000723ADF85430394B1B68002B52D004F508
:10590000DE75374B1B88072B52D90721354B18689A
:1059100001F0FCFB0346344A0A2128461FF034FB01
:10592000C4F87051384619F0E7F8DFF8AC80CDF8CC
:1059300058800923ADF85C3016A9384619F0FCF8F8
:10594000CDF858803946304615F074FF04F5BA7525
:10595000C122DC212846FFF722FE0323ADF8603088
:105960000423ADF8643019AA18A9284619F03FF9A4
:10597000CDF868800823ADF86C30A4F8AC310198FC
:10598000FFF770FE4FF0FF33C4F8B031C4F8B43104
:10599000C4F89CB12946304615F04CFF20461DB096
:1059A000BDE8F08F114B124A602112482FF020FD04
:1059B000114B0F4A61210F482FF01AFD54AA03081A
:1059C000A0AA03083CD90308C4A90308615500082C
:1059D000ACA9030888AA0308D4A20308B859012077
:1059E000BC590120C459012090C2030850A80308E3
:1059F00058A90308D0A8030818A903087047000095
:105A0000044A0260044A0260044A4260044A426056
:105A1000704700BFDCAA0308F0DC030848D4030881
:105A2000D0DB0308F0B41B4A02601B4AC0F82821EF
:105A30001A4AC0F828211A4FC0F8E070194EC0F871
:105A40001461194DC0F8E050184CC0F8E0401849F6
:105A5000C0F8E010174AC0F8E020C0F89870C0F80D
:105A6000CC60C0F89850C0F89840C0F89810C0F8C2
:105A70009820114CC466C166C266104C046401646F
:105A800002640F4901600F4901600F4941604260A3
:105A9000F0BC704728AB030810AB0308ACA903089F
:105AA000A0DA0308D4A20308C8D8030860D7030803
:105AB000989E0308D0DB030834DA030860D8030893
:105AC000DCAA0308F0DC030848D403087047000090
:105AD000024A0260024A0260704700BF10AB03082E
