:020000040800F2
:1000000000000520ED1C0008091C00080B1C00085E
:100010000D1C00080F1C0008111C00080000000047
:100020000000000000000000000000001186000831
:10003000131C000800000000B186000815870008A6
:100040003D1D00083D1D00083D1D00083D1D000828
:100050003D1D00083D1D00083D1D00083D1D000818
:100060003D1D00083D1D00083D1D00083D1D000808
:100070003D1D00083D1D00083D1D00083D1D0008F8
:100080003D1D00083D1D00083D1D00083D1D0008E8
:100090003D1D00083D1D00083D1D00083D1D0008D8
:1000A0003D1D00083D1D00083D1D00083D1D0008C8
:1000B0003D1D00083D1D00083D1D00083D1D0008B8
:1000C0003D1D00083D1D00083D1D00083D1D0008A8
:1000D0003D1D00083D1D00083D1D00083D1D000898
:1000E0003D1D00083D1D00083D1D00083D1D000888
:1000F0003D1D00083D1D00083D1D00083D1D000878
:100100003D1D00083D1D00083D1D00083D1D000867
:100110003D1D00083D1D0008151C00083D1D000880
:100120003D1D00083D1D00083D1D00083D1D000847
:100130003D1D00083D1D00083D1D00083D1D000837
:100140003D1D00083D1D00083D1D00083D1D000827
:100150003D1D00083D1D00083D1D00083D1D000817
:100160003D1D00083D1D00083D1D00083D1D000807
:100170003D1D00083D1D00083D1D00080000000059
:100180003D1D00083D1D00083D1D00083D1D0008E7
:100190003D1D00083D1D00083D1D00083D1D0008D7
:1001A000211C00083D1D00082D1C00083D1D0008F5
:1001B0003D1D00083D1D00083D1D00083D1D0008B7
:0801C0003D1D00083D1D000873
:1001D00010B5054C237833B9044B13B10448AFF381
:1001E00000800123237010BDA00400200000000047
:1001F0003C3D030808B5034B1BB103490348AFF36B
:10020000008008BD00000000A40400203C3D03085D
:1002100001F0FF01102A2BDB10F0070F08D010F8B7
:10022000013B013A8B422DD010F0070F42B3F6D1BB
:10023000F0B441EA012141EA014122F007047FF0D4
:1002400000070023F0E80256083C85EA010586EA2B
:10025000010685FA47F5A3FA87F586FA47F6A5FA67
:1002600087F68EB9EED1F0BC01F0FF0102F0070273
:1002700032B110F8013B013A83EA010313B1F8D11E
:100280000020704701387047002D06BF35460338FF
:10029000073815F0010F07D1013015F4807F02BF38
:1002A000013015F4C03F0130F0BC0138704700BF89
:1002B000034613F8012B002AFBD1181A01387047A6
:1002C00081F0004102E000BF83F0004330B54FEA07
:1002D00041044FEA430594EA050F08BF90EA020F74
:1002E0001FBF54EA000C55EA020C7FEA645C7FEA07
:1002F000655C00F0E2804FEA5454D4EB5555B8BF2A
:100300006D420CDD2C4480EA020281EA030382EA9A
:10031000000083EA010180EA020281EA0303362D2C
:1003200088BF30BD11F0004F4FEA01314FF4801CFF
:100330004CEA113102D0404261EB410113F0004F11
:100340004FEA03334CEA133302D0524263EB4303C8
:1003500094EA050F00F0A780A4F10104D5F1200E66
:100360000DDB02FA0EFC22FA05F2801841F10001C1
:1003700003FA0EF2801843FA05F359410EE0A5F195
:1003800020050EF1200E012A03FA0EFC28BF4CF0C6
:10039000020C43FA05F3C01851EBE37101F000457C
:1003A00007D54FF0000EDCF1000C7EEB00006EEB89
:1003B0000101B1F5801F1BD3B1F5001F0CD3490813
:1003C0005FEA30004FEA3C0C04F101044FEA44526A
:1003D00012F5800F80F09A80BCF1004F08BF5FEAF1
:1003E000500C50F1000041EB045141EA050130BDD1
:1003F0005FEA4C0C404141EB0101013C28BFB1F5E3
:10040000801FE9D291F0000F04BF01460020B1FA2D
:1004100081F308BF2033A3F10B03B3F120020CDA00
:100420000C3208DD02F1140CC2F10C0201FA0CF0DE
:1004300021FA02F10CE002F11402D8BFC2F1200C43
:1004400001FA02F120FA0CFCDCBF41EA0C019040F9
:10045000E41AA2BF01EB0451294330BD6FEA040442
:100460001F3C1CDA0C340EDC04F11404C4F120022D
:1004700020FA04F001FA02F340EA030021FA04F33F
:1004800045EA030130BDC4F10C04C4F1200220FA96
:1004900002F001FA04F340EA0300294630BD21FAD4
:1004A00004F0294630BD94F0000F83F4801306BF9A
:1004B00081F480110134013D4EE77FEA645C18BF8E
:1004C0007FEA655C29D094EA050F08BF90EA020F25
:1004D00005D054EA000C04BF1946104630BD91EA1D
:1004E000030F1EBF0021002030BD5FEA545C05D120
:1004F0004000494128BF41F0004130BD14F580045F
:100500003CBF01F5801130BD01F0004545F0FE41D2
:1005100041F470014FF0000030BD7FEA645C1ABF07
:10052000194610467FEA655C1CBF0B46024650EA3E
:10053000013406BF52EA033591EA030F41F400216A
:1005400030BD00BF90F0000F04BF0021704730B5F0
:100550004FF4806404F132044FF000054FF00001C5
:1005600050E700BF90F0000F04BF0021704730B586
:100570004FF4806404F1320410F0004548BF40425B
:100580004FF000013EE700BF42004FEAE2014FEAB0
:1005900031014FEA02701FBF12F07F4393F07F4F8B
:1005A00081F06051704732F07F4208BF704793F08E
:1005B0007F4F04BF41F40021704730B54FF46074A1
:1005C00001F0004521F000411CE700BF50EA0102A4
:1005D00008BF704730B54FF000050AE050EA01024D
:1005E00008BF704730B511F0004502D5404261EBBD
:1005F00041014FF4806404F132045FEA915C3FF4FE
:10060000D8AE4FF003025FEADC0C18BF03325FEA9A
:10061000DC0C18BF033202EBDC02C2F1200300FA4B
:1006200003FC20FA02F001FA03FE40EA0E0021FA70
:1006300002F11444BDE600BF70B54FF0FF0C4CF45E
:10064000E06C1CEA11541DBF1CEA135594EA0C0F10
:1006500095EA0C0F00F0DEF82C4481EA030621EA4B
:100660004C5123EA4C5350EA013518BF52EA033586
:1006700041F4801143F4801338D0A0FB02CE4FF038
:100680000005E1FB02E506F00042E0FB03E54FF068
:100690000006E1FB03569CF0000F18BF4EF0010E60
:1006A000A4F1FF04B6F5007F64F5407404D25FEA5C
:1006B0004E0E6D4146EB060642EAC62141EA55510F
:1006C0004FEAC52040EA5E504FEACE2EB4F1FD0C51
:1006D00088BFBCF5E06F1ED8BEF1004F08BF5FEACF
:1006E000500E50F1000041EB045170BD06F0004681
:1006F00046EA010140EA020081EA0301B4EB5C042E
:10070000C2BFD4EB0C0541EA045170BD41F4801125
:100710004FF0000E013C00F3AB8014F1360FDEBF4A
:10072000002001F0004170BDC4F10004203C35DA26
:100730000C341BDC04F11404C4F1200500FA05F3A9
:1007400020FA04F001FA05F240EA020001F000424A
:1007500021F0004110EBD37021FA04F642EB0601C0
:100760005EEA430E08BF20EAD37070BDC4F10C04EA
:10077000C4F1200500FA04F320FA05F001FA04F2AE
:1007800040EA020001F0004110EBD37041F100019A
:100790005EEA430E08BF20EAD37070BDC4F12005A5
:1007A00000FA05F24EEA020E20FA04F301FA05F20D
:1007B00043EA020321FA04F001F0004121FA04F2B5
:1007C00020EA020000EBD3705EEA430E08BF20EA85
:1007D000D37070BD94F0000F0FD101F000464000BF
:1007E00041EB010111F4801F08BF013CF7D041EA41
:1007F000060195F0000F18BF704703F00046520045
:1008000043EB030313F4801F08BF013DF7D043EA15
:100810000603704794EA0C0F0CEA135518BF95EACB
:100820000C0F0CD050EA410618BF52EA4306D1D152
:1008300081EA030101F000414FF0000070BD50EA71
:10084000410606BF1046194652EA430619D094EAFB
:100850000C0F02D150EA013613D195EA0C0F05D1E5
:1008600052EA03361CBF104619460AD181EA030139
:1008700001F0004141F0FE4141F470014FF00000F1
:1008800070BD41F0FE4141F4780170BD70B54FF08C
:10089000FF0C4CF4E06C1CEA11541DBF1CEA13550C
:1008A00094EA0C0F95EA0C0F00F0A7F8A4EB0504EE
:1008B00081EA030E52EA03354FEA013100F08880E5
:1008C0004FEA03334FF0805545EA131343EA1263AE
:1008D0004FEA022245EA111545EA10654FEA002663
:1008E0000EF000419D4208BF964244F1FD0404F51C
:1008F000407402D25B084FEA3202B61A65EB030578
:100900005B084FEA32024FF480104FF4002CB6EB34
:10091000020E75EB030E22BFB61A754640EA0C00B4
:100920005B084FEA3202B6EB020E75EB030E22BFF4
:10093000B61A754640EA5C005B084FEA3202B6EB35
:10094000020E75EB030E22BFB61A754640EA9C00F4
:100950005B084FEA3202B6EB020E75EB030E22BFC4
:10096000B61A754640EADC0055EA060E18D04FEA82
:10097000051545EA16754FEA06164FEAC30343EA22
:1009800052734FEAC2025FEA1C1CC0D111F4801FEF
:100990000BD141EA00014FF000004FF0004CB6E7E8
:1009A00011F4801F04BF01430020B4F1FD0C88BF87
:1009B000BCF5E06F3FF6AFAEB5EB030C04BFB6EB92
:1009C000020C5FEA500C50F1000041EB045170BD85
:1009D0000EF0004E4EEA113114EB5C04C2BFD4EBB2
:1009E0000C0541EA045170BD41F480114FF0000E36
:1009F000013C90E645EA060E8DE60CEA135594EAB2
:100A00000C0F08BF95EA0C0F3FF43BAF94EA0C0FB4
:100A10000AD150EA01347FF434AF95EA0C0F7FF429
:100A200025AF104619462CE795EA0C0F06D152EA7D
:100A300003353FF4FDAE1046194622E750EA410661
:100A400018BF52EA43067FF4C5AE50EA41047FF472
:100A50000DAF52EA43057FF4EBAE12E74FF0FF3CD7
:100A600006E000BF4FF0010C02E000BF4FF0010CA8
:100A70004DF804CD4FEA410C7FEA6C5C4FEA430C21
:100A800018BF7FEA6C5C1BD001B050EA410C0CBF70
:100A900052EA430C91EA030F02BF90EA020F0020D2
:100AA000704710F1000F91EA030F58BF994208BF39
:100AB00090422CBFD8176FEAE37040F001007047F6
:100AC0004FEA410C7FEA6C5C02D150EA013C07D14D
:100AD0004FEA430C7FEA6C5CD6D152EA033CD3D098
:100AE0005DF8040B704700BF8446104662468C4692
:100AF0001946634600E000BF01B5FFF7B7FF0028C5
:100B000048BF10F1000F01BD4DF808EDFFF7F4FFED
:100B10000CBF012000205DF808FB00BF4DF808ED78
:100B2000FFF7EAFF34BF012000205DF808FB00BF9B
:100B30004DF808EDFFF7E0FF94BF012000205DF8BD
:100B400008FB00BF4DF808EDFFF7CEFF94BF012072
:100B500000205DF808FB00BF4DF808EDFFF7C4FF6B
:100B600034BF012000205DF808FB00BF4FEA410CB4
:100B70007FEA6C5C02D150EA013C0AD14FEA430C97
:100B80007FEA6C5C02D152EA033C02D14FF00000D4
:100B900070474FF0010070474FEA410212F5001212
:100BA00015D211D56FF47873B3EB625212D94FEAB4
:100BB000C12343F0004343EA505311F0004F23FA9E
:100BC00002F018BF404270474FF00000704750EAF3
:100BD000013005D111F0004008BF6FF000407047B0
:100BE0004FF00000704700BF4FEA4102B2F1E0430E
:100BF00024BFB3F5001CDCF1FE5C0DD901F0004C04
:100C00004FEAC0024CEA5070B2F1004F40EB830053
:100C100008BF20F00100704711F0804F21D113F17F
:100C20003872BCBF01F00040704741F480114FEAB8
:100C30005252C2F11802C2F1200C10FA0CF320FA41
:100C400002F018BF40F001004FEAC1234FEAD3235E
:100C500003FA0CFC40EA0C0023FA02F34FEA4303C8
:100C6000CCE77FEA625307D150EA01331EBF4FF051
:100C7000FE4040F44000704701F0004040F0FE406C
:100C800040F40000704700BF7BB972B90029BEBFB5
:100C900000204FF0004106E008BF00281CBF6FF0A5
:100CA00000414FF0FF3000F0B5B9ADF1080C6DE92F
:100CB00004CE002909DB002B1ADB00F04DF8DDF82B
:100CC00004E0DDE9022304B07047404261EB4101DA
:100CD000002B1BDB00F040F8DDF804E0DDE9022327
:100CE00004B0404261EB4101524263EB4303704761
:100CF000524263EB430300F02FF8DDF804E0DDE936
:100D0000022304B0404261EB41017047524263EB61
:100D1000430300F021F8DDF804E0DDE9022304B02C
:100D2000524263EB4303704753B94AB9002908BFE5
:100D300000281CBF4FF0FF314FF0FF3000F06AB9C0
:100D4000ADF1080C6DE904CE00F006F8DDF804E022
:100D5000DDE9022304B070472DE9F047089D0C46F9
:100D6000002B4ED194468C458646B2FA82F262D967
:100D70004AB1C2F12003914020FA03F30CFA02FCBD
:100D8000194300FA02FE4FEA1C471FFA8CF6B1FB2A
:100D9000F7F44FEA1E4307FB141143EA014304FB37
:100DA00006F199420AD91CEB030304F1FF3080F0ED
:100DB0001281994240F20F81023C6344591A1FFA92
:100DC0008EF3B1FBF7F007FB101143EA014300FB80
:100DD00006F69E420AD91CEB030300F1FF3180F0B6
:100DE000FC809E4240F2F980634402389B1B40EA3B
:100DF000044000211DB1D3400022C5E90032BDE806
:100E0000F0878B4205D90DB1C5E9000100210846E4
:100E1000F5E7B3FA83F1002946D1A34202D3904209
:100E2000C0F0F080861A64EB03030120002DE6D0A9
:100E3000C5E90063E3E7002A40F09080A1EB0C04D1
:100E40004FEA1C481FFA8CF70121B4FBF8F64FEA71
:100E50001E4308FB164443EA044307FB06F098428E
:100E600008D91CEB030306F1FF3402D2984200F2CA
:100E7000CD8026461C1A1FFA8EF3B4FBF8F008FB4F
:100E8000104443EA044300FB07F79F4208D91CEBD8
:100E9000030300F1FF3402D29F4200F2B0802046EB
:100EA000DB1B40EA0640A5E7C1F120068B4022FA91
:100EB00006F71F4320FA06FC04FA01F343EA0C0389
:100EC000F44000FA01F8380C4FEA1349B4FBF0FE85
:100ED0001FFA87FC00FB1E4449EA04440EFB0CF990
:100EE000A14502FA01F20AD93C190EF1FF3A80F04D
:100EF0008480A14540F28180AEF1020E3C44A4EB17
:100F000009041FFA83F9B4FBF0F300FB134449EA28
:100F1000044403FB0CFCA44507D93C1903F1FF3042
:100F200067D2A44565D9023B3C4443EA0E40A0FB8E
:100F30000293A4EB0C049C42CE469C4651D34ED067
:100F400055B1B8EB0E0364EB0C0404FA06F6CB4083
:100F50001E43CC40C5E90064002150E7C2F12003E4
:100F600020FA03F10CFA02FC24FA03F394400C4338
:100F70004FEA1C4800FA02FE1FFA8CF7B3FBF8F0A8
:100F800008FB1031230C43EA014300FB07F19942AF
:100F900008D91CEB030300F1FF362CD299422AD961
:100FA000023863445B1AA4B2B3FBF8F108FB1133B7
:100FB00044EA034401FB07F3A34208D91CEB0404F1
:100FC00001F1FF3613D2A34211D902396444E41A65
:100FD00041EA004139E70446F0E6084606E7C8451D
:100FE000AED2B9EB020E63EB070C0138A8E731462D
:100FF000EDE7034699E73046D4E7D6467FE76344FA
:1010000002384DE70646234608460FE7023E634492
:1010100030E700BF704700BF00220221014804F002
:10102000EDBE00BF0020024008B502210D4804F0CB
:10103000EAFE0D4A13780133DBB2092B137010D985
:101040000A4BB7EE007AD3ED007A77EE877AC3EDDC
:10105000007A00231370064B1868BDE8084007F0BB
:1010600035B808BD00200240BC0400200400002068
:10107000D00400200149002008F0C8BCA9210008C4
:1010800008B5642006F0D8FEFBE708B5FFF7C4FFFB
:10109000FFF7CAFF642006F0CFFEF9E710B594B061
:1010A0001022002102240AA830F090FE1422002110
:1010B00003A830F08BFE1D4B192108A81A6C42F0D2
:1010C00080521A641B6C03F080530193019B184BF0
:1010D0001A6842F440421A6001221B6803F440433C
:1010E0000293029B4FF48033CDE908234FF4800331
:1010F000CDE90E434FF4D873CDE91244CDE9101376
:1011000005F06AFE05F0C8FB0F2300200721CDE99A
:1011100003344FF4A053CDE905034FF4805303A8E3
:10112000079306F041F814B010BD00BF003802402C
:101130000070004030B54FF480738FB04FF0807274
:101140000E4D06939F23099201220093002304462B
:10115000694628460593CDE90A2341F28832CDE954
:101160000733CDE90C3305F003FD41F28832214607
:10117000284605F0CDFD0FB030BD00BF180500209A
:1011800000B54FF4807391B04FF04072EF28089390
:101190004FF0EB0302A90D4802934FF4406309930B
:1011A0004FF4005305934FF00003CDE90A3214BF0A
:1011B0000A2206220F9307926A46CDE90D33CDE944
:1011C000003305F01AFD11B05DF804FB180500208E
:1011D0002DE980489BB01022002101250DA84FF079
:1011E000104930F0F3FD002404F09CFAC74B0DA821
:1011F000ADF834501094CDE90E9304F0B1FA1723F2
:101200000DA88DF835508DF83C308DF8425004F023
:10121000A7FA042004F094FABFF34F8FBFF36F8F47
:10122000BB4AC2F85042BFF34F8FBFF36F8F536971
:1012300043F400335361BFF34F8FBFF36F8FC2F896
:101240008440BFF34F8FD2F8803043F6E074C3F38D
:10125000C900C3F34E335B0103EA0406014646EAC4
:1012600081750139C2F86052F9D2203B13F1200F89
:10127000F2D1BFF34F8F536943F480335361BFF30F
:101280004F8FBFF36F8F04F0B3F90024FFF706FF11
:10129000142200210DA830F099FD9E4B10219E488C
:1012A0001A6B01274FF010084FF0030B42F01002A9
:1012B0004FF0400A994D4FF004091A631A6B984E8B
:1012C00002F010020292029A1A6B42F002021A63B2
:1012D0001A6B02F002020392039A1A6B42F00102A7
:1012E0001A631A6B02F001020492049A1A6B42F01C
:1012F00040021A631A6B02F040020592059A1A6BBB
:1013000042F400721A631A6B02F400720692069A93
:101310001A6B42F008021A631A6B02F00802079275
:10132000079A1A6B42F480621A631A6B02F48062A5
:101330000892089A1A6B42F020021A631A6B02F0A4
:1013400020020992099A1A6B42F480721A631A6B8E
:1013500002F480720A920A9A1A6B42F080021A63AF
:101360001A6B02F080020B920B9A1A6B42F0040285
:101370001A6300221B6B03F004030C930C9B04F014
:101380003DFD01220821674804F038FD00220221BA
:10139000654804F033FD01224FF48051624804F0A7
:1013A0002DFD0022C021614804F028FD00224021CB
:1013B0005F4804F023FD0DA95748CDE90D87CDE91D
:1013C0000F4B04F097FB08230DA95648CDE90D37C4
:1013D000CDE90F4404F08EFB41F202020DA9524800
:1013E000CDE90D27CDE90F4404F084FBC0220DA9FF
:1013F0004E48CDE90D27CDE90F4B04F07BFB0DA93D
:101400004B48CDE90DA7CDE90F4B04F073FB4948DC
:10141000494A848002600762C0E9054404F0CCF9BF
:10142000464A2846C5E90024C5E90244C5E90A44FC
:10143000C5E90C4404F05FFA39462846404D04F0F3
:1014400013FB404A4FF40063C6F814A04FF0020AA1
:101450000DA93046B460B462CDF84CA0C6E90024B2
:101460004FF4C072C6E906244FF48052C6E9083230
:101470000722C6E90398CDE90DA2CDE90F92CDE987
:1014800011BA06F0E7F929464FF6FF72304601948B
:10149000C5E90078C5E9027406F0FCF9384604F0A5
:1014A000CBF829464FF6FF723046C5E900A8C5E9DA
:1014B000027406F0EFF9082329464FF6FF72304612
:1014C000C5E900B8C5E9023406F0E4F94FF40C733D
:1014D0004FF6FF72294601933046019BAF60EB60E7
:1014E000C5E9009806F0D6F940F22B713046164D4A
:1014F00006F0EFF94FF0204343F2D202642040F2AD
:1015000015261A6004F098F820E000BF1B000003C5
:1015100000ED00E0003802400004024060060020B8
:10152000E40400200028024000200240000802409D
:1015300000180240A00600200030024000B0024027
:10154000C0040020400100A00C060020514B524A6C
:1015500028462C62C5E90023C5E90247C5E90444D1
:10156000C5E9064404F08BFD2146284604F0AEFF91
:1015700021462846494D04F0CFFF342221460DEB89
:10158000020030F023FC464B2821352040F2352C58
:101590002C61AC8685F83640C5E900340923C5E9DD
:1015A00005130B23C5E9070340F21B132846C5E9C1
:1015B000096340F21D13C5E90244C5E90BC305F0F8
:1015C00057F8FF214FF4806E4FF4F0724FF4887398
:1015D00028460D941893ADF864408DF86640CDE927
:1015E00012140521CDE914E14FF04041CDE90E245C
:1015F000CDE9161222460DA9CDE9103A05F003F9FE
:101600002848294B0462C0E90037C0E902984FF42A
:10161000A0634FF01808C0E90644C0E9048305F050
:1016200055FA0DA8FFF786FD9DF83400FFF7A8FDD9
:101630005C2004F065F800F057FB00F081FB00F03F
:101640007EFB06F06BFB194A3946384606F0AAFCC9
:10165000174B184A21461860174806F099FB174B9C
:10166000174A21461860174806F092FB164B174A96
:1016700021461860164806F08BFB164B164A214689
:101680001860164806F084FB154B186006F060FBE6
:10169000FEE700BF68474020005C00406405002072
:1016A0000068014018050020001000A09C3E0308BF
:1016B000D0040020183F030881100008E004002037
:1016C000F43E03084F1D0008DC040020D03E030850
:1016D00069380008D8040020AC3E03088B100008CD
:1016E000D40400200268034B9A4201D103F092BF58
:1016F000704700BF00100040704700000D4B82B0E3
:101700000F216FF001001A6C42F080521A641A6CBB
:1017100002F080520092009A5A6C42F480425A645D
:1017200000225B6C03F480430193019B02B003F041
:10173000A7BF00BF00380240026882B0084B9A423F
:101740000BD1D3F8302803F5006342F480521A63BA
:101750001B6B03F480530193019B02B0704700BFE1
:10176000003002400E4B07B502689A4215D1A3F52E
:10177000F04305215A201A6B42F400021A6300223A
:101780001B6B03F400030193019B03F079FF5A20C4
:1017900003B05DF804EB03F0A5BF03B05DF804FBF4
:1017A00000B0024010B5A8B004461422002102A8DF
:1017B00030F00CFB8422002107A830F007FB2268E0
:1017C000174B9A422AD14FF4803307A8079305F0AC
:1017D000B7FD08B1FFF790FF124C4FF4C072012122
:1017E0001148236B43F080032363236B03F08003D2
:1017F0000093009B1223CDE902230323CDE90413B8
:10180000042302A9069304F075F9236C43F4000342
:101810002364236C03F400030193019B28B010BDE3
:10182000005C004000380240001C0240026808B51D
:10183000094B9A420FD1094A80210948136C23F4BD
:101840000003136404F03AFA4FF480710448BDE8D1
:10185000084004F033BA08BD005C00400038024084
:10186000001C024070B5ACB004461422002106A84A
:1018700030F0ACFA842200210BA830F0A7FA2268DD
:10188000484B9A4240F08C800823052001240B939A
:101890004FF4C07310930223CDE911304FF400339D
:1018A0000BA8CDE9154305F04BFD08B1FFF724FF68
:1018B0003D4B002402250E265A6C06A93B4842F0F7
:1018C00080625A645A6C02F080620092009A1A6B2D
:1018D00042F010021A631A6B02F010020192019A90
:1018E0001A6B42F400721A631A6B02F400720292CD
:1018F000029A1A6B42F480621A631A6B02F48062D5
:101900000392039A1A6B42F040021A631A6B02F0B8
:1019100040020492049A1A6B42F480721A631B6BA1
:1019200003F480730593059B1023CDE90635CDE9BB
:1019300008440A9604F0DEF84EF6FF7306A91C4828
:101940000A96CDE90635CDE9084404F0D3F8F7232B
:1019500006A918480A96CDE90635CDE9084404F0F1
:10196000C9F84FF4805306A91348CDE90635092379
:10197000CDE908440A9304F0BDF84FF4464306A9A4
:101980000E480A96CDE90635CDE9084404F0B2F8D0
:1019900058202246052103F073FE582003F0A2FED2
:1019A0002CB070BD006801400038024000100240B9
:1019B000002402400028024000180240002002409B
:1019C000142200212DE9F0418AB004460DEB0200FB
:1019D00030F0FCF922682C4B9A4251D12B4B022556
:1019E000032409269A6B4FF0040805A9284842F001
:1019F000020200279A639A6B02F002020192019A96
:101A00001A6B42F010021A631A6B02F01002029273
:101A1000029A1A6B42F002021A631A6B02F0020277
:101A20000392039A1A6B42F008021A631B6B03F0CD
:101A300008030493049BCDE90585CDE9084604F02D
:101A400059F8402305A91348CDE905350A23CDE906
:101A50000774099304F04EF805A90E480996CDE9DC
:101A60000585CDE9077404F045F84FF4605305A9E6
:101A700009480996CDE90535CDE9077404F03AF82F
:101A80000AB0BDE8F08100BF001000A0003802409D
:101A90000010024000040240000C0240F0B5002398
:101AA00087B00393294B1E68002E4DD101220227D7
:101AB00003250C241A6001A9254B26489A6B42F095
:101AC00001029A639B6B03F001030093009B4FF6A6
:101AD0008373CDE90454CDE9013704F00BF848F2E3
:101AE000331301A91C480594CDE90137CDE90365FD
:101AF00004F000F84CF2037301A918480594CDE9ED
:101B00000137CDE9036503F0F5FF4FF63F0301A967
:101B100013480594CDE90137CDE9036503F0EAFFE9
:101B2000282301A90F480594CDE90137CDE90365C4
:101B300003F0E0FF082301A90B480594CDE9013724
:101B4000CDE9036503F0D6FF07B0F0BDC406002061
:101B5000003802400010024000180240000C024011
:101B600000140240001C024000080240214B1A6C85
:101B700042F0100270B51A6488B01B6C054601A9CA
:101B800003A803F010030293029B05F0BBFB069B26
:101B90004BBB05F0A7FB184E184B336040F2E73300
:101BA000F360174BB0FBF3F3013B30467360002347
:101BB0003361B360B36105F0F3FF044680B930468A
:101BC00005F0A0FE044658B9362003F08BFD0F2D1A
:101BD0000DD822462946362003F052FD094B1D60E0
:101BE000204608B070BD05F07DFB4000D3E701241E
:101BF000F6E700BF00380240C80600200010004091
:101C000040420F00440000207047FEE7FEE7FEE779
:101C1000FEE77047014805F0B7BE00BFC8060020C8
:101C2000014804F093BD00BF64050020014803F0A3
:101C300090BE00BF600600200120704708B530F05C
:101C40007DF9162303604FF0FF3008BD08B530F072
:101C500075F916230360FEE770B50D4614460E466F
:101C6000731B9C4201DC204670BDAFF3008006F878
:101C7000010BF5E770B50D4614460E46731B9C42EA
:101C800001DC204670BD16F8010BAFF30080F5E7CC
:101C90004FF0FF3070474FF4005300204B60704707
:101CA00001207047002070470B4A0346116810B5A9
:101CB00009B90A491160106809490A4C0344091B13
:101CC0008B4206D930F03AF90C2303604FF0FF3015
:101CD00010BD1360FCE700BF14070020A8630120BB
:101CE00000000520000A000070470000DFF834D033
:101CF000002103E00C4B5B58435004310B480C4B64
:101D000042189A42F6D30B4A02E0002342F8043B01
:101D1000094B9A42F9D303F083FB30F015F9FFF732
:101D200057FA704700000520F898030800000020CB
:101D300098020020A0040020A4630120FEE7704761
:101D400008B501F06BF9BDE8084001F0EFB801F00B
:101D500067B9406870474160704700004FF0E0226B
:101D6000D2F8FC3D43F08073C2F8FC3D054B064AB7
:101D7000D3F8B01F0A43C3F8B02F1A6842F001022B
:101D80001A607047001000E055CEACC5521A02EB45
:101D90005302B2FBF3F07047014B5868704700BF25
:101DA000001000E0704710B504460C212EF0B4F985
:101DB000204610BD036810B51B69044631B1984731
:101DC000A26863689B1A0344636010BD9847A060D3
:101DD000FBE70000024B7020024A1360DB681847E3
:101DE0001800002018070020704710B50446042191
:101DF0002EF092F9204610BD73B50E4E0D461446D6
:101E0000336813B9002002B070BD1B697020984779
:101E10000028F7D03368702001AA0DF106015B6934
:101E20009847BDF8043001202B60BDF806302360D0
:101E3000E9E700BF180700207FB501238DF81720C0
:101E40004FF47A72CDE901320DF1170200920A4681
:101E50000146054804F082F910B1034804F064F922
:101E600007B05DF804FB00BF0C0600207FB500231F
:101E70000A464FF47A718DF817300123CDE901310C
:101E80000DF1170100910146054804F041FA10B127
:101E9000034804F049F99DF8170007B05DF804FB0A
:101EA0000C06002001280ED0022814D0D0B90E4B09
:101EB00000F1804010211A6800F50130B2FA82F278
:101EC000520903F09BBF084B40215A68B2FA82F2D4
:101ED00052090648F5E7044B80219A68B2FA82F26B
:101EE0005209F6E7704700BF1C07002000080240B7
:101EF00001280ED0022814D0D0B90E4B00F180403A
:101F000010211A6800F50130003A18BF012203F0D1
:101F100075BF084B40215A68003A18BF0122064895
:101F2000F5E7044B80219A68003A18BF0122F6E7D2
:101F3000704700BF1C07002000080240012809D09C
:101F400002280AD058B900F18040102100F5013074
:101F500003F059BF40210248FAE78021FBE77047B0
:101F600000080240012808B50DD002280ED078B92B
:101F700000F18040102100F5013003F039FF431ECD
:101F80005842584108BD40210248F6E78021FBE74E
:101F90000020F4E70008024070B5084D0024012637
:101FA000E0B2FFF7DFFF18B12B68012B18BF2E60DE
:101FB00001340435052CF3D170BD00BF1C0700208F
:101FC000012380F8781080F879307047002070473E
:101FD00041640039024B18BF01211970704700BFDE
:101FE0006356012000207047836B0BB108461847E9
:101FF00070474FF6FF707047406803689B69184749
:102000007047000038B5044601F058F908492368C4
:102010002046084DD3F88C3098470023284684F892
:102020004A30FFF79BFE0123256184F8703038BDEC
:10203000000000C02C07002001F0E2B801F0E6B873
:1020400070B501F065F910490023C1F88430BFF381
:102050004F8FD1F8803043F6E074C3F3C900C3F367
:102060004E335B0103EA0406024646EA8275013AF2
:10207000C1F87452F9D2203B13F1200FF2D1BFF313
:102080004F8FBFF36F8F70BD00ED00E001F042B9DC
:1020900001F092B801F064BA01F06CBA01F096B8A0
:1020A00010B5044616F0F2F923682046D3F8AC3098
:1020B000BDE81040184715F047BC10B504467C2118
:1020C0002EF02AF8204610BD90F834100D4B10B5B4
:1020D00090F878401A788C4209D03AB90A490B4AEC
:1020E00008881488108001220C801A7010BD002A04
:1020F000FCD0064A0449148808880C80108000220D
:10210000F3E700BF5C5601205A56012058560120C3
:1021100070B50D46194635B9094B40F2D221094A2E
:1021200009482EF03FFFC0E90F52003A074B18BF95
:1021300001221A700368BDE87040D3F88C3018474C
:102140007C3F0308B43F03080240030862560120A5
:1021500008B5094B1B888B4203D8084B1B88934258
:1021600005D9074B9E21074A07482EF01BFF074B56
:102170001980074B1A8008BD585601205A56012075
:1021800047400308AA400308024003085E560120A6
:1021900060560120034690F87A0018B15868036829
:1021A0001B68184770470000014608B5034B1868C4
:1021B00001B1012116F084F9012008BD6456012007
:1021C000034B00225A609A60024A1A60704700BFAF
:1021D0002C070020443F03080121002208B50846CF
:1021E00005F0E0FE0A4B186028B90A4B28210A4A7C
:1021F0000A482EF0D7FE00220421012005F09CFFA2
:10220000074B186018B9074B2C21034AF0E708BDAB
:102210003C070020C841030811420308404203085C
:102220003807002087420308024B4FF0FF3118683F
:1022300005F010BF3C070020014B186805F046BFB1
:102240003C070020024B0021186805F003BF00BFC7
:102250003C070020FFF7F0BF0023034803491A465C
:10226000006805F0AFBF00BF38070020080000205D
:1022700013B50023074C01A91A46206805F0E4FFB6
:102280004FF0FF33002201A9206805F0DDFF02B006
:1022900010BD00BF3807002003685B6C18470120A1
:1022A000704703689B6A1847FEE700000E4B82B038
:1022B0001A6B42F400021A631A6B02F400020192D4
:1022C000019A1A6942F400021A611A6922F40002A2
:1022D0001A61064B064A1A61064A5A614FF080623B
:1022E000054B9A6002B0704700380240600600203B
:1022F00085250008A922000800E100E040F2EF3047
:1023000070470000054B4FF080620360044BC3F838
:102310008820BFF34F8FBFF36F8F704720440308AF
:1023200000E100E010B504464FF45A61FFF7EAFF00
:1023300020462DF0F1FE204610BD000008B50A2809
:1023400009D8DFE800F006100E0808080810101081
:102350001000022008BD054B9021054A05482EF0CB
:1023600021FE0020F6E70120F4E700BFC942030880
:10237000E44203082F43030838B50C46887FFFF773
:10238000DDFF174BA58AE28A586342EA05422169BC
:102390005A64628BD963521B1A642568082D0ED1CA
:1023A0009A611A6158620F4A207F42EA0062DA613C
:1023B000E2681A620C4A5961D9601A6038BD00227D
:1023C000D8611A61E1680A0A4809C1F3C40102F43C
:1023D000784200F4FC6002430A439A63034AECE744
:1023E00000B00240090001000123020001230300A4
:1023F00008B50B280BD8DFE800F00612100A0A0A0D
:102400000A0808080808022008BD0520FCE7054B5B
:102410006F21054A05482EF0C5FD0020F4E7012094
:10242000F2E700BFC9420308744303082F430308BF
:102430002DE9F04191F81D800C464046FFF7D8FF8A
:10244000A77F05463846FFF7D3FF06463846FFF715
:1024500075FFA18A628B434B521A1A649A61228BD0
:10246000521A1A61E28A586342EA014221695A64A7
:102470006268D963DA602068802828D0227F0FD86C
:10248000202866D0402864D004281AD045EA026586
:10249000344BB84545F40035DD6160D0324A44E044
:1024A000B0F5807F04D0B0F5007FEFD12F4800E079
:1024B0002F4840EA0262DA61E2681A625E6259619C
:1024C00032E045EA026242F40032DA61F6E7A068DF
:1024D000021DDA62227F45EA026545F40035DD61BE
:1024E0005E625961017841B1012921D0214B4FF43D
:1024F0008D71214A21482EF055FDDA69418822F478
:102500007F42013922F0100242EA01220121DA6100
:10251000144BDA6942F02002DA61DA699206FCD4DF
:1025200010229A600029B9D0154A1A60BDE8F081DE
:10253000B2F1FF01DA69408822F47F4218BF01211D
:10254000013822F0100242EA002242F01002DA6161
:10255000DEE745EA0262034B42F40032B5E742F29D
:102560000132E2E700B0024001230100090002004D
:102570000A000200BE430308D84303082F430308A0
:1025800001230200024B1B68586803685B69184707
:102590006456012070B504460A4B0C3000262546CF
:1025A000602260602672667245F8203B294616F06C
:1025B000DDF804F55A63EE6024359D42FBD12046D8
:1025C00070BD00BF20440308034B1A68D207FCD437
:1025D00023229A60704700BF00B00240094B5A693D
:1025E000D2030AD5BFF34F8F08440029A0EB0102A4
:1025F00004DCBFF34F8FBFF36F8F70472039C3F8F0
:102600006822F2E700ED00E030B5104C2568ED07D8
:10261000FCD423250904FF2BA56041F001014FF0F4
:10262000020565636164E0630AD00949656241EAB5
:102630000363E361074B22626061E060236030BDA9
:10264000E561039BA363044BF8E700BF00B00240C1
:1026500009000100010002000100030030B50F4C29
:102660002568ED07FCD423251204FF2BA56042F05A
:1026700001024FF0020565636264E063E16008D027
:102680001B0643F00213E361054B65626061236042
:1026900030BD044BE3610123F9E700BF00B0024005
:1026A00001000200020002FF30B50B4C2568ED0767
:1026B000FCD4232512041B06A56042F0010202256A
:1026C00043F4003365636264E063E160E361034BFC
:1026D00065626061236030BD00B00240010002000D
:1026E0004069704790F844007047036B23B9C06A93
:1026F000003818BF0120704701207047806870477C
:10270000043010B50C460FC884E80F0010BD7047A8
:1027100008B5034A40F21221024B03482EF042FC56
:1027200068440308CB630308C344030810B5044698
:1027300048212DF0F1FC204610BD00002DE9F043AA
:102740001C46436BADF51F7D05460E461746002B14
:1027500037D0002203A8DFF8A890CDE901320DF0B0
:1027600041FE4FF4F4725021249024A807F0EFFDAD
:102770003A46314624A808F043FD012124A807F079
:10278000E1FE022324A88DF8D83007F07CFFBDF8C5
:1027900098322B9ABDF89C629342A89F28BF13469B
:1027A000419A964203EB4308A7EB430728BF16461E
:1027B000479B9E4209D824A807F0E6FE24A807F00C
:1027C00013FE0DF51F7DBDE8F083012201A924A8A9
:1027D00007F0A2FF6B6B03EB0800984201D83C4462
:1027E000E6E759789A78C90009EA022201F4FC6107
:1027F0000A4313F8031B42EAD10224F8022BECE748
:1028000000F8FFFF0A4A02600022C0E90522C0E981
:102810000722C0E90922C0E90B22C0E90D12C0E974
:102820000F2280F84420C0E90322C0E9012270474A
:102830009C47030810B40C4611461A46036B3BB183
:10284000036C806BE41A20445DF8044B2FF0C6BA89
:10285000C06AF8E7036B10B573B1036C826BC91AD9
:102860005318525C98785C780004DB7840EA0420C6
:10287000104340EA036010BDC36A5858FBE7036B7E
:1028800043B1036CC91A836B5A18585C527840EAFA
:1028900002207047C36A585A7047000070B504465A
:1028A000006B0D461646D8B1E36B934208D209235C
:1028B0000D4A65210D4884F844300D4B2EF072FB13
:1028C0000368DB689847206B3246A16B03681B697D
:1028D000984710B90D2384F84430A06B256470BD6F
:1028E000E06A0844FBE700BF27450308C344030828
:1028F000144503082DE9F843436904462BB9234BDB
:10290000AA21234A23482EF04DFB08228169FFF7B4
:10291000C5FFA16943F2300646F264370431204610
:10292000FFF798FFA3691844A36A00F108029A42CE
:1029300006D3012300206361236AA361BDE8F88305
:10294000636909300822013320F0010120466361E8
:10295000A161FFF7A3FFD4F8189020464946FFF77E
:102960008EFF09F1020180462046FFF788FF09F13A
:10297000040105462046FFF76DFFB045D2D1BD42A8
:10298000D0D10028CED00120D8E700BF6945030888
:10299000B2450308C34403082DE9F04F0446ADF5E2
:1029A0001F7D8A461646816908229846FFF776FF02
:1029B000A7692046391DFFF74DFF07F108010246C0
:1029C00005462046FFF76AFF636B074633B93C4B69
:1029D00040F2AB113B4A3C482EF0E4FA002203A837
:1029E000CDE901320DF0FEFC4FF4F4725021249039
:1029F00024A807F0ACFC2A46394624A808F000FCBD
:102A0000012124A807F09EFD022324A88DF8D830C8
:102A100007F039FEBAF90250479BAB4229D3BAF905
:102A200000904FEA4808BAF804702B9B08FB056633
:102A30004F44BAF80250DFF894B03FB29F4228BF2B
:102A40001F46BAF8063009EB490A1D44419B2DB2D6
:102A50009D4228BF1D46479BAB4210D324A807F0D8
:102A600093FD24A807F0C0FC01200DF51F7DBDE8F3
:102A7000F08F012201A924A807F04EFECCE7012225
:102A800001A924A807F048FE626B49465244B942A6
:102A900002F1030201D34644DDE712F8020C12F8FA
:102AA000013CC0000BEA032300F4FC60034312F86E
:102AB000030C43EAD00326F811300131E7E700BFE9
:102AC000E54503083B460308C344030800F8FFFF3D
:102AD0000129036838BF0121DB6A70B50D46044641
:102AE0009847A84204D223682046DB6A98470546E7
:102AF0006B1EE6691022204606EB031606F108015C
:102B0000FFF7CCFE06F110012046FFF7A3FE236A73
:102B1000043B0344C4E9055370BD00000021482272
:102B20002DE9F0410446816180F84410FFF7B6FEBC
:102B3000A6690423624A31462046FFF77BFE40B176
:102B40000323604AF22184F844305F4B5F482EF043
:102B500029FA06F1080104235D4A2046A161FFF726
:102B600069FE30B10423574AFA2184F84430594BA6
:102B7000ECE706F10C010423574A2046A161FFF758
:102B800059FE074638B105234E4A40F2011184F838
:102B90004430524BDAE706F110012046FFF75AFEA7
:102BA000054620B94E4B40F20711464ACEE706F1E2
:102BB000140804234B4A20464146FFF73BFE0028F9
:102BC00049D0062384F844300423474A06F118010B
:102BD0002046FFF72FFE00283FD0072384F844301B
:102BE0004544424F0C2220462946FFF757FE05F187
:102BF000080604233A4620463146FFF71BFE94F8A8
:102C00004430002848D0002B48D1A36AAB4249D8B1
:102C100005F10C0304352046A3612946FFF71AFE8F
:102C20003044294660622046FFF714FE0644042221
:102C300020463146FFF732FE04232D4A3146204616
:102C4000FFF7F8FD002838D10123E6616361A3692D
:102C50002362BDE8F0810127B6E7002FC0D006F15E
:102C600020012046FFF7F6FD4FF47A7306F130019C
:102C7000B0FBF3F060602046FFF7ECFD06F1400189
:102C8000A0602046FFF7E6FD06F14401E060204623
:102C9000FFF7E0FD2061A3E7002BB9D00A2384F8F9
:102CA0004430D6E7291D2046FFF7D4FD85190C22B4
:102CB00020462946FFF7F2FD99E70B23EFE700BF17
:102CC00095460308B34603089A460308C34403081D
:102CD000E0460308E5460308FD46030802470308EB
:102CE0001847030824470308294703082E47030809
:102CF00033470308C0E90A2100220263FFF70EBF31
:102D000010B5002304460846E3620B6821639B6804
:102D10009847A0622046BDE81040FFF7FFBEF0B420
:102D2000069FBDF81050BDF8146032B12BB1049568
:102D3000CDE90567F0BCFFF701BDF0BC70470000AE
:102D40002DE9F04F9946436985B004460F469046F9
:102D50002BB9294B7721294A29482EF023F908223B
:102D60008169FFF79BFDA66920463146FFF787FD85
:102D7000B11C83462046FFF782FD311D8246204666
:102D8000FFF768FD06F10801A36A054642189A425A
:102D900026D243F230039B4517D146F264339A455D
:102DA00013D190B10246A1612046FFF777FD0E9B3B
:102DB00001462A462046CDF80080CDE901933B46E6
:102DC000FFF7ADFF636901336361A3692B4405B964
:102DD00008330133626A23F001039342A36109D1EE
:102DE000012301206361236AA36180F0010005B023
:102DF000BDE8F08F0020F8E769450308384703086D
:102E0000C34403080120704714207047142303FBB8
:102E1000010008307047142303FB0100083070479D
:102E2000012070474FF42E7070474FF42E7303FB50
:102E30000100083070474FF42E7303FB0100083087
:102E40007047012070471020704700EB01100830D8
:102E5000704700EB011008307047084601F0DAB8FF
:102E6000034B10B50446036014F0C6FA204610BDAB
:102E70004448030810B50446FFF7F2FF1C21204622
:102E80002DF04AF9204610BD034B10B504460360EF
:102E900014F0B2FA204610BD1048030810B50446DD
:102EA000FFF7F2FF4FF4307120462DF035F9204640
:102EB00010BD0000034B10B50446036014F09CFAEB
:102EC000204610BDDC47030810B50446FFF7F2FFAB
:102ED000182120462DF020F9204610BD084B10B5D2
:102EE0000446036000F53B70FFF7BAFF04F12C00C5
:102EF000FFF7CAFF04F11400FFF7DCFF204610BD06
:102F00007848030808B50248FFF7E8FF08BD00BF8E
:102F10001016002010B50446FFF7E0FF4FF48D6156
:102F200020462DF0F9F8204610BD00002DE9F341B0
:102F300000F032FD0024054600F032FD2346014634
:102F40002246284600941EF07BF8274B274A20464D
:102F5000274D1A6002F088F8264B274A27489A60C6
:102F60001DF0D6FF2B68BFF35B8FDB0735D42846F7
:102F70002DF0D4F888B3224C224B04F5437604F1AB
:102F8000140004F12C0804F53B7723606060C4F85A
:102F90000880E760266114F031FA1B4B40466361FC
:102FA00014F02CFA194B3846E36214F027FA184B48
:102FB00004F54270C4F8EC3202F0DAF8224604F567
:102FC0004271304602F0CAF8304601F023F8114849
:102FD0002EF006F828462DF0ADF80F4802B0BDE8F7
:102FE000F041FFF70FB800BFC8560120BC07002012
:102FF0000C160020DC070020C00700200C00002079
:103000001016002078480308DC470308104803081E
:1030100044480308052F00084007002070470000BF
:10302000014814F0FABC00BF4007002070B5244EE0
:10303000244B254C3046254D2360FFF7ABFA28463C
:1030400023F010F922481BF087FB224B00224FF49B
:10305000807121481A8683F858205A6683F87020B8
:103060005A67DC60C3E912121C49C3E91A121C49F1
:1030700099671C490B604FF4F07101801A48018078
:103080004FF488711948C3E90422C3E90622C3E951
:103090000822C3E90A22C3E90E22C3E91022C3E9C8
:1030A0001422C3E91722C3E901650180104883F89F
:1030B000342001800F490A700F4A1A6070BD00BFAA
:1030C000680800206C3F030808160020DC07002079
:1030D000C0070020400700205856012001000001D1
:1030E00000000101645601205E5601205A5601205D
:1030F000605601205C560120F84003080148FFF7A4
:1031000001B900BF68080020002070478180704727
:10311000C180704701817047418170477047704797
:1031200070477047704710B4C4880368121B8488C6
:103130005B6D091B12B25DF8044B09B218474FF6DC
:10314000FF7383814FF0FF3303621368C361106024
:103150007047002070478B8883800120704770473C
:1031600080F82610704790F826007047002210B5AE
:10317000B1F90840B1F90A10028042808480C18010
:1031800010BD0022028042808280C2807047017799
:10319000704780ED080A704780F82410704780F867
:1031A0002510704701207047983070478C30704769
:1031B0008430704770470000034B902283F85A23F5
:1031C00083F85823704700BF00E100E0094A0A492C
:1031D000D3680A48C3F30A03013B9BB20B80116911
:1031E000C1F30A01013901801364536B43F00103F9
:1031F00053637047006801407A1A0020781A002053
:10320000014BD3F8AC00704700680140024B01222B
:10321000C3F8AC105A62704700680140124A536903
:10322000DB0370B51ED50023C2F88430BFF34F8F87
:10323000D2F8803043F6E074C3F3C900C3F34E33D1
:103240005B0103EA0406014646EA81750139C2F8CA
:103250007452F9D2203B13F1200FF2D1BFF34F8FFC
:10326000BFF36F8F70BD00BF00ED00E07047704787
:1032700070473823002201FB0333C25490F83830E2
:103280000BB9036C83647047704780F84C1070472B
:1032900010B5044658212CF03FFF204610BD10B554
:1032A00004462C212CF038FF204610BD10B50446F2
:1032B000BC212CF031FF204610BD000038B504467B
:1032C00014F097FB23685D6E1AF0F0F80146204673
:1032D000A8472368084A2046D3F888500023A2F55F
:1032E0007F31A847054B064A5A60064A1A649A6419
:1032F0004FF4FF225A6438BD00F807C03C1B002081
:10330000941B002000F40BC014F05ABB14F064BBF3
:1033100014F020BB14F08FBC90F8252012B1036884
:103320005B6918477047000008B531B1044B40F2A3
:103330009711044A04482DF035FE90F8390008BD75
:103340008448030898480308254A030810B531B19A
:10335000064B40F29111064A06482DF023FE4068C4
:1033600011460368BDE810401B6B184784480308EA
:10337000674A0308254A030808B529B1034B7A2197
:10338000034A04482DF00EFE006908BD8448030876
:10339000184C0308254A030808B529B1054B8321B9
:1033A000054A06482DF0FEFD41618160C0E9063204
:1033B00008BD00BF84480308D04D0308254A030810
:1033C00010B5044629B1274BA421274A27482DF0E0
:1033D000E9FD052A34D8DFE802F003292F34393E0D
:1033E000406803681B69984750B34FF0FF31606D28
:1033F00004F07CFD0023012294F83E1084F83B3059
:1034000084F83920A360636101B1226284F83E3000
:103410006362E36A2BB90123206D84F83A3004F02B
:1034200055FE606DBDE8104004F090BD002380F8AB
:10343000393084F83E3003E0036200238360436147
:1034400010BD0362002383604361F2E7002380F82C
:1034500039300123EDE7003B18BF012380F83D30F0
:10346000EEE700BF844803088F4F0308254A03088E
:1034700090F825201AB190F8242002B11860704706
:1034800070B50446164629B1314BE721314A32481E
:103490002DF088FD90F8393033B1304B1B6893F82C
:1034A0006B20436913444361E36A002B4DD0E1690B
:1034B000D4E905325343A2684A43934220D2236A97
:1034C000002B42D04FF0FF31606D04F00FFD236AF6
:1034D0000BB10023E362E36AFBB90125606D04F0E0
:1034E00035FD94F839300BB9236A3BB1E36A2BB947
:1034F0000123206D84F83A3004F0E8FD284670BDC1
:1035000094F84C000028DDD09B1AB3FBF1F29942ED
:1035100098BF02F1FF326262D4E7002294F83C5077
:10352000A3623046E262E2682261A2680132A260D0
:10353000336333685B699847002DCED194F83D30F2
:10354000002BCBD184F83950C8E70125C9E700BF6B
:103550008448030866510308254A0308645601207D
:10356000034B4FF080629A604FF080729A60704710
:1035700000E100E0084B4FF08062C3F88820BFF301
:103580004F8FBFF36F8F4FF08072C3F88820BFF367
:103590004F8FBFF36F8F704700E100E038B50346EF
:1035A00090F8380038BB01229860D8609A634FF4D5
:1035B000807258619A874FF4F0729861D8611862EE
:1035C00058629862D8621863586383F83E00CA86CE
:1035D0004FF4887281F834000A8708639A6C186186
:1035E00002F5FF24D3E9101529448C420AD9084B6F
:1035F0005821084A03E0084B40F2F511074A0848F1
:103600002DF0D0FC1A6302F57F329C645A6338BDFA
:10361000C4540308045503080A5303083A53030823
:10362000254A0308002370B5124E05468380124BCD
:103630000360336893F858200AB1D86C00B99868D1
:103640000368DB6A98473368B0FA80F4D86C640981
:1036500030B10368DB6A9847002808BF44F00104D2
:103660002CB9064B2C21064A06482DF09BFC284617
:1036700070BD00BF64560120AC570308AA5603086A
:10368000085703084157030870B5244E3568BFF347
:103690005B8F15F001053FD130462CF03FFD00282F
:1036A0003AD01F4C1F4B04F134002561E584A5621C
:1036B000A585C4E90035C4E902551BF0ACFA04F154
:1036C000580016F053FC184B2046A365174B40F8E2
:1036D000843BFFF7A7FF164B1648C4F88430243309
:1036E000C4F89050C4F88C306423C4F89C50C4F8DB
:1036F000A850C4E928350023C4F8AC30C4F8B03071
:10370000C4F8B430C4F8B8300B4BC4F898302DF07E
:1037100067FC30462CF00EFD014870BD7C1A00207D
:10372000801A00202C890308CC570308445803084A
:10373000E0880308B5310008C088030810B5144CB0
:10374000236823B3134B144A1B6C11888B4213D18B
:10375000124B198803F084F8226892F86A3001331A
:1037600082F86A30FEF778FD206814F08FFE0020A2
:10377000BDE81040FEF796BB03F072F820680368BE
:103780001B6A98470020BDE81040FEF7B1BB10BD92
:1037900064560120006801407A1A0020781A00203F
:1037A0002DE9F74304464FF4707894F83A304FF01F
:1037B000FF31002B31D0606D04F098FB276BA36ABA
:1037C000BB4200D1676B266A656856B32B683146E9
:1037D00028465B6A98470023236284F83B30606D7B
:1037E00004F0B4FB2B684FF4F0723946CDF800803A
:1037F00028465E694FF48873B0474FF0FF310646A4
:10380000606D04F073FB94F83B30E3B1002384F85F
:103810003B30606D04F09AFBC7E7206D04F01AFCA2
:10382000C3E7636A002BDAD02B682846D3E90993F3
:103830009847616A01442846C847A368626A66627D
:103840001344A360CBE7E7625EB12B6828469B6A0E
:10385000984701380023E06084F83C6084F83A30EF
:10386000D7E70120F6E70000014808B5FFF798FF09
:103870003C1B00200368042270B504465E6A0023E6
:103880000D46B0474FF0FF31606D04F02FFB382339
:1038900003FB0542D16A09B10021D16203FB054552
:1038A000012385F83B30002385F83930606DBDE891
:1038B000704004F04BBB38B500EB810304460D4665
:1038C000114658680368DB68984729462046FFF789
:1038D000D1FF38BD70B50D461146044600EB850298
:1038E0005068026896681A46B04729462046FFF796
:1038F000C1FF70BD38B5164900251648FEF782FF96
:10390000154C164B01202A46294623604FF480733C
:10391000A564A38784F84C0084F83E50C4E9105590
:10392000C4E91455C4E90155C4E90355C4E9055572
:10393000C4E90755C4E90955C4E90B55C4E90D5557
:1039400004F030FB2065284604F08EFA606538BD2F
:10395000DC1B0020941B00203C1B00209058030817
:10396000704710B5044604212CF0D6FB204610BD4C
:10397000012908B506D0022908D059B901F0C0FBC9
:10398000006808BD01F0BCFB4068FAE701F0B8FB35
:103990008068F6E70020F4E700487047DC58030829
:1039A0000920704713B5002451B1036801AA01949E
:1039B0008DF803409C680DF10303A04702B010BDD1
:1039C0000846FBE7C0897047008A7047C088704787
:1039D00080887047807A00F07F007047807AC00945
:1039E00070470020704700009FED010A704700BF3C
:1039F00000000000704710B5044608212CF08CFB35
:103A0000204610BD7047704700F5987308684968F4
:103A100003C37047704770474160704770470000AC
:103A2000064BC0F84801C0F84C310023C0F85031B3
:103A300000F5A273C0F84031704700BF493E00084E
:103A40000123037270477047704770477047704793
:103A5000704710B441680346C2689B68541001EB7C
:103A60006200D20748BF0A595DF8044B48BFD358DB
:103A700018470346406830B19A681AB9D86800F010
:103A8000010070470120704710B5044614212CF046
:103A900043FB204610BD10B504460C212CF03CFB26
:103AA000204610BD10B5044610212CF035FB2046F1
:103AB00010BD10B504464FF4AE712CF02DFB20461E
:103AC00010BD10B519F0F2FC0368BDE81040DB6BC7
:103AD0001847000070B5B2B00446C0221D4902A8C4
:103AE0002EF059FA237C2F2B03D90123237232B0F5
:103AF00070BD33B9184B1B781BB119F0D7FC19F006
:103B0000DBFC0225237C302BF1D832AAE6896089C0
:103B100002EB8303A189ADF8040053F8C03CADF873
:103B2000061093FBF6F206FB123312FB01F2694614
:103B300013FB00F36068ADF80220ADF800300368B5
:103B40001B699847237C012D03F101032374CED018
:103B50000125D7E7583D03086256012010B50446F9
:103B6000D0F8400158B10368DB68984738B1D4F801
:103B7000400103689B6898470023C4F8403110BD9A
:103B80002DE9F047D0E955690546B06803681B6A1E
:103B90009847B0F52E7F05D24E4BA3214E4A4F4891
:103BA0002DF000FA706803681B6A98470F2803D845
:103BB0004B4BA421484AF2E7F06803681B6A984718
:103BC000132803D8474BA521434AE8E7DFF82881AB
:103BD00019F06CFC043019F0B6FCD8F8000010B1F4
:103BE0000368DB689847D8F8000010B103681B68C9
:103BF00098473D4F386810B103685B699847D5F81E
:103C00003C0110B103685B689847386810B10368DD
:103C10001B689847D5F83C0110B103689B6898472A
:103C2000F068002103685B6A984700232F4A044626
:103C30004360037203742E4B02601A882D4B1B885D
:103C40009A423FD9062105330732B3FBF1F3D2087C
:103C500008219BB2B068A381036862815B6AE1813D
:103C600000219847824601F097FB706800210368A5
:103C70005B6A98470646514601F06CFB331DC5F858
:103C80003C615046C8F80040C7F800A0C9F80030B1
:103C9000DAF80030C6F80890DB68CAF83C6098474C
:103CA000336830461B689847214650461BF016FC87
:103CB000236820461B699847236820465B69BDE856
:103CC000F0471847053206210733B2FBF1F2DB0853
:103CD00092B2BFE7A05903082E5A0308035B0308FA
:103CE0004A5B0308ED5B0308A8560120CC5E03087D
:103CF000585601205A560120AC5601202DE9F14FAB
:103D0000D0E9556A0746B06803681B6A9847B0F562
:103D10009C7F05D2444BA321444A45482DF042F9EB
:103D2000706803681B6A98470F2803D8414BA42189
:103D30003E4AF2E7F06803681B6A98470B2803D8ED
:103D40003D4BA521394AE8E7DFF8F49019F0AEFBC6
:103D5000043019F0F8FBD9F8000010B10368DB68F3
:103D60009847D9F8000010B103681B689847DFF83E
:103D7000D480D8F8000010B103685B699847D7F881
:103D80003C0110B103685B689847D8F8000010B197
:103D900003681B689847D7F83C0110B103689B681B
:103DA0009847F06800214FF0000B03685B6A984762
:103DB000224B0446C0F804B080F808B059460360AE
:103DC000B06803685B6A9847054601F0A9FA706815
:103DD000594603685B6A98470646294601F076FA19
:103DE000331DC7F83C612846C9F80040C8F80050A8
:103DF000CAF800302B68C6F808A0DB68EE63984765
:103E0000336830461B689847214628461BF066FBFE
:103E1000236820461B699847236820465B6901B0E8
:103E2000BDE8F04F184700BFA0590308905C030895
:103E3000035B03084A5B0308ED5B0308A85E030805
:103E4000AC560120A85601202DE9F14FD0E9556A62
:103E50000746B06803681B6A9847B0F5F07F05D243
:103E6000444BA321444A45482DF09CF870680368F0
:103E70001B6A98470F2803D8414BA4213E4AF2E71A
:103E8000F06803681B6A98470B2803D83D4BA521AF
:103E9000394AE8E7DFF8F49019F008FB043019F02C
:103EA00052FBD9F8000010B10368DB689847D9F8D5
:103EB000000010B103681B689847DFF8D480D8F879
:103EC000000010B103685B699847D7F83C0110B156
:103ED00003685B689847D8F8000010B103681B6856
:103EE0009847D7F83C0110B103689B689847F06881
:103EF00000214FF0000B03685B6A9847224B044691
:103F0000C0F804B080F808B059460360B068036890
:103F10005B6A9847054601F091F970685946036855
:103F20005B6A98470646294601F05EF9331DC7F8DB
:103F30003C612846C9F80040C8F80050CAF8003073
:103F40002B68C6F808A0DB68EE63984733683046F4
:103F50001B689847214628461BF0C0FA2368204674
:103F60001B699847236820465B6901B0BDE8F04FA4
:103F7000184700BFA0590308625D0308035B0308EC
:103F80004A5B0308ED5B0308A85E0308AC560120FA
:103F9000A8560120044B1B6893F858200AB1D86C2E
:103FA00000B99868704700BF64560120F8B51746FD
:103FB00004460E4619F068FB124B00251C6029468A
:103FC000114B2360114BC4E95135114B1868C4E9FA
:103FD00053550368C4E94F559B68C4E95576984723
:103FE000284601F041F8FFF7D5FF23F08EFFFFF7D9
:103FF000D1FF24F005F8FFF7CDFF24F00DF820469F
:10400000F8BD00BFB8560120545E03083C5E0308AB
:1040100064560120064BC0F84801C0F84C3100231B
:10402000C0F8503100F5A273C0F84031704700BFAE
:10403000493E0008064BC0F84801C0F84C31002347
:10404000C0F8503100F5A273C0F84031704700BF8E
:10405000FD3C0008064BC0F84801C0F84C31002375
:10406000C0F8503100F5A273C0F84031704700BF6E
:10407000813B0008406A7047806A704770478B88B0
:10408000C069DB0A0A6850F823001044704710B575
:104090000446BAB1107B68B1537BD27A1B0203F499
:1040A000E0631A43236A03EB82031A888A4202D12F
:1040B00093F9020010BD05D80138043380B20028FE
:1040C000F3D1F7E70020F5E710B504462C212CF0DA
:1040D00023F8204610BD000030B58BB00446BDF873
:1040E00060500895BDF85C5007959DF850500695B6
:1040F0009DF84C5005959DF8485004959DF8445006
:1041000003959DF8405002959DF83C500195BDF8EF
:10411000385000951AF03CFE064B20462360159B54
:10412000E361169B2362199B63621A9BA3620BB027
:1041300030BD00BFF05E030870477047704770479E
:10414000704730B585B00368044601816D4601466D
:10415000D3F884303C342846984795E8070084E833
:10416000070005B030BD30B585B003680446418115
:104170006D460146D3F884303C342846984795E88C
:10418000070084E8070005B030BD002202804280AD
:104190008280C280704780F836107047036870B51F
:1041A00004461B6B154698472368204629465B6EDC
:1041B000BDE87040184700207047806C704770471A
:1041C0007047704770477047704730B44468034683
:1041D000C2689B68551004EB6200D20748BF625961
:1041E00030BC48BFD35818470346406830B19A687E
:1041F0001AB9D86800F0010070470120704710B567
:1042000004464C212BF088FF204610BD10B5044613
:1042100010212BF081FF204610BD10B504464FF44D
:10422000F0712BF079FF204610BD08B5FFF774F848
:1042300008BD0000036870B55E6B0446114B8DB27B
:104240001B682BB9104B6C21104A11482CF0AAFEA8
:104250001049828D0988914203D80F4B6D210B4A7A
:10426000F3E713F812200D4B1B6853F82200036884
:104270001B6B9847291A3346204609B2BDE87040A7
:10428000184700BFBC560120505F0308925F030827
:10429000CD5F0308C056012014600308C4560120F6
:1042A00000F19803994270B504460D4603D119F008
:1042B000FDF8FFF7BFFE04F1E0039D4203D1236840
:1042C0002046DB6A984704F5BA739D4205D12368FE
:1042D00020461B6BBDE87040184770BD00224FF0B0
:1042E000FF318260C0E900217047036870B5044661
:1042F0001B6B154698472368204629465B6BBDE833
:10430000704018470022C0E90122C0E90322C0E939
:104310000522C0E907224FF480728284014A0260BC
:10432000704700BFA8600308F8B5194B0646018F17
:104330001B888B422AD9174B1B682BB9164B6C2153
:10434000164A17482CF02EFE13F81120154B1B6847
:1043500053F82250144B186800F0C2FE2B68074631
:1043600028469B6B98472B68044639469B6C284629
:10437000984714FB00F42B683946A4B228465B6AC0
:10438000984723181BB2A6F84630F8BD0023FAE779
:10439000C0560120BC560120505F0308925F0308FD
:1043A000CD5F0308C4560120C85601202DE9F04F07
:1043B00004468DB04FF0000A1AF0E4FE25469C4AF0
:1043C0005146C4F83CA045F8402B2622284604F16B
:1043D0006C092DF0FBFC2846FFF794FFFF27954A58
:1043E0004FF6FF76514648462264262284F86670CE
:1043F00004F1980BC4F868A004F10408ADF8286033
:104400002DF0E4FC4846FFF77DFF8B4A0AA9484699
:10441000E266BDF8282084F8947004F59477A4F837
:10442000922016F067FB584616F0A6FC04F1E00354
:104430001846019316F0A0FC5146262238462DF06E
:10444000C5FC3846FFF75EFF7C4B4FF47F02A4F8B3
:104450005461C4F850314FF0FF3604F5BA73C4F814
:104460005C21774A1846C4F858A1A4F860A1C4F8A2
:104470002821C4F864A1C4F870A10293C4E95A6A5F
:1044800016F07AFC6F4A51462846C4E974246E4AF5
:10449000C4E9762A5246FFF728FF28464FF4F07108
:1044A000FEF738FE28464FF48871FEF735FE4FF0D0
:1044B0007F4329464046A366032512F0B1FF5246CA
:1044C00051464846FFF711FF48460AA9ADF828A013
:1044D00016F010FB494640464FF0040912F0A0FFC9
:1044E0003E22DC215846FFF700FF0AAA09A95846D8
:1044F000ADF82450ADF8289016F02EF94FF00A03CD
:104500005846A4F8D030FFF70FFF04F5E87359467A
:104510004046C4F8C0300393C4E9356612F080FF0A
:104520007A22DC210198FFF7E0FE09A90AAA019886
:10453000ADF82450ADF8289016F00EF90922019834
:10454000A4F81821FFF7F0FE039B01994046C4F838
:104550000831C4E9476612F063FF34221B21384654
:10456000FFF7C3FE4FF07F43A4F85CA10DF1100AE2
:10457000C4F858313946D4F828315046D3F884303D
:10458000984704F5B2739AE8070083E807002F4BB9
:1045900004F5DE7A1B682BB92D4B60212D4A2E487D
:1045A0002CF000FD2D4B1B88012B03D82C4B6121D7
:1045B000284AF4E72B4B0121186800F091FD2A4AA4
:1045C00003460A2150461CF09BFA3846C4F870A1F5
:1045D00016F044F8194B0AA938460A93ADF82C5046
:1045E00016F05CF83946404612F01AFF0298C122D4
:1045F000DC21FFF77AFE0AAA09A90298ADF8245037
:10460000ADF8289016F0A8F802230298A4F8AC316F
:10461000FFF78AFE039B40460299C4F89C31C4E927
:104620006C6612F0FDFE20460DB0BDE8F08F00BFB5
:10463000B8610308808A0308C48B030898590308EB
:1046400010610308A0610308A1420008BC560120C4
:10465000505F030852600308CD5F0308C056012075
:1046600014600308C8560120B07C030870477047E7
:104670007047704730B444680346C2689B68551061
:1046800004EB6200D20748BF625930BC48BFD35820
:1046900018470346406830B19A681AB9D86800F0E4
:1046A000010070470120704710B5044610212BF01F
:1046B00033FD204610BD10B504464FF49C712BF01D
:1046C0002BFD204610BD00F19803994270B50446B9
:1046D0000D4603D118F0EAFEFFF7BCFC04F1E0033D
:1046E0009D4205D123682046DB6ABDE8704018472B
:1046F00070BD00002DE9F74F044600251AF042FD79
:10470000564B2646E5634FF4807204F16C0A46F876
:10471000403B04F19808524B04F1E007A4F86420F0
:1047200001A9A4F8902050464E4A04F104092566D8
:104730004FF0030BE266A566C4E91035FF2384F849
:1047400066304FF6FF73C4E91255A4F8923084F82E
:104750009430ADF80430C4E91455C4E91655C4E9E1
:104760001C55C4E91E55C4E92055C4E9225516F06C
:10477000C1F9404616F000FB384616F0FDFA3A4BF8
:104780002A4629463046C4E94A34384BC4E94C35F8
:10479000FFF7ABFD30464FF4F071FEF7BBFC30463F
:1047A0004FF48871FEF7B8FC4FF07F43314648461E
:1047B000A36604F5947612F033FE2A462946504645
:1047C0000825FFF792FD01A95046ADF8045016F0F8
:1047D00091F9514648464FF0040A12F021FE404636
:1047E0006F227821FFF781FD0DEB0A0269464046F2
:1047F000ADF800B0ADF804A015F0AEFFA4F8D050AD
:104800004FF0FF354046FFF78FFD41464846C4F85C
:10481000C060C4E9355512F003FE3846C522782140
:10482000FFF763FD0DEB0A0269463846ADF800B0AC
:10483000ADF804A015F090FF07233846A4F818310E
:10484000FFF772FD48463946C4F80861C4E9475588
:1048500012F0E6FD204603B0BDE8F08F0C620308BD
:10486000808A0308C48B0308F4610308C746000864
:10487000806A7047704770477047704790F82C30D7
:104880004BB100F16C021268C2653BB100F17403D8
:104890001B680366704700F16802F4E700F17003DB
:1048A000F6E708B590F82C303BB100F1C4031B6863
:1048B000C0F8A830FFF7E2FF08BD00F1C003F6E73B
:1048C0007047704730B444680346C2689B6855100F
:1048D00004EB6200D20748BF625930BC48BFD358CE
:1048E00018470346406830B19A681AB9D86800F092
:1048F000010070470120704790F82D3080F8AE30ED
:1049000080F85A30704790F82D3080F85A30704750
:1049100010B5044678212BF0FFFB204610BD10B5E2
:104920000446C8212BF0F8FB204610BD10B5044604
:1049300010212BF0F1FB204610BD10B504464FF4BA
:104940002E712BF0E9FB204610BD10B50446006B1C
:1049500050B10368DB68984730B1206B214603688B
:10496000BDE810409B68184710BD00F586728A426A
:1049700002D10368DB6A184770470B7970B50446AB
:104980000D4690F82C600BB916B170BD002EFCD00E
:10499000B3FA83F320465B0984F82C302368D3F8FC
:1049A0008C309847236820465B699847002EECD0EE
:1049B0002B79012BE9D123682046D3F88830BDE854
:1049C00070401847036870B504469B6B15469847BE
:1049D000236820462946DB6BBDE87040184738B590
:1049E00004461D46FFF781FCBDF9102029462046EC
:1049F000FFF7E8FF38BD00004FF48071002281848A
:104A0000054982620160C0E90122C0E90322C0E9D0
:104A10000522C0E9072270470088030810B5044644
:104A2000262200212DF0D2F92046FFF76BFC044B23
:104A300020462360FF2384F826300023A36210BDA4
:104A4000808A030810B50446262200212DF0BEF905
:104A50002046FFF757FC0A4B4FF47F0220462360A5
:104A6000084BA3624FF6FF73A3850023C4E90C3201
:104A70004FF0FF322387E363C4E9102310BD00BF6A
:104A8000F08903089859030870B50446FFF7B4FF8E
:104A90004FF47F4300252646A3850123256384F830
:104AA0002430134B46F8343B3046FFF7B7FF114B29
:104AB0002A462946636330462566A4F86450C4E953
:104AC0001A55C4E91C55FFF710FC3146204626460E
:104AD00012F0A6FC084B46F8783B3046FFF7B2FFD1
:104AE00020463146C4E9305512F09AFC204670BD8C
:104AF000446203085C8B0308E06203082DE9F04F71
:104B000004468FB000251AF03DFBA246B64B04F1D7
:104B10006C084FF0260B4FF6FF76E5634AF8403BF2
:104B20005046FFF77BFF5A4629464046ADF83060B5
:104B30002DF04CF9404604F19809FFF7E3FBAB4B2D
:104B40000CA94046E36604F58677BDF8303084F85A
:104B50009460A4F8923015F0CDFF484616F00CF999
:104B600004F1E00318460393FFF758FF3846FFF7B8
:104B70008BFF04F5EA7318460493FFF73DFF04F535
:104B8000007318460593FFF737FF04F50B735A4679
:104B90002946184602932DF019F90298FFF7B2FB47
:104BA0004FF0010304F5187BC4F8545284F85032D6
:104BB0008F4B584684F85852C4F82C32A4F85A62E5
:104BC000A4F85C6284F85E62261DFFF73BFF894B08
:104BD0002A4629465046C4E9AA34874BC4E9AC3575
:104BE0004FF4887300934FF4F073FFF7F8FE4FF023
:104BF0007F4351463046A3664FF0050A12F010FC81
:104C00002A4629464046FFF770FB0CA94046ADF8FE
:104C100030A015F06FFF414630464FF0060812F005
:104C2000FFFB4846762240F22311FFF75EFB072385
:104C30000CAA0BA94846ADF83030ADF82C8015F021
:104C40008BFD4846A4F8D080FFF76EFB4FF0FF3392
:104C500049464FF041093046DFF8B481C4E93533A5
:104C600012F0DEFB4B46472203983E21CDF8009020
:104C7000FFF7B5FE614B03993046C4F8083112F0D6
:104C8000CFFB2A4629464B4604F5A070CDF800908C
:104C9000FFF7A5FE5A4B3846A4F87051C4F874319A
:104CA00003F54C533333C4F87831A3F5CC43663B5A
:104CB000C4F87C3103F1331303F54C53C4F880314D
:104CC000D4F80C31D3F88C309847ADF834A004F503
:104CD000C27A0CA9CDF83080504615F0DFFCB4F94B
:104CE0001621B4F914115046FFF76CFE29464B46C5
:104CF00050461222CDF80090FFF771FE414A424B18
:104D00003846D4F80CA1C4E97323FFF7CAFD6C231D
:104D1000384684F83931DAF89030984704F52A7328
:104D200047223846C4F83C313E214B46CDF800902E
:104D3000FFF755FE3946304612F072FB4FF4887388
:104D40002A46294604980093F023FFF748FE049969
:104D5000304612F065FB4FF488732A46059800939D
:104D6000F0231946FFF73BFE0599304612F058FB39
:104D7000029835224FF49B71FFF7B7FA4FF0010309
:104D80000CAA0BA9ADF82C3002230298ADF83030F4
:104D900015F0E2FC0299304612F042FB5D225846C3
:104DA0004F21FFF7A2FA194BA4F8945206AD5946C9
:104DB000C4F89032284615F0D7F904F5277395E822
:104DC000070083E8070004230CA95846CDF830807B
:104DD000ADF8343015F062FC3046594612F020FB35
:104DE00020460FB0BDE8F08F94630308C48B03081E
:104DF000E88A03087C6303086B49000813EB5EFF35
:104E0000996600FFF5F5F5FF0A0A0AFFC8E0C5FF3D
:104E1000985903087047000030B5164D8FB02C68C4
:104E2000BFF35B8F14F0010420D128462BF076F9F4
:104E3000E0B13F23012210490993104B1048089319
:104E4000104B0A940594CDE906430423CDE90332BF
:104E50000A23CDE90B440093CDE90144FFF73CF967
:104E600009482CF0BDF828462BF064F904480FB02F
:104E700030BD00BF5C230020A4810E907098030811
:104E800060230020C0980308154E000870470000FA
:104E900030B5164D8FB02C68BFF35B8F14F0010452
:104EA00021D128462BF03AF9E8B13F2322221049BC
:104EB0000993104B10480893104B0A940793012351
:104EC00001940493CDE905430423CDE9024314235F
:104ED000CDE90B440093FFF7FFF809482CF080F868
:104EE00028462BF027F904480FB030BD8C23002052
:104EF000B4810E907498030890230020C49803088E
:104F00008D4E00087047000030B5164D8FB02C68EC
:104F1000BFF35B8F14F0010420D128462BF0FEF87C
:104F2000E0B13F23012210490993104B1048089328
:104F3000104B0A940594CDE906430423CDE90332CE
:104F40002823CDE90B440093CDE90144FFF7C4F8D1
:104F500009482CF045F828462BF0ECF804480FB02F
:104F600030BD00BFBC23002090830E90BC98030886
:104F7000C0230020C8980308054F00080020704790
:104F8000002070470EB403B503AB002153F8042B87
:104F9000019319F001FA02B05DF804EB03B0704719
:104FA0000CB407B504AB53F8042B019319F0F4F9D2
:104FB00003B05DF804EB02B070470000436C10B51D
:104FC000044673B3038F2BB9184BC521184A1948EF
:104FD0002BF0E8FFC38E00EB43035B8C0BB31AF09E
:104FE000DBFF238F012B03D8134BCB21134AEEE7B2
:104FF000E28E40F63F10531C9BB2092B194688BF26
:10500000A3F10A0104EB4101498C814209D10A2B29
:1050100004EB420228BF0023508C04EB4303588466
:1050200051842046BDE810401AF0B8BEC46303089E
:10503000CD63030878640308C2640308D0640308DE
:105040001AF075BE10B586B002AC84E806001A46A8
:105050000AAB214605930193099B0093089B17F027
:10506000C3FD06B010BD000038B518BB124B134885
:105070001C681349B4B12268224402606268224469
:105080000A60A26814440F4B00221A8000F038F81E
:10509000054600F033F80C4B1C600C4B1D600C4BAC
:1050A000188007E00B4B03600B4B0B600B4B1C682D
:1050B000002CE8D138BD00BFF8230020F0230020E9
:1050C000EC230020F4230020BC560120C45601200C
:1050D000C0560120CC830E90A0830E9060840E9069
:1050E000044B1B6853F82100034B1B6803EB400083
:1050F000704700BFEC230020F02300200B207047F6
:1051000000487047FC23002010B5054CFFF7C0FE97
:105110002060FFF7F9FE6060FFF77EFEA06010BD23
:10512000FC23002010B5002404600C6014601C6097
:1051300010BD704710B504464FF4AE712AF0ECFF75
:10514000204610BD10B50446D0F8580100F024F8F0
:105150002046BDE8104018F053BA000010B50446D0
:10516000FEF724FF014B2046236010BDAC65030809
:105170000022026070470000054B1B7833B10068C5
:10518000044A036892ED000A9B681847704700BF05
:105190001000002004000020074B10B504461868DA
:1051A00040B10A2102F056FF20B92046BDE8104068
:1051B000FFF7E2BF10BD00BFD004002070470438E5
:1051C00070477047C06803685B6B1847A0F1040024
:1051D000FFF7F8BF10B5044610212AF09DFF2046C6
:1051E00010BDA0F10400F5E70022C1608260024A10
:1051F00002601C324260704700660308704700007E
:1052000001224021014800F0F9BD00BF0018024012
:10521000034B10B504460360FEF7D3FF204610BDD4
:105220003866030810B50446FFF7F2FF4FF4F0713B
:1052300020462AF071FF204610BD000010B504463C
:10524000FFF7B4F8014B2046236010BD3866030811
:10525000FEF7B8BF13B5044601AB074A0A2100F5B3
:10526000DE708DED010A1BF049FE04F5947002B06A
:10527000BDE8104019F0BBB92866030810B5044614
:105280000A216423074A00F5DE701BF039FC04F59F
:10529000947019F0ACF940210348BDE8104000F0CB
:1052A000B2BD00BF0E7A0308001802407047704775
:1052B00004387047704710B5044610212AF02CFFBF
:1052C000204610BDA0F10400F5E700000022C160F7
:1052D0008260024A026018324260704778660308B2
:1052E0007047000000224021014800F087BD00BF48
:1052F00000180240034B10B504460360FFF7B7F9EE
:10530000204610BDA466030810B50446FFF7F2FF5F
:105310004FF49C7120462AF0FFFE204610BD00008D
:1053200010B50446FFF7E6F9014B2046236010BD97
:10533000A4660308FFF79CB97047043870477047AC
:1053400010B5044610212AF0E7FE204610BDA0F15A
:105350000400F5E70022C1608260024A0260183250
:1053600042607047DC66030870470000034B10B5CD
:1053700004460360FFF77FFA204610BD0867030864
:1053800010B50446FFF7F2FF4FF42E7120462AF0C5
:10539000C3FE204610BD000010B50446FFF7AEFB6B
:1053A000014B2046236010BD08670308FFF764BA6D
:1053B00038B540210446174800F025FD4021154826
:1053C00000F016FD012805461AD102464021114879
:1053D00000F014FD104AFF2304F1E000C4F8082196
:1053E00084F8CA3084F8245219F001F904F19800C5
:1053F00019F0FDF804F50070BDE8384019F0F7B871
:10540000002240210348002500F0F8FC034A4B230A
:10541000E2E700BF0018024013EB5EFFB2C4A7FF33
:105420000F490020D1F8883043F47003C1F8883068
:105430000C4B1A6842F001021A6098601A6822F058
:10544000847222F480321A60074A5A601A6822F481
:1054500080221A60D8604FF000638B60704700BFF5
:1054600000ED00E0003802401030002470470020BA
:1054700070470000002337B58DF807300C4B1A78C1
:105480000AB901221A700324C5B2013CA82128469A
:10549000FCF7ECFC14F0FF048DF807009DF80730D2
:1054A000DBB201D0512BF0D19DF8070003B030BD25
:1054B0000A24002013B500240221C0B28DF8074051
:1054C000FCF7D4FC8DF807009DF8073003F00F03BC
:1054D0008DF807309DF80730052B01D98DF807406E
:1054E0009DF80720034B9DF807005A7000229A7020
:1054F00002B010BD0A2400202DE9F74F2F4C1546AD
:105500004FF000080F46A37862788DF807809A4222
:105510004DD9092B4ED803EB43035B00DBB2191DB9
:1055200003F1030B03F1060A0533C9B25FFA8BFBE3
:105530005FFA8AFA5FFA83F8C6B2DFF884903046E1
:10554000FCF794FC8DF807009DF80730594630466B
:10555000A9F80030FCF78AFC8DF8070051469DF849
:1055600007303046B9F800201B0203F47063134380
:105570003B80A9F80030FCF779FC8DF80700414624
:105580009DF807303046A9F80030FCF76FFC8DF825
:1055900007009DF80730B9F800201B0203F4706380
:1055A0001343A9F800302B80A3780133A37003B014
:1055B000BDE8F08FC246C3464146BDE70A2400203D
:1055C000082400200122A421C0B2FCF735BC00222F
:1055D000A421C0B2FCF730BCFFF7F9BF7047000050
:1055E000024B1A780AB901221A7070470A24002067
:1055F000074A032008B5136843F48073136000F072
:105600002DF80020FCF7B2FAFCF778F8002008BD6E
:10561000003C0240034A044B11681B780B441360A2
:10562000704700BF1024002040000020014B186884
:10563000704700BF1024002038B50446FFF7F6FF7E
:105640000546631C1EBF044B1B78E418FFF7EEFFF2
:10565000431BA342FAD338BD400000200749030290
:10566000CA6803F4E06322F4E0621204120C1343EC
:1056700043F0BF6343F40033CB60704700ED00E0BC
:10568000164B30B5DC68C4F30224C4F10703251DB2
:10569000042B28BF0423062D4FF0FF358CBF033C9D
:1056A000002405FA03F3002805FA04F521EA0303B0
:1056B00022EA050203FA04F343EA02034FEA031362
:1056C000DBB206DB00F1604000F5614080F800339A
:1056D00030BD00F00F00024A1354F9E700ED00E07E
:1056E00014ED00E0002807DB4109012300F01F0052
:1056F000024A834042F82130704700BF00E100E0D9
:1057000000280CDB4309012200F01F00044920336C
:10571000824041F82320BFF34F8FBFF36F8F704754
:1057200000E100E0BFF35F8F044B5A6A22F480323D
:105730005A620022C3F89420704700BF00ED00E0D9
:10574000064B40F00100C3F894005A6A42F48032DC
:105750005A62BFF34F8FBFF36F8F704700ED00E0C9
:105760004378144AC2F89830D2F8A03023F00103ED
:10577000C2F8A0304368C2F89C30C37A017B1B0694
:1057800043EA017301780B43817A43EAC143417BC9
:1057900043EA8143817B43EA4143C17B43EA0143BE
:1057A000417A43EA0123017A43EA4103C2F8A03077
:1057B000704700BF00ED00E010B5044608B90120B5
:1057C00010BD437F03F0FF0213B90277FBF7B4FF6C
:1057D000022363772379E3B92368134A5A619A68ED
:1057E00022F018029A6062792368D2B94FF0FF3232
:1057F0001A6100209A68616922F060020A43A16977
:105800009A609A6822F080020A439A6001236377C3
:10581000D6E7D4E90212204600F008F80028E2D0CA
:10582000CDE72269E4E700BFB71DC104CB0710B57F
:105830000DD51F23013B1DD321FA03F4E407F9D54D
:10584000102A13D0102A04D83AB1082A10D0012007
:105850000BE0182AFBD1062BF9D800684161836858
:1058600023F0180313438360002010BD072BF3E7D8
:105870000F2BF1E7102AE5D1E9E770B50446866DF4
:10588000FFF7D4FE054694F83530022B06D080236E
:1058900001206365002384F8343070BD23681A68E2
:1058A00022F016021A605A6922F080025A61226CB4
:1058B0000AB9A26C1AB11A6822F008021A601A68B2
:1058C00022F001021A602368186810F0010007D165
:1058D000E26D3F239340B360012384F83530D9E76C
:1058E000FFF7A4FE401B0528EDD9202303206365A4
:1058F00084F83500CEE710B5044630B390F839305F
:1059000003F0FF021BB980F83820FBF72BFF226859
:1059100002236168002084F83930136823F440338F
:105920000B43A1681360536B23F007030B43E1683B
:105930005363136C23F47F5323F03F030B4313642F
:105940000123E06384F8393010BD0120FCE7704783
:105950007047036870B55E6804461D68F20714D589
:10596000E90512D51A6822F480721A60C26B42F0FF
:105970000102C26301229A60042380F839300023B7
:1059800080F83830436903B19847B20616D5AB04A6
:1059900014D523681A6822F400521A6020229A60F3
:1059A000E36B43F00203E363042384F839300023FC
:1059B00084F8383063690BB120469847300716D514
:1059C000290514D523681A6822F400621A60082297
:1059D0009A60E36B43F00403E363042384F83930F3
:1059E000002384F8383063690BB12046984772076A
:1059F0000BD56B0509D5236820461A6822F480620E
:105A00001A6004229A60FFF7A2FFB00714D5A90517
:105A100012D523681A6822F400721A6002229A6072
:105A2000E36BE363012384F83930002384F83830D2
:105A300023690BB120469847F20613D5EB0411D524
:105A4000236820461A6822F480521A6010229A6055
:105A5000E36BE363012384F83930002384F83830A2
:105A6000FFF776FF70BD0000F0B590F838200346D0
:105A70000220012A2BD0012283F839000E011C4F8D
:105A800083F8382003EB0112D2E90740556A44EA53
:105A90000040093C012C96BF05F07F4240EA0560BA
:105AA00010431A68A1B9516A012C01EA070141EAC1
:105AB000000151629969916103D8596A21F07F41CF
:105AC00091620122002083F8392083F83800F0BD6C
:105AD000D169012C01EA070141EA0001D16103EB20
