:020000040800F2
:1000000000000520511B00086D1A00086F1A000837
:10001000711A0008731A0008751A00080000000021
:1000200000000000000000000000000051ED00088A
:10003000771A000800000000F1ED000855EE0008F6
:10004000A11B0008A11B0008A11B0008A11B0008A0
:10005000A11B0008A11B0008A11B0008A11B000890
:10006000A11B0008A11B0008A11B0008A11B000880
:10007000A11B0008A11B0008A11B0008A11B000870
:10008000A11B0008A11B0008A11B0008A11B000860
:10009000A11B0008A11B0008A11B0008A11B000850
:1000A000A11B0008A11B0008A11B0008A11B000840
:1000B000A11B0008A11B0008A11B0008A11B000830
:1000C000A11B0008A11B0008A11B0008A11B000820
:1000D000A11B0008A11B0008A11B0008A11B000810
:1000E000A11B0008A11B0008A11B0008A11B000800
:1000F000A11B0008A11B0008A11B0008A11B0008F0
:10010000A11B0008A11B0008A11B0008A11B0008DF
:10011000A11B0008A11B0008791A0008A11B0008F8
:10012000A11B0008A11B0008A11B0008A11B0008BF
:10013000A11B0008A11B0008A11B0008A11B0008AF
:10014000A11B0008A11B0008A11B0008A11B00089F
:10015000A11B0008A11B0008A11B0008A11B00088F
:10016000A11B0008A11B0008A11B0008A11B00087F
:10017000A11B0008A11B0008A11B00080000000033
:10018000A11B0008A11B0008A11B0008A11B00085F
:10019000A11B0008A11B0008A11B0008A11B00084F
:1001A000851A0008A11B0008911A0008A11B00086D
:1001B000A11B0008A11B0008A11B0008A11B00082F
:0801C000A11B0008A11B0008AF
:1001D00010B5054C237833B9044B13B10448AFF381
:1001E00000800123237010BD4003002000000000A8
:1001F000B486030808B5034B1BB103490348AFF3AA
:10020000008008BD0000000044030020B4860308FD
:1002100001F0FF01102A2BDB10F0070F08D010F8B7
:10022000013B013A8B422DD010F0070F42B3F6D1BB
:10023000F0B441EA012141EA014122F007047FF0D4
:1002400000070023F0E80256083C85EA010586EA2B
:10025000010685FA47F5A3FA87F586FA47F6A5FA67
:1002600087F68EB9EED1F0BC01F0FF0102F0070273
:1002700032B110F8013B013A83EA010313B1F8D11E
:100280000020704701387047002D06BF35460338FF
:10029000073815F0010F07D1013015F4807F02BF38
:1002A000013015F4C03F0130F0BC0138704700BF89
:1002B00081F0004102E000BF83F0004330B54FEA17
:1002C00041044FEA430594EA050F08BF90EA020F84
:1002D0001FBF54EA000C55EA020C7FEA645C7FEA17
:1002E000655C00F0E2804FEA5454D4EB5555B8BF3A
:1002F0006D420CDD2C4480EA020281EA030382EAAB
:10030000000083EA010180EA020281EA0303362D3C
:1003100088BF30BD11F0004F4FEA01314FF4801C0F
:100320004CEA113102D0404261EB410113F0004F21
:100330004FEA03334CEA133302D0524263EB4303D8
:1003400094EA050F00F0A780A4F10104D5F1200E76
:100350000DDB02FA0EFC22FA05F2801841F10001D1
:1003600003FA0EF2801843FA05F359410EE0A5F1A5
:1003700020050EF1200E012A03FA0EFC28BF4CF0D6
:10038000020C43FA05F3C01851EBE37101F000458C
:1003900007D54FF0000EDCF1000C7EEB00006EEB99
:1003A0000101B1F5801F1BD3B1F5001F0CD3490823
:1003B0005FEA30004FEA3C0C04F101044FEA44527A
:1003C00012F5800F80F09A80BCF1004F08BF5FEA01
:1003D000500C50F1000041EB045141EA050130BDE1
:1003E0005FEA4C0C404141EB0101013C28BFB1F5F3
:1003F000801FE9D291F0000F04BF01460020B1FA3E
:1004000081F308BF2033A3F10B03B3F120020CDA10
:100410000C3208DD02F1140CC2F10C0201FA0CF0EE
:1004200021FA02F10CE002F11402D8BFC2F1200C53
:1004300001FA02F120FA0CFCDCBF41EA0C01904009
:10044000E41AA2BF01EB0451294330BD6FEA040452
:100450001F3C1CDA0C340EDC04F11404C4F120023D
:1004600020FA04F001FA02F340EA030021FA04F34F
:1004700045EA030130BDC4F10C04C4F1200220FAA6
:1004800002F001FA04F340EA0300294630BD21FAE4
:1004900004F0294630BD94F0000F83F4801306BFAA
:1004A00081F480110134013D4EE77FEA645C18BF9E
:1004B0007FEA655C29D094EA050F08BF90EA020F35
:1004C00005D054EA000C04BF1946104630BD91EA2D
:1004D000030F1EBF0021002030BD5FEA545C05D130
:1004E0004000494128BF41F0004130BD14F580046F
:1004F0003CBF01F5801130BD01F0004545F0FE41E3
:1005000041F470014FF0000030BD7FEA645C1ABF17
:10051000194610467FEA655C1CBF0B46024650EA4E
:10052000013406BF52EA033591EA030F41F400217A
:1005300030BD00BF90F0000F04BF0021704730B500
:100540004FF4806404F132044FF000054FF00001D5
:1005500050E700BF90F0000F04BF0021704730B596
:100560004FF4806404F1320410F0004548BF40426B
:100570004FF000013EE700BF42004FEAE2014FEAC0
:1005800031014FEA02701FBF12F07F4393F07F4F9B
:1005900081F06051704732F07F4208BF704793F09E
:1005A0007F4F04BF41F40021704730B54FF46074B1
:1005B00001F0004521F000411CE700BF50EA0102B4
:1005C00008BF704730B54FF000050AE050EA01025D
:1005D00008BF704730B511F0004502D5404261EBCD
:1005E00041014FF4806404F132045FEA915C3FF40E
:1005F000D8AE4FF003025FEADC0C18BF03325FEAAB
:10060000DC0C18BF033202EBDC02C2F1200300FA5B
:1006100003FC20FA02F001FA03FE40EA0E0021FA80
:1006200002F11444BDE600BF70B54FF0FF0C4CF46E
:10063000E06C1CEA11541DBF1CEA135594EA0C0F20
:1006400095EA0C0F00F0DEF82C4481EA030621EA5B
:100650004C5123EA4C5350EA013518BF52EA033596
:1006600041F4801143F4801338D0A0FB02CE4FF048
:100670000005E1FB02E506F00042E0FB03E54FF078
:100680000006E1FB03569CF0000F18BF4EF0010E70
:10069000A4F1FF04B6F5007F64F5407404D25FEA6C
:1006A0004E0E6D4146EB060642EAC62141EA55511F
:1006B0004FEAC52040EA5E504FEACE2EB4F1FD0C61
:1006C00088BFBCF5E06F1ED8BEF1004F08BF5FEADF
:1006D000500E50F1000041EB045170BD06F0004691
:1006E00046EA010140EA020081EA0301B4EB5C043E
:1006F000C2BFD4EB0C0541EA045170BD41F4801136
:100700004FF0000E013C00F3AB8014F1360FDEBF5A
:10071000002001F0004170BDC4F10004203C35DA36
:100720000C341BDC04F11404C4F1200500FA05F3B9
:1007300020FA04F001FA05F240EA020001F000425A
:1007400021F0004110EBD37021FA04F642EB0601D0
:100750005EEA430E08BF20EAD37070BDC4F10C04FA
:10076000C4F1200500FA04F320FA05F001FA04F2BE
:1007700040EA020001F0004110EBD37041F10001AA
:100780005EEA430E08BF20EAD37070BDC4F12005B5
:1007900000FA05F24EEA020E20FA04F301FA05F21D
:1007A00043EA020321FA04F001F0004121FA04F2C5
:1007B00020EA020000EBD3705EEA430E08BF20EA95
:1007C000D37070BD94F0000F0FD101F000464000CF
:1007D00041EB010111F4801F08BF013CF7D041EA51
:1007E000060195F0000F18BF704703F00046520055
:1007F00043EB030313F4801F08BF013DF7D043EA26
:100800000603704794EA0C0F0CEA135518BF95EADB
:100810000C0F0CD050EA410618BF52EA4306D1D162
:1008200081EA030101F000414FF0000070BD50EA81
:10083000410606BF1046194652EA430619D094EA0B
:100840000C0F02D150EA013613D195EA0C0F05D1F5
:1008500052EA03361CBF104619460AD181EA030149
:1008600001F0004141F0FE4141F470014FF0000001
:1008700070BD41F0FE4141F4780170BD70B54FF09C
:10088000FF0C4CF4E06C1CEA11541DBF1CEA13551C
:1008900094EA0C0F95EA0C0F00F0A7F8A4EB0504FE
:1008A00081EA030E52EA03354FEA013100F08880F5
:1008B0004FEA03334FF0805545EA131343EA1263BE
:1008C0004FEA022245EA111545EA10654FEA002673
:1008D0000EF000419D4208BF964244F1FD0404F52C
:1008E000407402D25B084FEA3202B61A65EB030588
:1008F0005B084FEA32024FF480104FF4002CB6EB45
:10090000020E75EB030E22BFB61A754640EA0C00C4
:100910005B084FEA3202B6EB020E75EB030E22BF04
:10092000B61A754640EA5C005B084FEA3202B6EB45
:10093000020E75EB030E22BFB61A754640EA9C0004
:100940005B084FEA3202B6EB020E75EB030E22BFD4
:10095000B61A754640EADC0055EA060E18D04FEA92
:10096000051545EA16754FEA06164FEAC30343EA32
:1009700052734FEAC2025FEA1C1CC0D111F4801FFF
:100980000BD141EA00014FF000004FF0004CB6E7F8
:1009900011F4801F04BF01430020B4F1FD0C88BF97
:1009A000BCF5E06F3FF6AFAEB5EB030C04BFB6EBA2
:1009B000020C5FEA500C50F1000041EB045170BD95
:1009C0000EF0004E4EEA113114EB5C04C2BFD4EBC2
:1009D0000C0541EA045170BD41F480114FF0000E46
:1009E000013C90E645EA060E8DE60CEA135594EAC2
:1009F0000C0F08BF95EA0C0F3FF43BAF94EA0C0FC5
:100A00000AD150EA01347FF434AF95EA0C0F7FF439
:100A100025AF104619462CE795EA0C0F06D152EA8D
:100A200003353FF4FDAE1046194622E750EA410671
:100A300018BF52EA43067FF4C5AE50EA41047FF482
:100A40000DAF52EA43057FF4EBAE12E74FEA4102E5
:100A5000B2F1E04324BFB3F5001CDCF1FE5C0DD91C
:100A600001F0004C4FEAC0024CEA5070B2F1004F66
:100A700040EB830008BF20F00100704711F0804F69
:100A800021D113F13872BCBF01F00040704741F42E
:100A900080114FEA5252C2F11802C2F1200C10FA32
:100AA0000CF320FA02F018BF40F001004FEAC12316
:100AB0004FEAD32303FA0CFC40EA0C0023FA02F3BA
:100AC0004FEA4303CCE77FEA625307D150EA013390
:100AD0001EBF4FF0FE4040F44000704701F0004060
:100AE00040F0FE4040F40000704700BF7BB972B98F
:100AF0000029BEBF00204FF0004106E008BF0028DB
:100B00001CBF6FF000414FF0FF3000F0B5B9ADF100
:100B1000080C6DE904CE002909DB002B1ADB00F07C
:100B20004DF8DDF804E0DDE9022304B070474042EF
:100B300061EB4101002B1BDB00F040F8DDF804E025
:100B4000DDE9022304B0404261EB4101524263EB14
:100B500043037047524263EB430300F02FF8DDF884
:100B600004E0DDE9022304B0404261EB410170473B
:100B7000524263EB430300F021F8DDF804E0DDE9C5
:100B8000022304B0524263EB4303704753B94AB99E
:100B9000002908BF00281CBF4FF0FF314FF0FF3085
:100BA00000F06AB9ADF1080C6DE904CE00F006F86A
:100BB000DDF804E0DDE9022304B070472DE9F047D9
:100BC000089D0C46002B4ED194468C458646B2FAC1
:100BD00082F262D94AB1C2F12003914020FA03F3B4
:100BE0000CFA02FC194300FA02FE4FEA1C471FFAF6
:100BF0008CF6B1FBF7F44FEA1E4307FB141143EAEE
:100C0000014304FB06F199420AD91CEB030304F1EA
:100C1000FF3080F01281994240F20F81023C634420
:100C2000591A1FFA8EF3B1FBF7F007FB101143EAD4
:100C3000014300FB06F69E420AD91CEB030300F1B8
:100C4000FF3180F0FC809E4240F2F980634402381C
:100C50009B1B40EA044000211DB1D3400022C5E99E
:100C60000032BDE8F0878B4205D90DB1C5E900011E
:100C700000210846F5E7B3FA83F1002946D1A342E3
:100C800002D39042C0F0F080861A64EB0303012087
:100C9000002DE6D0C5E90063E3E7002A40F090802C
:100CA000A1EB0C044FEA1C481FFA8CF70121B4FB9E
:100CB000F8F64FEA1E4308FB164443EA044307FBD9
:100CC00006F0984208D91CEB030306F1FF3402D268
:100CD000984200F2CD8026461C1A1FFA8EF3B4FB10
:100CE000F8F008FB104443EA044300FB07F79F4277
:100CF00008D91CEB030300F1FF3402D29F4200F23B
:100D0000B0802046DB1B40EA0640A5E7C1F1200683
:100D10008B4022FA06F71F4320FA06FC04FA01F37F
:100D200043EA0C03F44000FA01F8380C4FEA134987
:100D3000B4FBF0FE1FFA87FC00FB1E4449EA0444A2
:100D40000EFB0CF9A14502FA01F20AD93C190EF189
:100D5000FF3A80F08480A14540F28180AEF1020E1E
:100D60003C44A4EB09041FFA83F9B4FBF0F300FB45
:100D7000134449EA044403FB0CFCA44507D93C197D
:100D800003F1FF3067D2A44565D9023B3C4443EAF6
:100D90000E40A0FB0293A4EB0C049C42CE469C4662
:100DA00051D34ED055B1B8EB0E0364EB0C0404FAEA
:100DB00006F6CB401E43CC40C5E90064002150E755
:100DC000C2F1200320FA03F10CFA02FC24FA03F327
:100DD00094400C434FEA1C4800FA02FE1FFA8CF7BD
:100DE000B3FBF8F008FB1031230C43EA014300FB8E
:100DF00007F1994208D91CEB030300F1FF362CD20E
:100E000099422AD9023863445B1AA4B2B3FBF8F1C1
:100E100008FB113344EA034401FB07F3A34208D95A
:100E20001CEB040401F1FF3613D2A34211D902399D
:100E30006444E41A41EA004139E70446F0E6084612
:100E400006E7C845AED2B9EB020E63EB070C0138DA
:100E5000A8E73146EDE7034699E73046D4E7D646A2
:100E60007FE7634402384DE70646234608460FE70E
:100E7000023E634430E700BF704700BF00220221FA
:100E800001480BF05BBB00BF0020024008B5022107
:100E90000D480BF058FB0D4A13780133DBB2092BD8
:100EA000137010D90A4BB7EE007AD3ED007A77EEC3
:100EB000877AC3ED007A00231370064B1868BDE8EB
:100EC00008400DF0A3BC08BD002002405C030020D8
:100ED0000400002070030020014900200FF036B903
:100EE000E327000808B564200DF046FBFBE708B5D2
:100EF000FFF7C4FFFFF7CAFF64200DF03DFBF9E7E1
:100F000010B594B01022002102240AA836F094FCF7
:100F10001422002103A836F08FFC1D4B192108A8CC
:100F20001A6C42F080521A641B6C03F080530193D8
:100F3000019B184B1A6842F440421A6001221B6858
:100F400003F440430293029B4FF48033CDE908231E
:100F50004FF48003CDE90E434FF4D873CDE912442A
:100F6000CDE910130CF0D8FA0CF036F80F2300205E
:100F70000721CDE903344FF4A053CDE905034FF425
:100F8000805303A807930CF0AFFC14B010BD00BF52
:100F9000003802400070004030B54FF480738FB0CD
:100FA0004FF080720E4D06939F2309920122009309
:100FB00000230446694628460593CDE90A2341F2F9
:100FC0008832CDE90733CDE90C330CF071F941F2E9
:100FD0008832214628460CF03BFA0FB030BD00BFE6
:100FE000B803002000B54FF4807391B04FF0407209
:100FF000EF2808934FF0EB0302A90D4802934FF43A
:10100000406309934FF4005305934FF00003CDE97B
:101010000A3214BF0A2206220F9307926A46CDE9CC
:101020000D33CDE900330CF088F911B05DF804FB05
:10103000B80300202DE980489BB010220021012533
:101040000DA84FF0104936F0F7FB00240AF00AFF14
:10105000C74B0DA8ADF834501094CDE90E930AF0AB
:101060001FFF17230DA88DF835508DF83C308DF8F3
:1010700042500AF015FF04200AF002FFBFF34F8F21
:10108000BFF36F8FBB4AC2F85042BFF34F8FBFF31D
:101090006F8F536943F400335361BFF34F8FBFF336
:1010A0006F8FC2F88440BFF34F8FD2F8803043F681
:1010B000E074C3F3C900C3F34E335B0103EA0406D3
:1010C000014646EA81750139C2F86052F9D2203BE7
:1010D00013F1200FF2D1BFF34F8F536943F48033E4
:1010E0005361BFF34F8FBFF36F8F0AF021FE0024CF
:1010F000FFF706FF142200210DA836F09DFB9E4B42
:1011000010219E481A6B01274FF010084FF0030B77
:1011100042F010024FF0400A994D4FF004091A6353
:101120001A6B984E02F010020292029A1A6B42F069
:1011300002021A631A6B02F002020392039A1A6BFC
:1011400042F001021A631A6B02F001020492049A3F
:101150001A6B42F040021A631A6B02F040020592C9
:10116000059A1A6B42F400721A631A6B02F4007249
:101170000692069A1A6B42F008021A631A6B02F082
:1011800008020792079A1A6B42F480621A631A6B7C
:1011900002F480620892089A1A6B42F020021A63E5
:1011A0001A6B02F020020992099A1A6B42F48072BB
:1011B0001A631A6B02F480720A920A9A1A6B42F04E
:1011C00080021A631A6B02F080020B920B9A1A6B60
:1011D00042F004021A6300221B6B03F004030C9319
:1011E0000C9B0BF0ABF90122082167480BF0A6F924
:1011F0000022022165480BF0A1F901224FF4805131
:1012000062480BF09BF90022C02161480BF096F96F
:10121000002240215F480BF091F90DA95748CDE914
:101220000D87CDE90F4B0BF005F808230DA95648A3
:10123000CDE90D37CDE90F440AF0FCFF41F202027F
:101240000DA95248CDE90D27CDE90F440AF0F2FF70
:10125000C0220DA94E48CDE90D27CDE90F4B0AF06C
:10126000E9FF0DA94B48CDE90DA7CDE90F4B0AF0D9
:10127000E1FF4948494A848002600762C0E90544A9
:101280000AF03AFE464A2846C5E90024C5E9024468
:10129000C5E90A44C5E90C440AF0CDFE39462846A2
:1012A000404D0AF081FF404A4FF40063C6F814A095
:1012B0004FF0020A0DA93046B460B462CDF84CA0DC
:1012C000C6E900244FF4C072C6E906244FF48052E8
:1012D000C6E908320722C6E90398CDE90DA2CDE997
:1012E0000F92CDE911BA0CF055FE29464FF6FF7268
:1012F00030460194C5E90078C5E902740CF06AFE35
:1013000038460AF039FD29464FF6FF723046C5E9E6
:1013100000A8C5E902740CF05DFE082329464FF6CB
:10132000FF723046C5E900B8C5E902340CF052FE40
:101330004FF40C734FF6FF72294601933046019B20
:10134000AF60EB60C5E900980CF044FE40F22B71F1
:101350003046164D0CF05DFE4FF0204343F2D202B2
:10136000642040F215261A600AF006FD20E000BF56
:101370001B00000300ED00E00038024000040240C2
:1013800000050020840300200028024000200240C5
:1013900000080240001802404005002000300240D2
:1013A00000B0024060030020400100A0AC04002017
:1013B000514B524A28462C62C5E90023C5E9024731
:1013C000C5E90444C5E906440BF0F9F9214628466D
:1013D0000BF01CFC21462846494D0BF03DFC342205
:1013E00021460DEB020036F027FA464B2821352026
:1013F00040F2352C2C61AC8685F83640C5E90034C6
:101400000923C5E905130B23C5E9070340F21B13A4
:101410002846C5E9096340F21D13C5E90244C5E940
:101420000BC30BF0C5FCFF214FF4806E4FF4F0723C
:101430004FF4887328460D941893ADF864408DF8E6
:101440006640CDE912140521CDE914E14FF0404189
:10145000CDE90E24CDE9161222460DA9CDE9103AA8
:101460000BF071FD2848294B0462C0E90037C0E940
:1014700002984FF4A0634FF01808C0E90644C0E991
:1014800004830BF0C3FE0DA8FFF786FD9DF8340022
:10149000FFF7A8FD5C200AF0D3FC00F057FB00F03A
:1014A00081FB00F07EFB0CF0D9FF194A3946384623
:1014B0000DF018F9174B184A2146186017480DF01F
:1014C00007F8174B174A2146186017480DF000F827
:1014D000164B174A2146186016480CF0F9FF164BB8
:1014E000164A2146186016480CF0F2FF154B18609A
:1014F0000CF0CEFFFEE700BF68474020005C0040D4
:101500000404002000680140B8030020001000A07F
:1015100078AA030870030020F4AA0308E50E000867
:1015200080030020D0AA0308B31B00087C0300201E
:10153000ACAA03085D6200087803002088AA0308AB
:10154000EF0E0008740300200268034B9A4201D199
:101550000AF000BC704700BF001000407047000058
:101560000D4B82B00F216FF001001A6C42F08052D7
:101570001A641A6C02F080520092009A5A6C42F47B
:1015800080425A6400225B6C03F480430193019B08
:1015900002B00AF015BC00BF00380240026882B0F9
:1015A000084B9A420BD1D3F8302803F5006342F47C
:1015B00080521A631B6B03F480530193019B02B0AA
:1015C000704700BF003002400E4B07B502689A42D8
:1015D00015D1A3F5F04305215A201A6B42F40002FD
:1015E0001A6300221B6B03F400030193019B0AF0B2
:1015F000E7FB5A2003B05DF804EB0AF013BC03B01C
:101600005DF804FB00B0024010B5A8B004461422F7
:10161000002102A836F010F98422002107A836F034
:101620000BF92268174B9A422AD14FF4803307A84E
:1016300007930CF025FA08B1FFF790FF124C4FF416
:10164000C07201211148236B43F080032363236B95
:1016500003F080030093009B1223CDE902230323B0
:10166000CDE90413042302A906930AF0E3FD236CD9
:1016700043F400032364236C03F400030193019BF0
:1016800028B010BD005C004000380240001C024041
:10169000026808B5094B9A420FD1094A80210948CE
:1016A000136C23F4000313640AF0A8FE4FF4807156
:1016B0000448BDE808400AF0A1BE08BD005C004037
:1016C00000380240001C024070B5ACB00446142241
:1016D000002106A836F0B0F8842200210BA836F0CD
:1016E000ABF82268484B9A4240F08C8008230520D2
:1016F00001240B934FF4C07310930223CDE91130F2
:101700004FF400330BA8CDE915430CF0B9F908B13B
:10171000FFF724FF3D4B002402250E265A6C06A934
:101720003B4842F080625A645A6C02F08062009238
:10173000009A1A6B42F010021A631A6B02F0100240
:101740000192019A1A6B42F400721A631A6B02F446
:1017500000720292029A1A6B42F480621A631A6B48
:1017600002F480620392039A1A6B42F040021A63F9
:101770001A6B02F040020492049A1A6B42F48072CF
:101780001A631B6B03F480730593059B1023CDE94B
:101790000635CDE908440A960AF04CFD4EF6FF7373
:1017A00006A91C480A96CDE90635CDE908440AF099
:1017B00041FDF72306A918480A96CDE90635CDE97B
:1017C00008440AF037FD4FF4805306A91348CDE9C9
:1017D00006350923CDE908440A930AF02BFD4FF49E
:1017E000464306A90E480A96CDE90635CDE90844D8
:1017F0000AF020FD5820224605210AF0E1FA58207F
:101800000AF010FB2CB070BD0068014000380240A7
:10181000001002400024024000280240001802404C
:1018200000200240142200212DE9F0418AB0044634
:101830000DEB020036F000F822682C4B9A4251D191
:101840002B4B0225032409269A6B4FF0040805A9A7
:10185000284842F0020200279A639A6B02F00202C3
:101860000192019A1A6B42F010021A631A6B02F08D
:1018700010020292029A1A6B42F002021A631A6B69
:1018800002F002020392039A1A6B42F008021A63F2
:101890001B6B03F008030493049BCDE90585CDE998
:1018A00008460AF0C7FC402305A91348CDE90535D1
:1018B0000A23CDE9077409930AF0BCFC05A90E4878
:1018C0000996CDE90585CDE907740AF0B3FC4FF41C
:1018D000605305A909480996CDE90535CDE9077496
:1018E0000AF0A8FC0AB0BDE8F08100BF001000A01B
:1018F000003802400010024000040240000C024088
:10190000F0B5002387B00393294B1E68002E4DD1FC
:101910000122022703250C241A6001A9254B264821
:101920009A6B42F001029A639B6B03F001030093F0
:10193000009B4FF68373CDE90454CDE901370AF0DB
:1019400079FC48F2331301A91C480594CDE901370D
:10195000CDE903650AF06EFC4CF2037301A9184847
:101960000594CDE90137CDE903650AF063FC4FF634
:101970003F0301A913480594CDE90137CDE903657B
:101980000AF058FC282301A90F480594CDE9013736
:10199000CDE903650AF04EFC082301A90B48059424
:1019A000CDE90137CDE903650AF044FC07B0F0BD8D
:1019B0006405002000380240001002400018024078
:1019C000000C024000140240001C024000080240CB
:1019D000214B1A6C42F0100270B51A6488B01B6C6F
:1019E000054601A903A803F010030293029B0CF023
:1019F00029F8069B4BBB0CF015F8184E184B3360BA
:101A000040F2E733F360174BB0FBF3F3013B304692
:101A1000736000233361B360B3610CF061FC044672
:101A200080B930460CF00EFB044658B936200AF057
:101A3000F9F90F2D0DD82246294636200AF0C0F9B3
:101A4000094B1D60204608B070BD0BF0EBFF400055
:101A5000D3E70124F6E700BF003802406805002004
:101A60000010004040420F00440000207047FEE795
:101A7000FEE7FEE7FEE7704701480CF025BB00BF1C
:101A80006805002001480BF001BA00BF04040020E3
:101A900001480AF0FEBA00BF00050020012070478F
:101AA00008B535F07DFF162303604FF0FF3008BD09
:101AB00008B535F075FF16230360FEE770B50D46D7
:101AC00014460E46731B9C4201DC204670BDAFF3EA
:101AD000008006F8010BF5E770B50D4614460E467A
:101AE000731B9C4201DC204670BD16F8010BAFF35E
:101AF0000080F5E74FF0FF3070474FF400530020AF
:101B00004B60704701207047002070470B4A034626
:101B1000116810B509B90A491160106809490A4CE1
:101B20000344091B8B4206D935F03AFF0C230360AE
:101B30004FF0FF3010BD1360FCE700BFB40500207C
:101B40004862012000000520000A000070470000E4
:101B5000DFF834D0002103E00C4B5B5843500431D4
:101B60000B480C4B42189A42F6D30B4A02E0002372
:101B700042F8043B094B9A42F9D309F0F1FF35F0E2
:101B800015FFFFF757FA704700000520B0EC030877
:101B9000000000202C0100204003002044620120AE
:101BA000FEE7704708B503F03FF9BDE8084003F0D1
:101BB00009B903F041B9000080B483B000AF786088
:101BC000044A7B681A607B6818460C37BD465DF88E
:101BD000047B704748AB030880B582B000AF7860E3
:101BE0007868FFF7E9FF0C21786834F022FC7B6805
:101BF00018460837BD4680BD80B584B000AF786018
:101C00000B46FB70FB78002B11D07B681B681033F0
:101C10001B687868984702467B689B68D31AFB600C
:101C20007B685A68FB681A447B685A6008E07B68E6
:101C30001B6810331B687868984702467B689A6077
:101C400000BF1037BD4680BD80B483B000AF786060
:101C50007B685B6818460C37BD465DF8047B7047AF
:101C600080B483B000AF786039607B683A685A60AE
:101C700000BF0C37BD465DF8047B704780B483B06D
:101C800000AF78600B4B1B680A4A43F08073136007
:101C9000094B1A680849094B13430B60084B1B6832
:101CA000074A43F00103136000BF0C37BD465DF8DF
:101CB000047B7047FCED00E0B01F00E055CEACC5E2
:101CC000001000E080B485B000AFF860B9607A60C1
:101CD0003B607A68BB68D21A3B685B081A443B6871
:101CE000B2FBF3F318461437BD465DF8047B70472A
:101CF00080B483B000AF7860034B1B6818460C3784
:101D0000BD465DF8047B7047041000E080B584B0E8
:101D100000AF78600B46FB70FB78002B11D07B681E
:101D20001B6810331B687868984702467B689B687D
:101D3000D31AFB607B685A68FB681A447B685A6058
:101D400008E07B681B6810331B6878689847024678
:101D50007B689A6000BF1037BD4680BD80B582B0F9
:101D600000AF7860054A7B681A607B681846FFF709
:101D700023FF7B6818460837BD4680BD20AB0308AB
:101D800080B582B000AF78607868FFF7E7FF0C217C
:101D9000786834F04EFB7B6818460837BD4680BD36
:101DA00080B483B000AF7860044A7B681A607B68B7
:101DB00018460C37BD465DF8047B704788AB0308B6
:101DC00080B582B000AF78607868FFF7E9FF042142
:101DD000786834F02EFB7B6818460837BD4680BD16
:101DE00080B582B000AF7860054B064A1A60044B9C
:101DF0001B68DB687020984700BF0837BD4680BD70
:101E0000B80500201800002080B586B000AFF8604B
:101E1000B9607A60144B1B68002B1FD0124B1B68F3
:101E20001B69702098470346002B14BF0123002331
:101E3000DBB2002B12D00C4B1B685B6907F116025A
:101E400007F1140170209847FB8A1A46BB681A6094
:101E5000BB8A1A467B681A60012300E000231846FB
:101E60001837BD4680BD00BFB805002080B582B0E0
:101E700000AF78600B46FB7078680AF0F5FC00BF95
:101E80000837BD4680BD80B58AB004AFF86008460B
:101E900011461A460346FB720B463B811346FB80F4
:101EA0000023FB75FB7A99B2F8883A894FF47A736C
:101EB0000293BB8C01933B6A00930346F8680AF0D7
:101EC000C7FD0346FB75FB7D002B04D0FB7A19464A
:101ED000F868FFF7CBFFFB7D18461837BD4680BD7D
:101EE00080B58AB004AFF860084611461A4603462A
:101EF000FB720B463B811346FB800023FB75FB7A8C
:101F000099B2F8883A894FF47A730293BB8C0193A3
:101F10003B6A00930346F8680AF0C0FC0346FB7571
:101F2000FB7D002B04D0FB7A1946F868FFF79EFF73
:101F3000FB7D18461837BD4680BD000080B584B0D3
:101F400002AF0346FB710B46BB7113467B71BB7935
:101F50009AB2F979012301937B1D00930123034871
:101F6000FFF7BEFF00BF0837BD4680BDAC040020B0
:101F700080B586B002AF03460A46FB711346BB71BB
:101F80000023FB73BB799AB2F9790123019307F11E
:101F90000F03009301230448FFF775FFFB7B1846EE
:101FA0001037BD4680BD00BFAC04002080B582B0B4
:101FB00000AF7860054A7B681A607B681846FFF7B7
:101FC000EFFE7B6818460837BD4680BD70AB03083E
:101FD00080B582B000AF78607868FFF7E7FF042132
:101FE000786834F026FA7B6818460837BD4680BD0D
:101FF00080B582B000AF00237B6015E07B68DBB268
:10200000184600F0DFF80346002B0AD00A4A7B6826
:1020100052F82330012B04D0074A7B68012142F893
:1020200023107B6801337B607B68042BE6DD00BFF7
:1020300000BF0837BD4680BDBC05002080B582B01A
:1020400000AF0346FB71FB79032B39D801A252F88C
:1020500023F000BF6520000883200008A1200008AD
:10206000BF200008FB79184A52F82330002B0CBF20
:1020700001230023DBB21A46102114480AF05EFA4D
:102080001EE0FB79104A52F82330002B0CBF0123CD
:102090000023DBB21A4640210D480AF04FFA0FE048
:1020A000FB79094A52F82330002B0CBF012300238F
:1020B000DBB21A46802106480AF040FA00E000BF71
:1020C00000BF0837BD4680BDBC05002000040240AB
:1020D0000008024080B582B000AF0346FB71FB7977
:1020E000032B39D801A252F823F000BFFD200008CD
:1020F0001B2100083921000857210008FB79184AE4
:1021000052F82330002B01D0012300E000231A46AF
:10211000102114480AF012FA1EE0FB79104A52F816
:102120002330002B01D0012300E000231A46402178
:102130000D480AF003FA0FE0FB79094A52F8233000
:10214000002B01D0012300E000231A46802106481D
:102150000AF0F4F900E000BF00BF0837BD4680BDBB
:10216000BC050020000402400008024080B582B097
:1021700000AF0346FB71FB79032B1BD801A252F879
:1021800023F000BF952100089F210008A921000825
:10219000B3210008102109480AF0D5F90AE04021CE
:1021A00007480AF0D0F905E0802105480AF0CBF98C
:1021B00000E000BF00BF0837BD4680BD00040240FC
:1021C0000008024080B584B000AF0346FB710023D5
:1021D000FB73FB79032B20D801A252F823F000BF38
:1021E000F1210008FF2100080D2200081B22000831
:1021F00010210F480AF09CF90346FB730DE04021C3
:102200000C480AF095F90346FB7306E08021094863
:102210000AF08EF90346FB7300BFFB7B012B0CBF5A
:1022200001230023DBB218461037BD4680BD00BF36
:10223000000402400008024080B483B000AF786020
:10224000074A7B681A607B6800225A607B6800221C
:102250009A607B6818460C37BD465DF8047B704772
:1022600048AB030880B483B000AF7860044A7B6851
:102270001A607B6818460C37BD465DF8047B7047D2
:102280007CDC030880B582B000AF78607868FFF727
:10229000E9FF7C21786834F0CCF87B681846083771
:1022A000BD4680BD80B400AF034B1B681846BD46D9
:1022B0005DF8047B704700BF0455012080B483B0F3
:1022C00000AF78600B46FB707B68FA7883F8782063
:1022D0007B68012283F8792000BF0C37BD465DF88A
:1022E000047B704780B582B000AF78600B467B807E
:1022F00013463B800C4B1B887A889A4204D30B4BC5
:102300001B883A889A4205D2094B0A4A9E210A48FC
:1023100034F0D6FF094A7B881380094A3B88138032
:1023200000BF0837BD4680BDF8540120FA54012093
:10233000D08603083487030878870308FE540120F9
:102340000055012080B483B000AF78600B46FB706D
:102350007B68FA7883F84A2000BF0C37BD465DF8E9
:10236000047B704780B582B000AF78607B6893F8DB
:102370007A30002B09D07B685A687B685B681B68E1
:102380001B6810469847034600E0002318460837AC
:10239000BD4680BD80B582B000AF786078681CF023
:1023A0000FFC7B681B68AC331B687868984700BFDC
:1023B0000837BD4680BD80B483B000AF7860396017
:1023C000002318460C37BD465DF8047B70470000BB
:1023D00080B584B000AFF860B9607A603B60BB68DC
:1023E000002B06D10F4B104A40F2D2210F4834F097
:1023F00067FFFB68BA68DA63FB687A681A647B680F
:10240000002B14BF01230023DAB2094B1A70FB68BA
:102410001B688C331B683968F868984700BF103711
:10242000BD4680BDC0870308F88703087887030886
:102430000255012080B483B000AF786039607B68BA
:102440003A685A643B68002B14BF01230023DAB2B8
:10245000034B1A7000BF0C37BD465DF8047B704714
:102460000355012080B483B000AF786039607B6889
:102470003A681A6100BF0C37BD465DF8047B7047AF
:1024800080B483B000AF78600B46FB707B68FA784D
:1024900083F8702000BF0C37BD465DF8047B7047A1
:1024A00080B483B000AF7860002318460C37BD4677
:1024B0005DF8047B704780B582B000AF78600B4652
:1024C0007B807B689B6B002B04D07B689B6B7A883E
:1024D0001046984700BF0837BD4680BD80B483B022
:1024E00000AF78604FF6FF7318460C37BD465DF8B5
:1024F000047B704780B582B000AF78607B685A6813
:102500007B685B681B6818331B6810469847034656
:1025100018460837BD4680BD80B485B000AF7860EE
:102520007B6893F878207B6893F834309A4211D016
:10253000144B1B78002B1ED1134B1B88BB81134BF4
:102540001A88114B1A80114ABB8913800D4B012246
:102550001A7010E00B4B1B78002B0CD00A4B1B8819
:10256000FB810A4B1A88084B1A80084AFB891380A2
:10257000044B00221A7000BF1437BD465DF8047B7F
:10258000704700BFFC540120FA540120F854012088
:1025900080B582B000AF78607B6818461BF06EFD96
:1025A00000BF0837BD4680BD80B582B000AF7860FF
:1025B000054A7B681A607B681846FFF753FE7B6804
:1025C00018460837BD4680BD74B1030880B582B097
:1025D00000AF78607868FFF7E7FF7C21786833F018
:1025E00028FF7B6818460837BD4680BD80B582B09D
:1025F00000AF78607B681846FFF7CAFF00BF083756
:10260000BD4680BD80B485B000AF204B0022C3F82A
:102610008420BFF34F8F00BF1C4BD3F880307B600A
:102620007B685B0BC3F30E03FB607B68DB08C3F3C3
:102630000903BB60FB685A0143F6E0731340BA68B4
:10264000920712491343C1F87432BB685A1EBA602C
:10265000002B14BF01230023DBB2002BEAD1FB685F
:102660005A1EFA60002B14BF01230023DBB2002B9B
:10267000DBD1BFF34F8F00BFBFF36F8F00BF00BF31
:102680001437BD465DF8047B704700BF00ED00E0E5
:1026900080B582B000AF78607B681846FFF7CCFD4C
:1026A000034A7B681A607B6818460837BD4680BDC0
:1026B00020AB030880B582B000AF78607B68184615
:1026C00003F0A8FC7A687B681B688C331B680C4994
:1026D000104698477B6800211846FFF733FE0948EB
:1026E000FFF7CCFA7B6807491846FFF7BBFE7B680B
:1026F00001211846FFF7C4FE00BF0837BD4680BD64
:10270000000000C0CC05002080B582B000AF78602A
:102710007B68184603F02EFD034618460837BD4671
:1027200080BD80B582B000AF786039607B68396861
:10273000184603F02DFD00BF0837BD4680BD80B5AB
:1027400082B000AF786039607B683968184603F062
:1027500035FDFFF757FF00BF0837BD4680BD80B588
:1027600084B000AFF860B9607A603B60F8683B689D
:102770007A68B96803F030FD034618461037BD4645
:1027800080BD80B582B000AF78607B68184603F0EA
:1027900077FC00BF0837BD4680BD80B582B000AF72
:1027A00078607B68184603F07BFC00BF0837BD46A5
:1027B00080BD80B582B000AF78607B68184603F0BA
:1027C0007DFC00BF0837BD4680BD80B582B000AF3C
:1027D00078607B68184603F07FFC00BF0837BD4671
:1027E00080BD80B582B000AF78607B68002B07D0D9
:1027F000FFF758FD0346012118461CF0FBF906E0DF
:10280000FFF750FD0346002118461CF0F3F90123A1
:1028100018460837BD4680BD80B582B000AF7860ED
:10282000054A7B681A607B681846FFF7BDFE7B6827
:1028300018460837BD4680BDA0AB030880B582B0FE
:1028400000AF78607868FFF7E7FF7C21786833F0A5
:10285000F0FD7B6818460837BD4680BD80B582B064
:1028600000AF786039607B68012B07D13B684FF679
:10287000FF72934202D10948FFF70AFF7B68002BE1
:1028800007D13B684FF6FF72934202D10348FFF72E
:1028900065FA00BF0837BD4680BD00BFCC050020EB
:1028A00080B500AF4FF6FF710120FFF7D7FF80BD65
:1028B00080B500AF4FF6FF710020FFF7CFFF80BD5E
:1028C00080B500AF0022012101200BF00BFF034671
:1028D0000F4A13600E4B1B68002B05D10D4B0E4A9F
:1028E00028210E4834F0ECFC0022042101200BF0DA
:1028F000C3FF03460A4A1360094B1B68002B05D12E
:10290000084B054A2C21054834F0DAFC00BF80BD95
:10291000D80500204888030894880308C488030861
:10292000DC0500200C89030880B500AF044B1B6850
:102930004FF0FF3118460BF02DFF00BF80BD00BFE8
:10294000D805002080B500AF034B1B6818460BF07C
:102950005DFF00BF80BD00BFD805002080B500AF7F
:10296000034B1B68002118460BF014FF00BF80BD0D
:10297000D805002080B500AF034B1B6818460BF04C
:1029800045FF00BF80BD00BFD805002080B500AF67
:10299000044B18680023002203490BF0B3FF00BF6B
:1029A00080BD00BFDC0500200800002080B582B09B
:1029B00000AF094B1868391D002300220BF0E4FF1B
:1029C000054B1868391D4FF0FF3300220BF0DCFF78
:1029D00000BF0837BD4680BDDC05002080B483B051
:1029E00000AF0346FB7197F90730002B0BDBFB7937
:1029F00003F01F02074997F907305B09012000FA2D
:102A000002F241F8232000BF0C37BD465DF8047B7D
:102A1000704700BF00E100E080B483B000AF034620
:102A2000FB7197F90730002B12DBFB7903F01F02D3
:102A30000A4997F907305B09012000FA02F22033B6
:102A400041F82320BFF34F8F00BFBFF36F8F00BF4C
:102A500000BF0C37BD465DF8047B704700E100E025
:102A600080B487B000AF786039603B687B617B6879
:102A70003B612023FB60BFF34F8F00BF0BE00D4A8B
:102A80003B69C2F86832FB683A6913443B617A6972
:102A9000FB68D31A7B617B69002BF0DCBFF34F8F9F
:102AA00000BFBFF36F8F00BF00BF1C37BD465DF88E
:102AB000047B704700ED00E080B483B000AF786025
:102AC0007B6800221A607B6818460C37BD465DF8AB
:102AD000047B704780B483B000AF78607B681B686C
:102AE00018460C37BD465DF8047B704780B483B050
:102AF00000AF7860044A7B681A607B6818460C3720
:102B0000BD465DF8047B7047C8AC030880B582B051
:102B100000AF78607868FFF7E9FF0421786833F048
:102B200088FC7B6818460837BD4680BD80B582B0FA
:102B300000AF78607B681B6844331B6878689847EF
:102B400000BF0837BD4680BD80B483B000AF786059
:102B5000044A7B681A607B6818460C37BD465DF8EE
:102B6000047B704754DD030880B582B000AF786005
:102B70007868FFF7E9FF0C21786833F05AFC7B682E
:102B800018460837BD4680BD80B483B000AF78607A
:102B90003960094A7B681A607B683A685A607B68CA
:102BA00000221A727B6800225A727B6818460C3722
:102BB000BD465DF8047B704754DD030880B483B0E4
:102BC00000AF7860012318460C37BD465DF8047BE2
:102BD000704780B582B000AF78607A687B681B6808
:102BE00028331B681046984700BF0837BD4680BD94
:102BF00080B582B000AF78607B685A687B685B689C
:102C00001B6814331B681046984700BF0837BD4641
:102C100080BD80B582B000AF7860FFF743FB03460C
:102C20001846FFF7E5FF00BF0837BD4680BD80B4FA
:102C300083B000AF786000BFFDE780B582B000AF21
:102C400078607B680C331846FFF736FF7B681846C0
:102C50000837BD4680BD0000B0B582B000AF7860D7
:102C60007A687B680C3319461046FFF78DFF0E4AD1
:102C70007B681A607B6803F10C007B68203360225C
:102C800019461CF009F97B6820335F241D4604E0D7
:102C90002846FFF7D2FF013C2435002CF8DA7B6888
:102CA00018460837BD46B0BD78AC030880B582B081
:102CB00000AF7860094A7B681A605A20FFF7ACFEC3
:102CC0007B680C33184600F0CFFB7B681846FFF793
:102CD0003BFF7B6818460837BD4680BD78AC0308CB
:102CE00080B582B000AF78607868FFF7DFFF4FF4FF
:102CF0005A61786833F09DFB7B6818460837BD46FB
:102D000080BD000080B584B000AF7860124B1B6BB3
:102D1000114A43F4000313630F4B1B6B03F40003CE
:102D2000FB60FB680C4B1B690B4A43F40003136107
:102D3000094B1B69084A23F400031361074B084A37
:102D40001A61064B074A5A615A20FFF747FE00BF37
:102D50001037BD4680BD00BF00380240000500208E
:102D6000132C00082F2C000880B584B000AF7860C9
:102D70000B46FB700023FB60FB780B2B26D801A2CF
:102D800052F823F0C12D0008BB2D0008B52D000816
:102D9000CD2D0008CD2D0008CD2D0008CD2D00082B
:102DA000C72D0008C72D0008C72D0008C72D000833
:102DB000C72D00080023FB600EE00123FB600BE041
:102DC0000223FB6008E00523FB6005E0054B064A93
:102DD0006F21064834F074FAFB6818461037BD4678
:102DE00080BD00BF508903086C890308B8890308B7
:102DF00080B584B000AF78600B46FB700023FB60A9
:102E0000FB780A2B21D801A252F823F0452E0008A6
:102E10003F2E0008392E00084B2E00084B2E0008CC
:102E20004B2E00084B2E00083F2E00083F2E0008B6
:102E30003F2E00083F2E00080023FB600BE001231B
:102E4000FB6008E00223FB6005E0054B054A90218A
:102E5000054834F035FAFB6818461037BD4680BD8A
:102E600050890308008A0308B889030880B483B036
:102E700000AF786040F2EF3318460C37BD465DF87E
:102E8000047B704790B589B000AF786039603B68CB
:102E90005B7F19467868FFF767FFB8613B689B7FE7
:102EA00019467868FFF760FF78613B689B7F194699
:102EB0007868FFF79DFF38613B685B8B1A463B687B
:102EC0009B8AD21A934B1A643B685B8B1A463B6809
:102ED0009B8AD21A8F4B9A613B681B8B1A463B68C0
:102EE0009B8AD21A8B4B1A618A4A3B6953633B68AF
:102EF000DB8A1A463B689B8A1B041A43854B5A643B
:102F00003B681A69834BDA633B685A68814BDA6025
:102F10003B681B68B3F5007F35D0B3F5007F00F246
:102F2000DD80B3F5807F14D0B3F5807F00F2D680CA
:102F3000802B56D0802B00F2D180402B00F0BA803D
:102F4000402B00F2CB80042B37D0202B00F0B28036
:102F5000C4E03B681B7F1A066E496F4B1343CB617D
:102F60003B680C336B4C1846FFF7B4FD03462362F5
:102F7000684A7B6953623B681A69664B5A61654BC4
:102F8000664A1A60C2E03B681B7F1A066149644BBF
:102F90001343CB613B680C335E4C1846FFF79AFD38
:102FA000034623625B4A7B6953623B681A69594B4B
:102FB0005A61584B594A1A60A8E03B681B7F1A06B1
:102FC000BB691343534A43F40033D361514A7B69CD
:102FD00053623B681A694F4B5A614E4B4F4A1A6015
:102FE00094E00123FB773B689B68FB60FB681A1D3C
:102FF000484BDA623B681B7F1A06BB691343454A9C
:1030000043F40033D361434A7B6953623B681A69D6
:10301000404B5A61FB681B88DBB2002B02D0012BAE
:103020000DD020E03B4BDA693E4B1340FA685288E2
:10303000013A12021146374A0B43D3611AE03B684A
:103040001B7FFF2B01D10023FB77324BDA69354B15
:103050001340FA685288013A120213432D4A43F092
:103060001003D36106E0304B304A4FF48D71304885
:1030700034F026F9274BDB69264A43F02003D3615D
:1030800000BF244BDB6903F02003002B14BF012396
:103090000023DBB2002BF4D11E4B10229A60FB7F81
:1030A000002B03D01B4B1D4A1A602FE0194B214AFD
:1030B0001A602BE03B681B7F1A06BB691343154A55
:1030C00043F40033D361134A7B6953623B681A6946
:1030D000104B5A610F4B114A1A6017E03B681B7F77
:1030E0001A06BB6913430B4A43F40033D3613B68B0
:1030F0005A7F3B689B7F9A4203D0064B0D4A1A6069
:1031000003E0044B42F201321A6000BF00BF2437D3
:10311000BD4690BD00B002400A000200012302003B
:1031200009000200EF00FFFF4C8A0308688A0308C9
:10313000B88903080123010090B585B000AF78601D
:1031400039603B689B7F19467868FFF751FEF8604D
:103150003A4AFB6853633B68DB8A1A463B689B8AA2
:103160001B041A43354B5A643B681A69334BDA63C4
:103170003B685B8B1A463B689B8AD21A2F4B1A64BA
:103180003B681B68082B2DD13B685B8B1A463B685C
:103190009B8AD21A294B9A613B685B8B1A463B6823
:1031A0009B8AD21A254B1A61244AFB6853623B68FA
:1031B0001B7F1A062149224B1343CB613B680C331A
:1031C0001E4C1846FFF786FC034623623B681A69CB
:1031D0001A4B5A613B681A69184BDA60174B194A47
:1031E0001A6027E0154AFB68D361144B00221A616C
:1031F0003B680C331846FFF76DFC03461B0A03F4CB
:1032000078443B680C331846FFF764FC03465B09BF
:1032100003F4FC631C433B680C331846FFF75AFC6D
:103220000346DB0803F01F03044A23439363034B65
:10323000054A1A6000BF1437BD4690BD00B0024079
:1032400009000100012302000123030080B400AF44
:1032500000BF094B1B6803F00103002B14BF0123BF
:103260000023DBB2002BF4D1034B23229A6000BF72
:10327000BD465DF8047B704700B0024080B582B067
:1032800000AF78603960094B5B6903F48033002B31
:1032900014BF01230023DBB2002B03D03968786808
:1032A000FFF7DEFB00BF0837BD4680BD00ED00E044
:1032B00080B485B000AFF860B9607A60FB7000BF81
:1032C000204B1B6803F00103002B14BF01230023D4
:1032D000DBB2002BF4D11B4B23229A60194B022244
:1032E0005A63BB681B04174A43F001035364154A31
:1032F000FB68D363FB78FF2B15D0124B02225A6276
:10330000FB781A060F49104B1343CB610D4A7B68BB
:1033100013620C4AFB6853610A4AFB68D360094B8D
:103320000A4A1A6008E0074B0222DA61054ABB69C3
:103330009363044B064A1A6000BF1437BD465DF81C
:10334000047B704700B00240090001000100020048
:103350000100030080B485B000AFF860B9607A6006
:10336000FB7000BF1F4B1B6803F00103002B14BF51
:1033700001230023DBB2002BF4D11A4B23229A60E5
:10338000184B02225A637B681B04164A43F0010360
:103390005364144AFB68D363124ABB68D360FB785A
:1033A000FF2B0FD0FB781B060E4A43F00213D361AC
:1033B0000C4B02225A620B4AFB685361094B0A4AC2
:1033C0001A6008E0FB781B06064A43F00213D3613B
:1033D000044B01221A6000BF1437BD465DF8047B20
:1033E000704700BF00B002400100020080B485B009
:1033F00000AFF860B9607A60FB7000BF184B1B68C3
:1034000003F00103002B14BF01230023DBB2002BC8
:10341000F4D1134B23229A60114B02225A637B682A
:103420001B040F4A43F0010353640D4AFB68D36346
:103430000B4ABB68D360FB781B06094A43F4003390
:10344000D361074B02225A62054AFB685361044B61
:10345000044A1A6000BF1437BD465DF8047B70470C
:1034600000B002400100020080B582B000AF786079
:10347000054A7B681A607B681846FFF737FB7B6854
:1034800018460837BD4680BDA4DD030880B582B06C
:1034900000AF78607868FFF7E7FF1421786832F0B2
:1034A000C8FF7B6818460837BD4680BD80B483B02E
:1034B00000AF7860044A7B681A607B6818460C3756
:1034C000BD465DF8047B70472CAD030880B582B023
:1034D00000AF78607868FFF7E9FF0421786832F080
:1034E000A8FF7B6818460837BD4680BD80B483B00E
:1034F00000AF78607B685B6918460C37BD465DF8A5
:10350000047B704780B483B000AF78607B6893F829
:10351000443018460C37BD465DF8047B7047000008
:1035200080B483B000AF7860044A7B681A607B681F
:1035300018460C37BD465DF8047B70472CAD030878
:1035400080B582B000AF786039607B681846FFF7BD
:10355000E7FF1E4A7B681A607B6800225A617B681D
:1035600000229A617B680022DA617B6800221A627D
:103570007B6800225A627B6800229A627B68002284
:10358000DA627B6800221A637B683A685A637B6858
:1035900000229A637B680022DA637B6800221A6447
:1035A0007B68002283F844207B6800221A617B68D4
:1035B0000022DA607B6800225A607B6800229A60F1
:1035C0007B6818460837BD4680BD00BFECAC0308D9
:1035D00080B586B000AFF860B9607A603B60FB6888
:1035E0001B6B002B08D0FB689A6BFB681B6CB968DF
:1035F000CB1A13447B6104E0FB68DA6ABB681344AE
:103600007B613A687968786934F01EF90346184698
:103610001837BD4680BD80B485B000AF7860396092
:103620007B681B6B002B24D07B681B6C3A68D31A19
:10363000BB607B689A6BBB6813441B7819467B6838
:103640009A6BBB68013313441B781B0241EA0302E7
:103650007B68996BBB6802330B441B781B041A43CD
:103660007B68996BBB6803330B441B781B061343C1
:1036700016E07B68DA6A3B681344FB60FB681B78E2
:103680001A46FB6801331B781B021A43FB6802339E
:103690001B781B041A43FB6803331B781B06134378
:1036A00018461437BD465DF8047B704780B485B07A
:1036B00000AF786039607B681B6B002B13D07B6890
:1036C0001B6C3A68D31ABB607B689A6BBB68134467
:1036D0001B7819467B689A6BBB68013313441B78CF
:1036E0001B020B430CE07B68DA6A3B681344FB6007
:1036F000FB681B781A46FB6801331B781B021343D7
:1037000018461437BD465DF8047B704780B584B019
:1037100000AFF860B9607A60FB681B6B002B33D098
:10372000FB68DB6B7A689A4209D9FB68092283F847
:103730004420194B194A6521194833F0C1FDFB6833
:103740001A6BFB681B6B1B680C331B68B96810464F
:103750009847FB68186BFB681B6B1B6810331B6872
:10376000FA68916B7A689847034683F00103DBB2ED
:10377000002B03D0FB680D2283F84420FB68BA6855
:103780001A64FB689B6B03E0FB68DA6ABB6813444E
:1037900018461037BD4680BDA88A0308BC8A0308B6
:1037A000008B030880B58EB004AFF860B960114695
:1037B0001A460B46FB801346BB80FB685B69002BF7
:1037C00005D14E4B4E4A77214E4833F079FDFB68C8
:1037D0009B6908221946F868FFF798FFFB689B6908
:1037E0001946F868FFF762FF3862FB689B6902338D
:1037F0001946F868FFF75AFFF861FB689B690433C4
:103800001946F868FFF707FFB86143F23003FB82FF
:1038100046F26433BB82FB689A69BB69134403F1C7
:103820000802FB689B6A9A4255D23B6A43F2300217
:10383000934226D1FB6946F26432934221D1BB699F
:10384000002B1ED0FB689B6903F10802FB689A619C
:10385000FB689B69BA691946F868FFF757FF38613A
:103860003B6B0293BB880193FB880093BB68BA69EA
:103870003969F86800F090FAFB685B695A1CFB68CC
:103880005A61002387F82730FB689A69BB691A449C
:10389000FB689A61BB69002B05D1FB689B6903F14A
:1038A0000802FB689A61FB689B69013323F00102FF
:1038B000FB689A61FB689A69FB685B6A9A4214D15B
:1038C000FB6801225A61FB681A6AFB689A6101234E
:1038D00087F8273009E0FB6801225A61FB681A6A01
:1038E000FB689A61012387F8273097F8273083F027
:1038F0000103DBB218462837BD4680BD548B030850
:10390000A08B0308008B030880B586B000AF7860F9
:103910007B685B69002B05D1394B3A4AAA213A48AA
:1039200033F0CEFC7B689B69082219467868FFF764
:10393000EDFE7B689B69043319467868FFF76BFEE0
:10394000786146E07B689A697B69134403F1080259
:103950007B689A617B689B69013323F001027B6875
:103960009A617B685B695A1C7B685A617B689B69BA
:10397000082219467868FFF7C9FE7B689B691946DB
:103980007868FFF793FE38617B689B6902331946BC
:103990007868FFF78BFEF8607B689B6904331946F3
:1039A0007868FFF738FE786143F230037B8146F296
:1039B00064333B813B6943F23002934209D1FB6897
:1039C00046F26432934204D17B69002B01D001237B
:1039D00011E07B689A697B69134403F108027B68F4
:1039E0009B6A9A42AED37B6801225A617B681A6A4D
:1039F0007B689A61002318461837BD4680BD00BF1A
:103A0000548B0308FC8B0308008B030880B584B03B
:103A100000AFF860B9607A60FB68BA68DA62FB6888
:103A20007A689A62FB6800221A63F86800F034F83A
:103A300000BF1037BD4680BD80B582B000AF786052
:103A400039607B683A681A637B680022DA623B68F7
:103A50001B6808331B683868984702467B689A627F
:103A6000786800F019F800BF0837BD4680BD80B403
:103A700083B000AF78607B681B6B002B03D17B6841
:103A8000DB6A002B01D0012300E0002318460C372D
:103A9000BD465DF8047B704780B58AB000AF7860A2
:103AA0007B6800229A617B68002283F844204822C8
:103AB00000217868FFF72AFE7B6899690423A44AED
:103AC0007868FFF785FD0346002B14BF0123002310
:103AD000DBB2002B09D07B68032283F844209D4B86
:103AE0009D4AF2219D4833F0EBFB7B689B6903F113
:103AF00008027B689A617B6899690423984A786810
:103B0000FFF766FD0346002B14BF01230023DBB241
:103B1000002B09D07B68042283F84420914B8E4A05
:103B2000FA218E4833F0CCFB7B689B691A1D7B68B9
:103B30009A617B68996904238B4A7868FFF748FD8E
:103B40000346002B14BF01230023DBB2002B0AD055
:103B50007B68052283F84420844B7F4A40F20111A0
:103B60007E4833F0ADFB7B689B6904331946786867
:103B7000FFF751FDF8617B689B69BB61FB69002B16
:103B800006D17B4B744A40F20711744833F098FB1E
:103B9000012387F827307B689B6908337B61042306
:103BA000744A79697868FFF713FD0346002B14BF48
:103BB00001230023DBB2002B06D07B68062283F8AA
:103BC0004420002387F827307B6904337B6104237A
:103BD000694A79697868FFF7FBFC0346002B14BF3C
:103BE00001230023DBB2002B06D07B68072283F879
:103BF0004420002387F8273097F82730002B28D05F
:103C00007B6908337B6179697868FFF704FD0346B7
:103C10005A4AA2FB03239A097B685A607B691033D6
:103C200019467868FFF7F7FC02467B689A607B6963
:103C3000203319467868FFF7EEFC02467B68DA60AD
:103C40007B69243319467868FFF7E5FC02467B68F8
:103C50001A61BA69FB69134408333B620C22396A62
:103C60007868FFF753FD11E03B6A04331946786822
:103C7000FFF7D1FC03460833FB603A6AFB68134444
:103C80003B620C22396A7868FFF740FD3B6A03F11A
:103C9000080104233A4A7868FFF79AFC0346002B90
:103CA0000BD07B6893F84430002B06D17B689B6A6D
:103CB0003A6A9A4201D2012300E00023002BD3D1BB
:103CC0007B6893F84430002B04D07B680A2283F889
:103CD00044205EE03B6A03F10C027B689A613B6A18
:103CE000043319467868FFF796FC02463B6A134492
:103CF00003F108027B685A623B6A0433194678680C
:103D0000FFF789FC034608333B613A6A3B69134479
:103D10003B620422396A7868FFF7F8FC0423194AE9
:103D2000396A7868FFF754FC0346002B0CBF012367
:103D30000023DBB2002B27D07B683A6ADA617B680C
:103D400001225A617B689A697B681A6221E000BF90
:103D5000308C0308388C0308548C0308008B03084C
:103D6000848C03088C8C0308A48C0308AC8C030897
:103D7000C48C0308D08C0308D88C0308D34D621080
:103D8000E08C0308E88C03087B680B2283F844204E
:103D900000BF2837BD4680BD90B5ADF5297D00AF89
:103DA00007F52874A4F52574206007F52870A0F5A0
:103DB0002670016007F52871A1F527710A6007F5E3
:103DC0002872A2F52872136007F52873A3F52773EC
:103DD0001B68002B00F0DB8007F52873A3F5287320
:103DE0001B68002B00F0D48007F52873A3F525731A
:103DF0001B685B6B002B00F0CB8007F52073002263
:103E00001A605A6007F52873A3F525731B685B6B6E
:103E1000C7F8803207F11403184612F083FE0246F9
:103E200007F52873A3F502731A6007F198034FF49E
:103E3000F472502118460CF02AFE07F52873A3F5FA
:103E4000277207F52873A3F5267307F19800126807
:103E500019680DF075FD07F19803012118460CF063
:103E600011FF07F52873A3F50273022283F8482097
:103E700007F1980318460CF0A6FF07F52873A3F581
:103E80000273DA69B7F8B032934228BF1346C7F815
:103E9000943207F52873A3F502735A6FB7F8B4325A
:103EA000934228BF1346C7F8903207F52873A3F54D
:103EB00028731B68C7F89C3254E007F5207107F19E
:103EC0009803012218460CF0C7FF07F52873A3F5E5
:103ED00025731B685B6BC7F89832D7F8942213469A
:103EE0005B001344D7F898221344C7F88C3228E0BB
:103EF000D7F898329B781B021AB2274B13401AB29C
:103F0000D7F898325B78DB001BB203F4FC631BB27A
:103F100013431AB2D7F898321B78DB08DBB21BB216
:103F200013431BB2A7F88A32D7F89C329A1CC7F801
:103F30009C22B7F88A221A80D7F898320333C7F840
:103F40009832D7F89822D7F88C329A42D0D3D7F843
:103F500094325B00D7F8B822D31AD7F89C221344C6
:103F6000C7F89C3207F52873A3F50273D3F88C3099
:103F7000D7F890229A42A0D807F1980318460CF07F
:103F8000A3FE07F1980318460CF0CEFD00E000BF39
:103F900007F52977BD4690BD00F8FFFF90B5ADF558
:103FA000317D00AF07F53074A4F52D74206007F55E
:103FB0003070A0F52E70016007F53071A1F52F71FA
:103FC0000A6007F53072A2F53072136007F530739E
:103FD000A3F52D731B68996907F53073A3F52D734D
:103FE00008221868FFF792FB07F53073A3F52D73CD
:103FF0001B689B691A1D07F53073A3F52D731146D5
:104000001868FFF708FBC7F8B40207F53073A3F58B
:104010002D731B689B6903F1080107F53073A3F545
:104020002D73D7F8B4221868FFF770FBC7F8B002F9
:1040300007F53073A3F52D731B685B6B002B06D15E
:10404000B74BB84A40F2AB11B74833F039F907F52E
:104050003073A3F52B731A4600231360536007F5E2
:104060003073A3F52D731B685A6B07F53073A3F5F6
:104070002B731A6007F11C03184612F053FD024619
:1040800007F53073A3F508731A6007F1A0034FF426
:10409000F472502118460CF0FAFC07F1A003D7F88F
:1040A000B422D7F8B01218460DF04AFC07F1A0036D
:1040B000012118460CF0E6FD07F53073A3F50873EF
:1040C000022283F8482007F1A00318460CF07BFE7B
:1040D00007F53073A3F52E731B68B3F90230C7F8E8
:1040E000AC3207E007F1140107F1A00301221846E2
:1040F0000CF0B2FE07F53073A3F50873D3F88C30DB
:10410000D7F8AC229A42EDD807F53073A3F52E7399
:104110001B68B3F90030C7F8A83207F53073A3F570
:104120002E731B68C7F89432D7F89432B3F9003075
:104130009AB2D7F89432B3F904309BB213449BB2CD
:104140001BB21A4607F53073A3F50873DB699A4270
:1041500014D207F53073A3F52E731B68C7F890329D
:10416000D7F89032B3F900309AB2D7F89032B3F959
:1041700004309BB213449BB21BB204E007F53073CA
:10418000A3F50873DB69C7F8A43207F53073A3F50C
:104190002F731B68C7F8BC3207F53073A3F5307373
:1041A0001B68D7F8AC2202FB03F35B00D7F8BC22F4
:1041B0001344C7F8BC3207F53073A3F52E731B68A0
:1041C000C7F88C32D7F88C32B3F902309AB2D7F8EC
:1041D0008C32B3F906309BB213449BB21BB21A4621
:1041E00007F53073A3F508735B6F9A4214D207F595
:1041F0003073A3F52E731B68C7F88832D7F888325E
:10420000B3F902309AB2D7F88832B3F906309BB2CC
:1042100013449BB21BB204E007F53073A3F5087397
:104220005B6FC7F8A03261E007F1140107F1A0034A
:10423000012218460CF010FE07F53073A3F52D731C
:104240001B685B6BC7F89C32D7F8A832C7F8B83246
:104250003BE0D7F8B82213465B001344D7F89C2202
:1042600013449B781B021AB2304B134019B2D7F893
:10427000B82213465B001344D7F89C2213445B78A2
:10428000DB001BB203F4FC631BB20B4319B2D7F87B
:10429000B82213465B001344D7F89C2213441B78C2
:1042A000DB08DBB21BB20B431BB2A7F89A32D7F87C
:1042B000B8325B00D7F8BC221344B7F89A221A80B0
:1042C000D7F8B8320133C7F8B832D7F8B822D7F8E0
:1042D000A4329A42BDD307F53073A3F530731B683F
:1042E0005B00D7F8BC221344C7F8BC3207F5307323
:1042F000A3F50873D3F88C30D7F8A0229A4293D84C
:1043000007F1A00318460CF0DFFC07F1A0031846E4
:104310000CF00AFC0123184607F53177BD4690BD25
:10432000F08C0308488D0308008B030800F8FFFF9A
:1043300080B584B000AFF860B9607A607B80034BD1
:10434000034A40F21221034832F0BAFFA48D030859
:10435000A88D0308008B030880B584B000AF786097
:1043600039603B68002B01D101233B607B681B68EF
:104370002C331B687868984702463B6893428CBF91
:1043800001230023DBB2002B06D07B681B682C3393
:104390001B687868984738607B68DA693B68013B3E
:1043A0001B0113440833FB601022F9687868FFF79B
:1043B000ADF9FB68083319467868FFF72CF9024617
:1043C0007B681B6A13441A1F7B689A617B683A6892
:1043D0005A6100BF1037BD4680BD80B483B000AFC6
:1043E00078607B689B6818460C37BD465DF8047B97
:1043F000704790B482B000AF786039603A687B68EB
:10440000144604330FCB84E80F0000BF0837BD46C5
:1044100090BC704780B582B000AF7860054A7B6879
:104420001A607B681846FFF741F87B681846083722
:10443000BD4680BDECAC030880B582B000AF7860AB
:104440007868FFF7E7FF4821786831F0F2FF7B6872
:1044500018460837BD4680BD80B483B000AF786091
:104460007B6800221A807B6800225A807B680022C9
:104470009A807B680022DA807B6818460C37BD463C
:104480005DF8047B7047000080B483B000AF7860B3
:10449000044A7B68136000BF0C37BD465DF8047B9F
:1044A000704700BF6855012080B483B000AF7860CA
:1044B000044A7B681A607B6818460C37BD465DF875
:1044C000047B7047A8AF030880B582B000AF786066
:1044D0007868FFF7E9FF0421786831F0AAFF7B686C
:1044E00018460837BD4680BD80B485B000AFF8607F
:1044F000B9607A603B600B4AFB681A60FB68BA6877
:104500005A60FB687A689A60FB683A68DA60FB6810
:10451000BA691A61FB6818461437BD465DF8047B1A
:10452000704700BF98AF030880B483B000AF7860D5
:10453000044A7B681A607B6818460C37BD465DF8F4
:10454000047B704798AF030880B582B000AF7860F5
:104550007868FFF7E9FF1421786831F06AFF7B681B
:1045600018460837BD4680BD80B483B000AF786080
:10457000396000BF0C37BD465DF8047B704780B4DE
:1045800083B000AF7860396000BF0C37BD465DF87E
:10459000047B704780B483B000AF7860396000BF9F
:1045A0000C37BD465DF8047B704780B483B000AF24
:1045B00078600B46FB7000BF0C37BD465DF8047B8E
:1045C000704780B483B000AF786000BF0C37BD4641
:1045D0005DF8047B704780B483B000AF786000BFA3
:1045E0000C37BD465DF8047B7047000080B483B093
:1045F00000AF7860044A7B681A607B6818460C3705
:10460000BD465DF8047B704770AF030880B582B08B
:1046100000AF78607868FFF7E9FF0421786831F02F
:1046200008FF7B6818460837BD4680BD80B483B05C
:1046300000AF7860044A7B681A607B6818460C37C4
:10464000BD465DF8047B70475CAF030880B582B05F
:1046500000AF78607868FFF7E9FF0421786831F0EF
:10466000E8FE7B6818460837BD4680BD80B483B03D
:1046700000AF7860044A7B681A607B6818460C3784
:10468000BD465DF8047B7047BCE2030880B582B08C
:1046900000AF78607868FFF7E9FF0C21786831F0A7
:1046A000C8FE7B6818460837BD4680BD80B483B01D
:1046B00000AF786039607B683A689A6000BF0C3759
:1046C000BD465DF8047B704780B483B000AF78606E
:1046D00000BF0C37BD465DF8047B704780B483B0E3
:1046E00000AF78600B46FB7000BF0C37BD465DF82D
:1046F000047B704780B483B000AF786039607B681A
:104700003A6803F598731068516803C300BF0C370B
:10471000BD465DF8047B704780B483B000AF78601D
:10472000044A7B681A607B6818460C37BD465DF802
:10473000047B704744AF030880B582B000AF786057
:104740007868FFF7E9FF0421786831F072FE7B6832
:1047500018460837BD4680BD80B483B000AF78608E
:104760007B6800221A807B6800225A807B680022C6
:104770009A807B680022DA807B6800221A817B683D
:1047800000225A817B6800229A817B6800229A73FA
:104790007B6818460C37BD465DF8047B704780B5D2
:1047A00082B000AF78607B681846FFF7D5FF7B6862
:1047B00000221A617B6800229A827B6818460837BB
:1047C000BD4680BD80B584B000AFF860B9607A6046
:1047D0003B60554AFB681A60FB68BA685A60FB6820
:1047E0007A689A60FB683A68DA60FB6800221A61AE
:1047F000FB6800225A61FB6800229A61FB681C3347
:104800001846FFF7CCFFFB68002283F83420FB68D2
:1048100000229A63FB680022DA63FB6800221A64B4
:10482000FB6800225A64FB68002283F84820FB687A
:10483000012283F84920FB68002283F84A20FB68A4
:10484000002283F84B20FB680022DA64FB685033B7
:104850001846FFF701FEFB68002283F85820FB682A
:104860000022DA65FB6800221A66FB6800225A669D
:10487000FB68012283F86820FB68002283F8692026
:10488000FB68002283F86A20FB68012283F86B2012
:10489000FB68002283F86C20FB68002283F86D20FF
:1048A000FB68002283F86E20FB68002283F86F20EB
:1048B000FB68002283F87020FB6800225A67FB68BF
:1048C000002283F87820FB68002283F87920FB68B7
:1048D000012283F87A20FB68012283F87B20134AA7
:1048E000FB681360124A3B8B1380114B1A88114BE3
:1048F0001A80114ABB8B13800F4B1A880F4B1A80FA
:104900000F4B00221A703A8BBB8B9A4234BF0123A3
:104910000023DBB21A46FB6883F83420FB68184694
:104920001037BD4680BD00BF7CDC03080455012064
:10493000F8540120FE540120FA54012000550120B2
:10494000FC54012080B582B000AF7860054A7B68D6
:104950001A607B681846FFF749FE7B6818460837DF
:10496000BD4680BD14E3030880B582B000AF786017
:104970007868FFF7E7FF4FF49E71786831F059FDD2
:104980007B6818460837BD4680BD80B582B000AF51
:104990007860786800F004F800BF0837BD4680BD35
:1049A00080B582B000AF78607B68D3F84031002BCF
:1049B0000FD07B68D3F840217B68D3F840311B6867
:1049C0000C331B68104698470346002B01D0012387
:1049D00000E00023002B0ED07B68D3F840217B68D9
:1049E000D3F840311B6808331B68104698477B6832
:1049F0000022C3F8402100BF0837BD4680BD00003B
:104A000080B582B000AF7860054A7B681A607B6829
:104A10001846FFF797FF7B6818460837BD4680BDEC
:104A2000F0AE030880B582B000AF78607868FFF719
:104A3000E7FF4FF4A271786831F0FBFC7B68184601
:104A40000837BD4680BD000080B582B000AF7860F9
:104A5000084A7B681A607B6803F5A273184600F069
:104A60004DFB7B681846FFF7CBFF7B68184608377D
:104A7000BD4680BD84AE030880B582B000AF7860CB
:104A80007868FFF7E1FF4FF4AE71786831F0D1FC40
:104A90007B6818460837BD4680BD80B582B000AF40
:104AA0007860786802F038FE00BF0837BD4680BDE8
:104AB00080B582B000AF7860054A7B681A607B6879
:104AC0001846FFF7C1FF7B6818460837BD4680BD12
:104AD00030AE030880B582B000AF78607868FFF729
:104AE000E7FF4FF4AE71786831F0A3FC7B6818469D
:104AF0000837BD4680BD80B582B000AF78607B6866
:104B0000D3F85831184606F031FC7B6818461FF080
:104B1000D9F800BF0837BD4680BD80B582B000AF70
:104B2000786039603B68184602F0F6FD00BF083730
:104B3000BD4680BD80B586B002AFF860B9607A60CE
:104B40003B60F868BB6900933B687A68B968FFF717
:104B5000CBFC044AFB681A60FB6818461037BD4658
:104B600080BD00BF1CAE030880B500AF014800F057
:104B70006DF980BDE005002080B500AF114B1B68CA
:104B8000BFF35B8F03F00103002B0CBF0123002355
:104B9000DBB2002B13D00B4831F04DFC0346002B49
:104BA00014BF01230023DBB2002B08D0064800F01D
:104BB00067F8064832F0A2FB024831F048FC024B8D
:104BC000184680BD480A0020E0050020694B000817
:104BD00080B582B000AF7860054A7B681A607B6858
:104BE0001846FFF7A1FC7B6818460837BD4680BD14
:104BF0001CAE030880B582B000AF78607868FFF71C
:104C0000E7FF1421786831F014FC7B6818460837F8
:104C1000BD4680BD80B582B000AF78607B68184625
:104C200018F08CFF034A7B681A607B6818460837C7
:104C3000BD4680BDE8AD030880B582B000AF7860A6
:104C40007B68184618F07AFF034A7B681A607B6815
:104C500018460837BD4680BDB4AD030880B582B0A4
:104C600000AF78607B68184618F068FF034A7B68DD
:104C70001A607B6818460837BD4680BD80AD0308C2
:104C800090B585B002AF786078687B6803F1140155
:104C90007B6803F12C027B6803F53B747B6803F5AA
:104CA000437300932346FFF745FF184A7B681A6059
:104CB0007B6814331846FFF7ADFF7B682C3318462A
:104CC000FFF7BAFF7B6803F53B731846FFF7C6FF93
:104CD0007B6803F54273184606F03AFB7B6803F5E0
:104CE00043707B6803F542737A68194606F01AFB35
:104CF0007A687B6803F5437319461046FFF70DFF8A
:104D00007B6818460C37BD4690BD00BF6CAD0308EC
:104D100080B586B002AFF860B9607A603B60F86831
:104D2000BB8B01933B8B00933B687A68B968FFF7B4
:104D300049FD044AFB681A60FB6818461037BD46F7
:104D400080BD00BF74B1030880B586B002AFF860C3
:104D5000B9607A603B60F868BB8B01933B8B009332
:104D60003B687A68B968FFF7D3FF044AFB681A60AA
:104D7000FB6818461037BD4680BD00BFA0AB0308D6
:104D800080B483B000AF7860044A7B681A607B68A7
:104D900018460C37BD465DF8047B704788AB0308A6
:104DA00080B582B000AF78607B681846FFF7E8FFF7
:104DB000034A7B681A607B6818460837BD4680BD89
:104DC00070AB030890B585B002AF02F047F9044616
:104DD00002F04EF9034619460023009300230022F7
:104DE000204622F0E3FA0B48FFF74EFB002006F0C6
:104DF000D3F909490948FFF759FC094822F03EFA5E
:104E0000FFF7BAFE78600748FDF754FC00BF0C3787
:104E1000BD4690BD981800207C180020F017002097
:104E20000C0000209C18002080B400AF00BFBD46DD
:104E30005DF8047B7047000080B500AF024819F0B0
:104E400086F900BF80BD00BF9C18002080B582B0ED
:104E500000AF7860104A7B681A607B6803F5437383
:104E60001846FFF725FE7B6803F53B73184600F0F4
:104E700027F87B682C33184600F044F87B6814331D
:104E8000184600F063F87B681846FFF7A1FE7B68C0
:104E900018460837BD4680BD6CAD030880B582B0AA
:104EA00000AF78607868FFF7D1FF4FF48D617868C4
:104EB00031F0BFFA7B6818460837BD4680BD000058
:104EC00080B582B000AF7860054A7B681A607B6865
:104ED000184618F031FE7B6818460837BD4680BD7D
:104EE00080AD030880B582B000AF78607868FFF7C6
:104EF000E7FF1C21786831F09CFA7B681846083778
:104F0000BD4680BD80B582B000AF7860054A7B6841
:104F10001A607B68184618F00FFE7B681846083741
:104F2000BD4680BDB4AD030880B582B000AF7860E7
:104F30007868FFF7E7FF4FF43071786831F079FA5D
:104F40007B6818460837BD4680BD000080B582B03A
:104F500000AF7860054A7B681A607B68184618F0D5
:104F6000EBFD7B6818460837BD4680BDE8AD0308F9
:104F700080B582B000AF78607868FFF7E7FF18214E
:104F8000786831F056FA7B6818460837BD4680BD10
:104F900080B582B000AF7860054A7B681A607B6894
:104FA0001846FFF781FA7B6818460837BD4680BD72
:104FB000F4B2030880B582B000AF78607868FFF77C
:104FC000E7FF0421786831F034FA7B681846083727
:104FD000BD4680BD80B582B000AF7860054A7B6871
:104FE0001A607B681846FFF721FB7B681846083774
:104FF000BD4680BDD0E3030880B582B000AF7860C5
:105000007868FFF7E7FF1C21786831F012FA7B68B7
:1050100018460837BD4680BD80B582B000AF7860C5
:10502000054A7B681A607B681846FFF71FFB7B68A0
:1050300018460837BD4680BD58E7030880B582B0E2
:1050400000AF78607868FFF7E7FF8C21786831F06F
:10505000F0F97B6818460837BD4680BD80B584B03E
:1050600002AF786039607B68012B1CD13B684FF63A
:10507000FF72934217D11B48FFF792FE1A48FDF7C3
:10508000EBFD1A4827F09AFA19481FF0BFFE4FF4BB
:10509000887301934FF4F0730093124B134A124933
:1050A0001448FFF751FE7B68002B16D13B684FF682
:1050B000FF72934211D10F48FDF7AEFB0E48FFF788
:1050C00067FF0B48FFF786FF0848FFF7A5FF064874
:1050D000FDF7ECFD0348FCF769FF00BF0837BD464C
:1050E00080BD00BF4C0A0020500A0020F0170020AD
:1050F0007C1800209C1800200C00002080B582B095
:1051000000AF7860054A7B681A607B681846FFF735
:1051100003FB7B6818460837BD4680BDD8AE030840
:1051200080B582B000AF78607868FFF7E7FF1021A4
:10513000786831F07EF97B6818460837BD4680BD37
:1051400080B483B000AF7860012318460C37BD46A9
:105150005DF8047B704780B483B000AF786014239F
:1051600018460C37BD465DF8047B704780B483B0A9
:1051700000AF78600B467B807A8813469B0013440F
:105180009B0008337A68134418460C37BD465DF817
:10519000047B704780B483B000AF78600B467B809F
:1051A0007A8813469B0013449B0008337A681344A3
:1051B00018460C37BD465DF8047B704780B483B059
:1051C00000AF7860012318460C37BD465DF8047BBC
:1051D000704780B483B000AF78604FF42E731846E8
:1051E0000C37BD465DF8047B704780B483B000AFD8
:1051F00078600B467B807B884FF42E7202FB03F3B2
:1052000008337A68134418460C37BD465DF8047BB2
:10521000704780B483B000AF78600B467B807B889A
:105220004FF42E7202FB03F308337A6813441846D6
:105230000C37BD465DF8047B704780B483B000AF87
:105240007860012318460C37BD465DF8047B704733
:1052500080B483B000AF7860102318460C37BD4689
:105260005DF8047B704780B483B000AF78600B4674
:105270007B807B881B0108337A68134418460C37FF
:10528000BD465DF8047B704780B483B000AF7860A2
:105290000B467B807B881B0108337A6813441846D1
:1052A0000C37BD465DF8047B704780B582B000AF17
:1052B00078607B685B687A68D268521099187B685E
:1052C000DB6803F00103002B02D17B689B680AE0D6
:1052D0007B685B687A68D268521013441B687A68EE
:1052E000926813441B680846984700BF0837BD46BC
:1052F00080BD80B483B000AF78607B685B68002BB2
:1053000010D07B689B68002B07D17B68DB6803F0BB
:105310000103002B01D1012300E00023012B01D068
:10532000012300E0002318460C37BD465DF8047BDE
:10533000704780B500AF4FF6FF710120FFF78EFE7A
:1053400080BD80B500AF4FF6FF710020FFF786FEED
:1053500080BD80B483B000AF786039607B683A6804
:105360001A607B6818460C37BD465DF8047B7047B1
:1053700080B485B000AFF860084611461A4603466F
:105380007B810B463B811346FB80FB687A891A8040
:10539000FB683A895A80FB68FA889A80FB683A8BE6
:1053A000DA80FB6818461437BD465DF8047B704709
:1053B00080B483B000AF7860044A7B681A607B6871
:1053C00018460C37BD465DF8047B704768E3030858
:1053D00080B582B000AF78607868FFF7E9FF2821D8
:1053E000786831F026F87B6818460837BD4680BDDE
:1053F00080B582B000AF78607B6893F82530002BD1
:1054000005D07B681B6814331B687868984700BF19
:105410000837BD4680BD80B483B000AF78600023FC
:1054200018460C37BD465DF8047B704780B483B0E6
:1054300000AF78607B68B3F9083018460C37BD467A
:105440005DF8047B704780B483B000AF78607B6800
:10545000B3F90A3018460C37BD465DF8047B704737
:1054600080B483B000AF78600B467B807B687A881D
:105470009A8000BF0C37BD465DF8047B704780B44E
:1054800083B000AF78600B467B807B687A88DA80D7
:1054900000BF0C37BD465DF8047B704780B483B015
:1054A00000AF78600B467B807B687A881A8100BFEA
:1054B0000C37BD465DF8047B704780B483B000AF05
:1054C00078600B467B807B687A885A8100BF0C37F6
:1054D000BD465DF8047B704780B483B000AF786050
:1054E00000BF0C37BD465DF8047B704780B483B0C5
:1054F00000AF7860396000BF0C37BD465DF8047BB3
:10550000704780B483B000AF7860396000BF0C375B
:10551000BD465DF8047B704780B483B000AF78600F
:10552000396000BF0C37BD465DF8047B704780B41E
:1055300083B000AF786000BF0C37BD465DF8047BD8
:10554000704780B483B000AF78607B6893F82530F3
:1055500018460C37BD465DF8047B704780B483B0B5
:1055600000AF78607B6893F8243018460C37BD464E
:105570005DF8047B704780B582B000AF78600B4661
:105580007B8013463B807B681B6854331B6879889B
:105590007A68B2F9042092B28A1A92B210B23988AB
:1055A0007A68B2F9062092B28A1A92B212B2014611
:1055B0007868984700BF0837BD4680BD80B483B087
:1055C00000AF78607B684FF6FF729A817B684FF678
:1055D000FF721A847B684FF6FF725A8400BF0C3743
:1055E000BD465DF8047B704780B584B000AFF860BD
:1055F000B9607A60F868FFF7E1FF7B681A68FB68BA
:10560000DA617B68FA681A6000BF1037BD4680BD5A
:1056100080B584B000AFF8607B600B467B81134699
:105620003B81FB681846FFF78CFF0346002B08D030
:10563000FB681846FFF792FF0346002B01D00123B9
:1056400000E00023002B02D0FA687B681A6000BFDC
:105650001037BD4680BD000080B483B000AF7860D5
:10566000044A7B681A607B6818460C37BD465DF8B3
:10567000047B70474CB2030880B582B000AF7860FD
:105680007868FFF7E9FF0421786830F0D2FE7B6884
:1056900018460837BD4680BD80B582B000AF78603F
:1056A0007B681B6820331B687868984700BF083701
:1056B000BD4680BD80B400AF0B4B1B6893F85830DB
:1056C000002B08D0084B1B68DB6C002B03D0064B6B
:1056D0001B68DB6C02E0044B1B689B681846BD46E8
:1056E0005DF8047B704700BF0455012080B483B08F
:1056F00000AF78607B6893F86B3018460C37BD4676
:105700005DF8047B704780B483B000AF78607B683D
:1057100093F86A300133DAB27B6883F86A2000BFFD
:105720000C37BD465DF8047B704780B483B000AF92
:1057300078607B68DB6C18460C37BD465DF8047BEF
:105740007047000080B582B000AF7860054A7B6882
:105750001A607B681846FFF72BFE7B6818460837EF
:10576000BD4680BD8CB2030880B582B000AF7860C2
:105770007868FFF7E7FF2821786830F05AFE7B68E9
:1057800018460837BD4680BD80B582B000AF78604E
:105790003960084A7B681A607B6804331846FDF755
:1057A0008BF93968786800F027F87B681846083765
:1057B000BD4680BD60B1030880B483B000AF78609F
:1057C000044A7B681A607B6818460C37BD465DF852
:1057D000047B704760B1030880B582B000AF786089
:1057E0007868FFF7E9FF0821786830F022FE7B68CF
:1057F00018460837BD4680BD80B483B000AF7860DE
:1058000039607B683A685A6000BF0C37BD465DF866
:10581000047B704780B483B000AF7860064A7B6831
:105820001A607B6800229A807B6818460C37BD4658
:105830005DF8047B704700BF40B1030880B483B0BB
:1058400000AF7860044A7B681A607B6818460C37A2
:10585000BD465DF8047B704740B1030880B582B057
:1058600000AF78607868FFF7E9FF0821786830F0CA
:10587000E0FD7B6818460837BD4680BD80B483B024
:1058800000AF7860002318460C37BD465DF8047BF6
:10589000704780B483B000AF786039603B68B3F97B
:1058A00004207B689A80012318460C37BD465DF8BA
:1058B000047B704780B483B000AF786000BF0C37C2
:1058C000BD465DF8047B704780B582B000AF78605C
:1058D0007B681846FFF79EFF144A7B681A607B6856
:1058E0000022DA807B6864221A817B680022DA60F9
:1058F0007B6800221A747B6800225A747B6800223D
:105900009A747B684FF000025A617B684FF0000286
:105910009A617B684FF00002DA617B684FF0000209
:105920001A627B6818460837BD4680BD20B103085F
:1059300080B582B000AF7860054A7B681A607B68EA
:105940001846FFF77BFF7B6818460837BD4680BDC9
:1059500020B1030880B582B000AF78607868FFF7A7
:10596000E7FF2421786830F064FD7B68184608372B
:10597000BD4680BD80B483B000AF78600B46FB703D
:105980007B68FA7883F8262000BF0C37BD465DF8A7
:10599000047B704780B483B000AF78607B6893F875
:1059A000263018460C37BD465DF8047B704790B52D
:1059B00085B002AF786039603B681846FFF736FD66
:1059C00003461C463B681846FFF73DFD034600931F
:1059D0002346002200217868FFF7CAFC78680C375C
:1059E000BD4690BD80B582B000AF78603960786800
:1059F000FEF732FD78680837BD4680BD80B584B0BB
:105A000000AF78607B681846FFF704FF264A7B6882
:105A10001A600023FB73FFF74DFE03461A682C3211
:105A200012681846904703461A46FB7B93420CBF08
:105A300001230023BB73FCF735FC03461846FFF730
:105A400074FE0346002B14BF01230023DBB2002B9E
:105A50001BD0FCF727FC03461846FFF766FE0346FB
:105A60001A682C3212681846904703461A46FB7B88
:105A700093420CBF01230023DAB2BB7B1343DBB29A
:105A8000002B14BF01230023BB73BB7B002B05D16C
:105A9000064B074A2C21074831F012FC7B68184658
:105AA0001037BD4680BD00BF00B10308E08F03087A
:105AB000409003087C90030880B582B000AF786006
:105AC000054A7B681A607B681846FFF7B7FE7B685B
:105AD00018460837BD4680BD00B1030880B582B0C6
