:020000040800F2
:1000000000000520FD1A0008191A00081B1A000834
:100010001D1A00081F1A0008211A0008000000001D
:10002000000000000000000000000000B180000897
:10003000231A00080000000051810008B581000863
:100040004D1B00084D1B00084D1B00084D1B0008F0
:100050004D1B00084D1B00084D1B00084D1B0008E0
:100060004D1B00084D1B00084D1B00084D1B0008D0
:100070004D1B00084D1B00084D1B00084D1B0008C0
:100080004D1B00084D1B00084D1B00084D1B0008B0
:100090004D1B00084D1B00084D1B00084D1B0008A0
:1000A0004D1B00084D1B00084D1B00084D1B000890
:1000B0004D1B00084D1B00084D1B00084D1B000880
:1000C0004D1B00084D1B00084D1B00084D1B000870
:1000D0004D1B00084D1B00084D1B00084D1B000860
:1000E0004D1B00084D1B00084D1B00084D1B000850
:1000F0004D1B00084D1B00084D1B00084D1B000840
:100100004D1B00084D1B00084D1B00084D1B00082F
:100110004D1B00084D1B0008251A00084D1B000848
:100120004D1B00084D1B00084D1B00084D1B00080F
:100130004D1B00084D1B00084D1B00084D1B0008FF
:100140004D1B00084D1B00084D1B00084D1B0008EF
:100150004D1B00084D1B00084D1B00084D1B0008DF
:100160004D1B00084D1B00084D1B00084D1B0008CF
:100170004D1B00084D1B00084D1B0008000000002F
:100180004D1B00084D1B00084D1B00084D1B0008AF
:100190004D1B00084D1B00084D1B00084D1B00089F
:1001A000311A00084D1B00083D1A00084D1B0008BD
:1001B0004D1B00084D1B00084D1B00084D1B00087F
:0801C0004D1B00084D1B000857
:1001D00010B5054C237833B9044B13B10448AFF381
:1001E00000800123237010BD4003002000000000A8
:1001F0001413030808B5034B1BB103490348AFF3BD
:10020000008008BD00000000440300201413030810
:1002100001F0FF01102A2BDB10F0070F08D010F8B7
:10022000013B013A8B422DD010F0070F42B3F6D1BB
:10023000F0B441EA012141EA014122F007047FF0D4
:1002400000070023F0E80256083C85EA010586EA2B
:10025000010685FA47F5A3FA87F586FA47F6A5FA67
:1002600087F68EB9EED1F0BC01F0FF0102F0070273
:1002700032B110F8013B013A83EA010313B1F8D11E
:100280000020704701387047002D06BF35460338FF
:10029000073815F0010F07D1013015F4807F02BF38
:1002A000013015F4C03F0130F0BC0138704700BF89
:1002B00081F0004102E000BF83F0004330B54FEA17
:1002C00041044FEA430594EA050F08BF90EA020F84
:1002D0001FBF54EA000C55EA020C7FEA645C7FEA17
:1002E000655C00F0E2804FEA5454D4EB5555B8BF3A
:1002F0006D420CDD2C4480EA020281EA030382EAAB
:10030000000083EA010180EA020281EA0303362D3C
:1003100088BF30BD11F0004F4FEA01314FF4801C0F
:100320004CEA113102D0404261EB410113F0004F21
:100330004FEA03334CEA133302D0524263EB4303D8
:1003400094EA050F00F0A780A4F10104D5F1200E76
:100350000DDB02FA0EFC22FA05F2801841F10001D1
:1003600003FA0EF2801843FA05F359410EE0A5F1A5
:1003700020050EF1200E012A03FA0EFC28BF4CF0D6
:10038000020C43FA05F3C01851EBE37101F000458C
:1003900007D54FF0000EDCF1000C7EEB00006EEB99
:1003A0000101B1F5801F1BD3B1F5001F0CD3490823
:1003B0005FEA30004FEA3C0C04F101044FEA44527A
:1003C00012F5800F80F09A80BCF1004F08BF5FEA01
:1003D000500C50F1000041EB045141EA050130BDE1
:1003E0005FEA4C0C404141EB0101013C28BFB1F5F3
:1003F000801FE9D291F0000F04BF01460020B1FA3E
:1004000081F308BF2033A3F10B03B3F120020CDA10
:100410000C3208DD02F1140CC2F10C0201FA0CF0EE
:1004200021FA02F10CE002F11402D8BFC2F1200C53
:1004300001FA02F120FA0CFCDCBF41EA0C01904009
:10044000E41AA2BF01EB0451294330BD6FEA040452
:100450001F3C1CDA0C340EDC04F11404C4F120023D
:1004600020FA04F001FA02F340EA030021FA04F34F
:1004700045EA030130BDC4F10C04C4F1200220FAA6
:1004800002F001FA04F340EA0300294630BD21FAE4
:1004900004F0294630BD94F0000F83F4801306BFAA
:1004A00081F480110134013D4EE77FEA645C18BF9E
:1004B0007FEA655C29D094EA050F08BF90EA020F35
:1004C00005D054EA000C04BF1946104630BD91EA2D
:1004D000030F1EBF0021002030BD5FEA545C05D130
:1004E0004000494128BF41F0004130BD14F580046F
:1004F0003CBF01F5801130BD01F0004545F0FE41E3
:1005000041F470014FF0000030BD7FEA645C1ABF17
:10051000194610467FEA655C1CBF0B46024650EA4E
:10052000013406BF52EA033591EA030F41F400217A
:1005300030BD00BF90F0000F04BF0021704730B500
:100540004FF4806404F132044FF000054FF00001D5
:1005500050E700BF90F0000F04BF0021704730B596
:100560004FF4806404F1320410F0004548BF40426B
:100570004FF000013EE700BF42004FEAE2014FEAC0
:1005800031014FEA02701FBF12F07F4393F07F4F9B
:1005900081F06051704732F07F4208BF704793F09E
:1005A0007F4F04BF41F40021704730B54FF46074B1
:1005B00001F0004521F000411CE700BF50EA0102B4
:1005C00008BF704730B54FF000050AE050EA01025D
:1005D00008BF704730B511F0004502D5404261EBCD
:1005E00041014FF4806404F132045FEA915C3FF40E
:1005F000D8AE4FF003025FEADC0C18BF03325FEAAB
:10060000DC0C18BF033202EBDC02C2F1200300FA5B
:1006100003FC20FA02F001FA03FE40EA0E0021FA80
:1006200002F11444BDE600BF70B54FF0FF0C4CF46E
:10063000E06C1CEA11541DBF1CEA135594EA0C0F20
:1006400095EA0C0F00F0DEF82C4481EA030621EA5B
:100650004C5123EA4C5350EA013518BF52EA033596
:1006600041F4801143F4801338D0A0FB02CE4FF048
:100670000005E1FB02E506F00042E0FB03E54FF078
:100680000006E1FB03569CF0000F18BF4EF0010E70
:10069000A4F1FF04B6F5007F64F5407404D25FEA6C
:1006A0004E0E6D4146EB060642EAC62141EA55511F
:1006B0004FEAC52040EA5E504FEACE2EB4F1FD0C61
:1006C00088BFBCF5E06F1ED8BEF1004F08BF5FEADF
:1006D000500E50F1000041EB045170BD06F0004691
:1006E00046EA010140EA020081EA0301B4EB5C043E
:1006F000C2BFD4EB0C0541EA045170BD41F4801136
:100700004FF0000E013C00F3AB8014F1360FDEBF5A
:10071000002001F0004170BDC4F10004203C35DA36
:100720000C341BDC04F11404C4F1200500FA05F3B9
:1007300020FA04F001FA05F240EA020001F000425A
:1007400021F0004110EBD37021FA04F642EB0601D0
:100750005EEA430E08BF20EAD37070BDC4F10C04FA
:10076000C4F1200500FA04F320FA05F001FA04F2BE
:1007700040EA020001F0004110EBD37041F10001AA
:100780005EEA430E08BF20EAD37070BDC4F12005B5
:1007900000FA05F24EEA020E20FA04F301FA05F21D
:1007A00043EA020321FA04F001F0004121FA04F2C5
:1007B00020EA020000EBD3705EEA430E08BF20EA95
:1007C000D37070BD94F0000F0FD101F000464000CF
:1007D00041EB010111F4801F08BF013CF7D041EA51
:1007E000060195F0000F18BF704703F00046520055
:1007F00043EB030313F4801F08BF013DF7D043EA26
:100800000603704794EA0C0F0CEA135518BF95EADB
:100810000C0F0CD050EA410618BF52EA4306D1D162
:1008200081EA030101F000414FF0000070BD50EA81
:10083000410606BF1046194652EA430619D094EA0B
:100840000C0F02D150EA013613D195EA0C0F05D1F5
:1008500052EA03361CBF104619460AD181EA030149
:1008600001F0004141F0FE4141F470014FF0000001
:1008700070BD41F0FE4141F4780170BD70B54FF09C
:10088000FF0C4CF4E06C1CEA11541DBF1CEA13551C
:1008900094EA0C0F95EA0C0F00F0A7F8A4EB0504FE
:1008A00081EA030E52EA03354FEA013100F08880F5
:1008B0004FEA03334FF0805545EA131343EA1263BE
:1008C0004FEA022245EA111545EA10654FEA002673
:1008D0000EF000419D4208BF964244F1FD0404F52C
:1008E000407402D25B084FEA3202B61A65EB030588
:1008F0005B084FEA32024FF480104FF4002CB6EB45
:10090000020E75EB030E22BFB61A754640EA0C00C4
:100910005B084FEA3202B6EB020E75EB030E22BF04
:10092000B61A754640EA5C005B084FEA3202B6EB45
:10093000020E75EB030E22BFB61A754640EA9C0004
:100940005B084FEA3202B6EB020E75EB030E22BFD4
:10095000B61A754640EADC0055EA060E18D04FEA92
:10096000051545EA16754FEA06164FEAC30343EA32
:1009700052734FEAC2025FEA1C1CC0D111F4801FFF
:100980000BD141EA00014FF000004FF0004CB6E7F8
:1009900011F4801F04BF01430020B4F1FD0C88BF97
:1009A000BCF5E06F3FF6AFAEB5EB030C04BFB6EBA2
:1009B000020C5FEA500C50F1000041EB045170BD95
:1009C0000EF0004E4EEA113114EB5C04C2BFD4EBC2
:1009D0000C0541EA045170BD41F480114FF0000E46
:1009E000013C90E645EA060E8DE60CEA135594EAC2
:1009F0000C0F08BF95EA0C0F3FF43BAF94EA0C0FC5
:100A00000AD150EA01347FF434AF95EA0C0F7FF439
:100A100025AF104619462CE795EA0C0F06D152EA8D
:100A200003353FF4FDAE1046194622E750EA410671
:100A300018BF52EA43067FF4C5AE50EA41047FF482
:100A40000DAF52EA43057FF4EBAE12E74FEA4102E5
:100A5000B2F1E04324BFB3F5001CDCF1FE5C0DD91C
:100A600001F0004C4FEAC0024CEA5070B2F1004F66
:100A700040EB830008BF20F00100704711F0804F69
:100A800021D113F13872BCBF01F00040704741F42E
:100A900080114FEA5252C2F11802C2F1200C10FA32
:100AA0000CF320FA02F018BF40F001004FEAC12316
:100AB0004FEAD32303FA0CFC40EA0C0023FA02F3BA
:100AC0004FEA4303CCE77FEA625307D150EA013390
:100AD0001EBF4FF0FE4040F44000704701F0004060
:100AE00040F0FE4040F40000704700BF7BB972B98F
:100AF0000029BEBF00204FF0004106E008BF0028DB
:100B00001CBF6FF000414FF0FF3000F0B5B9ADF100
:100B1000080C6DE904CE002909DB002B1ADB00F07C
:100B20004DF8DDF804E0DDE9022304B070474042EF
:100B300061EB4101002B1BDB00F040F8DDF804E025
:100B4000DDE9022304B0404261EB4101524263EB14
:100B500043037047524263EB430300F02FF8DDF884
:100B600004E0DDE9022304B0404261EB410170473B
:100B7000524263EB430300F021F8DDF804E0DDE9C5
:100B8000022304B0524263EB4303704753B94AB99E
:100B9000002908BF00281CBF4FF0FF314FF0FF3085
:100BA00000F06AB9ADF1080C6DE904CE00F006F86A
:100BB000DDF804E0DDE9022304B070472DE9F047D9
:100BC000089D0C46002B4ED194468C458646B2FAC1
:100BD00082F262D94AB1C2F12003914020FA03F3B4
:100BE0000CFA02FC194300FA02FE4FEA1C471FFAF6
:100BF0008CF6B1FBF7F44FEA1E4307FB141143EAEE
:100C0000014304FB06F199420AD91CEB030304F1EA
:100C1000FF3080F01281994240F20F81023C634420
:100C2000591A1FFA8EF3B1FBF7F007FB101143EAD4
:100C3000014300FB06F69E420AD91CEB030300F1B8
:100C4000FF3180F0FC809E4240F2F980634402381C
:100C50009B1B40EA044000211DB1D3400022C5E99E
:100C60000032BDE8F0878B4205D90DB1C5E900011E
:100C700000210846F5E7B3FA83F1002946D1A342E3
:100C800002D39042C0F0F080861A64EB0303012087
:100C9000002DE6D0C5E90063E3E7002A40F090802C
:100CA000A1EB0C044FEA1C481FFA8CF70121B4FB9E
:100CB000F8F64FEA1E4308FB164443EA044307FBD9
:100CC00006F0984208D91CEB030306F1FF3402D268
:100CD000984200F2CD8026461C1A1FFA8EF3B4FB10
:100CE000F8F008FB104443EA044300FB07F79F4277
:100CF00008D91CEB030300F1FF3402D29F4200F23B
:100D0000B0802046DB1B40EA0640A5E7C1F1200683
:100D10008B4022FA06F71F4320FA06FC04FA01F37F
:100D200043EA0C03F44000FA01F8380C4FEA134987
:100D3000B4FBF0FE1FFA87FC00FB1E4449EA0444A2
:100D40000EFB0CF9A14502FA01F20AD93C190EF189
:100D5000FF3A80F08480A14540F28180AEF1020E1E
:100D60003C44A4EB09041FFA83F9B4FBF0F300FB45
:100D7000134449EA044403FB0CFCA44507D93C197D
:100D800003F1FF3067D2A44565D9023B3C4443EAF6
:100D90000E40A0FB0293A4EB0C049C42CE469C4662
:100DA00051D34ED055B1B8EB0E0364EB0C0404FAEA
:100DB00006F6CB401E43CC40C5E90064002150E755
:100DC000C2F1200320FA03F10CFA02FC24FA03F327
:100DD00094400C434FEA1C4800FA02FE1FFA8CF7BD
:100DE000B3FBF8F008FB1031230C43EA014300FB8E
:100DF00007F1994208D91CEB030300F1FF362CD20E
:100E000099422AD9023863445B1AA4B2B3FBF8F1C1
:100E100008FB113344EA034401FB07F3A34208D95A
:100E20001CEB040401F1FF3613D2A34211D902399D
:100E30006444E41A41EA004139E70446F0E6084612
:100E400006E7C845AED2B9EB020E63EB070C0138DA
:100E5000A8E73146EDE7034699E73046D4E7D646A2
:100E60007FE7634402384DE70646234608460FE70E
:100E7000023E634430E700BF704700BF00220221FA
:100E8000014804F009BD00BF0020024002210148D2
:100E900004F007BD002002400149002008F006BB15
:100EA000B91F000808B5642006F014FDFBE708B57B
:100EB000FFF7E4FFFFF7EAFF4FF4FA7006F00AFDD0
:100EC000F8E7000010B594B01022002102240AA80F
:100ED0002FF0E2FA1422002103A82FF0DDFA1D4BB7
:100EE000192108A81A6C42F080521A641B6C03F096
:100EF00080530193019B184B1A6842F440421A60D8
:100F000001221B6803F440430293029B4FF4803399
:100F1000CDE908234FF48003CDE90E434FF4D87395
:100F2000CDE91244CDE9101305F0A4FC05F002FA56
:100F30000F2300200721CDE903344FF4A053CDE95E
:100F400005034FF4805303A8079305F07BFE14B00C
:100F500010BD00BF003802400070004030B54FF4B3
:100F600080738FB04FF080720E4D06939F230992CD
:100F70000122009300230446694628460593CDE9E3
:100F80000A2341F28832CDE90733CDE90C3305F06D
:100F90003DFB41F288322146284605F007FC0FB0A0
:100FA00030BD00BFB003002000B54FF4807391B096
:100FB0004FF04072EF2808934FF0EB0302A90D4861
:100FC00002934FF4406309934FF4005305934FF09D
:100FD0000003CDE90A3214BF0A2206220F930792BA
:100FE0006A46CDE90D33CDE9003305F054FB11B06D
:100FF0005DF804FBB00300202DE980489BB010226F
:10100000002101250DA84FF010492FF045FA0024CA
:1010100004F0D6F8C74B0DA8ADF834501094CDE9C4
:101020000E9304F0EBF817230DA88DF835508DF8CA
:101030003C308DF8425004F0E1F8042004F0CEF882
:10104000BFF34F8FBFF36F8FBB4AC2F85042BFF35D
:101050004F8FBFF36F8F536943F400335361BFF376
:101060004F8FBFF36F8FC2F88440BFF34F8FD2F81A
:10107000803043F6E074C3F3C900C3F34E335B0121
:1010800003EA0406014646EA81750139C2F8605256
:10109000F9D2203B13F1200FF2D1BFF34F8F5369E8
:1010A00043F480335361BFF34F8FBFF36F8F03F06F
:1010B000EDFF0024FFF706FF142200210DA82FF0FA
:1010C000EBF99E4B10219E481A6B01274FF0100838
:1010D0004FF0030B42F010024FF0400A994D4FF0D1
:1010E00004091A631A6B984E02F010020292029AD7
:1010F0001A6B42F002021A631A6B02F002020392A8
:10110000039A1A6B42F001021A631A6B02F0010291
:101110000492049A1A6B42F040021A631A6B02F0AE
:1011200040020592059A1A6B42F400721A631A6B18
:1011300002F400720692069A1A6B42F008021A63D1
:101140001A6B02F008020792079A1A6B42F4806247
:101150001A631A6B02F480620892089A1A6B42F0C2
:1011600020021A631A6B02F020020992099A1A6B84
:1011700042F480721A631A6B02F480720A920A9A1D
:101180001A6B42F080021A631A6B02F080020B9213
:101190000B9A1A6B42F004021A6300221B6B03F0D5
:1011A00004030C930C9B04F077FB01220821674891
:1011B00004F072FB00220221654804F06DFB01225D
:1011C0004FF48051624804F067FB0022C02161485F
:1011D00004F062FB002240215F4804F05DFB0DA992
:1011E0005748CDE90D87CDE90F4B04F0D1F908231D
:1011F0000DA95648CDE90D37CDE90F4404F0C8F9E3
:1012000041F202020DA95248CDE90D27CDE90F4464
:1012100004F0BEF9C0220DA94E48CDE90D27CDE955
:101220000F4B04F0B5F90DA94B48CDE90DA7CDE959
:101230000F4B04F0ADF94948494A848002600762C7
:10124000C0E9054404F006F8464A2846C5E90024EA
:10125000C5E90244C5E90A44C5E90C4404F099F81B
:1012600039462846404D04F04DF9404A4FF400639A
:10127000C6F814A04FF0020A0DA93046B460B4625B
:10128000CDF84CA0C6E900244FF4C072C6E906248C
:101290004FF48052C6E908320722C6E90398CDE927
:1012A0000DA2CDE90F92CDE911BA06F021F8294639
:1012B0004FF6FF7230460194C5E90078C5E9027423
:1012C00006F036F8384603F005FF29464FF6FF7260
:1012D0003046C5E900A8C5E9027406F029F80823DC
:1012E00029464FF6FF723046C5E900B8C5E9023419
:1012F00006F01EF84FF40C734FF6FF722946019367
:101300003046019BAF60EB60C5E9009806F010F82D
:1013100040F22B713046164D06F029F84FF020436D
:1013200043F2D202642040F215261A6003F0D2FE86
:1013300020E000BF1B00000300ED00E00038024089
:1013400000040240F80400207C0300200028024032
:10135000002002400008024000180240380500202A
:101360000030024000B002405C030020400100A0B9
:10137000A40400204D4B4E4A28462C62C5E90023A8
:10138000C5E90247C5E90444C5E9064404F0C5FBC4
:101390002146284604F0E8FD21462846454D04F044
:1013A00009FE342221460DEB02002FF075F8424B66
:1013B0002821352040F2352C2C61AC8685F836404A
:1013C000C5E900340923C5E905130B23C5E9070363
:1013D00040F21B132846C5E9096340F21D13C5E915
:1013E0000244C5E90BC304F091FEFF214FF4806E67
:1013F0004FF4F0724FF4887328460D941893ADF8AB
:1014000064408DF86640CDE912140521CDE914E160
:101410004FF04041CDE90E24CDE9161222460DA928
:10142000CDE9103A04F03DFF2448254B0462C0E9A1
:101430000037C0E902984FF4A0634FF01808C0E9E4
:101440000644C0E9048305F08FF80DA8FFF786FD78
:101450009DF83400FFF7A8FD5C2003F09FFE00F02C
:101460004BFB00F075FB00F072FB06F0A5F9154A86
:101470002146154806F0DAF9144B154A2146186042
:10148000144806F0D3F9144B144A21461860144846
:1014900006F0CCF9134B144A21461860134806F0A5
:1014A000C5F9134B186006F0A1F9FEE76847402024
:1014B000005C0040FC03002000680140B0030020F5
:1014C000001000A0D0140308A50E00087803002027
:1014D000AC1403085F1B0008740300208814030881
:1014E000793600087003002064140308AF0E00086A
:1014F0006C0300200268034B9A4201D103F0D8BD6F
:10150000704700BF00100040704700000D4B82B0D4
:101510000F216FF001001A6C42F080521A641A6CAD
:1015200002F080520092009A5A6C42F480425A644F
:1015300000225B6C03F480430193019B02B003F033
:10154000EDBD00BF00380240026882B0084B9A42ED
:101550000BD1D3F8302803F5006342F480521A63AC
:101560001B6B03F480530193019B02B0704700BFD3
:10157000003002400E4B07B502689A4215D1A3F520
:10158000F04305215A201A6B42F400021A6300222C
:101590001B6B03F400030193019B03F0BFFD5A2072
:1015A00003B05DF804EB03F0EBBD03B05DF804FBA2
:1015B00000B0024010B5A8B004461422002102A8D1
:1015C0002EF06AFF8422002107A82EF065FF226812
:1015D000174B9A422AD14FF4803307A8079305F09E
:1015E000FDFB08B1FFF790FF124C4FF4C0720121D0
:1015F0001148236B43F080032363236B03F08003C4
:101600000093009B1223CDE902230323CDE90413A9
:10161000042302A9069303F0BBFF236C43F40003E9
:101620002364236C03F400030193019B28B010BDD5
:10163000005C004000380240001C0240026808B50F
:10164000094B9A420FD1094A80210948136C23F4AF
:101650000003136404F080F84FF480710448BDE87F
:10166000084004F079B808BD005C00400038024032
:10167000001C024070B5ACB004461422002106A83C
:101680002EF00AFF842200210BA82EF005FF22680D
:10169000484B9A4240F08C800823052001240B938C
:1016A0004FF4C07310930223CDE911304FF400338F
:1016B0000BA8CDE9154305F091FB08B1FFF724FF16
:1016C0003D4B002402250E265A6C06A93B4842F0E9
:1016D00080625A645A6C02F080620092009A1A6B1F
:1016E00042F010021A631A6B02F010020192019A82
:1016F0001A6B42F400721A631A6B02F400720292BF
:10170000029A1A6B42F480621A631A6B02F48062C6
:101710000392039A1A6B42F040021A631A6B02F0AA
:1017200040020492049A1A6B42F480721A631B6B93
:1017300003F480730593059B1023CDE90635CDE9AD
:1017400008440A9603F024FF4EF6FF7306A91C48CE
:101750000A96CDE90635CDE9084403F019FFF723D1
:1017600006A918480A96CDE90635CDE9084403F0E4
:101770000FFF4FF4805306A91348CDE9063509231E
:10178000CDE908440A9303F003FF4FF4464306A94A
:101790000E480A96CDE90635CDE9084403F0F8FE77
:1017A00058202246052103F0B9FC582003F0E8FC3C
:1017B0002CB070BD006801400038024000100240AB
:1017C000002402400028024000180240002002408D
:1017D000142200212DE9F0418AB004460DEB0200ED
:1017E0002EF05AFE22682C4B9A4251D12B4B0225E7
:1017F000032409269A6B4FF0040805A9284842F0F3
:10180000020200279A639A6B02F002020192019A87
:101810001A6B42F010021A631A6B02F01002029265
:10182000029A1A6B42F002021A631A6B02F0020269
:101830000392039A1A6B42F008021A631B6B03F0BF
:1018400008030493049BCDE90585CDE9084603F020
:101850009FFE402305A91348CDE905350A23CDE9AC
:101860000774099303F094FE05A90E480996CDE983
:101870000585CDE9077403F08BFE4FF4605305A98D
:1018800009480996CDE90535CDE9077403F080FED6
:101890000AB0BDE8F08100BF001000A0003802408F
:1018A0000010024000040240000C0240F0B500238A
:1018B00087B00393294B1E68002E4DD101220227C9
:1018C00003250C241A6001A9254B26489A6B42F087
:1018D00001029A639B6B03F001030093009B4FF698
:1018E0008373CDE90454CDE9013703F051FE48F28A
:1018F000331301A91C480594CDE90137CDE90365EF
:1019000003F046FE4CF2037301A918480594CDE993
:101910000137CDE9036503F03BFE4FF63F0301A914
:1019200013480594CDE90137CDE9036503F030FE96
:10193000282301A90F480594CDE90137CDE90365B6
:1019400003F026FE082301A90B480594CDE90137D1
:10195000CDE9036503F01CFE07B0F0BD5C05002077
:10196000003802400010024000180240000C024003
:1019700000140240001C024000080240214B1A6C77
:1019800042F0100270B51A6488B01B6C054601A9BC
:1019900003A803F010030293029B05F001FA069BD3
:1019A0004BBB05F0EDF9184E184B336040F2E733AE
:1019B000F360174BB0FBF3F3013B30467360002339
:1019C0003361B360B36105F039FE044680B9304637
:1019D00005F0E6FC044658B9362003F0D1FB0F2D84
:1019E0000DD822462946362003F098FB094B1D608E
:1019F000204608B070BD05F0C3F94000D3E70124CC
:101A0000F6E700BF003802406005002000100040EB
:101A100040420F003C0000207047FEE7FEE7FEE773
:101A2000FEE77047014805F0FDBC00BF60050020DF
:101A3000014804F0D9BB00BFFC030020014803F0BB
:101A4000D6BC00BFF80400200120704708B52EF076
:101A5000D7FD162303604FF0FF3008BD08B52EF008
:101A6000CFFD16230360FEE770B50D4614460E4603
:101A7000731B9C4201DC204670BDAFF3008006F86A
:101A8000010BF5E770B50D4614460E46731B9C42DC
:101A900001DC204670BD16F8010BAFF30080F5E7BE
:101AA0004FF0FF3070474FF4005300204B607047F9
:101AB00001207047002070470B4A0346116810B59B
:101AC00009B90A491160106809490A4C0344091B05
:101AD0008B4206D92EF094FD0C2303604FF0FF30AB
:101AE00010BD1360FCE700BFAC050020F8610120C9
:101AF00000000520000A000070470000DFF834D025
:101B0000002103E00C4B5B58435004310B480C4B55
:101B100042189A42F6D30B4A02E0002342F8043BF3
:101B2000094B9A42F9D303F0C9F92EF06FFDFFF784
:101B300063FA7047000005204C6A0308000000208B
:101B40002401002040030020F4610120FEE77047DB
:101B500008B501F06BF9BDE8084001F0EFB801F0FD
:101B600067B9406870474160704700004FF0E0225D
:101B7000D2F8FC3D43F08073C2F8FC3D054B064AA9
:101B8000D3F8B01F0A43C3F8B02F1A6842F001021D
:101B90001A607047001000E055CEACC5521A02EB37
:101BA0005302B2FBF3F07047014B5868704700BF17
:101BB000001000E0704710B504460C212DF06AFAC1
:101BC000204610BD036810B51B69044631B1984723
:101BD000A26863689B1A0344636010BD9847A060C5
:101BE000FBE70000024B7020024A1360DB681847D5
:101BF00010000020B0050020704710B504460421F5
:101C00002DF048FA204610BD73B50E4E0D46144611
:101C1000336813B9002002B070BD1B69702098476B
:101C20000028F7D03368702001AA0DF106015B6926
:101C30009847BDF8043001202B60BDF806302360C2
:101C4000E9E700BFB00500207FB501238DF817201C
:101C50004FF47A72CDE901320DF1170200920A4673
:101C60000146054803F0C8FF10B1034803F0AAFF7E
:101C700007B05DF804FB00BFA40400207FB500237B
:101C80000A464FF47A718DF817300123CDE90131FE
:101C90000DF1170100910146054804F087F810B1D5
:101CA000034803F08FFF9DF8170007B05DF804FBB1
:101CB000A404002001280ED0022814D0D0B90E4B65
:101CC00000F1804010211A6800F50130B2FA82F26A
:101CD000520903F0E1BD084B40215A68B2FA82F282
:101CE00052090648F5E7044B80219A68B2FA82F25D
:101CF0005209F6E7704700BFB40500200008024013
:101D000001280ED0022814D0D0B90E4B00F180402B
:101D100010211A6800F50130003A18BF012203F0C3
:101D2000BBBD084B40215A68003A18BF0122064843
:101D3000F5E7044B80219A68003A18BF0122F6E7C4
:101D4000704700BFB405002000080240012809D0F8
:101D500002280AD058B900F18040102100F5013066
:101D600003F09FBD40210248FAE78021FBE770475E
:101D700000080240012808B50DD002280ED078B91D
:101D800000F18040102100F5013003F07FFD431E7B
:101D90005842584108BD40210248F6E78021FBE740
:101DA0000020F4E70008024070B5084D0024012629
:101DB000E0B2FFF7DFFF18B12B68012B18BF2E60D0
:101DC00001340435052CF3D170BD00BFB4050020EB
:101DD000012380F8781080F8793070470020704730
:101DE00041640039024B18BF01211970704700BFD0
:101DF000B354012000207047836B0BB1084618478D
:101E000070474FF6FF707047406803689B6918473A
:101E10007047000038B5044601F058F908492368B6
:101E20002046084DD3F88C3098470023284684F884
:101E30004A30FFF79BFE0123256184F8703038BDDE
:101E4000000000C0C405002001F0E2B801F0E6B8CF
:101E500070B501F065F910490023C1F88430BFF373
:101E60004F8FD1F8803043F6E074C3F3C900C3F359
:101E70004E335B0103EA0406024646EA8275013AE4
:101E8000C1F87452F9D2203B13F1200FF2D1BFF305
:101E90004F8FBFF36F8F70BD00ED00E001F042B9CE
:101EA00001F092B801F064BA01F06CBA01F096B892
:101EB00010B5044616F03AF823682046D3F8AC3043
:101EC000BDE81040184715F08FBA10B504467C21C4
:101ED0002DF0E0F8204610BD90F834100D4B10B5F1
:101EE00090F878401A788C4209D03AB90A490B4ADE
:101EF00008881488108001220C801A7010BD002AF6
:101F0000FCD0064A0449148808880C8010800022FE
:101F1000F3E700BFAC540120AA540120A8540120CB
:101F200070B50D46194635B9094B40F2D221094A20
:101F300009482DF0F5FFC0E90F52003A074B18BFD2
:101F400001221A700368BDE87040D3F88C3018473E
:101F5000341503086C150308BA150308B2540120A0
:101F600008B5094B1B888B4203D8084B1B8893424A
:101F700005D9074B9E21074A07482DF0D1FF074B93
:101F80001980074B1A8008BDA8540120AA540120CB
:101F9000FF15030862160308BA150308AE540120A2
:101FA000B0540120034690F87A0018B158680368CD
:101FB0001B68184770470000014608B5034B1868B6
:101FC00001B1012115F0CCFF012008BDB45401205E
:101FD000034B00225A609A60024A1A60704700BFA1
:101FE000C4050020FC1403080121002208B508469E
:101FF00005F026FD0A4B186028B90A4B28210A4A29
:102000000A482DF08DFF00220421012005F0E2FD99
:10201000074B186018B9074B2C21034AF0E708BD9D
:10202000D405002080170308C9170308F817030810
:10203000D00500203F180308024B4FF0FF3118680D
:1020400005F056BDD4050020014B186805F08CBD85
:10205000D4050020024B0021186805F049BD00BFDF
:10206000D4050020FFF7F0BF0023034803491A46B8
:10207000006805F0F5BD00BFD00500200400002079
:1020800013B50023074C01A91A46206805F02AFE63
:102090004FF0FF33002201A9206805F023FE02B0B3
:1020A00010BD00BFD005002003685B6C18470120FD
:1020B000704703689B6A1847FEE700000E4B82B02A
:1020C0001A6B42F400021A631A6B02F400020192C6
:1020D000019A1A6942F400021A611A6922F4000294
:1020E0001A61064B064A1A61064A5A614FF080622D
:1020F000054B9A6002B0704700380240F804002097
:1021000095230008B920000800E100E040F2EF301C
:1021100070470000054B4FF080620360044BC3F82A
:102120008820BFF34F8FBFF36F8F7047D819030814
:1021300000E100E010B504464FF45A61FFF7EAFFF2
:1021400020462CF0A7FF204610BD000008B50A2845
:1021500009D8DFE800F006100E0808080810101073
:102160001000022008BD054B9021054A05482DF0BE
:10217000D7FE0020F6E70120F4E700BF811803082E
:102180009C180308E718030838B50C46887FFFF74A
:10219000DDFF174BA58AE28A586342EA05422169AE
:1021A0005A64628BD963521B1A642568082D0ED1BC
:1021B0009A611A6158620F4A207F42EA0062DA612E
:1021C000E2681A620C4A5961D9601A6038BD00226F
:1021D000D8611A61E1680A0A4809C1F3C40102F42E
:1021E000784200F4FC6002430A439A63034AECE736
:1021F00000B0024009000100012302000123030096
:1022000008B50B280BD8DFE800F00612100A0A0AFE
:102210000A0808080808022008BD0520FCE7054B4D
:102220006F21054A05482DF07BFE0020F4E70120D0
:10223000F2E700BF811803082C190308E718030808
:102240002DE9F04191F81D800C464046FFF7D8FF7C
:10225000A77F05463846FFF7D3FF06463846FFF707
:1022600075FFA18A628B434B521A1A649A61228BC2
:10227000521A1A61E28A586342EA014221695A6499
:102280006268D963DA602068802828D0227F0FD85E
:10229000202866D0402864D004281AD045EA026578
:1022A000344BB84545F40035DD6160D0324A44E036
:1022B000B0F5807F04D0B0F5007FEFD12F4800E06B
:1022C0002F4840EA0262DA61E2681A625E6259618E
:1022D00032E045EA026242F40032DA61F6E7A068D1
:1022E000021DDA62227F45EA026545F40035DD61B0
:1022F0005E625961017841B1012921D0214B4FF42F
:102300008D71214A21482DF00BFEDA69418822F4B3
:102310007F42013922F0100242EA01220121DA61F2
:10232000144BDA6942F02002DA61DA699206FCD4D1
:1023300010229A600029B9D0154A1A60BDE8F081D0
:10234000B2F1FF01DA69408822F47F4218BF01210F
:10235000013822F0100242EA002242F01002DA6153
:10236000DEE745EA0262034B42F40032B5E742F28F
:102370000132E2E700B0024001230100090002003F
:102380000A0002007619030890190308E7180308E9
:1023900001230200024B1B68586803685B691847F9
:1023A000B454012070B504460A4B0C300026254673
:1023B000602260602672667245F8203B294615F05F
:1023C00025FF04F55A63EE6024359D42FBD120467B
:1023D00070BD00BFD8190308034B1A68D207FCD49C
:1023E00023229A60704700BF00B00240094B5A692F
:1023F000D2030AD5BFF34F8F08440029A0EB010296
:1024000004DCBFF34F8FBFF36F8F70472039C3F8E1
:102410006822F2E700ED00E030B5104C2568ED07CA
:10242000FCD423250904FF2BA56041F001014FF0E6
:10243000020565636164E0630AD00949656241EAA7
:102440000363E361074B22626061E060236030BD9B
:10245000E561039BA363044BF8E700BF00B00240B3
:1024600009000100010002000100030030B50F4C1B
:102470002568ED07FCD423251204FF2BA56042F04C
:1024800001024FF0020565636264E063E16008D019
:102490001B0643F00213E361054B65626061236034
:1024A00030BD044BE3610123F9E700BF00B00240F7
:1024B00001000200020002FF30B50B4C2568ED0759
:1024C000FCD4232512041B06A56042F0010202255C
:1024D00043F4003365636264E063E160E361034BEE
:1024E00065626061236030BD00B0024001000200FF
:1024F0004069704790F844007047036B23B9C06A85
:10250000003818BF0120704701207047806870476D
:10251000043010B50C460FC884E80F0010BD70479A
:1025200008B5034A40F21221024B03482DF0F8FC93
:10253000201A0308633803087B1A030810B5044601
:1025400048212CF0A7FD204610BD00002DE9F043E6
:102550001C46436BADF51F7D05460E461746002B06
:1025600037D0002203A8DFF8A890CDE901320DF0A2
:1025700089FC4FF4F4725021249024A807F037FC12
:102580003A46314624A808F08BFB012124A807F025
:1025900029FD022324A88DF8D83007F0C4FDBDF82A
:1025A00098322B9ABDF89C629342A89F28BF13468D
:1025B000419A964203EB4308A7EB430728BF164610
:1025C000479B9E4209D824A807F02EFD24A807F0B7
:1025D0005BFC0DF51F7DBDE8F083012201A924A855
:1025E00007F0EAFD6B6B03EB0800984201D83C440E
:1025F000E6E759789A78C90009EA022201F4FC61F9
:102600000A4313F8031B42EAD10224F8022BECE739
:1026100000F8FFFF0A4A02600022C0E90522C0E973
:102620000722C0E90922C0E90B22C0E90D12C0E966
:102630000F2280F84420C0E90322C0E9012270473C
:10264000541D030810B40C4611461A46036B3BB1E7
:10265000036C806BE41A20445DF8044B2DF024BF1A
:10266000C06AF8E7036B10B573B1036C826BC91ACB
:102670005318525C98785C780004DB7840EA0420B8
:10268000104340EA036010BDC36A5858FBE7036B70
:1026900043B1036CC91A836B5A18585C527840EAEC
:1026A00002207047C36A585A7047000070B504464C
:1026B000006B0D461646D8B1E36B934208D209234E
:1026C0000D4A65210D4884F844300D4B2DF028FC4F
:1026D0000368DB689847206B3246A16B03681B696F
:1026E000984710B90D2384F84430A06B256470BD61
:1026F000E06A0844FBE700BFDF1A03087B1A0308FF
:10270000CC1A03082DE9F843436904462BB9234B3F
:10271000AA21234A23482DF003FC08228169FFF7F0
:10272000C5FFA16943F2300646F264370431204602
:10273000FFF798FFA3691844A36A00F108029A42C0
:1027400006D3012300206361236AA361BDE8F883F7
:10275000636909300822013320F0010120466361DA
:10276000A161FFF7A3FFD4F8189020464946FFF770
:102770008EFF09F1020180462046FFF788FF09F12C
:10278000040105462046FFF76DFFB045D2D1BD429A
:10279000D0D10028CED00120D8E700BF211B0308EC
:1027A0006A1B03087B1A03082DE9F04F0446ADF5B8
:1027B0001F7D8A461646816908229846FFF776FFF4
:1027C000A7692046391DFFF74DFF07F108010246B2
:1027D00005462046FFF76AFF636B074633B93C4B5B
:1027E00040F2AB113B4A3C482DF09AFB002203A873
:1027F000CDE901320DF046FB4FF4F47250212490E4
:1028000024A807F0F4FA2A46394624A808F048FA22
:10281000012124A807F0E6FB022324A88DF8D83074
:1028200007F081FCBAF90250479BAB4229D3BAF9B1
:1028300000904FEA4808BAF804702B9B08FB056625
:102840004F44BAF80250DFF894B03FB29F4228BF1D
:102850001F46BAF8063009EB490A1D44419B2DB2C8
:102860009D4228BF1D46479BAB4210D324A807F0CA
:10287000DBFB24A807F008FB01200DF51F7DBDE858
:10288000F08F012201A924A807F096FCCCE70122D1
:1028900001A924A807F090FC626B49465244B94252
:1028A00002F1030201D34644DDE712F8020C12F8EC
:1028B000013CC0000BEA032300F4FC60034312F860
:1028C000030C43EAD00326F811300131E7E700BFDB
:1028D0009D1B0308F31B03087B1A030800F8FFFF86
:1028E0000129036838BF0121DB6A70B50D46044633
:1028F0009847A84204D223682046DB6A98470546D9
:102900006B1EE6691022204606EB031606F108014D
:10291000FFF7CCFE06F110012046FFF7A3FE236A65
:10292000043B0344C4E9055370BD00000021482264
:102930002DE9F0410446816180F84410FFF7B6FEAE
:10294000A6690423624A31462046FFF77BFE40B168
:102950000323604AF22184F844305F4B5F482DF036
:10296000DFFA06F1080104235D4A2046A161FFF762
:1029700069FE30B10423574AFA2184F84430594B98
:10298000ECE706F10C010423574A2046A161FFF74A
:1029900059FE074638B105234E4A40F2011184F82A
:1029A0004430524BDAE706F110012046FFF75AFE99
:1029B000054620B94E4B40F20711464ACEE706F1D4
:1029C000140804234B4A20464146FFF73BFE0028EB
:1029D00049D0062384F844300423474A06F11801FD
:1029E0002046FFF72FFE00283FD0072384F844300D
:1029F0004544424F0C2220462946FFF757FE05F179
:102A0000080604233A4620463146FFF71BFE94F899
:102A10004430002848D0002B48D1A36AAB4249D8A3
:102A200005F10C0304352046A3612946FFF71AFE81
:102A30003044294660622046FFF714FE0644042213
:102A400020463146FFF732FE04232D4A3146204608
:102A5000FFF7F8FD002838D10123E6616361A3691F
:102A60002362BDE8F0810127B6E7002FC0D006F150
:102A700020012046FFF7F6FD4FF47A7306F130018E
:102A8000B0FBF3F060602046FFF7ECFD06F140017B
:102A9000A0602046FFF7E6FD06F14401E060204615
:102AA000FFF7E0FD2061A3E7002BB9D00A2384F8EB
:102AB0004430D6E7291D2046FFF7D4FD85190C22A6
:102AC00020462946FFF7F2FD99E70B23EFE700BF09
:102AD0004D1C03086B1C0308521C03087B1A0308D7
:102AE000981C03089D1C0308B51C0308BA1C0308A6
:102AF000D01C0308DC1C0308E11C0308E61C0308C7
:102B0000EB1C0308C0E90A2100220263FFF70EBF95
:102B100010B5002304460846E3620B6821639B68F6
:102B20009847A0622046BDE81040FFF7FFBEF0B412
:102B3000069FBDF81050BDF8146032B12BB104955A
:102B4000CDE90567F0BCFFF701BDF0BC70470000A0
:102B50002DE9F04F9946436985B004460F469046EB
:102B60002BB9294B7721294A29482DF0D9F9082278
:102B70008169FFF79BFDA66920463146FFF787FD77
:102B8000B11C83462046FFF782FD311D8246204658
:102B9000FFF768FD06F10801A36A054642189A424C
:102BA00026D243F230039B4517D146F264339A454F
:102BB00013D190B10246A1612046FFF777FD0E9B2D
:102BC00001462A462046CDF80080CDE901933B46D8
:102BD000FFF7ADFF636901336361A3692B4405B956
:102BE00008330133626A23F001039342A36109D1E0
:102BF000012301206361236AA36180F0010005B015
:102C0000BDE8F08F0020F8E7211B0308F01C030843
:102C10007B1A03080120704714207047142303FB1C
:102C2000010008307047142303FB0100083070478F
:102C3000012070474FF41C7070474FF41C7303FB66
:102C40000100083070474FF41C7303FB010008308B
:102C50007047012070471020704700EB01100830CA
:102C6000704700EB011008307047084601F0DAB8F1
:102C7000034B10B50446036014F00EF9204610BD56
:102C8000FC1D030810B50446FFF7F2FF1C21204687
:102C90002CF000FA204610BD034B10B5044603602B
:102CA00014F0FAF8204610BDC81D030810B50446FC
:102CB000FFF7F2FF4FF41E7120462CF0EBF920468F
:102CC00010BD0000034B10B50446036014F0E4F897
:102CD000204610BD941D030810B50446FFF7F2FF0F
:102CE000182120462CF0D6F9204610BD084B10B50F
:102CF0000446036000F52970FFF7BAFF04F12C00C9
:102D0000FFF7CAFF04F11400FFF7DCFF204610BDF7
:102D1000301E030808B50248FFF7E8FF08BD00BFF2
:102D2000A814002010B50446FFF7E0FF4FF48461BB
:102D300020462CF0AFF9204610BD00002DE9F341EC
:102D400000F032FD0024054600F032FD2346014626
:102D50002246284600941DF031F9274B274A204689
:102D6000274D1A6001F026FF264B274A27489A6014
:102D70001DF08CF82B68BFF35B8FDB0735D428463A
:102D80002CF08AF988B3224C224B04F5317604F1F9
:102D9000140004F12C0804F5297723606060C4F85E
:102DA0000880E760266114F079F81B4B40466361A8
:102DB00014F074F8194B3846E36214F06FF8184BAE
:102DC00004F53070C4F8A43201F078FF224604F50F
:102DD0003071304601F068FF304601F023F81148A9
:102DE0002DF0BCF828462CF063F90F4802B0BDE87E
:102DF000F041FFF70FB800BF18550120540600201E
:102E0000A4140020740600205806002008000020AA
:102E1000A8140020301E0308941D0308C81D0308D1
:102E2000FC1D0308152D0008D80500207047000080
:102E3000014814F042BB00BFD805002070B5244EF5
:102E4000244B254C3046254D2360FFF7ABFA28462E
:102E500022F0C6F922481BF0BDF9224B00224FF4A4
:102E6000807121481A8683F858205A6683F87020AA
:102E70005A67DC60C3E912121C49C3E91A121C49E3
:102E800099671C490B604FF4F07101801A4801806A
:102E90004FF488711948C3E90422C3E90622C3E943
:102EA0000822C3E90A22C3E90E22C3E91022C3E9BA
:102EB0001422C3E91722C3E901650180104883F891
:102EC000342001800F490A700F4A1A6070BD00BF9C
:102ED0000007002024150308A01400207406002019
:102EE00058060020D8050020A85401200100000148
:102EF00000000101B4540120AE540120AA54012065
:102F0000B0540120AC540120B01603080148FFF76B
:102F100001B900BF00070020002070478180704782
:102F2000C180704701817047418170477047704789
:102F300070477047704710B4C4880368121B8488B8
:102F40005B6D091B12B25DF8044B09B218474FF6CE
:102F5000FF7383814FF0FF3303621368C361106016
:102F60007047002070478B8883800120704770472E
:102F700080F82610704790F826007047002210B5A0
:102F8000B1F90840B1F90A10028042808480C18002
:102F900010BD0022028042808280C280704701778B
:102FA000704780ED080A704780F82410704780F859
:102FB0002510704701207047983070478C3070475B
:102FC0008430704770470000034B902283F85A23E7
:102FD00083F85823704700BF00E100E0094A0A491E
:102FE000D3680A48C3F30A03013B9BB20B80116903
:102FF000C1F30A01013901801364536B43F00103EB
:103000005363704700680140CA180020C8180020A8
:10301000014BD3F8AC00704700680140024B01221D
:10302000C3F8AC105A62704700680140124A5369F5
:10303000DB0370B51ED50023C2F88430BFF34F8F79
:10304000D2F8803043F6E074C3F3C900C3F34E33C3
:103050005B0103EA0406014646EA81750139C2F8BC
:103060007452F9D2203B13F1200FF2D1BFF34F8FEE
:10307000BFF36F8F70BD00BF00ED00E07047704779
:1030800070473823002201FB0333C25490F83830D4
:103090000BB9036C83647047704780F84C1070471D
:1030A00010B5044658212BF0F5FF204610BD10B591
:1030B00004462C212BF0EEFF204610BD10B504462F
:1030C000BC212BF0E7FF204610BD000038B50446B8
:1030D00014F0DFF923685D6E19F026FF01462046E3
:1030E000A8472368084A2046D3F888500023A2F551
:1030F0007F31A847054B064A5A60064A1A649A640B
:103100004FF4FF225A6438BD00F807C08C19002024
:10311000E419002000F40BC014F0A2B914F0ACB90B
:1031200014F068B914F0D7BA90F8252012B10368EA
:103130005B6918477047000008B531B1044B40F295
:103140009711044A04482CF0EBFE90F8390008BDB2
:103150003C1E0308501E0308DD1F030810B531B1E3
:10316000064B40F29111064A06482CF0D9FE406801
:1031700011460368BDE810401B6B18473C1E03084E
:103180001F200308DD1F030808B529B1034B7A216E
:10319000034A04482CF0C4FE006908BD3C1E030825
:1031A000D0210308DD1F030808B529B1054B832191
:1031B000054A06482CF0B4FE41618160C0E9063240
:1031C00008BD00BF3C1E030888230308DD1F030859
:1031D00010B5044629B1274BA421274A27482CF0D3
:1031E0009FFE052A34D8DFE802F003292F34393E48
:1031F000406803681B69984750B34FF0FF31606D1A
:1032000004F0C2FB0023012294F83E1084F83B3006
:1032100084F83920A360636101B1226284F83E30F2
:103220006362E36A2BB90123206D84F83A3004F01D
:103230009BFC606DBDE8104004F0D6BB002380F815
:10324000393084F83E3003E0036200238360436139
:1032500010BD0362002383604361F2E7002380F81E
:1032600039300123EDE7003B18BF012380F83D30E2
:10327000EEE700BF3C1E030847250308DD1F0308D7
:1032800090F825201AB190F8242002B118607047F8
:1032900070B50446164629B1314BE721314A324810
:1032A0002CF03EFE90F8393033B1304B1B6893F868
:1032B0006B20436913444361E36A002B4DD0E169FD
:1032C000D4E905325343A2684A43934220D2236A89
:1032D000002B42D04FF0FF31606D04F055FB236AA4
:1032E0000BB10023E362E36AFBB90125606D04F0D2
:1032F0007BFB94F839300BB9236A3BB1E36A2BB9F5
:103300000123206D84F83A3004F02EFC284670BD6D
:1033100094F84C000028DDD09B1AB3FBF1F29942DF
:1033200098BF02F1FF326262D4E7002294F83C5069
:10333000A3623046E262E2682261A2680132A260C2
:10334000336333685B699847002DCED194F83D30E4
:10335000002BCBD184F83950C8E70125C9E700BF5D
:103360003C1E03081E270308DD1F0308B454012078
:10337000034B4FF080629A604FF080729A60704702
:1033800000E100E0084B4FF08062C3F88820BFF3F3
:103390004F8FBFF36F8F4FF08072C3F88820BFF359
:1033A0004F8FBFF36F8F704700E100E038B50346E1
:1033B00090F8380038BB01229860D8609A634FF4C7
:1033C000807258619A874FF4F0729861D8611862E0
:1033D00058629862D8621863586383F83E00CA86C0
:1033E0004FF4887281F834000A8708639A6C186178
:1033F00002F5FF24D3E9101529448C420AD9084B61
:103400005821084A03E0084B40F2F511074A0848E2
:103410002CF086FD1A6302F57F329C645A6338BD36
:103420007C2A0308BC2A0308C2280308F2280308E0
:10343000DD1F0308002370B5124E05468380124B32
:103440000360336893F858200AB1D86C00B99868C3
:103450000368DB6A98473368B0FA80F4D86C640973
:1034600030B10368DB6A9847002808BF44F00104C4
:103470002CB9064B2C21064A06482CF051FD284653
:1034800070BD00BFB4540120642D0308622C0308F2
:10349000C02C0308F92C030870B5244E3568BFF31F
:1034A0005B8F15F001053FD130462BF0F5FD00286C
:1034B0003AD01F4C1F4B04F134002561E584A5620E
:1034C000A585C4E90035C4E902551BF0E2F804F112
:1034D000580016F09BFA184B2046A365174B40F88E
:1034E000843BFFF7A7FF164B1648C4F884302433FB
:1034F000C4F89050C4F88C306423C4F89C50C4F8CD
:10350000A850C4E928350023C4F8AC30C4F8B03062
:10351000C4F8B430C4F8B8300B4BC4F898302CF071
:103520001DFD30462BF0C4FD014870BDCC180020B5
:10353000D0180020A45D0308842D0308FC2D030887
:10354000585D0308C52F0008385D030810B5144CFA
:10355000236823B3134B144A1B6C11888B4213D17D
:10356000124B198802F0CAFE226892F86A300133C1
:1035700082F86A30FEF778FD206814F0D7FC00204E
:10358000BDE81040FEF796BB02F0B8FE2068036865
:103590001B6A98470020BDE81040FEF7B1BB10BD84
:1035A000B454012000680140CA180020C818002047
:1035B0002DE9F74304464FF4707894F83A304FF011
:1035C000FF31002B31D0606D04F0DEF9276BA36A68
:1035D000BB4200D1676B266A656856B32B683146DB
:1035E00028465B6A98470023236284F83B30606D6D
:1035F00004F0FAF92B684FF4F0723946CDF80080E8
:1036000028465E694FF48873B0474FF0FF31064695
:10361000606D04F0B9F994F83B30E3B1002384F80D
:103620003B30606D04F0E0F9C7E7206D04F060FA0C
:10363000C3E7636A002BDAD02B682846D3E90993E5
:103640009847616A01442846C847A368626A66626F
:103650001344A360CBE7E7625EB12B6828469B6A00
:10366000984701380023E06084F83C6084F83A30E1
:10367000D7E70120F6E70000014808B5FFF798FFFB
:103680008C1900200368042270B504465E6A00238A
:103690000D46B0474FF0FF31606D04F075F93823E7
:1036A00003FB0542D16A09B10021D16203FB054544
:1036B000012385F83B30002385F83930606DBDE883
:1036C000704004F091B938B500EB810304460D4613
:1036D000114658680368DB68984729462046FFF77B
:1036E000D1FF38BD70B50D461146044600EB85028A
:1036F0005068026896681A46B04729462046FFF788
:10370000C1FF70BD38B5164900251648FEF782FF87
:10371000154C164B01202A46294623604FF480732E
:10372000A564A38784F84C0084F83E50C4E9105582
:10373000C4E91455C4E90155C4E90355C4E9055564
:10374000C4E90755C4E90955C4E90B55C4E90D5549
:1037500004F076F92065284604F0D4F8606538BD99
:103760002C1A0020E41900208C190020482E030890
:10377000704710B5044604212BF08CFC204610BD88
:10378000012908B506D0022908D059B901F05EFA1E
:10379000006808BD01F05AFA4068FAE701F056FAED
:1037A0008068F6E70020F4E700487047942E03088D
:1037B0000920704713B5002451B1036801AA019490
:1037C0008DF803409C680DF10303A04702B010BDC3
:1037D0000846FBE7C0897047008A7047C088704779
:1037E00080887047807A00F07F007047807AC00937
:1037F00070470020704700009FED010A704700BF2E
:1038000000000000704710B5044608212BF042FC70
:10381000204610BD7047704700F5987308684968E6
:1038200003C370477047704741607047704700009E
:10383000064BC0F84801C0F84C310023C0F85031A5
:1038400000F5A273C0F84031704700BF593C000832
:103850000123037270477047704770477047704785
:10386000704710B441680346C2689B68541001EB6E
:103870006200D20748BF0A595DF8044B48BFD358CD
:1038800018470346406830B19A681AB9D86800F002
:10389000010070470120704710B5044614212BF039
:1038A000F9FB204610BD10B504460C212BF0F2FBAD
:1038B000204610BD10B5044610212BF0EBFB20462E
:1038C00010BD10B504464FF4AE712BF0E3FB20465B
:1038D00010BD10B519F028FB0368BDE81040DB6B84
:1038E0001847000070B5B2B00446C0221D4902A8B6
:1038F0002CF0B3FE237C2F2B03D90123237232B08B
:1039000070BD33B9184B1B781BB119F00DFB19F0C2
:1039100011FB0225237C302BF1D832AAE68960897D
:1039200002EB8303A189ADF8040053F8C03CADF865
:10393000061093FBF6F206FB123312FB01F2694606
:1039400013FB00F36068ADF80220ADF800300368A7
:103950001B699847237C012D03F101032374CED00A
:103960000125D7E730130308B254012010B50446EF
:10397000D0F8400158B10368DB68984738B1D4F8F3
:10398000400103689B6898470023C4F8403110BD8C
:103990002DE9F047D0E955690546B06803681B6A10
:1039A0009847B0F51C7F05D24E4BA3214E4A4F4895
:1039B0002CF0B6FA706803681B6A98470F2803D882
:1039C0004B4BA421484AF2E7F06803681B6A98470A
:1039D000132803D8474BA521434AE8E7DFF828819D
:1039E00019F0A2FA043019F0ECFAD8F8000010B17E
:1039F0000368DB689847D8F8000010B103681B68BB
:103A000098473D4F386810B103685B699847D5F80F
:103A10003C0110B103685B689847386810B10368CF
:103A20001B689847D5F83C0110B103689B6898471C
:103A3000F068002103685B6A984700232F4A044618
:103A40004360037203742E4B02601A882D4B1B884F
:103A50009A423FD9062105330732B3FBF1F3D2086E
:103A600008219BB2B068A381036862815B6AE1812F
:103A700000219847824601F0DDF970680021036853
:103A80005B6A98470646514601F0B2F9331DC5F806
:103A90003C615046C8F80040C7F800A0C9F80030A3
:103AA000DAF80030C6F80890DB68CAF83C6098473E
:103AB000336830461B689847214650461BF04CFA45
:103AC000236820461B699847236820465B69BDE848
:103AD000F0471847053206210733B2FBF1F2DB0845
:103AE00092B2BFE7582F0308E62F0308BB30030844
:103AF00002310308A5310308F85401208434030877
:103B0000A8540120AA540120FC5401202DE9F14FB2
:103B1000D0E9556A0746B06803681B6A9847B0F554
:103B20009C7F05D2444BA321444A45482CF0F8F928
:103B3000706803681B6A98470F2803D8414BA4217B
:103B40003E4AF2E7F06803681B6A98470B2803D8DF
:103B50003D4BA521394AE8E7DFF8F49019F0E4F984
:103B6000043019F02EFAD9F8000010B10368DB68B0
:103B70009847D9F8000010B103681B689847DFF830
:103B8000D480D8F8000010B103685B699847D7F873
:103B90003C0110B103685B689847D8F8000010B189
:103BA00003681B689847D7F83C0110B103689B680D
:103BB0009847F06800214FF0000B03685B6A984754
:103BC000224B0446C0F804B080F808B059460360A0
:103BD000B06803685B6A9847054601F0EFF87068C3
:103BE000594603685B6A98470646294601F0BCF8C7
:103BF000331DC7F83C612846C9F80040C8F800509A
:103C0000CAF800302B68C6F808A0DB68EE63984756
:103C1000336830461B689847214628461BF09CF9BC
:103C2000236820461B699847236820465B6901B0DA
:103C3000BDE8F04F184700BF582F0308483203086B
:103C4000BB30030802310308A531030860340308C0
:103C5000FC540120F85401202DE9F14FD0E9556AB8
:103C60000746B06803681B6A9847B0F59C7F05D289
:103C7000444BA321444A45482CF052F9706803682C
:103C80001B6A98470F2803D8414BA4213E4AF2E70C
:103C9000F06803681B6A98470B2803D83D4BA521A1
:103CA000394AE8E7DFF8F49019F03EF9043019F0EA
:103CB00088F9D9F8000010B10368DB689847D9F893
:103CC000000010B103681B689847DFF8D480D8F86B
:103CD000000010B103685B699847D7F83C0110B148
:103CE00003685B689847D8F8000010B103681B6848
:103CF0009847D7F83C0110B103689B689847F06873
:103D000000214FF0000B03685B6A9847224B044682
:103D1000C0F804B080F808B059460360B068036882
:103D20005B6A9847054601F005F8706859460368D4
:103D30005B6A98470646294600F0D2FF331DC7F854
:103D40003C612846C9F80040C8F80050CAF8003065
:103D50002B68C6F808A0DB68EE63984733683046E6
:103D60001B689847214628461BF0F6F82368204632
:103D70001B699847236820465B6901B0BDE8F04F96
:103D8000184700BF582F03081A330308BB30030835
:103D900002310308A531030860340308FC540120F4
:103DA000F8540120044B1B6893F858200AB1D86CD2
:103DB00000B99868704700BFB4540120F8B51746A1
:103DC00004460E4619F09EF9124B00251C60294648
:103DD000114B2360114BC4E95135114B1868C4E9EC
:103DE00053550368C4E94F559B68C4E95576984715
:103DF000284600F0DFFEFFF7D5FF23F044F8FFF779
:103E0000D1FF23F0BBF8FFF7CDFF23F0C3F8204626
:103E1000F8BD00BF085501200C340308F433030833
:103E2000B4540120064BC0F84801C0F84C310023BF
:103E3000C0F8503100F5A273C0F84031704700BFA0
:103E4000593C0008064BC0F84801C0F84C3100232B
:103E5000C0F8503100F5A273C0F84031704700BF80
:103E60000D3B0008064BC0F84801C0F84C31002358
:103E7000C0F8503100F5A273C0F84031704700BF60
:103E800091390008406A7047806A704770478B8894
:103E9000C069DB0A0A6850F823001044704710B567
:103EA0000446BAB1107B68B1537BD27A1B0203F48B
:103EB000E0631A43236A03EB82031A888A4202D121
:103EC00093F9020010BD05D80138043380B20028F0
:103ED000F3D1F7E70020F5E710B504462C212BF0CD
:103EE000D9F8204610BD000030B58BB00446BDF8AF
:103EF00060500895BDF85C5007959DF850500695A8
:103F00009DF84C5005959DF8485004959DF84450F7
:103F100003959DF8405002959DF83C500195BDF8E1
:103F2000385000951AF072FC064B20462360159B12
:103F3000E361169B2362199B63621A9BA3620BB019
:103F400030BD00BFA8340308704770477047704702
:103F50007047704770477047704730B444680346F5
:103F6000C2689B68551004EB6200D20748BF6259D3
:103F700030BC48BFD35818470346406830B19A68F0
:103F80001AB9D86800F0010070470120704710B5D9
:103F9000044610212BF07EF8204610BD10B50446D3
:103FA0004FF49C712BF076F8204610BD00F1980379
:103FB000994270B504460D4603D118F0B5FFFFF7DE
:103FC00041FF04F1E0039D4205D123682046DB6AEE
:103FD000BDE87040184770BD036870B504461B6BA0
:103FE000154698472368204629465B6BBDE870401C
:103FF00018470000F8B5194B0646018F1B888B4205
:104000002AD9174B1B682BB9164B6C21164A174837
:104010002BF086FF13F81120154B1B6853F8225024
:10402000144B186800F002FE2B68074628469B6B6D
:1040300098472B68044639469B6C2846984714FBE2
:1040400000F42B683946A4B228465B6A98472318C7
:104050001BB2A6F84630F8BD0023FAE71055012040
:104060000C550120083503084A3503088535030837
:1040700014550120185501202DE9F74F044600255D
:104080001AF0BEFD554B2646E5634FF4807204F1ED
:104090006C0A46F8403B04F19808514B04F1E007E4
:1040A000A4F8642001A9A4F8902050464D4A04F1D8
:1040B000040925664FF0030BE266A566C4E91035D6
:1040C000FF2384F866304FF6FF73C4E91255A4F855
:1040D000923084F89430ADF80430C4E91455C4E942
:1040E0001655C4E91C55C4E91E55C4E92055C4E958
:1040F000225516F03DFA404616F07CFB384616F085
:1041000079FB394B2A4629463046C4E94A34374BB5
:10411000C4E94C35FFF760FF30464FF4F071FEF70D
:1041200001FF30464FF48871FEF7FEFE4FF07F43EB
:1041300031464846A366042612F0C2FE2A462946A6
:104140005046FFF749FF01A95046ADF8045016F05C
:104150000FFA514648464FF0FF3512F0B1FE404687
:1041600056227821FFF738FF0DEB060269464046DC
:10417000ADF800B004F5947AADF8046016F096F846
:1041800005234046A4F8D030FFF734FF41464846A7
:10419000C4F8C0A0C4E9355512F092FE3846B022EA
:1041A0007821FFF719FF0DEB060269463846ADF896
:1041B00000B0ADF8046016F079F83846A4F818613C
:1041C000FFF718FF48463946C4F808A1C4E9475527
:1041D00012F076FE204603B0BDE8F08FEC35030800
:1041E000F85E03083C600308D4350308AD3F0008BF
:1041F000704770477047704730B444680346C268E0
:104200009B68551004EB6200D20748BF625930BC6E
:1042100048BFD35818470346406830B19A681AB966
:10422000D86800F0010070470120704710B50446BF
:1042300010212AF02FFF204610BD10B504464FF480
:104240009C712AF027FF204610BD00F19803994287
:1042500070B504460D4603D118F066FEFFF702FE66
:1042600004F1E0039D4205D123682046DB6ABDE8E6
:104270007040184770BD00002DE9F74F0446002537
:104280001AF0BEFC564B2646E5634FF4807204F1EB
:104290006C0A46F8403B04F19808524B04F1E007E1
:1042A000A4F8642001A9A4F8902050464E4A04F1D5
:1042B000040925664FF0040BE266A566C4E91035D3
:1042C000FF2384F866304FF6FF73C4E91255A4F853
:1042D000923084F89430ADF80430C4E91455C4E940
:1042E0001655C4E91C55C4E91E55C4E92055C4E956
:1042F000225516F03DF9404616F07CFA384616F085
:1043000079FA3A4B2A4629463046C4E94A34384BB2
:10431000C4E94C35FFF760FE30464FF4F071FEF70C
:1043200001FE30464FF48871FEF7FEFD4FF07F43EB
:1043300031464846A366032612F0C2FD2A462946A6
:104340005046FFF749FE082301A95046ADF8043056
:1043500016F00EF95146484612F0B2FD40466F2263
:104360007821FFF739FE4FF0FF350DEB0B02694660
:10437000404604F5947AADF80060ADF804B015F04D
:1043800095FF4046A4F8D060FFF734FE414648460A
:10439000C4F8C0A0C4E9355512F092FD3846C522D4
:1043A0007821FFF719FE0DEB0B0269463846ADF890
:1043B0000060ADF804B015F079FF02233846A4F888
:1043C0001831FFF717FE48463946C4F808A1C4E97A
:1043D000475512F075FD204603B0BDE8F08F00BFD1
:1043E0003C360308F85E03083C60030824360308E3
:1043F0004B420008806A70477047704770477047AB
:1044000090F82C304BB100F16C021268C2653BB1E0
:1044100000F174031B680366704700F16802F4E75B
:1044200000F17003F6E708B590F82C303BB100F1CD
:10443000C4031B68C0F8A830FFF7E2FF08BD00F115
:10444000C003F6E77047704730B444680346C2685B
:104450009B68551004EB6200D20748BF625930BC1C
:1044600048BFD35818470346406830B19A681AB914
:10447000D86800F0010070470120704790F82D3097
:1044800080F8AE3080F85A30704790F82D3080F8C0
:104490005A30704710B5044678212AF0FBFD2046BB
:1044A00010BD10B50446C8212AF0F4FD204610BD09
:1044B00010B5044610212AF0EDFD204610BD10B5C0
:1044C00004464FF41C712AF0E5FD204610BD10B5DE
:1044D0000446006B50B10368DB68984730B1206B2D
:1044E00021460368BDE810409B68184710BD00F5E1
:1044F00086728A4202D10368DB6A184770470B79DB
:1045000070B504460D4690F82C600BB916B170BD1D
:10451000002EFCD0B3FA83F320465B0984F82C30DC
:104520002368D3F88C309847236820465B69984706
:10453000002EECD02B79012BE9D123682046D3F84B
:104540008830BDE870401847036870B504469B6B1F
:1045500015469847236820462946DB6BBDE8704026
:10456000184738B504461D46FFF736FDBDF9102043
:1045700029462046FFF7E8FF38BD00004FF4807160
:1045800000228184054982620160C0E90122C0E9FC
:104590000322C0E90522C0E907227047785C0308BE
:1045A0000022C0E90122C0E90322C0E90522C0E9D6
:1045B00007224FF480728284014A0260704700BF74
:1045C0007436030810B50446262200212BF064FF40
:1045D0002046FFF7E5FF044B20462360FF2384F8C5
:1045E00026300023A36210BDF85E030870B50446B0
:1045F000FFF7C4FF4FF47F4300252646A385012320
:10460000256384F82430214B46F8343B3046FFF7CD
:10461000D9FF1F4B2A462946636330462566A4F816
:104620006450C4E91A55C4E91C55FFF7D5FC31465E
:104630002046264612F044FC164B2622294646F810
:10464000783B30462BF028FF3046FFF7A9FF124B8E
:1046500020463146A367114BC4F8A850C4F8A030D7
:104660004FF6FF73A4F8B050A4F8A4304FF47F03C2
:10467000C4F8B450C4F8AC304FF0FF33C4E930553F
:10468000C4E92E3512F01CFC204670BDDC36030850
:10469000D45F030878370308685E0308502F0308C7
:1046A0002DE9F04F04468BB000251AF0A9FAA34675
:1046B000A14B04F16C084FF6FF76E56304F1980A0C
:1046C0004BF8403B5846FFF77DFF262229464046DF
:1046D000ADF820602BF0E0FE404604F58677FFF74A
:1046E0005FFF964B08A94046E36604F50B79BDF8D9
:1046F000203084F89460A4F8923015F039FF5046C9
:1047000016F078F804F1E00318460393FFF75AFF18
:104710003846FFF76BFF04F5EA7318460493FFF77A
:104720002DFF04F5007318460593FFF727FF294670
:10473000262248462BF0B0FE4846FFF731FF4FF0E7
:1047400001032A46A4F85A6284F8503229467C4B69
:104750005846A4F85C62C4F82C327A4B84F85E6246
:10476000261DC4F8545284F85852C4E99834764B44
:10477000C4E99A354FF4887300934FF4F073FFF750
:10478000F0FE4FF07F4359463046A3664FF0050BCD
:1047900012F096FB2A4629464046FFF71DFC08A961
:1047A0004046ADF820B015F0E3FE414630464FF0EC
:1047B000410812F085FB5046762240F22311FFF7A4
:1047C0000BFC062308AA07A9ADF81C3007235046A6
:1047D000ADF8203015F06AFD4FF001035046A4F803
:1047E000D030FFF707FC4FF0FF335146304604F559
:1047F000C27AC4E9353312F063FB4346472203987B
:104800003E21CDF80080FFF7ACFE504B03993046B7
:10481000C4F8083112F054FB2A462946434604F5F1
:10482000A070CDF80080FFF79CFE494B3846A4F8F5
:1048300070B1C4F8743103F54C533333C4F8783194
:10484000A3F5CC43663BC4F87C3103F1331303F585
:104850004C53C4F88031D4F80C31D3F88C309847DD
:104860003C4B08A950460893ADF8245015F0C0FC05
:10487000B4F916215046B4F91411FFF765FE294624
:10488000434650461222CDF80080FFF76AFE324AB6
:10489000324B3846D4F80CA1C4E97323FFF7C3FDAB
:1048A0006C23384684F83931DAF89030984704F5AB
:1048B000187347223846C4F83C313E214346CDF8B0
:1048C0000080FFF74EFE3946304612F0F9FA4FF4F9
:1048D0008872F0232946049800922A46FFF741FE89
:1048E0000499304612F0ECFAF0234FF488720598E0
:1048F000194600922A46FFF734FE0599304612F019
:10490000DFFA484635224FF49B71FFF765FB4FF005
:10491000010308AA07A9ADF81C3002234846ADF8E8
:10492000203015F0C3FC3046494612F0C9FA204643
:104930000BB0BDE8F08F00BF2C3803083C600308C3
:10494000605F030814380308EF44000813EB5EFFB0
:10495000996600FF502F0308F5F5F5FF0A0A0AFFD4
:104960007047000030B5164D8FB02C68BFF35B8FD9
:1049700014F0010420D128462AF08EFBE0B13F2339
:10498000012210490993104B10480893104B0A94C8
:104990000594CDE906430423CDE903320A23CDE98A
:1049A0000B440093CDE90144FFF79EFA09482BF030
:1049B000D5FA28462AF07CFB04480FB030BD00BF72
:1049C000AC210020A07D0E90E8690308B0210020F2
:1049D000146A0308614900087047000030B5164D9D
:1049E0008FB02C68BFF35B8F14F0010421D12846EF
:1049F0002AF052FBE8B13F23152210490993104BCE
:104A000010480893104B0A940793012301940493D0
:104A1000CDE905430423CDE902431423CDE90B443A
:104A20000093FFF761FA09482BF098FA28462AF01C
:104A30003FFB04480FB030BDDC210020B07D0E905C
:104A4000EC690308E0210020186A0308D94900082E
:104A50007047000030B5164D8FB02C68BFF35B8FE8
:104A600014F0010420D128462AF016FBE0B13F23C0
:104A7000012210490993104B10480893104B0A94D7
:104A80000594CDE906430423CDE903322823CDE97B
:104A90000B440093CDE90144FFF726FA09482BF0B7
:104AA0005DFA28462AF004FB04480FB030BD00BF71
:104AB0000C220020D87E0E90106A030810220020DD
:104AC0001C6A0308514A0008002070470020704704
:104AD0000EB403B503AB002153F8042B019319F076
:104AE00099F902B05DF804EB03B070470CB407B558
:104AF00004AB53F8042B019319F08CF903B05DF863
:104B000004EB02B070470000436C10B5044673B369
:104B1000038F2BB9184BC521184A19482BF000FAFE
:104B2000C38E00EB43035B8C0BB31AF073FF238F30
:104B3000012B03D8134BCB21134AEEE7E28E40F64C
:104B40003F10531C9BB2092B194688BFA3F10A01E1
:104B500004EB4101498C814209D10A2B04EB42024A
:104B600028BF0023508C04EB430358845184204613
:104B7000BDE810401AF050BE5C38030865380308E1
:104B8000103903085A390308683903081AF00DBEB2
:104B900010B586B002AC84E806001A460AAB21467E
:104BA00005930193099B0093089B17F05BFD06B0EA
:104BB00010BD000038B518BB124B13481C681349D0
:104BC000B4B1226822440260626822440A60A2688A
:104BD00014440F4B00221A8000F038F8054600F00C
:104BE00033F80C4B1C600C4B1D600C4B188007E01D
:104BF0000B4B03600B4B0B600B4B1C68002CE8D17C
:104C000038BD00BF48220020402200203C22002066
:104C1000442200200C55012014550120105501207C
:104C2000007F0E90E87E0E906C7F0E90044B1B6808
:104C300053F82100034B1B6803EB4000704700BF93
:104C40003C22002040220020062070470048704788
:104C50004C22002010B5054CFFF7C0FE2060FFF786
:104C6000F9FE6060FFF77EFEA06010BD4C220020C0
:104C700010B5002404600C6014601C6010BD704707
:104C800010B504464FF4AE712AF004FA204610BD68
:104C900010B50446D0F8580100F013F82046BDE8DE
:104CA000104018F0EBB9000010B50446FFF786F885
:104CB000014B2046236010BD443A030800220260E5
:104CC00070477047704704387047704710B5044606
:104CD00010212AF0DFF9204610BDA0F10400F5E70D
:104CE0000022C1608260024A02601832426070474E
:104CF000983A03087047000001224021014800F063
:104D0000CBBD00BF00180240034B10B50446036042
:104D1000FFF720F9204610BDC03A030810B504463D
:104D2000FFF7F2FF4FF49C7120462AF0B3F92046BA
:104D300010BD000010B50446FFF79EF9014B204658
:104D4000236010BDC03A0308FFF705B97047043867
:104D50007047704710B5044610212AF09BF9204691
:104D600010BDA0F10400F5E70022C1608260024A94
:104D70000260183242607047F83A0308704700003A
:104D800000224021014800F087BD00BF001802400A
:104D9000034B10B504460360FFF72BFA204610BD05
:104DA000203B030810B50446FFF7F2FF4FF49C7157
:104DB00020462AF06FF9204610BD000010B50446C9
:104DC000FFF75AFA014B2046236010BD203B030831
:104DD000FFF710BA704704387047704710B50446A3
:104DE00010212AF057F9204610BDA0F10400F5E784
:104DF0000022C1608260024A02601832426070473D
:104E0000583B030870470000034B10B5044603608D
:104E1000FFF7F3FA204610BD803B030810B50446A7
:104E2000FFF7F2FF4FF41C7120462AF033F92046B9
:104E300010BD000010B50446FFF732FC014B2046C0
:104E4000236010BD803B0308FFF7D8BA38B5402176
:104E50000446174800F025FD4021154800F016FDD6
:104E6000012805461AD102464021114800F014FDE0
:104E7000104AFF2304F1E000C4F8082184F8CA3086
:104E800084F8245219F0F1F804F1980019F0EDF8C3
:104E900004F50070BDE8384019F0E7B80022402161
:104EA0000348002500F0F8FC034A4B23E2E700BF6B
:104EB0000018024013EB5EFFB2C4A7FF0F490020A9
:104EC000D1F8883043F47003C1F888300C4B1A686D
:104ED00042F001021A6098601A6822F0847222F48B
:104EE00080321A60074A5A601A6822F480221A60D7
:104EF000D8604FF000638B60704700BF00ED00E0AA
:104F00000038024010300024704700207047000035
:104F1000002337B58DF807300C4B1A780AB90122F7
:104F20001A700324C5B2013CA8212846FCF7A6FE4E
:104F300014F0FF048DF807009DF80730DBB201D0B4
:104F4000512BF0D19DF8070003B030BD5A2200204C
:104F500013B500240221C0B28DF80740FCF78EFE85
:104F60008DF807009DF8073003F00F038DF8073028
:104F70009DF80730052B01D98DF807409DF80720D3
:104F8000034B9DF807005A7000229A7002B010BDC2
:104F90005A2200202DE9F74F2F4C15464FF00008FC
:104FA0000F46A37862788DF807809A424DD9092B75
:104FB0004ED803EB43035B00DBB2191D03F1030B77
:104FC00003F1060A0533C9B25FFA8BFB5FFA8AFA6E
:104FD0005FFA83F8C6B2DFF884903046FCF74EFEE5
:104FE0008DF807009DF8073059463046A9F8003083
:104FF000FCF744FE8DF8070051469DF80730304617
:10500000B9F800201B0203F4706313433B80A9F836
:105010000030FCF733FE8DF8070041469DF807305D
:105020003046A9F80030FCF729FE8DF807009DF8FE
:105030000730B9F800201B0203F470631343A9F88A
:1050400000302B80A3780133A37003B0BDE8F08F4C
:10505000C246C3464146BDE75A22002058220020DE
:105060000122A421C0B2FCF7EFBD0022A421C0B2EE
:10507000FCF7EABDFFF7F9BF70470000024B1A7852
:105080000AB901221A7070475A220020074A0320E9
:1050900008B5136843F48073136000F02DF8002006
:1050A000FCF76CFCFCF732FA002008BD003C024023
:1050B000034A044B11681B780B441360704700BF10
:1050C0006022002038000020014B1868704700BFA4
:1050D0006022002038B50446FFF7F6FF0546631C42
:1050E0001EBF044B1B78E418FFF7EEFF431BA342DF
:1050F000FAD338BD3800002007490302CA6803F418
:10510000E06322F4E0621204120C134343F0BF6325
:1051100043F40033CB60704700ED00E0164B30B530
:10512000DC68C4F30224C4F10703251D042B28BF47
:105130000423062D4FF0FF358CBF033C002405FAF5
:1051400003F3002805FA04F521EA030322EA050225
:1051500003FA04F343EA02034FEA0313DBB206DB6C
:1051600000F1604000F5614080F8003330BD00F090
:105170000F00024A1354F9E700ED00E014ED00E0DF
:10518000002807DB4109012300F01F00024A834089
:1051900042F82130704700BF00E100E000280CDB3E
:1051A0004309012200F01F0004492033824041F8E6
:1051B0002320BFF34F8FBFF36F8F704700E100E0F4
:1051C000BFF35F8F044B5A6A22F480325A62002286
:1051D000C3F89420704700BF00ED00E0064B40F09C
:1051E0000100C3F894005A6A42F480325A62BFF355
:1051F0004F8FBFF36F8F704700ED00E04378144A84
:10520000C2F89830D2F8A03023F00103C2F8A030E1
:105210004368C2F89C30C37A017B1B0643EA0173E2
:1052200001780B43817A43EAC143417B43EA8143DE
:10523000817B43EA4143C17B43EA0143417A43EA2C
:105240000123017A43EA4103C2F8A030704700BF4E
:1052500000ED00E010B5044608B9012010BD437F01
:1052600003F0FF0213B90277FCF76EF902236377AC
:105270002379E3B92368134A5A619A6822F0180225
:105280009A6062792368D2B94FF0FF321A61002028
:105290009A68616922F060020A43A1699A609A687B
:1052A00022F080020A439A6001236377D6E7D4E9AB
:1052B0000212204600F008F80028E2D0CDE722696B
:1052C000E4E700BFB71DC104CB0710B50DD51F2300
:1052D000013B1DD321FA03F4E407F9D5102A13D0BA
:1052E000102A04D83AB1082A10D001200BE0182A5D
:1052F000FBD1062BF9D800684161836823F01803BD
:1053000013438360002010BD072BF3E70F2BF1E759
:10531000102AE5D1E9E770B50446866DFFF7D4FEA3
:10532000054694F83530022B06D0802301206365B2
:10533000002384F8343070BD23681A6822F0160206
:105340001A605A6922F080025A61226C0AB9A26C72
:105350001AB11A6822F008021A601A6822F00102D3
:105360001A602368186810F0010007D1E26D3F232E
:105370009340B360012384F83530D9E7FFF7A4FEEA
:10538000401B0528EDD920230320636584F83500F0
:10539000CEE710B5044630B390F8393003F0FF0281
:1053A0001BB980F83820FCF7E5F822680223616811
:1053B000002084F83930136823F440330B43A1688C
:1053C0001360536B23F007030B43E1685363136CC3
:1053D00023F47F5323F03F030B4313640123E06363
:1053E00084F8393010BD0120FCE77047704703682E
:1053F00070B55E6804461D68F20714D5E90512D53C
:105400001A6822F480721A60C26B42F00102C26311
:1054100001229A60042380F83930002380F8383064
:10542000436903B19847B20616D5AB0414D5236877
:105430001A6822F400521A6020229A60E36B43F04B
:105440000203E363042384F83930002384F83830FE
:1054500063690BB120469847300716D5290514D546
:1054600023681A6822F400621A6008229A60E36BCB
:1054700043F00403E363042384F83930002384F801
:10548000383063690BB12046984772070BD56B051E
:1054900009D5236820461A6822F480621A60042223
:1054A0009A60FFF7A2FFB00714D5A90512D52368AB
:1054B0001A6822F400721A6002229A60E36BE363B6
:1054C000012384F83930002384F8383023690BB184
:1054D00020469847F20613D5EB0411D523682046E1
:1054E0001A6822F480521A6010229A60E36BE36318
:1054F000012384F83930002384F83830FFF776FF31
:1055000070BD0000F0B590F8382003460220012A53
:105510002BD0012283F839000E011C4F83F838206C
:1055200003EB0112D2E90740556A44EA0040093C06
:10553000012C96BF05F07F4240EA056010431A68CF
:10554000A1B9516A012C01EA070141EA0001516247
:105550009969916103D8596A21F07F4191620122D2
:10556000002083F8392083F83800F0BDD169012C80
:1055700001EA070141EA0001D16103EB06018969F3
:105580001161ECD825F07F451562E8E7F0FFFC00DB
:105590002DE9F74F0023DFF8BC916C4A01240D6818
:1055A0009C4004EA0506AC4340F0B7804D680327F1
:1055B0004FEA430E05F0030407FA0EFC671E6FEA7C
:1055C0000C0C012F34D8876807EA0C08CF6807FA5B
:1055D0000EF747EA08078760476827EA0608C5F319
:1055E00000179F4047EA08074760C768022C07EA90
:1055F0000C088F6807FA0EF747EA0807C76019D149
:105600004FEAD30803F0070A4FF00F0B00EB8808AE
:105610004FEA8A0AD8F820700BFA0AFB27EA0B0B2C
:105620000F6907FA0AF747EA0B07C8F8207001E08C
:10563000032CDAD1076804FA0EF415F4403F07EAA8
:105640000C0744EA0704046067D0D9F8444023F00B
:10565000030703F0030C4FF00F0E44F4804407F1EE
:1056600080474FEA8C0CC9F8444007F59C37D9F8BD
:1056700044400EFA0CFE04F480440194019CBC6882
:1056800024EA0E0E324CA0424ED004F58064A042B3
:105690004CD004F58064A0424AD004F58064A04256
:1056A00048D004F58064A04246D004F58064A0424E
:1056B00044D004F58064A04242D004F58064A04246
:1056C00040D004F58064A0423ED004F58064A0423E
:1056D00014BF0A24092404FA0CF415F4801F44EAC8
:1056E0000E04BC606FEA060794680CBF3C4034436C
:1056F00015F4001F9460D4680CBF3C40344315F48B
:10570000003FD46054680CBF3C403443ED03546008
:10571000146854BF3C40344314600133102B7FF4B1
:105720003DAF03B0BDE8F08F0024D4E70124D2E7F9
:105730000224D0E70324CEE70424CCE70524CAE7FB
:105740000624C8E70724C6E70824C4E7003C014054
:1057500000000240003802402DE9F04F00224FF0D7
:10576000010A4FF00F084FF0030B464C0AFA02FCF7
:105770003CEA01030CEA01066CD122F0030502F0B9
:10578000030705F18045BF0005F59C3508FA07F9C8
:10579000AB6809EA030E3C4B984260D003F5806386
:1057A00098425ED003F5806398425CD003F5806335
:1057B00098425AD003F58063984258D003F580632D
:1057C000984256D003F58063984254D003F5806325
:1057D000984252D003F58063984250D003F580631D
:1057E00098420CBF09230A23BB40734513D1236899
:1057F00023EA06032360636823EA06036360E36821
:1058000023EA0603E360A36823EA0603A360AB6808
:1058100023EA0903AB6053000568D6080BFA03F3CB
:1058200000EB860625EA0305056002F00705376AE6
:10583000AD0008FA05F527EA05073762C56825EACD
:105840000305C560456825EA0C054560856825EABD
:10585000030383600132102A88D1BDE8F08F002352
:10586000C2E70123C0E70223BEE70323BCE704230A
:10587000BAE70523B8E70623B6E70723B4E708230A
:10588000B2E700BF003C014000000240036919423A
:1058900014BF0120002070470AB1816170470904DC
:1058A000FBE7436901EA030221EA030141EA0241FD
:1058B0008161704703689A69910701D500229A6255
:1058C0009A69D20703D49A6942F001029A6170473B
:1058D00030B5039DC1F3090104682B43606843EAB6
:1058E0000243054A0B4342EA555223F0004320EAA3
:1058F00002000343636030BDFF63FF0303682DE9CB
:10590000F0419C6905460F46164614F010046FD00E
:1059100000241022A046DA612B689A69900661D4AF
:10592000B8F1000F35D044F0040401202E68B369AB
:10593000D90505D54FF4807244F001040120F261CD
:105940005A0505D54FF4806244F008040120F26145
:105950009B054FD54FF4007344F00204F3612846D1
:10596000FFF7A8FF7368012023F0FF7323F48B3344
:1059700023F4FF7323F0010373606B6C23436B64A8
:10598000202385F84130002385F8423085F84030E7
:1059900032E07A1CC1D0FFF797FB801BB84201D8D8
:1059A000002FB9D12B68596895F842209869D2B276
:1059B00000040AD5490408D4202A06D05A6842F4C3
:1059C00080425A60FFF780FB06462B689B699B0666
:1059D000A2D4FFF779FB801B1928F6D920244FF0B9
:1059E000010899E7B8F1000F9DD12022DA619AE70A
:1059F00020469BE70028B2D1BDE8F08170B504468F
:105A00000D46164623689B699B0701D500201FE0C1
:105A1000324629462046FFF771FFC0B96A1CF1D013
:105A2000FFF752FB801BA84201D8002DEAD1236862
:105A30009B6913F00203E5D1626C84F8403042F0B8
:105A400020026264202284F8412084F84230012040
:105A500070BD2DE9F041DDF8188004460F4616466A
:105A60001D4623689B6937EA03030CBF012300230B
:105A7000B34201D0002025E0424629462046FFF7E8
:105A80003DFFF0B96B1CECD0FFF71EFBA0EB08004C
:105A9000A84201D8002DE4D123689B6937EA0303AB
:105AA0000CBF01230023B342DBD1636C43F020031E
:105AB0006364202384F84130002384F8423084F862
:105AC00040300120BDE8F08170B504460D46164611
:105AD00023689B699B0601D500201DE032462946BC
